:020000040800F2
:1000000030700020E1010008798C0008357E00087E
:10001000758C0008E53E00086D95000800000000A2
:10002000000000000000000000000000490100087E
:100030006F3F0008000000008D010008C18D00081E
:10004000FB010008FB010008FB010008FB010008A0
:10005000FB010008FB010008FB010008FB01000890
:10006000FB010008054400080F440008413F000858
:10007000FB010008FB010008FB010008FB01000870
:10008000FB010008FB010008FB010008FB01000860
:10009000FB010008FB010008FB01000819440008EF
:1000A000FB010008FB010008FB010008FB01000840
:1000B000FB010008FB010008FB010008FB01000830
:1000C000FB010008FB010008FB010008FB01000820
:1000D000FB010008FB0100085D950008FB0100081A
:1000E000F9430008FB010008FB010008FB010008C0
:1000F000FB010008FB010008FB010008FB010008F0
:10010000FB010008FB010008FB010008FB010008DF
:1001100089910008FB010008798E0008FB010008A6
:10012000FB010008FB010008FB010008FB010008BF
:10013000DFF810D000F026FC00480047F5A20008C8
:10014000AFF3008030700020224B19680868B0E8D7
:10015000F00F80F30988BFF36F8F4FF0000080F33A
:1001600011884EF00D0E7047000000000648006830
:10017000006880F3088862B661B6BFF34F8FBFF3A3
:100180006F8F00DF00BF00BF08ED00E0EFF30980D4
:10019000BFF36F8F0F4B1A6820E9F00F106008B59E
:1001A0004FF0500080F31188BFF34F8FBFF36F8F74
:1001B0000CF0BAF94FF0000080F31188BDE8084058
:1001C00019680868B0E8F00F80F30988BFF36F8FF3
:1001D000704700BFC8000020EFF3058070470000A3
:1001E0000648804706480047FEE7FEE7FEE7FEE7D1
:1001F000FEE7FEE7FEE7FEE7FEE7FEE7778E000894
:10020000310100082DE9F05F0546002092469B462B
:1002100088460646814640241BE02846414647461C
:10022000224600F020F853465A46C01A914110D396
:1002300011461846224600F09BF92D1A67EB01087B
:100240004F4622460120002100F092F917EB0009E9
:100250004E41201EA4F10104DFDC484631462A4607
:100260004346BDE8F09F202A04DB203A21FA02F041
:100270000021704721FA02F3D040C2F120029140E0
:1002800008431946704740EA01039B0703D009E081
:1002900008C9121F08C0042AFAD203E011F8013B72
:1002A00000F8013B521EF9D27047D2B201E000F8CB
:1002B000012B491EFBD270470022F6E710B513460A
:1002C0000A4604461946FFF7F0FF204610BD421CBF
:1002D00010F8011B0029FBD1801A704710B50022CD
:1002E00000E0521C835C8C5CA34201D1002BF8D14E
:1002F000D8B2E1B2401A10BD30B505460020034621
:1003000000E05B1C934205D2EC5CC85C201A01D172
:10031000002CF6D130BDF0B480EA0102D40F4200C7
:10032000B2EB410F02D20246084611464A0042D0C3
:10033000C30DDDB2C1F3C752AD1A202D35DAC1F3BA
:10034000160141F4000204B15242C5F1200602FA3E
:1003500006F12A411044B3EBD05F23D0C4B1012D84
:10036000A0EBC35009DCF0BC4FF0004202EAC352DC
:10037000DBB200F5000000F013B9400000F180701E
:1003800000EBC350A0F1807040EAD170490009E051
:10039000490841EAC071A0EBC35000F500004008D5
:1003A00000EBC350F0BC00F0F2B86142012202EB56
:1003B0004101001BF6E7F0BC704781F00041AAE75D
:1003C00080F00040A7E780EA010210B502F0004388
:1003D000400022D04A001FD0010E01EB1261C0F391
:1003E0005600C2F3560240F4000042F40002A0FBA3
:1003F000022000047F39140400D0401C50EA12404F
:1004000001D44000491EC2B20C0604EBD010401CBF
:100410004008802A02D003E0002010BD20F0010037
:10042000002900DA0020184310BD30B480EA010230
:1004300002F0004530F0004221F0004013D090B1AE
:10044000C30DD40DC2F31601C0F31600E41A41F433
:10045000000140F400027D34914201D3641C00E0AD
:100460004900002C02DA30BC002070474FF4000035
:100470000023914201D3891A034340084FEA410106
:10048000F7D151B1914202D14FF0004105E002D2C3
:100490004FF0010101E06FF0010103EBC45028446B
:1004A00030BC00F074B8C10F80EAE0700844CA079D
:1004B0009623002100F074B896230022114600F024
:1004C0006FB800F0004220F00040C10DC0F31600EC
:1004D00040F400007F2901DA00207047962903DCF0
:1004E000C1F19601C84001E096398840002AF4D055
:1004F0004042704720F00040C10DC0F3160040F4A8
:1005000000007F2901DA00207047962903DCC1F141
:100510009601C8407047963988407047002801DB33
:10052000C0F10040002901DBC1F100418142704768
:10053000002801DBC0F10040002901DBC1F10041CE
:100540008842704730B50B46014600202022012426
:1005500009E021FA02F59D4205D303FA02F5491B91
:1005600004FA02F52844151EA2F10102F1DC30BDA7
:10057000202A04DB203A00FA02F100207047914063
:10058000C2F1200320FA03F3194390407047002979
:10059000A8BF7047401C490008BF20F00100704709
:1005A00010B4B0FA80FC00FA0CF050EA010404BF69
:1005B00010BC704749B1CCF1200421FA04F411FABF
:1005C0000CF118BF012121430843A3EB0C01CB1D03
:1005D0004FEA00614FEA102042BF002010BC704774
:1005E00000EBC35010440029A4BF10BC7047401C4E
:1005F000490008BF20F0010010BC7047420005D040
:10060000C0F3C7525242914201DC0020704700EB18
:10061000C15070472DE9FE4F804681EA0300C00FAC
:100620000C46009021F0004123F00045B8EB020099
:10063000A94105D24046214690461C460B4602463B
:1006400023F00040104347D0270DC7F30A00C3F33F
:100650000A510290401A019040286BDAC3F313004C
:1006600040F4801B0098924620B10023D2EB030A8D
:1006700063EB0B0B01985946C0F140025046FFF75F
:1006800077FF06460D4650465946019A00F08CF910
:1006900010EB08006141002487EA115284EAE773F5
:1006A0001A4340D0009A62B3019A012A4FEA0752D6
:1006B00015DC001B61EB02014FF0004202EA075219
:1006C000CDE90042001C41F5801132462B4600F076
:1006D0008CF903B0BDE8F08F40462146F9E7001BD6
:1006E00061EB0201001C41F5801300185B412018EA
:1006F000A2F5001747EB030140EAD570B6196D412A
:1007000011E06D084FEA360645EAC0754FEA075218
:10071000001B61EB0201001C41F5801149084FEA02
:1007200030000019514132462B4603B0BDE8F04F6E
:1007300000F04CB90098012240000023D0EB0202E7
:1007400063EBE073009821464FEAE074B8EB0000D9
:1007500061EB0401E9E783F000435BE781F00041CE
:1007600058E72DE9FE4F81EA030404F0004421F02C
:10077000004100944FF0000B23F0004350EA0104C5
:100780005ED052EA03045BD0C3F30A54C1F30A55A6
:100790002C44A4F2F3340194A0FB0254C1F31301DE
:1007A00041F48011C3F3130343F4801301FB0244AB
:1007B00000FB034E840A970A44EA815447EA8357B0
:1007C000A4FB076802958D0A05FB07854FEA932C69
:1007D00004FB0C542705029D4FEA065847EA1637DA
:1007E000B5EB08056EEB070C870E920E47EA8117F2
:1007F00042EA8312A7FB0201B6EB0B0164EB000493
:100800002B0D43EA0C335E1844EB1C50DA4651467C
:10081000E7FB0201C5F313044FEA0B3343EA145319
:100820004FEA0432019C43EA0603A4F10C0402944B
:10083000009CCDE900B400F0D8F803B0BDE8F08F1B
:1008400000200146F9E72DE9F04D81EA030404F0A8
:10085000004B21F0004514464FF0000A23F0004100
:1008600050EA050220D054EA01021DD0C5F30A5710
:100870000246C5F31303C1F31300C1F30A5640F453
:10088000801543F48013A7EB0608101BD64608F228
:10089000FD3873EB050002D308F1010801E092185E
:1008A0005B41B8F1000F03DA00200146BDE8F08D8E
:1008B00000204FF48011064684460EE0171B73EBB0
:1008C000050705D3121B63EB050306434CEA010C35
:1008D00049084FEA300092185B4150EA0107EDD118
:1008E00052EA030012D082EA040083EA05010843B9
:1008F00005D0101BAB4106D20122002306E00022E6
:100900004FF0004302E06FF0010253101AEB0600B3
:100910004CEB085110EB0A0041EB0B01BDE8F04D28
:1009200000F054B8C1F30A52C1F3130140F2FF338F
:1009300041F480119A4202DA00200146704740F2E9
:1009400033439A42A2F2334202DC5242FFF78BBC9D
:10095000FFF70EBE30B5041E71F1000404DB4FF04A
:100960000044404264EB0101141E73F1000405DBF6
:100970001C464FF00043524263EB0403994208BF08
:10098000904230BD064C074D06E0E06840F00103A0
:1009900094E8070098471034AC42F6D3FFF7CCFB3D
:1009A00078F2000898F20008202A06DBCB17203ADC
:1009B00041FA02F043EAE07306E041FA02F3D04064
:1009C000C2F12002914008431946704710B5141E29
:1009D00073F1000408DA401C41F1000192185B41F8
:1009E0001A4301D120F0010010BD2DE9F04D9246CF
:1009F0009B4611B1B1FA81F202E0B0FA80F22032E6
:100A00009046FFF7B5FD04460F4640EA0A0041EA6A
:100A10000B0153465A46084313D0114653EA0100CE
:100A200019D0C8F140025046FFF71DFC05460E469E
:100A3000504659464246FFF79BFD084305D001202A
:100A400004E020463946BDE8F08D0020054346EA23
:100A5000E0762C4337430A986305E40AA0EB0800CC
:100A60000022FD0A44EA47540A3002D5002001461C
:100A7000E9E7010510196941DDE9084500196941F7
:100A8000BDE8F04DA2E730B58C1810F8012B12F03C
:100A90000F0301D110F8013B120906D110F8012B08
:100AA00003E010F8015B01F8015B5B1EF9D101E086
:100AB00001F8013B521EFBD1A142E6D3002030BD1C
:100AC00070B5044600252068806800F0010018B366
:100AD0002068806820F001002168886004F056FBDF
:100AE000054613E004F052FB401B02280ED9206893
:100AF000806800F0010048B1A06A40F01000A062D8
:100B0000E06A40F00100E062012070BD206880686A
:100B100000F001000028E5D10020F6E770B5054699
:100B20006C6AA06A00F05000E0B9A06A40F400705E
:100B3000A0622068806800F46020B0F5602F0DD1BD
:100B4000207B58B9A06A20F48070A062A06A00F4EB
:100B5000805018B9A06A40F00100A062204603F05E
:100B6000A1FD03E0206A016B2846884770BD70B57F
:100B700005466C6AA06A40F04000A062E06A40F05E
:100B80000400E062204603F08FFD70BD70B504469E
:100B9000656A284603F087FD70BD000038B504463D
:100BA0000025002000902068806800F0010078BBDC
:100BB0002068806840F0010021688860194800685A
:100BC0001949B0FBF1F0009002E00098401E00903F
:100BD00000980028F9D104F0D9FA054619E004F08C
:100BE000D5FA401B022814D92068806800F0010063
:100BF00078B9A06A40F01000A062E06A40F00100FD
:100C0000E06200BF002084F8240000BF012038BD4E
:100C100005E02068806800F001000028DFD0002097
:100C2000F5E700000C00002040420F001CB50A4808
:100C3000007808B900201CBD002001210346C02215
:100C4000CDE9001005A108480CF038F9012800D1C1
:100C5000F1E70020EFE700008F000020426C75658F
:100C6000746F6F74680000002D0E00081CB50446F8
:100C7000022218A12046FFF73FFBB0B116A1204683
:100C8000FFF72CFB88B115A12046FFF727FB60B1C9
:100C900020782B2809D013A12046FFF71FFB20B195
:100CA00013A12046FFF71AFB00B91CBD6946204678
:100CB00000F03CF840B1684602F0C2F920B10821CA
:100CC0000E4807F023FCF0E70B210D4807F01EFC4F
:100CD00000BFEAE7415400004F4B00004552524F1D
:100CE00052000000434F4E4E454354204F4B0000EE
:100CF000444953434F4E4E454354000058DA0008D0
:100D000061DA000810B507F0BFFB02490870084619
:100D1000007810BD8F0000200146302903DB3929FF
:100D200001DC012070470020FCE7000030B587B0EF
:100D300005460C4675B16CB12846FFF7C8FA112874
:100D400008D104222AA12846FFF7D6FA10B9A87ABA
:100D50002C2802D0002007B030BD01A9281D00F0CA
:100D60004BF8E0B106A9A81D00F046F8B8B105A9F6
:100D700005F1080000F040F888B104A905F10B0066
:100D800000F03AF858B103A905F10D0000F034F86D
:100D900028B102A905F10F0000F02EF808B90020D3
:100DA000D9E79DF8040000F5FA60E0809DF818008E
:100DB00060719DF8140020719DF8180058B19DF8DD
:100DC00018000C2807D8E0889DF814209DF818100A
:100DD00000F056F800E00020E0709DF81000A070D0
:100DE0009DF80C0060709DF8080020700120B2E7AB
:100DF0005254432C0000000070B504460D4644B127
:100E00003DB12078FFF788FF18B16078FFF784FFC5
:100E100008B9002070BD607830382178303901EB96
:100E2000810100EB410028700120F3E78AB0002423
:100E300000BF1BE09DF824000A2808D1002001A96A
:100E4000085514B101A8FFF711FF00240EE09DF82A
:100E500024000D280AD01F2C07D29DF824202046FC
:100E6000611C8CB201A90A5400E0002409A807F013
:100E70002BFB0028DED10A200BF024F9D9E7000073
:100E8000F0B504460B462146032B01D2481E81B221
:100E90006420B1FBF0F001EB9106301A4FF4C876F4
:100EA000B1FBF6F60644581E064F385C3044104439
:100EB0000726B0FBF6F706FB17050DB90720F0BDB6
:100EC0002846FCE74CDA0008F8B506460C461A48F6
:100ED000007800B9F8BDACB91848007838BB00F00C
:100EE000A7F80CF079F90546002003462A460121AF
:100EF0000090134800680CF0FFFC01281AD000F0A5
:100F0000BFF817E0022C01D1012000E000200B49BE
:100F1000087000200346024603210090084800683C
:100F20000CF0EAFC0548007810B100F081F801E00F
:100F300000F0A6F800BFCDE7140000201500002047
:100F40001000002008B51148007808B1012008BD44
:100F500041F294100E490968486300F091F80D4879
:100F600000231A46322100900BA00CF07FFC0C49A4
:100F700008600846006808B90020E8E70020094931
:100F8000087001200149087000BFE0E7140000204C
:100F9000BC0200201D10000842757A7A65720000BC
:100FA000100000201500002038B504464FF0000066
:100FB000009000BFEFF3058098B16B4622460021F8
:100FC0000B480CF00BFD012811D100BF009838B17F
:100FD0004FF0805007490860BFF34F8FBFF36F8F0A
:100FE00005E000232246194601480CF0CFFC38BD2D
:100FF000C90E000804ED00E010B50446064800786C
:1010000000B910BD0CB1022100E001210846FFF734
:10101000CBFF00BFF5E700001400002010B5044628
:101020000248007808B900F02BF810BD1500002028
:1010300010B541F294100449096848630021024840
:1010400006F006FB10BD0000BC02002010B50B48E6
:10105000007800B910BDFFF7EBFF502003F0BCFE95
:1010600000F00EF8282003F0B7FEFFF7E1FF502054
:1010700003F0B2FE00F004F800BFEBE7140000201C
:1010800010B50021014806F05DFB10BDBC02002038
:10109000704710B5044600212046FFF73FFA02D200
:1010A00084F0004010BD2046FCE700002DE9F0412F
:1010B000064600213046FFF731FA0BD800F01EFB40
:1010C0002048007820B100201E49087000F062F826
:1010D000BDE8F08100F0F0FA01201A490870012201
:1010E0000221194804F04CF818480068C06A441CF2
:1010F0002046FFF7E1F980463146FFF764F90746DD
:10110000FFF7F8F90546A54200D3651E0F480068B1
:1011100045630F48007888B900210C4806F098FA1A
:1011200048B10020094909684863002202210648A5
:1011300004F026F8CCE701200549087005488660D0
:1011400000BFC5E78D000020000801400403002017
:1011500074000020100A002070B504460025681EA7
:1011600002F060FA88B10A48007D01280BD10848D6
:10117000806A40B90648B0F90400002803DD204623
:10118000FFF794FF012502F0CFFA284670BD00005A
:10119000FC04002010B501220221074803F0F0FFF3
:1011A0000CF01AF84EF6602108440449086001204A
:1011B0000349087010BD00000008014088000020AD
:1011C0008C0000202DE9FF5F4FF00008C14600278A
:1011D00000204D4908604D4908604D4908604D495F
:1011E0000870824628E002A802F0C2FEE8B1BDF80D
:1011F0000A0000F0EBF9C0B1BDF80C0000F0E6F910
:1012000098B1BDF80A0000F0A5F983464146FFF702
:1012100082F88046BDF80C0000F09CF983464946F0
:10122000FFF779F88146781CC7B264200AF04AFFBC
:101230000AF1010000F0FF0ABAF10A0FD3D3032F1D
:1012400004D235A002F050FEBDE8FF9F3846FFF7FC
:1012500033F9834659464046FFF7E7F804463846D7
:10126000FFF72AF9834659464846FFF7DEF8054658
:1012700029462046FFF7A1F80190FFF70AFF8346B1
:101280004FF08241FFF754F90DD22846FFF719F9C4
:1012900083462046FFF715F95A460146019027A0DC
:1012A00002F022FED0E729462046FFF734F88346B5
:1012B0004FF07C51FFF787F8064621463046FFF78E
:1012C0007CF81249086029463046FFF776F8104945
:1012D00008600D48066001200E4908700C4800683F
:1012E000FFF7EFF8834609480068FFF7EAF8019036
:1012F0003046FFF7E6F85B46009001461CA0019AD5
:1013000002F0F2FD00BF9FE7780000207C00002083
:1013100080000020840000204845415420636F6C09
:10132000642063616C6962726174696F6E20756EAE
:10133000617661696C61626C650D0A0048454154D3
:1013400020636F6C642063616C6962726174696FA1
:101350006E20736B697070656420626F6172643AAD
:101360002564206C69717569643A25640D0A000072
:101370004845415420636F6C642063616C696272FC
:101380006174696F6E206F6B207265663A25642008
:10139000626F6172644F66733A2564206C6971757F
:1013A00069644F66733A25640D0A000070B50446FF
:1013B0000D480078A8B10D4801682046FFF7B8F83D
:1013C0000FD20A4801682046FEF7F7FF0646084993
:1013D000FEF7F9FF0546054801682846FEF79BFF22
:1013E00070BD2046FCE7000084000020780000204B
:1013F0006666E63F1CB50848022100234FF4C07220
:10140000CDE9001005A107480BF058FD012800D1D7
:101410001CBD0020FCE700007000002048656174DE
:10142000657200002917000870B504460D4600F0EB
:1014300051F9204602F00CF90120FFF7DDFD0448C8
:10144000007810B901200249087002F031FA70BD2D
:101450007500002038B5044600200090082C13D1F8
:101460000A48006880B16A460021084800680AF00E
:1014700057FE00BF009830B1600605490860BFF311
:101480004F8FBFF36F8F00BF38BD0000700000208A
:1014900004ED00E010B500F01DF900F005F90020A2
:1014A0000F4908700F4908600F4908600F4908602C
:1014B0000F4908700F4908600F4908700F490870FC
:1014C000002204210E4803F05BFE022003F084FC9E
:1014D000012204210A4803F053FE012010BD000040
:1014E00075000020780000207C0000208000002093
:1014F00084000020880000208C0000208D00002047
:10150000001001402DE9F04106460C460E492046E8
:10151000FFF70EF802D80020BDE8F0810B49204605
:10152000FFF706F80DD221460748FEF746FF0746AB
:101530000749FEF77AFF054629463046FEF743FF86
:1015400006463046E8E700000000BE420000964232
:101550000000A0412DE9F04704462046FEF7ACFF0D
:1015600081461549FEF72CFF07462046FEF7A4FFEB
:1015700081461249FEF727FF80463946FEF755FFA0
:1015800005460E492846FEF750FF814608F0EAFD61
:1015900080460B49FEF749FF07460A49FEF7BBFEA6
:1015A000064631464FF07E50FEF73FFF074606499C
:1015B000FEF703FFBDE8F08700F07F4500401C46C2
:1015C00000B09A450FCF5B3B339388430146052912
:1015D00005D940F6FA70814201D2012070470020FF
:1015E000FCE700002DE9FC5F074688464FF07C5A77
:1015F00041463846FEF7E1FE044600212046FEF74C
:101600008DFF04D800F050F80020BDE8FC9F4FF09B
:101610007C512046FEF7D7FE81461E4801684846A9
:10162000FEF779FE1B49086008681B49FEF780FF3A
:1016300002D2194817490860164841682046FEF74B
:10164000BCFE81464FF07C51FEF7EFFE0546294671
:101650000020FEF7B8FE01900E4801680F48FEF723
:10166000B2FE834621460E48FEF7ADFE5946009075
:10167000FEF751FE81460199FEF74DFE06460548EC
:10168000446008493046FEF753FF00D2054E30460D
:10169000BBE70000100A0020000096436F12033BD6
:1016A0008FC2F53C9A99193F0020024908604860B2
:1016B00088607047100A002010B5012202210348FB
:1016C00003F05EFD00200249087010BD00080140D3
:1016D0008C00002010B500F011F80022022104480F
:1016E00003F04EFD0020034908700349087010BD47
:1016F000000801408C0000208D00002010B5002063
:101700000649096848630021044806F01BF80020D8
:10171000034908700349886010BD000004030020DD
:1017200074000020100A00208AB000240025FFF772
:1017300049FD0BF051FD804600BF4FF4FA720121C4
:1017400000200AF075FA08216F4803F011FD20B956
:101750006EA11020FFF768FEEFE708A802F008FC72
:1017600040B9601CC4B2032C03D36EA12020FFF744
:101770005BFEE2E70024BDF8200040F6FA718842E3
:1017800003D2BDF82600884208D3681CC5B2032DD9
:1017900003D36AA12020FFF747FECEE70025BDF85E
:1017A0002200FFF713FF20B1BDF82400FFF70EFF62
:1017B00020B969A10420FFF737FEBEE7BDF822007B
:1017C000FFF7C8FE8246BDF82400FFF7C3FE83463C
:1017D000684801685046FEF79EFD824666480168EB
:1017E0005846FEF798FD83465046FFF7DFFD8246D8
:1017F0004FF0FF3001F016FFB8B14FF07C5150466A
:10180000FEF789FD8146FEF75CFE00B25B49488029
:101810004FF07C515846FEF77EFD8146FEF751FEA3
:1018200000B25649088001F07FFF02F041F85449A8
:101830005046FEF77DFE04D952495846FEF778FE21
:1018400004D851A10820FFF7EFFD76E70026002716
:10185000701E01F0E7FE48B14848067D0146B1F927
:101860000400FEF720FE074601F05EFF02F020F8BC
:10187000012E17D100213846FEF75AFE12D25946E2
:101880003846FFF7AFFE079051460798FFF73AFE3C
:1018900007900798FFF760FC40B9FFF705FFFFF7D7
:1018A00019FF03E0FFF700FFFFF714FF00F022F934
:1018B0000BF092FCA0EB0800B0F5FA6F23D30BF00D
:1018C0008BFC8046364988683649FEF77CFD0390DC
:1018D000FEF710FE81465046FEF7F3FD069058468F
:1018E000FEF7EFFD05903846FEF7EBFD0490BDF8DE
:1018F0002200BDF82410CDE9009102902AA004A98D
:101900000EC902F0F1FA18E7001001404865617451
:101910006572206861726477617265206661756CBA
:10192000740000004865617465722041444320756D
:101930006E617661696C61626C6500004865617416
:101940006572204144432076616C75652061626E4A
:101950006F726D616C000000486561746572204EA5
:101960005443206F70656E206F722073686F7274BD
:10197000000000007C00002080000020FC0400200B
:101980000000DC4200000243486561746572206F0C
:1019900076657274656D706572617475726500004C
:1019A000100A00200000C84248454154207461726A
:1019B0006765743A2564206C69717569643A2564B9
:1019C00020626F6172643A256420647574793A25E7
:1019D000752525207261773A25752F25750D0A002A
:1019E0002DE9FC413C274FF0FF3001F01BFE10B900
:1019F0000020BDE8FC813848846A01F095FE04F0BF
:101A00003C0008B90020F4E70821344803F0B0FB9B
:101A100008B90020EDE7684602F0AAFA98B1BDF8CF
:101A2000000040F6FA7188420DD2BDF806008842E7
:101A300009D2BDF80200FFF7C9FD20B1BDF80400CE
:101A4000FFF7C4FD08B90020D3E7BDF80200FFF797
:101A500081FD8046224801684046FEF75CFC064650
:101A6000BDF80400FFF776FD80461E480168404639
:101A7000FEF751FC05463046FFF798FC06461A492A
:101A80003046FEF755FD04D918492846FEF750FDAB
:101A900001D80020ADE700220421104803F070FBBC
:101AA000022003F099F9012204210C4803F068FB9D
:101AB00008210A4803F05CFB08B9002099E73C20A4
:101AC00001F01CFD08B9002093E7002008490870C8
:101AD00001F0EEFE01208CE7FC0400200010014024
:101AE0007C000020800000200000DC420000024357
:101AF0007500002010B50948007868B10BF06CFB48
:101B000007490968401A07D400220221054803F05A
:101B100037FB00200149087010BD00008C00002038
:101B200088000020000801401CB50A48006808B180
:101B300001201CBD074802210023CA01CDE9001085
:101B400005A106480BF0BAF9012800D1F1E7002001
:101B5000EFE7000090000020494D55009D1D000852
:101B600038B50446002000900C480068A8B1102C3D
:101B700001D0202C11D16A460021084800680AF0E3
:101B8000CFFA00BF009838B14FF080500449086088
:101B9000BFF34F8FBFF36F8F00BF38BD90000020A1
:101BA00004ED00E008B500201649087016490870D9
:101BB000164908701649087002F002F908B90020A9
:101BC00008BD69460F2000F09EF808B90020F7E72D
:101BD0009DF800006A2801D00020F1E7442112207E
:101BE00000F06AF948B14021102000F065F920B1F9
:101BF00001210D2000F060F908B90020E0E7012084
:101C0000DEE700009B0000209C0000209D000020DB
:101C10009E00002030B5014609B9002030BDB1F961
:101C20000000002801DB054600E045422A46B1F9E4
:101C30000200002801DB054600E045422B46B1F9D1
:101C40000400002801DB054600E045422C4643F233
:101C50003330844207DB42F26660824203DC834217
:101C600001DC0120DAE70020D8E730B5014609B9E8
:101C7000002030BDB1F90000002801DB054600E07E
:101C800045422A46B1F90200002801DB054600E082
:101C900045422B46B1F90400002801DB054600E06F
:101CA00045422C4642F6CC40844203DB824201DCB2
:101CB000834201DD0120DCE70020DAE71CB50446A1
:101CC0002CB106226946282000F038F808B9002017
:101CD0001CBD9DF800009DF8011040EA012000B2F3
:101CE00020809DF802009DF8031040EA012000B218
:101CF00060809DF804009DF8051040EA012000B2C4
:101D0000A0800120E4E77CB505460C460CB9002014
:101D10007CBD45F080008DF80400FF208DF80500A3
:101D200064230222694601A802F0C0F808B100202D
:101D3000EEE79DF8010020700120E9E7F0B593B0CF
:101D400007460E46154616B10DB1202D02D90020CA
:101D500013B0F0BD47F080008DF82800012404E0A6
:101D6000FF200AA90855601C84B2AC42F8DD681C4B
:101D700082B2642301A90AA802F098F808B10020F1
:101D8000E6E7002405E001A9601C085C3055601CF2
:101D900084B2AC42F7DB0120DAE700001CB500BFDB
:101DA00014220121002009F043FF6846FFF786FF57
:101DB00000B9F5E7244800990160BDF8041081805E
:101DC0000120224908706846FFF74FFF0446DCB146
:101DD00000201F4908701F4908701F480078052817
:101DE00004D21D480078401C1B4908701B4800782D
:101DF00020BB19480078052824D301201749087012
:101E0000022001F0A7FB1DE000201349087068467E
:101E1000FFF700FF98B10E480078142804D20C4850
:101E20000078401C0A4908700C48007830B1084816
:101E30000078142806D301200649087002E000202B
:101E400003490870ACE70000940000209A000020CD
:101E50009D0000209E0000209C0000209B00002090
:101E600010B50F48007848B10E48007830B10E48E0
:101E7000007818B10D48FFF7CDFE08B9002010BD5D
:101E8000022001F03BFB044644B1002004490870E5
:101E90000449087006490870064908702046EEE7B4
:101EA0009B0000209E0000209A000020940000204B
:101EB0009C0000209D00002038B504460D4604F02B
:101EC0007F008DF800008DF80150642202216846E1
:101ED00001F0C0FF08B9012038BD0020FCE7000078
:101EE00070B505464FF0FF3001F09CFB00B970BDA6
:101EF0002A48007880B92A48B0F904004419002C17
:101F000001DA002404E0B4F5004F01DB47F6FF746A
:101F100020B2234988803AE020480078012810D177
:101F20001F48B0F908004419002C01DA002404E02D
:101F3000B4F5004F01DB47F6FF7420B21849088161
:101F400025E016480078022821D1002D0EDA6E42D5
:101F500013480069B04205D911480069801B104937
:101F6000086114E000200E49086110E02E460C487C
:101F70000069C6F1FF31884205D80948006930443C
:101F80000749086103E04FF0FF300549086101F09F
:101F9000CBFB01F00BFA00BFA9E7000019000020FD
:101FA000FC04002010B54FF0FF3001F03BFB00B9FE
:101FB00010BD0B48007D02280DD00A480078094961
:101FC000487008460078401C0321B0FBF1F201FB89
:101FD00012000449087001F0A7FB00BFE8E7000009
:101FE000FC0400201900002070B50025681E01F0D7
:101FF00019FB00B970BD1148007D022802D001F024
:1020000093FBF7E70D48846A01F08EFB04F00200B1
:1020100030B1FFF725FF08B1012000E02846054652
:1020200004F03C0030B1FFF7DBFC08B1012000E018
:102030002846054601F03CFC00BFDBE7FC0400201D
:1020400010B50024601E01F0EDFA00B910BD09487A
:10205000007D022804D0002006494862C86001249F
:1020600001F062FB14B1002001F01EFB01F09EF9AB
:1020700000BFEBE7FC04002010B5044614B1207843
:10208000042800DB10BD204600F055F801F0E8FB05
:1020900040B92078032804D16078012801D101F0EB
:1020A0009DFBEFE7207830B1012810D002281ED028
:1020B00003283AD12DE06078012802D1FFF772FFA2
:1020C00004E06078022801D1FFF78EFF2EE06078EF
:1020D000012802D1FFF704FF08E06078022802D04F
:1020E0006078032802D10520FFF7FAFE1EE0607831
:1020F000012803D1801EFFF7F3FE09E06078022873
:1021000002D06078032803D16FF00400FFF7E8FEE7
:102110000CE06078012802D100F026F804E0607835
:10212000022801D1FFF78CFF00E000BF00BF01F0E3
:10213000BFFB00BFA6E710B14178032900D170476B
:102140004178012900D000BF00BFF8E708B500BF03
:10215000684602F0B3F810B16846FFF78DFF0A2019
:1021600009F0B0FFF4E7000010B50224E01E01F012
:1021700059FA00B910BD1348007D022818D0114843
:10218000007D012801D1002412E00E48006978B1D9
:1021900001240C48C06828B10A48406A0949096905
:1021A000884205D300200749486208460069C86094
:1021B00001F0BAFA022C02D0204601F075FA00BFF5
:1021C000D8E70000FC0400202DE9F041064600217C
:1021D0003046FEF7A3F903D800F09CF9BDE8F08182
:1021E0001B493046FEF79AF900D2194E4FF07E5146
:1021F0003046FEF79DF901D24FF07E561548006833
:10220000C06A441C2046FEF757F980463146FEF767
:10221000DAF80746FEF76EF90546A54200D3651EBB
:1022200000224FF400710C4802F0AAFF0B4800781E
:1022300030B90821074805F00BFA0120074908705A
:1022400004480068C5630648066000BFC6E7000092
:102250000AD7A33D94030020000C01406800002031
:102260006400002070B504460025681E01F0DAF90C
:1022700070B10848007D012808D10648B0F908006F
:10228000002803DD2046FFF79FFF012501F04CFAEF
:10229000284670BDFC0400201CB500200221034626
:1022A0004FF4A072CDE9001004A106480AF006FE22
:1022B000012800D11CBD0020FCE700004D6F746FA9
:1022C000720000005125000870B50546002128461F
:1022D000FEF724F901D8002070BD08492846FEF712
:1022E00072F806460649FEF716F8044605492046E8
:1022F000FEF71EF900D2034C2046EDE7F7CC9239E9
:102300007B14AE3E6666663F10B53C21094804F07A
:1023100061FF08B1002010BD00200649096848622D
:10232000054908600549087000F0C8F800F0F2F8A7
:102330000120F0E74C03002054000020680000203A
:102340002DE9F34F83B0DDE90301FEF736F80446CB
:102350004F492046FEF737F882464E4801685046FE
:10236000FDF7D9FF05464C492846FEF7E1F801D2B2
:10237000494D05E049492846FEF7D0F800D2474DBF
:10238000444841682046FEF718F882464049FEF767
:102390004CF8804641460020FEF715F82946029089
:1023A0003F48FEF710F8214601904FF08240FEF7BB
:1023B0000AF800900199FDF7AEFF83460299FDF7F8
:1023C000AAFF82463749FEF730F8064636493046BE
:1023D000FEF7AEF804D200212046FEF7A9F809D393
:1023E00032493046FEF79AF822D200212046FEF705
:1023F00095F81DD241460020FDF7E5FF02902548E3
:1024000001682748FDF7DFFF214601904FF0824029
:10241000FDF7D9FF00900199FDF77DFF83460299F2
:10242000FDF779FF82461F49FDF7FFFF064601E0F1
:102430001848056037460398FFF746FF81461A495A
:102440003846FEF775F801D2174F05E017493846B0
:10245000FEF764F800D2154F39464846FDF75BFF9A
:1024600081460C48446000214846FEF757F802D2E6
:102470004FF0000907E04FF07E514846FEF758F84C
:1024800001D24FF07E59484605B0BDE8F08F0000FC
:10249000CDCC4C3D4C00002000004844000048C416
:1024A000CDCC4C3F00401C46CDCCCC3DCDCCCCBDA2
:1024B00001480068406A70474C03002000210D4A23
:1024C000116051600C4A11600C4A11700C4A117075
:1024D000002005E000210B4A42F82010411CC8B240
:1024E0000828F7D30021084A1160084A1160084AF9
:1024F000118070474C000020580000205C00002034
:102500005D000020F0090020600000206400002031
:102510006A00002010B5002009490968C863082135
:10252000074805F00FF900224FF40071054802F04A
:1025300027FE0020044908700449086010BD00000F
:1025400094030020000C014068000020640000207B
:102550001FB5FFF7ADFF04465A480460FFF7AEFF12
:102560000AF03AFE0290DDF808A000BF00BF322159
:1025700002A80AF0BFFC00BF0027B846781E01F091
:1025800051F848B15048077D0146B1F90800FDF700
:102590008AFF804601F0C8F8FFF78AFF04464948E1
:1025A0000088201A05B247480460284600F0B4F8B5
:1025B0000390012F4AD100214046FDF7B9FF45D2D3
:1025C0004248007818B94FF4967041490880404855
:1025D000008850B33F494046FDF7F5FE8346039916
:1025E000FDF7A6FF21D24046FFF76EFE81463A492D
:1025F0004846FDF793FF01D2DFF8DC900020374911
:10260000086040460399FDF7D8FE344948603048D9
:102610000088322805D92E48008832382C49088095
:102620000BE000202A49088007E0002028490880A4
:1026300040460399FFF784FE81464846FFF712FEA5
:1026400040B9FFF73BFFFFF765FF03E0FFF736FFF9
:10265000FFF760FF4FF07C510398FDF75CFE834667
:10266000FDF72FFF06B2012F04D100214046FDF7F0
:1026700055FF00D80026304600F036F80AF0ACFDD1
:10268000A0EB0A006428FFF471AF0AF0A5FD8246B2
:10269000134914480068FDF796FE0090FDF72AFFE5
:1026A0001FFA80FB4FF07C514046FDF734FE00904E
:1026B000FDF707FF00B22B465A463146019001F064
:1026C00015FC53E754000020FC04002068000020A3
:1026D0006A000020CDCC4C3F3333333F4C00002008
:1026E0000000C8426400002010B504464FF0FF30DF
:1026F00000F098FF58B10748007D012802D1054835
:10270000C48002E000200349C88001F00DF801F008
:10271000CFF810BDFC0400202DE9F04104462A4802
:102720000078082805D228480078401C26490870FF
:1027300009E026482649097850F82100254909680A
:10274000081A2449086021482149097840F82140A5
:102750002048006820441F4908601D480078401C3C
:102760001B49087008460078082801D3002008702B
:1027700015480078FDF7A0FE07461749FDF723FE30
:1027800006461649FDF751FE054612480068FDF75A
:102790008AFE07464FF08241FDF747FE064629466E
:1027A000FDF743FE0E49086000210D480068FDF763
:1027B000B5FE05D20A48006880F00040084908606C
:1027C00007480068BDE8F0815C000020F0090020A7
:1027D0005D000020580000200000484200606A4769
:1027E0006000002070B504460D4634B122462946EB
:1027F00003A001F079FB002070BD0120FCE7000080
:1028000053534431333135202573206661696C653B
:10281000643A2025750D0A000FB400B5A9B02BA8A5
:102820000090A02101A8009B2A9A06F0BBFE002080
:10283000009001A902A001F057FB29B05DF814FB3C
:10284000257300002DE9F04104460AF0B5FC02288A
:102850000ED14FF47A70A4FB006001464FF47A72F7
:1028600000233046FDF7CEFC054609F02BFC02E0C4
:10287000204602F0B1FABDE8F08100207047002048
:10288000704702460020704701460020704702460C
:1028900022B11078884201D13E2070472020FCE709
:1028A0000020704710B501F00DF908B9012010BDE6
:1028B0000020FCE72DE9F04107460E4615461C4670
:1028C0000DB1802C02D90120BDE8F08109480670C5
:1028D00022462946401CFDF7D6FC601C82B26423C8
:1028E0000449384601F050F908B10120ECE7002016
:1028F000EAE700006C09002010B586B08CA103C97E
:10290000CDE9040114220321782001F0FBF818B965
:102910007820894908700FE0142203217A2001F001
:10292000F1F818B97A208449087005E083A001F015
:10293000DBFA002006B010BD40F23C418648FDF7AE
:10294000BBFC8648844908608548486085488860A3
:102950008548C86085480861854848618248886123
:102960008248C861834808627F4848627F4888621D
:102970008048C862804848638048086300217648E0
:1029800009F06BF86C480178734808F0F3FE724860
:1029900008F0E4FC04467AA1FFF724FF08B9002000
:1029A000C8E700216C4808F060FF044676A1FFF7F5
:1029B00019FF00287ED000220821674808F06EFF2A
:1029C000044674A1FFF70EFF0028F3D03F216248B0
:1029D00009F064F8044671A1FFF704FF0028E9D06C
:1029E00000215D4808F0C6FF04466FA1FFF7FAFE1C
:1029F000002877D00021584808F0ECFF04466CA16D
:102A0000FFF7F0FE00286DD002220121524808F0A5
:102A1000B9FE044669A1FFF7E5FE002862D0012156
:102A20004D4809F0ECF8044667A1FFF7DBFE0028EB
:102A300058D00121484809F0C9F8044664A1FFF7BD
:102A4000D1FE00284ED000220121434808F0BDFEEF
:102A5000044661A1FFF7C6FE002843D0FF213E488F
:102A600008F0D1FE04465FA1FFF7BCFE002839D074
:102A70000F220121384809F05BF804465CA1FFF7FA
:102A8000B1FE00282ED00321334808F0D4FE0446BE
:102A90005AA1FFF7A7FE68B100212F4808F0C4FF34
:102AA000044659A1FFF79EFE20B102212A4808F0F2
:102AB000DCFF00E016E0044657A1FFF793FE88B163
:102AC0000021254808F03CFF044657A1FFF78AFE85
:102AD00040B10121204808F0C8FE044656A1FFF786
:102AE00081FE08B9002025E71B4808F0EFFA0446EC
:102AF00054A1FFF777FEA0B110200121052204ABFD
:102B0000CDE90021029018222C21134808F0C4FBC3
:102B100038B9114808F04EFB04464CA1FFF762FE9D
:102B200008B9002006E74BA001F0DEF9012001E71B
:102B30004179616E67000000380000205353443132
:102B4000333135206E6F7420666F756E64206F6E42
:102B500020493243310D0A0030050020A528000825
:102B6000A1280008B52800087F2800087B28000855
:102B7000832800088928000845280008192800082B
:102B8000696E697400000000646973706C6179207B
:102B90006F666600636C6F636B0000006D756C742C
:102BA00069706C65780000006F666673657400007C
:102BB0007374617274206C696E6500006368617281
:102BC00067652070756D70007365676D656E740064
:102BD0007363616E00000000636F6D2070696E7337
:102BE00000000000636F6E74726173740000000077
:102BF0007072656368617267650000006465736583
:102C00006C65637400000000656E74697265206411
:102C10006973706C6179000061646472657373201C
:102C20006D6F646500000000646973706C617920E9
:102C30006D6F646500000000646973706C617920D9
:102C40006F6E0000636C65617200000075706461F6
:102C5000746500005353443133313520726561642B
:102C6000792C20646973706C6179204179616E6799
:102C70002061742063656E7465720D0A00000000A7
:102C8000014621B1012904D0022906D103E004A0A4
:102C9000704705A0FCE706A0FAE707A0F8E70000E8
:102CA00049444C450000000052554E4E494E4700E5
:102CB0004641554C54000000554E4B4E4F574E0068
:102CC0002DE9F0418AB004460E46594890F8380084
:102CD000012801D104B11EB900200AB0BDE8F0817D
:102CE0004FF4806152483B30FDF7E6FAD4E9060123
:102CF0004840216A80EA01073B464EA2182104A8F9
:102D000006F036FC04A8FDF7E2FA05460C21012284
:102D1000A8B204ABCDE9012100900022114644483D
:102D200008F0BAFA00213046FFF7B1FD8046B4F949
:102D30000200B4F90410B4F900204346CDE90021A3
:102D400002903FA2182104A806F012FC04A8FDF787
:102D5000BEFA05460C210122A8B204ABCDE901213F
:102D600000900A460021324808F096FA01213046C8
:102D7000FFF78DFD8046B4F90800B4F9061043460C
:102D800033A2CDE90010182104A806F0F1FB04A835
:102D9000FDF79DFA05460C210122A8B204ABCDE94E
:102DA0000121009018220021214808F075FA022123
:102DB0003046FFF76CFD80462169606A434628A2D1
:102DC000CDE90001182104A806F0D2FB04A8FDF704
:102DD0007EFA05460C210122A8B204ABCDE90121FF
:102DE000009024220021124808F056FA207DFFF7B7
:102DF00047FF804643461EA2182104A806F0B8FBF0
:102E000004A8FDF764FA05460C210122A8B204AB20
:102E1000CDE90121009030220021054808F03CFA5C
:102E2000034808F0C7F908B9012056E7002054E725
:102E30003005002049443A2530386C580000000025
:102E40002563543A25642F256420423A2564000006
:102E5000256353504545443A25642F2564000000FE
:102E6000256354494D453A256C752F256C757300C3
:102E7000205354415455533A2573000010B588B07F
:102E80000446294890F83800012800D114B90020E0
:102E900008B010BD4FF4806123483B30FDF70CFAB9
:102EA000102322A230212C2000F05AF808B900206B
:102EB000EEE72F20005D2E21095DCDE90010A38DE6
:102EC0001CA2182102A806F053FB0C2302AA1C2105
:102ED000222000F045F808B90020D9E73320005D32
:102EE0003221095DCDE900103120035D15A21821C2
:102EF00002A806F03DFB0C2302AA1021282000F0B6
:102F00002FF830B10C2313A23021282000F028F82C
:102F100008B90020BCE7044808F04CF908B90120C2
:102F2000B6E70020B4E70000300500204179616E6B
:102F300067000000253034752D253032752D253081
:102F400032750000253032753A253032753A253019
:102F5000327500004B4559343A5345540000000087
:102F60002DE9FE4305460E4614461F4614B90020BF
:102F7000BDE8FE832046FDF7AAF91FFA80F801207C
:102F8000234632462946CDE900800297034808F0DF
:102F900083F908B90120EBE70020E9E730050020BC
:102FA0001CB5002001210346C022CDE9001004A178
:102FB000044809F083FF012800D11CBD0020FCE774
:102FC00052544300693000081CB501F038F818B1BC
:102FD000684601F068F808B900201CBD01200349CB
:102FE0000870684600F004F80120F6E78E00002023
:102FF00010B5044624B14FF0FF3000F013FB00B9C8
:1030000010BDE0880D49888561790C4880F82E1044
:10301000217980F82F10E17880F83010A17880F8BD
:103020003110617880F83210217880F8331000F088
:103030007BFB00F03DFC00BFE2E70000FC04002049
:1030400010B504460748007820B11CB1204601F0B5
:10305000A3F808B9002010BD2046FFF7C9FF0120E2
:10306000F9E700008E0000201CB500BF074800787B
:1030700030B1684601F017F810B16846FFF7B8FFA5
:103080004FF47A7009F01EF8F0E700008E0000207F
:1030900000BF0024601E00F0C5FAF8B11548007D9D
:1030A000012819D11348C068B0B11248C068401E49
:1030B0001049C8600846406A0969884204D20D4830
:1030C000406A401C0B4948620A48C06820B9094858
:1030D000006908494862012400F026FB14B1002071
:1030E00000F0E2FA00F0E4FB4FF47A7008F0EAFF37
:1030F000CFE70000FC04002010B504460AF05CF89D
:1031000002280DD1C01E00F08DFA80B12088084938
:103110008880608808816068086100F005FB06E02F
:10312000208803498880608808816068086110BD34
:10313000FC04002030B502460B464FF6FF7000211C
:1031400018E0555C80EA052000240FE000F40045FB
:103150002DB141F2210585EA4005ADB203E04FF6FD
:10316000FF7505EA40052846651CECB2082CEDD336
:103170004D1CA9B29942E4DB30BD70B505460C4642
:10318000A81D00F03DF800B2208005F1080000F015
:1031900037F800B2608005F10A0000F037F860608F
:1031A00070BD2DE9F04105460E46144642F2040179
:1031B000204600F07FF84FF48071A01C00F07AF8F0
:1031C0003146201D00F076F8288881B2A01D00F05D
:1031D00071F8688881B204F1080000F06BF804F11E
:1031E0000A00696800F06AF80E212046FFF7A2FF86
:1031F0000746394604F10E0000F05CF8BDE8F081A6
:10320000014608784A7840EA02207047014608786B
:103210004A7840EA02208A7840EA0240CA7840EAC6
:10322000026070470EB505F0A6F980B901201D496E
:10323000087000201C490880488048601B480A46E6
:1032400006CA06C000201A49088002200EBD694641
:1032500001A800F03BF880B9012012490870002055
:10326000114908804880486010480A4606CA06C0CE
:1032700000200F4908800120E8E701A8FFF73CFF84
:103280000948DDE9011206C00848DDE9011206C05F
:10329000BDF80000401C0649088001200149087063
:1032A0000020D3E736000020240000202C0000205E
:1032B0003400002001700A124270704701700A0A3F
:1032C00042700A0C82700A0EC27070472DE9F043FA
:1032D00089B007460C46102205A9002005F056F9D2
:1032E00008B1012000E000200546102201A9104687
:1032F00005F04CF908B1012000E0002006461DB1A0
:1033000005A800F031F800E0002005461EB101A834
:1033100000F02AF800E00020064625B91EB900207A
:1033200009B0BDE8F083ADB15EB102A8FFF768FF58
:10333000804606A8FFF764FF8146414600F03CF84E
:1033400040B1394605A8FFF718FF06A8FFF758FF58
:10335000208007E0394601A8FFF70FFF02A8FFF71A
:103360004FFF20800120DBE770B504462046FFF7C1
:1033700047FF42F20401884201D0002070BDA01C2A
:10338000FFF73EFFB0F5807F01D00020F6E704F1A3
:103390000E00FFF735FF05460E212046FFF7CAFE57
:1033A000A84201D10120E9E70020E7E70120014917
:1033B00008707047370000200246501A00B20028FB
:1033C00001DD012070470020FCE70246B2F9000051
:1033D000B1F9003098420BD1B2F90200B1F90230D4
:1033E000984205D150684B68984201D1012070473E
:1033F0000020FCE71FB5002509F0EEFE044600BFE3
:103400002D480078002853D0002000F00BF9002848
:103410004ED02A488088ADF8080028480089ADF8C9
:103420000A0026480069039000F07EF9244902A8AA
:10343000FFF7CBFF58B92248DDE9021206C0DDE9EB
:103440000201CDE9000109F0C7FE044601251D482F
:10345000007850B1DDE90201CDE9000109F0BCFEC0
:10346000044601250020174908700DB309F0B4FE89
:10347000001B41F2883188421AD313496846FFF78E
:10348000A4FF08B1002513E010480188684600F049
:103490001FF850B10C48DDE9001206C00B48008847
:1034A000401C0A490880002502E009F095FE044608
:1034B000642008F007FEA3E736000020FC0400208B
:1034C00024000020370000202C00002034000020C1
:1034D0007FB505460C466A4621462846FFF761FE41
:1034E00004F0010008B9002000E010200646102278
:1034F0006946304605F063F804B070BD70B5044607
:1035000000250CB9002070BD00F02AF84FF0FF3004
:1035100000F088F808B90020F5E70B48806AA0435E
:10352000094988620846806A30B900200875074951
:10353000087007490870012500F0F6F815B1002061
:10354000FDF75AFD0120DEE7FC04002018000020F2
:103550002000002010B50446204600F079F810BD88
:1035600010B500200D490968486300210B4804F09C
:10357000E9F800200A490968C8630821084804F0EE
:10358000E1F800220221074801F0FAFD00224FF481
:103590000071054801F0F4FD10BD00000403002097
:1035A0009403002000080140000C014010B51848A9
:1035B000006808B1012010BD012009F09DF81449F0
:1035C00008600846006808B90020F4E700201149A7
:1035D0000870114908704870104908804880888038
:1035E000C8800881C860086108754862886201F077
:1035F000D3FD0A49886101F0D5FD0849C86101F091
:10360000D7FD064908620020054908700120D2E76D
:103610001C0000201800002019000020FC040020DD
:103620002000002010B504460748006808B90020B3
:1036300010BD21460448006809F02EFB012800D186
:10364000F6E70020F4E700001C00002070470000AF
:1036500010B504460CB9002010BDFFF781FF4FF0F4
:10366000FF30FFF7DFFF18B9FFF77AFF0020F3E71D
:103670000A48806A2043094988620220087508497F
:10368000087001200749087000F04EF8FFF768FF46
:103690000120FDF7B1FC0120DEE70000FC04002062
:1036A000180000202000002070B5044600250026E8
:1036B0002CB1012C03D0022C01D0002070BD4FF0A2
:1036C000FF30FFF7AFFF08B90020F7E7022C06D064
:1036D0001248806A18B100F027F80020EEE7104881
:1036E00004700E480475022C07D10E48007838B9D2
:1036F00001200C490870012502E0002009490870EA
:10370000012C00D0012600F00FF80EB1FFF728FFC2
:103710000DB1FFF79BFF0120D0E70000FC04002063
:10372000180000202000002010B50548006830B1C6
:1037300000231A4619460248006809F08FF810BDA8
:103740001C00002070B504460D46B4F90000B2F923
:103750000060B0422BD1B4F90200B2F90260B0426D
:1037600025D1B4F90400B2F90460B0421FD1B4F914
:103770000600B2F90660B04219D1B4F90800B2F9F6
:103780000860B04213D1606A566AB0420FD1E06857
:10379000D668B0420BD120691669B04207D1207DAE
:1037A000167DB04203D128781E78B04201D00120A6
:1037B00070BD00210DE004F1180050F8216002F105
:1037C000180050F82100864201D00120F0E7481C83
:1037D000C1B20329EFD30020EAE7000010B5064884
:1037E000007808B1002010BD01200349087000F0E6
:1037F0005FF80120F7E700004000002030B50246E6
:103800000B46012B01D1002A05DC0020124C206060
:10381000124C207030BD11021048007828B90E48B3
:10382000016001200D4C20700BE00B4C2468081B3C
:10383000C41700EB9474084D2D6805EBA404064DE5
:103840002C600548006800F18004E01704EB10606C
:10385000001200B2DEE70000440000204800002013
:103860000148007870470000400000200246908D1B
:103870008B8D984218D12E20835C405C834213D1FB
:103880002F20835C405C83420ED13120835C405CFE
:10389000834209D13220835C405C834204D13320CF
:1038A000835C405C834201D0012070470020FCE72C
:1038B00008B50648006840B10020022302460146D0
:1038C00000900248006809F081FB08BD3C00002020
:1038D0009CB0342101A8FCF7EFFC002000900025EB
:1038E000012609F063FC2549086000BF642201211C
:1038F000002008F09DF94FF0FF30FFF793FE0028FD
:10390000F4D034221E490FA8FCF7BDFC1D480088E6
:103910000E90FFF709FF9DF85010BDF94200FFF728
:103920006DFFADF84200184804788EB9AC420FD153
:1039300024B901A90FA8FFF799FF48B9012CD5D1E7
:103940006B4601AA0EA90FA8FFF7FCFE0028CDD0F8
:103950001CB90FA8FFF792FA03E00EA90FA8FFF712
:10396000AFF90746002FC1D034220FA901A8FCF7F8
:103970008AFC0E98009025460026B7E73C00002000
:10398000FC04002019000020400000201CB5002489
:10399000002500F029F908B900BFFEE700F092F811
:1039A00018B1FEF7A9FF00B1012400F053FC00B1EB
:1039B0000125FFF7FBFD08B900BFFEE7FFF704FB99
:1039C00008B1FFF7EDFAFDF79DF908B1FDF72EF903
:1039D000FEF7E8F808B1FEF7A7F8FEF795FC08B97E
:1039E00000BFFEE7FFF71EFC20B1012803D002282C
:1039F00003D101E002E001E000E000BF00BFFDF7FD
:103A0000A1FA08B900BFFEE7FDF720FBFDF742FD74
:103A100008B900BFFEE7FDF7EDFC08B900BFFEE7FF
:103A2000FEF73AFC08B900BFFEE70020012103467B
:103A3000C022CDE9001018A1194809F03FFA012869
:103A400001D000BFFEE7002001210346C022CDE9DE
:103A5000001014A1164809F031FA012801D000BF66
:103A6000FEE74CB10020012103460A02CDE9001017
:103A700010A1114809F022FA4DB10020012103469E
:103A80000A02CDE900100DA10D4809F017FA08F05F
:103A900005FD00BFFEE7000053746F7261676500AB
:103AA000F533000852756E436F6E74726F6C0000D0
:103AB0009130000855490000D13800084B65790065
:103AC0004D21000810B50C48006808B1012010BD58
:103AD0000A4800680A49884201D00020F7E701201F
:103AE00008F00AFE044908600846006808B1012091
:103AF000EDE70020EBE70000A4000020BC0100205F
:103B0000005400402DE9F04106460C46174614B912
:103B10000120BDE8F08100F013F805460DB9022040
:103B2000F7E73B4622463146044801F02FFC804629
:103B3000284600F04BF84046EBE70000BC010020AF
:103B400010B500BFEFF3058008B1002010BD0D488F
:103B5000006808B90020F9E709F02EFB0446012CA3
:103B600001D10220F2E7022C01D00020EEE74FF055
:103B7000FF310448006809F08FF8012800D1E5E71B
:103B80000020E3E7A40000202DE9F84307460C4697
:103B90001546984604B115B90120BDE8F883FFF732
:103BA000CFFF06460EB90220F7E72B4622463946DC
:103BB0000548CDF8008001F0C5FC8146304600F094
:103BC00005F84846E9E70000BC01002010B50446AE
:103BD000012C06D100231A4619460248006808F055
:103BE0003DFE10BDA400002010B50C48006808B1CF
:103BF000012010BD0A4800680A49884201D000200F
:103C0000F7E7012008F078FD0449086008460068DD
:103C100008B10120EDE70020EBE70000A000002044
:103C200010020020005800402DE9F04106460C46E5
:103C3000174614B90120BDE8F08100F013F80546DD
:103C40000DB90220F7E73B4622463146044801F011
:103C50009DFB8046284600F075F84046EBE70000E3
:103C60001002002010B500BFEFF3058008B100205E
:103C700010BD0D48006808B90020F9E709F09CFA6A
:103C80000446012C01D10220F2E7022C01D00020D1
:103C9000EEE74FF0FF310448006808F0FDFF01280F
:103CA00000D1E5E70020E3E7A00000202DE9FE4F6A
:103CB00006460F4690461C46DDE90C9B14B1B9F14F
:103CC000000F02D10120BDE8FE8FFFF7CBFF0546B4
:103CD0000DB90220F7E743463A46314605488DE8DC
:103CE000100A01F0E7FC8246284600F02BF8504607
:103CF000E9E70000100200202DE9FE4F06460F46BE
:103D000090461C46DDE90C9B14B1B9F1000F02D1BD
:103D10000120BDE8FE8FFFF7A5FF05460DB9022083
:103D2000F7E743463A46314605488DE8100A01F068
:103D30007BFE8246284600F005F85046E9E7000081
:103D40001002002010B50446012C06D100231A46AB
:103D500019460248006808F081FD10BDA00000204F
:103D60002DE9F84304460D46164698460CB105B1B8
:103D700016B90120BDE8F88300F048F807460FB9EE
:103D80000220F7E700224FF480510B4801F0F8F9C8
:103D900033462A4621460948CDF8008002F083FECA
:103DA000814601221103044801F0EAF9384600F087
:103DB0008BF84846DEE70000000C0140640200205A
:103DC00010B50E48006808B1012010BD0C4800680D
:103DD0000C49884201D00020F7E7012211030A486C
:103DE00001F0CEF9012008F087FC0449086008467C
:103DF000006808B10120E8E70020E6E7A8000020FD
:103E00006402002000380040000C014010B500BFE3
:103E1000EFF3058008B1002010BD0D48006808B917
:103E20000020F9E709F0C8F90446012C01D102206D
:103E3000F2E7022C01D00020EEE74FF0FF310448FA
:103E4000006808F029FF012800D1E5E70020E3E73A
:103E5000A80000202DE9F04104460D46174604B1A4
:103E600015B90120BDE8F081FFF7D0FF06460EB975
:103E70000220F7E700224FF480510A4801F080F950
:103E80003B462A462146084802F02EFD8046012284
:103E90001103044801F074F9304600F015F840466B
:103EA000E0E70000000C0140640200202DE9F04131
:103EB00004460D4616461F463B46324629462046D6
:103EC000FFF74EFFBDE8F08110B50446012C06D186
:103ED00000231A4619460248006808F0BFFC10BDCE
:103EE000A800002000BFFEE7704700002DE9F04168
:103EF00094B005460E46174698462B460BA2402125
:103F000004A88DE8C00105F033FB0446002C02DC58
:103F100014B0BDE8F081402C00D33F24A2B2C823E6
:103F200004A9064803F026FF00BFF1E725642C250D
:103F3000642C25752C256C640D0A000024040020D7
:103F4000704730B590F840500124AC40C56B6C60B0
:103F5000046863604468102C04D10468A26004689B
:103F6000E16003E00468A1600468E26030BD70476E
:103F70007FB5044614B9002004B070BD2148007814
:103F800090B9214800F050FA08B10020F4E720224F
:103F90001E491D4800F0CCFC08B10020ECE70120D0
:103FA000184908700020E7E700220092019202926F
:103FB0000392002111E000200BE05DF8202000EBCF
:103FC0008103124D35F813301A444DF82020421C5D
:103FD000D0B20428F1D34A1CD1B20829EBD3009AFD
:103FE000C2F3CF022280019AC2F3CF026280029A0A
:103FF000C2F3CF02A280039AC2F3CF02E280012073
:10400000BAE70000C400002048010020BC0A0020DC
:10401000014601F00F000A1102EB820200EB4200A0
:10402000C0B2704701460A20B1FBF0F200FB12104B
:104030000A22B1FBF2F240EA0210C0B2704710B59A
:1040400032220321D020FFF7EFFD08B9012010BD77
:104050000020FCE7014609B900207047C888B0F588
:10406000FA6F1ED3C88840F63302904219D84879B7
:10407000B8B148790C2814D8087990B108791F286C
:104080000FD8C87868B1C87807280AD8887818285F
:1040900007D248783C2804D208783C2801D2012075
:1040A000DBE70020D9E77FB5044654B13220072171
:1040B00002AB0122CDE900100021D020FFF7F6FD70
:1040C00010B1002004B070BD9DF8081001F07F0011
:1040D000FFF79EFF20709DF8091001F07F00FFF7A9
:1040E00097FF60709DF80A5005F04000B8B105F0E8
:1040F0001F00FFF78DFFA07005F0200030B1A07801
:104100000C2803D2A0780C30A0700DE005F0200040
:1041100050B9A0780C2807D10020A07004E005F069
:104120003F00FFF775FFA0709DF80B1001F007002E
:10413000FFF76EFFE0709DF80C1001F03F00FFF7F5
:1041400067FF20719DF80D1001F01F00FFF760FF61
:1041500060719DF80E00FFF75BFF00F5FA60E080EC
:1041600020783C2816D260783C2813D2A0781828F2
:1041700010D2E07870B1E07807280BD8207948B1E8
:1041800020791F2806D8607920B160790C2801D8E1
:10419000012097E7002095E710B586B00446204639
:1041A000FFF758FF10B9002006B010BD2078FFF7C8
:1041B00039FF8DF810006078FFF734FF8DF811009B
:1041C000A078FFF72FFF8DF81200E078FFF72AFFA5
:1041D0008DF813002079FFF725FF8DF81400607922
:1041E000FFF720FF8DF81500A179A1F5FA61C8B29B
:1041F000FFF718FF8DF816003220072104AB0122CB
:10420000CDE900100021D020FFF776FD08B1002095
:10421000CAE73220012103AB0A46CDE900100F2185
:10422000D020FFF743FD08B10020BDE79DF80C004A
:1042300000F07F0003903220012103AB0A46CDE954
:1042400000100F21D020FFF757FD08B90120ABE780
:104250000020A9E710B5002418E00F4830F814102A
:104260000E4800F085FF0E4908550846005D0D49CF
:10427000085500200C4908550C4941F824000C4908
:1042800041F824000B490855601CC4B2042CE4DB3F
:1042900001200949087010BD2EF2000800100140ED
:1042A000B3000020B7000020BB0000209C0A0020C3
:1042B000AC0A0020BF000020C30000202DE9F0411F
:1042C000054600274348007800B115B90020BDE835
:1042D000F081002028706870002476E03E4830F8B5
:1042E00014103E4800F044FF06463D48005DB042D1
:1042F00005D03B48065501203A49085563E0394846
:10430000005D032805D23748005D401C354908553B
:1043100059E03548005DB0421DD0334806554EB9CE
:104320000020324941F82400314941F82400314944
:10433000085510E02F48005D20B91FB92C700120EE
:10434000687001270020294941F82400284941F8D4
:104350002400284908552448005D98BB234850F89C
:1043600024000A30214941F824002248005D90B918
:10437000084650F82400B0F5167F0CD301201D49E3
:10438000085500201A4941F82400DFB92C7002209A
:104390006870012716E01748005D98B1144850F87E
:1043A00024000A30124941F82400084650F824003D
:1043B000782807D3002041F824001FB92C7003206F
:1043C0006870012700BF601CC4B2042C86DB38462D
:1043D0007DE70000C30000202EF20008001001401D
:1043E000B3000020BB000020B70000209C0A002082
:1043F000AC0A0020BF00002010B54FF4805000F040
:1044000009FD10BD10B5082000F004FD10BD10B569
:10441000102000F0FFFC10BD10B5202000F0FAFCC9
:1044200010BD72B600BFFEE7F8B5044600260020B6
:10443000009000BF94F82400012801D10220F8BDAB
:10444000012084F8240000BF2046FCF739FB064613
:104450002046FCF7A3FB0646002E69D1A06A20F493
:10446000885040F00200A062022001F0FDFC3449B7
:104470000968B1FBF0F04000009002E00098401E97
:10448000009000980028F9D12068806840F008006A
:104490002168886000F07AFE054616E000F076FE9E
:1044A000401B0A2811D92068806800F0080060B11C
:1044B000A06A20F0020040F01000A06200BF0020BF
:1044C00084F8240000BF0120B9E72068806800F06C
:1044D00008000028E2D12068806840F004002168CC
:1044E000886000F053FE054616E000F04FFE401BCA
:1044F0000A2811D92068806800F0040060B1A06A21
:1045000020F0020040F01000A06200BF002084F8FC
:10451000240000BF012092E72068806800F00400BA
:104520000028E2D1A06A20F0020040F00100A06261
:1045300000BF002084F8240000BF30467FE7000061
:104540000C00002038B5024600230020009000BF78
:1045500092F82400012801D1022038BD012082F800
:10456000240000BF4868072812D21068406B0C79FD
:10457000641E04EB84051F24AC40A0430D796D1E1E
:1045800005EB85050C68AC4020431468606327E0A8
:1045900048680D2812D21068006B0C79E41F04EBF8
:1045A00084051F24AC40A0430D79ED1F05EB850564
:1045B0000C68AC4020431468206311E01068C06AA6
:1045C0000C790D3C04EB84051F24AC40A0430D790D
:1045D0000D3D05EB85050C68AC4020431468E06296
:1045E00008680A2812D31068C0680C780A3C04EBEB
:1045F00044050724AC40A0430D780A3D05EB450572
:104600008C68AC4020431468E0600FE010680069DB
:104610000C7804EB44050724AC40A0430D7805EB6F
:1046200045058C68AC402043146820610868102858
:1046300002D00868112827D1174C1068A0421ED15B
:104640001068806800F40000F0B91068806840F4D9
:1046500000001468A0600868102815D10F48006891
:104660000F4CB0FBF4F000EB80004000009002E043
:104670000098401E009000980028F9D104E0906A4C
:1046800040F020009062012300BF002082F8240047
:1046900000BF184661E70000002401400C00002024
:1046A00040420F0070477047704700002DE9F0410D
:1046B0000446002700250026A84614B90120BDE8BD
:1046C000F081A06810B1207D00B100BFA06A30B9B0
:1046D0000020E06284F82400204600F097F820468D
:1046E000FCF7EEF90746A06A00F01000002873D12D
:1046F000002F7ED1A06A20F4885040F00200A06212
:104700003F4AD4E90001904208D1E069B0F5402F5A
:1047100002D14FF4002002E0E06900E0E0690143CB
:10472000207B41EA40000643A068B0F5807F02D0BC
:10473000A068012802D14FF4807000E000200543FA
:10474000207D012811D1207B38B9A069401E4FF48B
:10475000006141EA4030054307E0A06A40F02000D4
:10476000A062E06A40F00100E0622068406820F446
:1047700069402843216848602068806821490840D2
:10478000304321688860A068B0F5807F02D0A068BF
:10479000012802D14FF4807000E00020B0F5807F46
:1047A00003D1208A401E4FEA00582068C06A20F4D6
:1047B000700040EA08002168C862206880681249D9
:1047C0000840B04209D10020E062A06A20F0020057
:1047D00040F00100A06211E00BE0A06A20F00200AE
:1047E00040F01000A062E06A40F00100E0620127A2
:1047F00004E0A06A40F01000A062012738465EE79E
:10480000003C0140FDF7E1FFFE0E1FFF10B586B032
:104810000446002002900390049005903D492068D2
:10482000884275D100BF3C48806940F400703A4925
:1048300088610846806900F40070019000BF00BFE5
:1048400000BF0846406940F00100486108464069E1
:1048500000F00100019000BF00BF304830490860FF
:104860000020486000212E4881608021C1604900FD
:10487000016189004161202181610902C16100F06B
:1048800017FA08B1FFF7CDFD00BF2548206244624A
:1048900000BF00BF2048806940F010001E498861B9
:1048A0000846806900F01000019000BF00BF00BF03
:1048B0000846806940F0040088610846806900F07D
:1048C0000400019000BF00BF00BF0846806940F0AF
:1048D000080088610846806900F00800019000BF68
:1048E00000BF012002900320039002A90D4800F0B0
:1048F0009FFA102002900320039002A90A4800F0BA
:1049000097FA03200290039002A9084800F090FA59
:1049100006B010BD00240140001002400800024013
:10492000780100200010014000080140000C014007
:104930002DE9F04104460D461646002757492068E8
:10494000884203D056492068884205D15348001D4B
:10495000006800F4702000E0002000287ED100BF35
:1049600094F82400012802D10220BDE8F081012042
:1049700084F8240000BF2046FCF710F90746002FFA
:104980006DD1A06A40F60161884340F48070A06256
:1049900043492068884209D14048001D006800F45E
:1049A000702008B9012002E0002000E0012078B169
:1049B000A06A20F48010A0622068406800F4806043
:1049C00000B3A06A20F4005040F48050A06219E0C7
:1049D000A06A40F48010A06230492068884203D069
:1049E0002F492068884205D12C48001D006800F43A
:1049F000806000E0002028B1A06A20F4005040F45C
:104A00008050A062A06A00F4805020B1E06A20F0DB
:104A10000600E06201E00020E06200BF002084F8B0
:104A2000240000BF1F48216A88621F48216AC862AB
:104A30001E48216A08636FF0020021680860206840
:104A4000806840F4807021688860226802F14C011F
:104A500033462A46206A00F071F901E01AE014E0BA
:104A60002068806800F46020B0F5602F06D12068CF
:104A7000806840F4A000216888600CE020688068AD
:104A800040F480102168886005E000BF002084F8B1
:104A9000240000E00127384667E7000000240140B9
:104AA000002801401D0B00088D0B00086F0B00084B
:104AB0000146002291F82100022808D004208863D2
:104AC00000BF002081F8200000BF01207047086867
:104AD000006820F00E000B6818600868006820F07D
:104AE00001000B68186091F8403001209840CB6BB2
:104AF0005860012081F8210000BF002081F82000CB
:104B000000BF1046E2E7000070B50446002594F8A7
:104B10002100022803D00420A0630125C1E0206801
:104B2000006820F00E00216808602068006820F00E
:104B30000100216808605C492068884252D95A49BE
:104B400078392068884201D1012047E0564964390C
:104B50002068884201D1102040E053495039206834
:104B6000884201D1801539E04F493C39206888429C
:104B700001D1801432E04C4928392068884202D1A2
:104B80004FF480302AE0484914392068884202D125
:104B90004FF4801022E044492068884201D140044B
:104BA0001CE042492068884201D1012016E03F49BB
:104BB00014312068884201D110200FE03B49283190
:104BC0002068884201D1801508E038493C312068CE
:104BD000884201D1801401E04FF480303349091F2D
:104BE000086051E0304978392068884201D10120BD
:104BF00047E02D4964392068884201D1102040E007
:104C0000294950392068884201D1801539E0264968
:104C10003C392068884201D1801432E02249283989
:104C20002068884202D14FF480302AE01E491439AE
:104C30002068884202D14FF4801022E01A4920688F
:104C4000884201D140041CE018492068884201D103
:104C5000012016E0154914312068884201D1102046
:104C60000FE0124928312068884201D1801508E000
:104C70000E493C312068884201D1801401E04FF494
:104C80008030094980394860012084F8210000BF44
:104C9000002084F8200000BF606B10B12046616BDB
:104CA0008847284670BD000080000240080402408A
:104CB0000146002209B9012070471E4B086898423E
:104CC0000BD21D4B0868C01A1423B0FBF3F0800010
:104CD000086419480838C8630AE0164B0868C01A07
:104CE0001423B0FBF3F08000086412480838C8634E
:104CF000022081F821000868026843F6F0708243C0
:104D0000D1E901031843CB6818430B6918434B6979
:104D100018438B691843CB69184302430868026043
:104D200000208863012081F82100002081F8200004
:104D300000BFC1E708040240080002402DE9F0412D
:104D400004460D4616461F464FF0000800BF94F873
:104D50002000012802D10220BDE8F081012084F862
:104D6000200000BF94F8210001282CD1022084F8F3
:104D700021000020A0632068006820F00100216865
:104D800008603B46324629462046FFF7DAF8E06ADB
:104D900030B12068006840F00E00216808600BE028
:104DA0002068006820F0040021680860206800681E
:104DB00040F00A00216808602068006840F00100A7
:104DC0002168086006E000BF002084F8200000BFD2
:104DD0004FF002084046BFE770B5044600F0D6F930
:104DE00006462546681C10B104480078054400BFFB
:104DF00000F0CCF9801BA842FAD370BD0800002057
:104E000010B504462046FCF725FB2046FCF7A8FE1B
:104E100010BD000010B5044604480068204020B1D1
:104E2000024804602046FFF7EBFF10BD1404014068
:104E30002DE9F847024600239C467BE14FF001082C
:104E400008FA03F4D1F8008008EA0400A0427DD1FA
:104E5000DFF8F4A2D1F80480A8EB0A09D0453AD0D3
:104E600014DCB8F1030F50D009DCB8F1000F31D0D9
:104E7000B8F1010F1CD0B8F1020F49D120E0B8F110
:104E8000110F18D0B8F1120F42D11EE0B9F5881FEA
:104E900025D006DCB9F5803F20D0B9F5801F37D189
:104EA0001AE0B9F5001F18D0B9F5041F30D117E08A
:104EB000D1F80CC02DE0D1F80C8008F1040C28E0EA
:104EC000D1F80C8008F1080C23E0D1F80C8008F12F
:104ED0000C0C1EE000BF00BF00BF00BF00BF00BF42
:104EE000D1F80880B8F1000F02D14FF0040C0BE0AC
:104EF000D1F80880B8F1010F03D14FF0080C14610C
:104F000002E04FF0080C546103E04FF0000C00E0A9
:104F100000BF00BFFF2801D8904601E002F104085D
:104F20004646FF2802D84FEA830803E0A3F10808A9
:104F30004FEA88084746D6F800804FF00F0909FA73
:104F400007F928EA09080CFA07F900E07AE048EACC
:104F50000908C6F80080D1F8048008F08058B8F13C
:104F6000805F6FD100BFDFF8E481D8F8188048F087
:104F70000108DFF8D891C9F81880C846D8F8188019
:104F800008F00108CDF8008000BF00BF4FEAB93833
:104F90004FEA930958F829504FEA83784FEA187975
:104FA0004FF00F0808FA09F825EA0805DFF8A08194
:104FB000424502D14FF0000824E0DFF898814245D5
:104FC00002D14FF001081DE0DFF88C81424502D18B
:104FD0004FF0020816E0DFF88481424502D14FF01D
:104FE00003080FE0DFF87881424502D14FF0040852
:104FF00008E0DFF87081424502D14FF0050801E07A
:105000004FF006084FEA83794FEA197908FA09F850
:1050100048EA0505DFF850814FEA930948F829501E
:10502000D1F8048008F48018B8F5801F0BD1DFF8A0
:105030003C81D8F8008048EA0008DFF83091C9F8D0
:1050400000800AE075E0DFF82481D8F8008028EAC3
:105050000008DFF81891C9F80080D1F8048008F43E
:105060000018B8F5001F0ED1DFF8008108F1040820
:10507000D8F8008048EA0008DFF8F09009F1040948
:10508000C9F800800DE0DFF8E48008F10408D8F8E2
:10509000008028EA0008DFF8D49009F10409C9F873
:1050A0000080D1F8048008F40038B8F5003F0ED134
:1050B000DFF8B880A8F10408D8F8008048EA0008B2
:1050C000DFF8A890A9F10409C9F800800DE0DFF825
:1050D0009C80A8F10408D8F8008028EA0008DFF8CE
:1050E0008C90A9F10409C9F80080D1F8048008F473
:1050F0008038B8F5803F0ED1DFF87080A8F108083D
:10510000D8F8008048EA0008DFF86090A9F10809A3
:10511000C9F800800DE0DFF85480A8F10808D8F83D
:10512000008028EA0008DFF84490A9F10809C9F8CE
:1051300000805B1CD1F8008028FA03F8B8F1000F5A
:105140007FF47CAEBDE8F88700001110001002402B
:1051500000080140000C0140001001400014014013
:1051600000180140001C01400800014008040140F3
:10517000024693680B400BB1012000E0002070470D
:105180000AB1016101E00B04036170470148006846
:1051900070470000000000200148006870470000D0
:1051A000E8F7FF1F0148006870470000ECF7FF1F99
:1051B0000148006870470000F0F7FF1F70B5044613
:1051C0000CB9012070BD94F83D0028B9002084F886
:1051D0003C00204600F0DAFC242084F83D002068E2
:1051E000006820F00100216808602068006840F431
:1051F0000040216808602068006820F400402168B1
:10520000086001F043F805465C496068884206D8AA
:105210005B48854201D2012007E0002005E05948A3
:10522000854201D2012000E00020012800D1C9E719
:105230005548B5FBF0F62068406820F03F00304349
:10524000216848604D496068884201D8701C07E0B9
:105250004FF4967070434FF47A71B0FBF1F0401C3C
:105260002168096A21F03F01084321680862434927
:105270006068884214D8681E61684900B0FBF1F08C
:10528000401CC0F30B00042801D204203DE0681E3E
:1052900061684900B0FBF1F0401CC0F30B0034E042
:1052A000A06838B9681E616801EB4101B0FBF1F0FC
:1052B000401C0AE0681E616801EBC10202EB0111AB
:1052C000B0FBF1F0401C40F48040C0F30B0008B983
:1052D00001201AE0A06848B9681E616801EB41012D
:1052E000B0FBF1F0401CC0F30B000CE0681E6168DD
:1052F00001EBC10202EB0111B0FBF1F0401CC0F365
:105300000B0040F4804040F400402168C9694CF62D
:10531000FF72914308432168C861D4E9070108433B
:105320002168096821F0C001084321680860D4E9B8
:10533000031008432168896848F2FF32914308430B
:1053400021688860D4E9050108432168C96821F013
:10535000FF0108432168C8602068006840F0010030
:105360002168086000202064202084F83D0000208F
:10537000206384F83E0000BF24E70000A0860100FF
:1053800080841E0000093D0040420F002DE9F84FC7
:1053900004460F4690461E46FFF7F8FE05464FF0BE
:1053A000000994F83D0020287ED119230122634989
:1053B0002046009502F013FF10B10220BDE8F88FDF
:1053C00000BF94F83C00012801D10220F6E701203B
:1053D00084F83C0000BF2068006800F0010028B994
:1053E0002068006840F001002168086020680068BB
:1053F00020F4006021680860242084F83D0000202B
:1054000020644F48E06200BF2068006840F480706C
:1054100021680860334600224FF0011120460095B4
:1054200002F0DDFE58B12068006800F48070B0F52D
:10543000807F02D14FF4007020640320BEE707F0A4
:10544000FE0021680861FFF7A1FE0546206840695B
:10545000C0F3400A20684069C0F3802B10E0FFF7DA
:1054600095FE401BB04200D816B9A02084F83D003C
:1054700020684069C0F3400A20684069C0F3802B6F
:1054800094F83D00A02805D0BAF1000F02D1BBF17D
:10549000000FE4D0202084F83D0020684069C0F36C
:1054A000400028B3206800E045E0006840F4007048
:1054B0002168086000BF00200090206840690090CB
:1054C00020688069009000BF00BF192301221B499A
:1054D0002046009502F083FE08B101206EE72020EF
:1054E00084F83D0000BF002084F83C0000BF65E761
:1054F0002068006840F40070216808606FF48060E4
:1055000021684861192301220C492046009502F0C8
:1055100066FE08B1012051E709F10109C145FFF418
:1055200073AF202084F83D0000BF002084F83C00C9
:1055300000BF012042E7022040E700000200100007
:105540000000FFFF2DE9F8430446894616461F4632
:10555000DDF82080FFF71AFE054694F83D0020286C
:105560007ED11923012251492046009502F037FED1
:1055700010B10220BDE8F88300BF94F83C00012878
:1055800001D10220F6E7012084F83C0000BF20682A
:10559000006800F0010028B92068006840F00100B0
:1055A000216808602068006820F4006021680860B5
:1055B000212084F83D00102084F83E000020206463
:1055C00066626785608D20853948E0622B464246D9
:1055D0004946204602F050FC08B10120CAE700BF4E
:1055E0000020009020684069009020688069009049
:1055F00000BF00BF44E02A464146204602F010FFAB
:1056000050B1206C042805D12068006840F4007077
:10561000216808600120ADE7606A007821680861B0
:10562000606A401C6062608D401E6085208D401E57
:10563000208520684069C0F3800070B1208D60B182
:10564000606A007821680861606A401C6062608D51
:10565000401E6085208D401E20852A46414600E080
:1056600022E0204602F088FD50B1206C042805D1CC
:105670002068006840F4007021680860012079E724
:10568000208D0028B7D12068006840F400702168A0
:105690000860202084F83D00002084F83E0000BF10
:1056A00084F83C0000BF65E7022063E702001000B9
:1056B0000000FFFF2DE9FE4F04460F469046994635
:1056C000DDE90CAB0E9E00200290FFF75FFD054662
:1056D00094F83D00202872D119230122CE4920469A
:1056E000009502F07CFD10B10220BDE8FE8F00BFE6
:1056F00094F83C00012801D10220F6E7012084F84B
:105700003C0000BF2068006800F0010028B9206854
:10571000006840F00100216808602068006820F4FB
:10572000006021680860222084F83D00402084F851
:105730003E0000202064C4F824A0A4F82AB0608DA4
:105740002085B648E0624B46424639462046CDE9C0
:10575000006502F0F1FB08B10120C6E7208D88B991
:1057600000BF002001902068406901902068806996
:10577000019000BF00BF2068006840F400702168FD
:1057800008604BE0208D01281AD12068006820F4C1
:1057900080602168086072B600BF00200190206818
:1057A0004069019020688069019000BF00BF2068B7
:1057B000006840F400702168086062B62EE029E1BC
:1057C000208D022819D12068006840F4006021680B
:1057D000086072B600BF0020019020684069019007
:1057E00020688069019000BF00BF2068006820F435
:1057F00080602168086062B610E02068006840F4AC
:1058000080602168086000BF002001902068406926
:10581000019020688069019000BF00BFEBE0208DFF
:1058200003287DD8208D012815D12A4631462046EF
:1058300002F0B1FD08B1012057E720680069616AF4
:105840000870606A401C6062208D401E2085608D5B
:10585000401E6085CFE0208D02282CD133460022E7
:105860006F492046009502F0BAFC08B101203CE7E0
:1058700072B62068006840F40070216808602068F3
:105880000069616A0870606A401C6062208D401E79
:105890002085608D401E608562B620680069616A5F
:1058A0000870606A401C6062208D401E2085608DFB
:1058B000401E60859FE033460022594920460095EE
:1058C00002F08DFC08B101200FE72068006820F489
:1058D00080602168086072B620680069616A08709B
:1058E000606A401C6062208D401E2085608D401ED5
:1058F00060854C4800681921B0FBF1F04FF47A71D3
:10590000B0FBF1F0C0EBC00000EB8000029000BFE4
:105910000298401E02900298A8B90020206300E07F
:1059200039E0202084F83D00002084F83E00206CFF
:1059300040F02000206462B600BF002084F83C00E4
:1059400000BF0120D1E620684069C0F38000002834
:10595000DED02068006840F400702168086020688C
:105960000069616A0870606A401C6062208D401E98
:105970002085608D401E608562B620680069616A7E
:105980000870606A401C6062208D401E2085608D1A
:10599000401E60852FE02A463146204602F0FBFC7F
:1059A00008B10120A1E620680069616A0870606A98
:1059B000401C6062208D401E2085608D401E6085E9
:1059C00020684069C0F38000A8B1208D032805D16C
:1059D0002068006820F48060216808602068006901
:1059E000616A0870606A401C6062208D401E2085DC
:1059F000608D401E6085208D00287FF410AF202030
:105A000084F83D00002084F83E0000BF84F83C008C
:105A100000BF6AE6022068E6020010000000FFFFF7
:105A2000040001000C0000202DE9FC5F04460F4635
:105A300090469946DDE90CAB0E9EFFF7A7FB0546A5
:105A400094F83D0020287DD1192301224D4920469C
:105A5000009502F0C4FB10B10220BDE8FC9F00BF1E
:105A600094F83C00012801D10220F6E7012084F8D7
:105A70003C0000BF2068006800F0010028B92068E1
:105A8000006840F00100216808602068006820F488
:105A9000006021680860212084F83D00402084F8DF
:105AA0003E0000202064C4F824A0A4F82AB0608D31
:105AB00020853548E0624B46424639462046CDE9CE
:105AC000006502F0E9FA08B10120C6E731E02A4694
:105AD0003146204602F0A4FC50B1206C042805D1C8
