:020000040800F2
:1000000060890020E1010008053A00088B330008F0
:10001000013A0008D50C00089D41000800000000CE
:10002000000000000000000000000000490100087E
:10003000270D0008000000008D010008313A00087B
:10004000FB010008FB010008FB010008FB010008A0
:10005000FB010008FB010008FB010008FB01000890
:10006000FB010008FB010008350D0008250D000804
:10007000FB010008FB010008FB010008FB01000870
:10008000FB010008FB010008FB010008FB01000860
:10009000FB010008FB010008FB0100083F0D000800
:1000A000FB010008FB010008FB010008FB01000840
:1000B000FB010008FB010008FB010008FB01000830
:1000C000FB010008FB010008FB010008FB01000820
:1000D000FB010008FB0100088D410008FB0100083E
:1000E000290D0008FB010008FB010008FB010008C6
:1000F000FB010008FB010008FB010008FB010008F0
:10010000FB010008FB010008FB010008FB010008DF
:10011000F93D0008FB010008E93A0008FB0100086E
:10012000FB010008FB010008FB010008FB010008BF
:10013000DFF810D000F0A0FA00480047CD4A0008D0
:10014000AFF3008060890020224B19680868B0E88E
:10015000F00F80F30988BFF36F8F4FF0000080F33A
:1001600011884EF00D0E7047000000000648006830
:10017000006880F3088862B661B6BFF34F8FBFF3A3
:100180006F8F00DF00BF00BF08ED00E0EFF30980D4
:10019000BFF36F8F0F4B1A6820E9F00F106008B59E
:1001A0004FF0500080F31188BFF34F8FBFF36F8F74
:1001B00005F080FE4FF0000080F31188BDE8084094
:1001C00019680868B0E8F00F80F30988BFF36F8FF3
:1001D000704700BF24000020EFF305807047000047
:1001E0000648804706480047FEE7FEE7FEE7FEE7D1
:1001F000FEE7FEE7FEE7FEE7FEE7FEE7E73A000878
:1002000031010008202A04DB203A21FA02F0002103
:10021000704721FA02F3D040C2F120029140084316
:100220001946704740EA01039B0703D009E008C95B
:10023000121F08C0042AFAD203E011F8013B00F8AB
:10024000013B521EF9D27047D2B201E000F8012BF7
:10025000491EFBD270470022F6E710B513460A4646
:1002600004461946FFF7F0FF204610BD421C10F867
:10027000011B0029FBD1801A704730B50B4601469F
:1002800000202022012409E021FA02F59D4205D335
:1002900003FA02F5491B04FA02F52844151EA2F1DF
:1002A0000102F1DC30BD2DE9F05F054600209246E9
:1002B0009B4688460646814640241BE02846414628
:1002C00047462246FFF79EFF53465A46C01A9141C1
:1002D00010D311461846224600F0E0F92D1A67EBBC
:1002E00001084F4622460120002100F0D7F917EB04
:1002F00000094E41201EA4F10104DFDC48463146CE
:100300002A464346BDE8F09F2DE9FE4F804681EA2C
:100310000300C00F0C46009021F0004123F000457F
:10032000B8EB0200A94105D24046214690461C4642
:100330000B46024623F00040104347D0270DC7F379
:100340000A00C3F30A510290401A019040286BDA68
:10035000C3F3130040F4801B0098924620B10023A1
:10036000D2EB030A63EB0B0B01985946C0F1400234
:10037000504600F093F906460D4650465946019AFC
:1003800000F09BF910EB08006141002487EA11524C
:1003900084EAE7731A4340D0009A62B3019A012AB3
:1003A0004FEA075215DC001B61EB02014FF00042DF
:1003B00002EA0752CDE90042001C41F580113246A5
:1003C0002B4600F09BF903B0BDE8F08F4046214674
:1003D000F9E7001B61EB0201001C41F580130018D6
:1003E0005B412018A2F5001747EB030140EAD570E6
:1003F000B6196D4111E06D084FEA360645EAC07541
:100400004FEA0752001B61EB0201001C41F580110D
:1004100049084FEA30000019514132462B4603B0DB
:10042000BDE8F04F00F05BB90098012240000023C6
:10043000D0EB020263EBE073009821464FEAE074D0
:10044000B8EB000061EB0401E9E783F000435BE7F0
:1004500081F0004158E72DE9FE4F81EA030404F0E2
:10046000004421F0004100944FF0000B23F00043C2
:1004700050EA01045ED052EA03045BD0C3F30A548D
:10048000C1F30A552C44A4F2F3340194A0FB0254A6
:10049000C1F3130141F48011C3F3130343F4801338
:1004A00001FB024400FB034E840A970A44EA81548C
:1004B00047EA8357A4FB076802958D0A05FB078569
:1004C0004FEA932C04FB0C542705029D4FEA065873
:1004D00047EA1637B5EB08056EEB070C870E920E50
:1004E00047EA811742EA8312A7FB0201B6EB0B0130
:1004F00064EB00042B0D43EA0C335E1844EB1C50F4
:10050000DA465146E7FB0201C5F313044FEA0B3309
:1005100043EA14534FEA0432019C43EA0603A4F170
:100520000C040294009CCDE900B400F0E7F803B09D
:10053000BDE8F08F00200146F9E72DE9F04D81EA92
:10054000030404F0004B21F0004514464FF0000A6C
:1005500023F0004150EA050220D054EA01021DD0E8
:10056000C5F30A570246C5F31303C1F31300C1F3E1
:100570000A5640F4801543F48013A7EB0608101BBD
:10058000D64608F2FD3873EB050002D308F10108E6
:1005900001E092185B41B8F1000F03DA0020014638
:1005A000BDE8F08D00204FF48011064684460EE031
:1005B000171B73EB050705D3121B63EB05030643FB
:1005C0004CEA010C49084FEA300092185B4150EAAE
:1005D0000107EDD152EA030012D082EA040083EA57
:1005E0000501084305D0101BAB4106D201220023B0
:1005F00006E000224FF0004302E06FF001025310CA
:100600001AEB06004CEB085110EB0A0041EB0B0112
:10061000BDE8F04D00F063B8C1F30A52C1F3130115
:1006200040F2FF3341F480119A4202DA0020014681
:10063000704740F233439A42A2F2334202DC524204
:10064000FFF7E0BD00F02AB830B5041E71F10004D8
:1006500004DB4FF00044404264EB0101141E73F1CF
:10066000000405DB1C464FF00043524263EB0403D9
:10067000994208BF904230BD064C074D06E0E06845
:1006800040F0010394E8070098471034AC42F6D3D9
:10069000FFF752FD2C6F00084C6F0008202A04DB86
:1006A000203A00FA02F1002070479140C2F1200385
:1006B00020FA03F3194390407047202A06DBCB173A
:1006C000203A41FA02F043EAE07306E041FA02F30D
:1006D000D040C2F12002914008431946704710B53E
:1006E000141E73F1000408DA401C41F10001921855
:1006F0005B411A4301D120F0010010BD2DE9F04DFE
:1007000092469B4611B1B1FA81F202E0B0FA80F252
:1007100020329046FFF7C2FF04460F4640EA0A0027
:1007200041EA0B0153465A46084313D0114653EA97
:10073000010019D0C8F140025046FFF763FD05469D
:100740000E46504659464246FFF7A8FF084305D0DB
:10075000012004E020463946BDE8F08D0020054325
:1007600046EAE0762C4337430A986305E40AA0EB97
:1007700008000022FD0A44EA47540A3002D500204E
:100780000146E9E7010510196941DDE9084500194D
:100790006941BDE8F04DA2E770B504460025206828
:1007A000806800F0010018B32068806820F0010024
:1007B0002168886000F046FF054613E000F042FF24
:1007C000401B02280ED92068806800F0010048B163
:1007D000A06A40F01000A062E06A40F00100E06210
:1007E000012070BD2068806800F001000028E5D17C
:1007F0000020F6E708B51148007808B1012008BDCF
:1008000042F228300E490968486300F02FF80D487D
:1008100000231A46642100900BA006F0F5FA0C495B
:1008200008600846006808B90020E8E70020094988
:10083000087001200149087000BFE0E714000020A3
:10084000D00100205908000842757A7A65720000CC
:10085000100000201500002010B504460248007862
:1008600008B900F003F810BD1500002010B50021F4
:10087000014802F053FA10BDD001002070B50446C3
:100880002046FFF7F3FC85B2C8232A4621460248DA
:1008900002F01BFD70BD000038030020014621B1AD
:1008A000012904D0022906D103E004A070470AA060
:1008B000FCE710A0FAE716A0F8E70000464F435502
:1008C00053203A205B54454D505D205350454544DC
:1008D0002054494D45000000464F435553203A20CF
:1008E00054454D50205B53504545445D2054494D7F
:1008F00045000000464F435553203A2054454D5083
:10090000205350454544205B54494D455D0000004F
:10091000464F435553203A2054454D50205350459F
:1009200045442054494D450010B51748006808B1AA
:10093000012010BD012005F0A5FB13490860084601
:10094000006808B90020F4E7002010490870104939
:10095000087048700F49088048808880C880886087
:10096000C860087400F074FE0A49486100F076FE21
:100970000849886100F078FE0649C86100200649F0
:1009800008700120D5E700001C000020180000209E
:1009900019000020100400202000002010B504469B
:1009A0000748006808B9002010BD214604480068C7
:1009B00005F0A2FD012800D1F6E70020F4E70000D1
:1009C0001C0000207047000010B50024601EFFF7D7
:1009D000E5FF00B910BD0F480078022803D00E488B
:1009E000007C02280CD102200A4908700A490874C8
:1009F0000A48007838B9012008490870012402E04B
:100A000000200649087000F0DBF80CB1FFF7DAFFB0
:100A100000BFDFE7180000201004002020000020A5
:100A200070B5044600252CB1012C03D0022C01D056
:100A3000002070BD4FF0FF30FFF7B0FF08B9002075
:100A4000F7E70C4804700C480474022C07D10B48DB
:100A5000007838B9012009490870012502E000201A
:100A60000649087000F0ACF80DB1FFF7ABFF0120AC
:100A7000DFE7000018000020100400202000002004
:100A8000014621B1012904D0022906D103E004A0C6
:100A9000704705A0FCE706A0FAE707A0F8E700000A
:100AA00049444C450000000052554E4E494E470007
:100AB0004641554C54000000554E4B4E4F574E008A
:100AC00092B020210AA8FFF7C6FB00200990012060
:100AD000FFF7A6FFC8B14FF0FF30FFF75FFFA0B1EF
:100AE0003448007C01280ED10020324908803C2087
:100AF0004880002088804FF41670C8800A20C860A3
:100B00000846C068886000F05BF800BF4FF0FF3017
:100B1000FFF744FF48B1202226490AA8FFF782FBCD
:100B200025480088099000F04BF89DF83800FFF741
:100B3000A7FF05469DF82400FFF7B0FE0646BDF965
:100B40002E20DDE90C10CDE90605CDE90421BDF923
:100B50002C10BDF92A00BDF92820CDE90062CDE9AD
:100B6000020116480FA90EC900F0B6F84FF47A70CA
:100B700005F03AF8FFF728FF0024601EFFF70EFF8C
:100B800088B10C48007C01280BD10A48806820B14C
:100B900008488068401E074988600648806800B998
:100BA000012400F00DF8002CB0D00020FFF738FF32
:100BB000ACE700001004002019000020C06E0008FF
:100BC00010B50548006830B100231A46194602489E
:100BD000006805F009FB10BD1C0000201CB5FFF7E4
:100BE000A3FE30B9252213A117A000F075F800BFAD
:100BF000FEE7FFF7FFFD30B92D220EA11DA000F08A
:100C00006BF800BFFEE70020012103460A02CDE990
:100C100000101FA1214805F081FD012806D03522D2
:100C200004A11FA000F058F800BFFEE705F0FCF893
:100C300000BFFEE7557365725C4170705C41707077
:100C40005F6D61696E2E63005B25733A25645D53A9
:100C5000797374656D207374617465206D75746546
:100C60007820637265617465206661696C65640DE6
:100C70000A0000005B25733A25645D42757A7A6547
:100C80007220696E6974206661696C65640D0A0082
:100C900053797374656D546573740000C10A00085C
:100CA0005B25733A25645D4672656552544F532047
:100CB00073797374656D2074657374207461736BDC
:100CC00020637265617465206661696C65640D0AF4
:100CD0000000000000BFFEE70FB410B5C2B044989A
:100CE00018B942B010BC5DF814FB45A801904FF450
:100CF000807102A8019B449A03F052FA0446002036
:100D00000190002C00DCECE7FF2C00D9FF24A2B2FC
:100D1000C82302A9024802F0D8FA00BFE1E70000A8
:100D2000380300207047704710B54FF4805000F032
:100D3000D5FA10BD10B5102000F0D0FA10BD10B5D6
:100D4000202000F0CBFA10BD72B600BFFEE7000015
:100D500038B5024600230020009000BF92F824001E
:100D6000012801D1022038BD012082F8240000BFF3
:100D70004868072812D21068406B0C79641E04EB97
:100D800084051F24AC40A0430D796D1E05EB85053D
:100D90000C68AC4020431468606327E048680D2865
:100DA00012D21068006B0C79E41F04EB84051F2439
:100DB000AC40A0430D79ED1F05EB85050C68AC40F8
:100DC00020431468206311E01068C06A0C790D3C60
:100DD00004EB84051F24AC40A0430D790D3D05EBC9
:100DE00085050C68AC4020431468E06208680A2856
:100DF00012D31068C0680C780A3C04EB4405072441
:100E0000AC40A0430D780A3D05EB45058C68AC402D
:100E100020431468E0600FE0106800690C7804EB70
:100E200044050724AC40A0430D7805EB45058C68CC
:100E3000AC402043146820610868102802D008687C
:100E4000112827D1174C1068A0421ED11068806865
:100E500000F40000F0B91068806840F400001468E5
:100E6000A0600868102815D10F4800680F4CB0FB2F
:100E7000F4F000EB80004000009002E00098401E7B
:100E8000009000980028F9D104E0906A40F020001A
:100E90009062012300BF002082F8240000BF1846A2
:100EA00061E70000002401400C00002040420F00D8
:100EB0002DE9F0410446002700250026A84614B974
:100EC0000120BDE8F081A06810B1207D00B100BF15
:100ED000A06A30B90020E06284F82400204600F0C7
:100EE00097F82046FFF758FC0746A06A00F010006C
:100EF000002873D1002F7ED1A06A20F4885040F0E2
:100F00000200A0623F4AD4E90001904208D1E069A2
:100F1000B0F5402F02D14FF4002002E0E06900E07C
:100F2000E0690143207B41EA40000643A068B0F538
:100F3000807F02D0A068012802D14FF4807000E0C9
:100F400000200543207D012811D1207B38B9A069FC
:100F5000401E4FF4006141EA4030054307E0A06ABB
:100F600040F02000A062E06A40F00100E0622068EA
:100F7000406820F469402843216848602068806800
:100F800021490840304321688860A068B0F5807F1F
:100F900002D0A068012802D14FF4807000E0002048
:100FA000B0F5807F03D1208A401E4FEA00582068A8
:100FB000C06A20F4700040EA08002168C862206816
:100FC000806812490840B04209D10020E062A06A5E
:100FD00020F0020040F00100A06211E00BE0A06AE6
:100FE00020F0020040F01000A062E06A40F0010032
:100FF000E062012704E0A06A40F01000A06201272F
:1010000038465EE7003C0140FDF7E1FFFE0E1FFFA2
:1010100010B586B00446002002900390049005901D
:101020002849206888424BD100BF2748806940F496
:101030000070254988610846806900F400700190BD
:1010400000BF00BF00BF0846806940F01000886103
:101050000846806900F01000019000BF00BF00BF8B
:101060000846806940F0040088610846806900F005
:101070000400019000BF00BF00BF0846806940F037
:10108000080088610846806900F00800019000BFF0
:1010900000BF012002900320039002A90B4800F03A
:1010A0002BF9102002900320039002A9084800F0B9
:1010B00023F903200290039002A9064800F01CF9CE
:1010C00006B010BD00240140001002400010014095
:1010D00000080140000C01400146002291F8210067
:1010E000022808D00420886300BF002081F8200077
:1010F00000BF012070470868006820F00E000B68F0
:1011000018600868006820F001000B68186091F80A
:10111000403001209840CB6B5860012081F82100BD
:1011200000BF002081F8200000BF1046E2E7000069
:1011300070B50446002594F82100022803D004204D
:10114000A0630125C1E02068006820F00E0021683E
:1011500008602068006820F00100216808605C4990
:101160002068884252D95A4978392068884201D18A
:10117000012047E0564964392068884201D1102097
:1011800040E0534950392068884201D1801539E048
:101190004F493C392068884201D1801432E04C49E3
:1011A00028392068884202D14FF480302AE048492B
:1011B00014392068884202D14FF4801022E044495B
:1011C0002068884201D140041CE0424920688842DE
:1011D00001D1012016E03F4914312068884201D135
:1011E00010200FE03B4928312068884201D180154A
:1011F00008E038493C312068884201D1801401E080
:101200004FF480303349091F086051E03049783984
:101210002068884201D1012047E02D4964392068C7
:10122000884201D1102040E0294950392068884285
:1012300001D1801539E026493C392068884201D126
:10124000801432E0224928392068884202D14FF4C4
:1012500080302AE01E4914392068884202D14FF4B8
:10126000801022E01A492068884201D140041CE025
:1012700018492068884201D1012016E0154914312F
:101280002068884201D110200FE0124928312068DF
:10129000884201D1801508E00E493C31206888421F
:1012A00001D1801401E04FF4803009498039486051
:1012B000012084F8210000BF002084F8200000BF36
:1012C000606B10B12046616B8847284670BD0000F6
:1012D00080000240080402407047000010B5044638
:1012E00004480068204020B1024804602046FFF70F
:1012F000F3FF10BD140401402DE9F8470246002316
:101300009C467BE14FF0010808FA03F4D1F8008015
:1013100008EA0400A0427DD1DFF8F4A2D1F80480ED
:10132000A8EB0A09D0453AD014DCB8F1030F50D02D
:1013300009DCB8F1000F31D0B8F1010F1CD0B8F1C1
:10134000020F49D120E0B8F1110F18D0B8F1120FF7
:1013500042D11EE0B9F5881F25D006DCB9F5803FE3
:1013600020D0B9F5801F37D11AE0B9F5001F18D089
:10137000B9F5041F30D117E0D1F80CC02DE0D1F839
:101380000C8008F1040C28E0D1F80C8008F1080C5E
:1013900023E0D1F80C8008F10C0C1EE000BF00BF68
:1013A00000BF00BF00BF00BFD1F80880B8F1000F38
:1013B00002D14FF0040C0BE0D1F80880B8F1010F16
:1013C00003D14FF0080C146102E04FF0080C546197
:1013D00003E04FF0000C00E000BF00BFFF2801D881
:1013E000904601E002F104084646FF2802D84FEA81
:1013F000830803E0A3F108084FEA88084746D6F8B7
:1014000000804FF00F0909FA07F928EA09080CFAD9
:1014100007F900E07AE048EA0908C6F80080D1F848
:10142000048008F08058B8F1805F6FD100BFDFF80A
:10143000E481D8F8188048F00108DFF8D891C9F89D
:101440001880C846D8F8188008F00108CDF8008048
:1014500000BF00BF4FEAB9384FEA930958F8295046
:101460004FEA83784FEA18794FF00F0808FA09F825
:1014700025EA0805DFF8A081424502D14FF00008B7
:1014800024E0DFF89881424502D14FF001081DE0C9
:10149000DFF88C81424502D14FF0020816E0DFF8F8
:1014A0008481424502D14FF003080FE0DFF87881D4
:1014B000424502D14FF0040808E0DFF87081424550
:1014C00002D14FF0050801E04FF006084FEA83799A
:1014D0004FEA197908FA09F848EA0505DFF850815A
:1014E0004FEA930948F82950D1F8048008F480188D
:1014F000B8F5801F0BD1DFF83C81D8F8008048EAAE
:101500000008DFF83091C9F800800AE075E0DFF8E4
:101510002481D8F8008028EA0008DFF81891C9F87B
:101520000080D1F8048008F40018B8F5001F0ED12F
:10153000DFF8008108F10408D8F8008048EA0008C4
:10154000DFF8F09009F10409C9F800800DE0DFF838
:10155000E48008F10408D8F8008028EA0008DFF8E1
:10156000D49009F10409C9F80080D1F8048008F486
:101570000038B8F5003F0ED1DFF8B880A8F10408B4
:10158000D8F8008048EA0008DFF8A890A9F104091B
:10159000C9F800800DE0DFF89C80A8F10408D8F8B5
:1015A000008028EA0008DFF88C90A9F10409C9F846
:1015B0000080D1F8048008F48038B8F5803F0ED15F
:1015C000DFF87080A8F10808D8F8008048EA000821
:1015D000DFF86090A9F10809C9F800800DE0DFF894
:1015E0005480A8F10808D8F8008028EA0008DFF83D
:1015F0004490A9F10809C9F800805B1CD1F800806B
:1016000028FA03F8B8F1000F7FF47CAEBDE8F88744
:10161000000011100010024000080140000C0140C1
:10162000001001400014014000180140001C01405E
:1016300008000140080401400AB1016101E00B0407
:1016400003617047014800687047000000000020F7
:101650000148006870470000E8F7FF1F0148006874
:1016600070470000ECF7FF1F01480068704700005A
:10167000F0F7FF1F70B504460CB9012070BD94F857
:101680003D0028B9002084F83C00204600F0DAF83C
:10169000242084F83D002068006820F001002168C3
:1016A00008602068006840F40040216808602068F5
:1016B000006820F400402168086000F0B7FB054690
:1016C0005C496068884206D85B48854201D20120A7
:1016D00007E0002005E05948854201D2012000E0E2
:1016E0000020012800D1C9E75548B5FBF0F6206875
:1016F000406820F03F003043216848604D496068F1
:10170000884201D8701C07E04FF4967070434FF484
:101710007A71B0FBF1F0401C2168096A21F03F01A9
:1017200008432168086243496068884214D8681EEB
:1017300061684900B0FBF1F0401CC0F30B000428C5
:1017400001D204203DE0681E61684900B0FBF1F061
:10175000401CC0F30B0034E0A06838B9681E616813
:1017600001EB4101B0FBF1F0401C0AE0681E61682A
:1017700001EBC10202EB0111B0FBF1F0401C40F49F
:101780008040C0F30B0008B901201AE0A06848B9F6
:10179000681E616801EB4101B0FBF1F0401CC0F331
:1017A0000B000CE0681E616801EBC10202EB011145
:1017B000B0FBF1F0401CC0F30B0040F4804040F45B
:1017C00000402168C9694CF6FF72914308432168C3
:1017D000C861D4E9070108432168096821F0C00104
:1017E000084321680860D4E9031008432168896828
:1017F00048F2FF329143084321688860D4E905012B
:1018000008432168C96821F0FF0108432168C860C6
:101810002068006840F00100216808600020206412
:10182000202084F83D000020206384F83E0000BFA3
:1018300024E70000A086010080841E0000093D000E
:1018400040420F0010B586B004460020029003907D
:10185000049005902B492068884225D100BF2A4872
:10186000806940F00800284988610846806900F0D6
:101870000800019000BF00BFC0200290122003901A
:101880000320059002A92148FFF736FD00BF1E483E
:10189000C06940F400101C49C8610846C06900F4E2
:1018A0000010019000BF2AE019492068884226D123
:1018B00000BF1548806940F0080013498861084658
:1018C000806900F00800019000BF00BF4FF4406045
:1018D0000290122003900320059002A90B48FFF705
:1018E0000BFD00BF0848C06940F480000649C8618C
:1018F0000846C06900F48000019000BF00BF06B038
:1019000010BD00000054004000100240000C0140D7
:101910000058004003480068034909780844014919
:1019200008607047000000200800002010B508483B
:10193000006840F0100006490860032000F0DCF861
:10194000042000F007F800F05FF8002010BD000050
:10195000002002402DE9F04188B004460027B84637
:10196000002600BF2348C06940F010002149C8612B
:101970000846C06900F01000019000BF00BF02A936
:1019800003A800F02BFA069F1FB900F04FFA054696
:1019900002E000F04BFA45001748B5FBF0F0A0F16B
:1019A000010816481649086040F2E7311448C16042
:1019B000C0F80480002101618160816100F0EEFDCA
:1019C000064696B90E4800F05BFE06466EB9362014
:1019D00000F044F8102C07D200222146362000F0F7
:1019E0004DF80848046000E00126304608B0BDE824
:1019F000F08100000010024040420F000010004043
:101A0000C80300200400002008B500BF1148806909
:101A100040F001000F4988610846806900F001002C
:101A2000009000BF00BF00BF0846C06940F0805072
:101A3000C8610846C06900F08050009000BF00BF38
:101A400000BF0549486820F0E06040F00070486041
:101A500000BF08BD001002400000014001460846DA
:101A6000002809DB00F01F0301229A4043099B0074
:101A700003F1E023C3F8002100BF70472DE9F05FB8
:101A800080460D461646002702F0A4FB074639465D
:101A90002A46334601F00700C0F1070ABAF1040FE5
:101AA00002D94FF0040A01E0C0F1070AD14600F163
:101AB000040ABAF1070F02D24FF0000A01E0A0F1C8
:101AC000030AD4464FF0010A0AFA09FAAAF1010AF8
:101AD0000AEA020A0AFA0CFA4FF0010B0BFA0CFBA5
:101AE000ABF1010B0BEA030B4AEA0B04214640461B
:101AF00002F078FBBDE8F09F00BF00F00702064B44
:101B000019684FF6FF031940044B0B4343EA0221C7
:101B1000014B196000BF70470CED00E00000FA05B2
:101B2000F8B5044600260025207800F001000028C2
:101B30006BD000274348C06900F0805070B900BFE7
:101B40004048C06940F080503E49C8610846C069BD
:101B500000F08050009000BF00BF01273A480068A5
:101B600000F48070B0B93848006840F4807036499D
:101B70000860FFF767FD064606E0FFF763FD801B80
:101B8000642801D90320F8BD2F48006800F4807054
:101B90000028F2D02B48006A00F440752DB3A088CD
:101BA00000F44070A84220D02648006A20F4407516
:101BB000012026490860002008602248056205F0DF
:101BC000010090B1FFF73EFD064608E0FFF73AFD41
:101BD000801B41F28831884201D90320D3E719489C
:101BE000006A00F002000028F0D01648006A20F4D5
:101BF00040706168084313490862012F04D1084608
:101C0000C06920F08050C86100BF207800F0020059
:101C1000022807D10B48406820F44040A1680843DF
:101C200008494860207800F01000102807D10548C6
:101C3000406820F480006169084302494860002040
:101C4000A1E7000000100240007000404004424242
:101C500070B504460D460CB9012070BD5A480068A5
:101C600000F00700A8420ED25748006820F0070095
:101C70002843554908600846006800F00700A8425C
:101C800001D00120E9E7207800F0020002281DD1F0
:101C9000207800F00400042805D14C48406840F446
:101CA000E0604A494860207800F00800082805D123
:101CB0004648406840F460504449486043484068A2
:101CC00020F0F000A168084340494860207800F007
:101CD000010078B36068012806D13C48006800F430
:101CE000003090B90120B8E76068022806D1374873
:101CF000006800F0007040B90120AEE7334800688A
:101D000000F0020008B90120A7E73048406820F041
:101D10000300616808432D494860FFF793FC0646BD
:101D200009E0FFF78FFC801B41F28831884202D91D
:101D3000032092E707E02548406800F00C00616846
:101D4000B0EB810FEDD12048006800F00700A842F9
:101D50000ED91D48006820F0070028431A49086082
:101D60000846006800F00700A84201D0012074E78F
:101D7000207800F00400042807D11448406820F4BB
:101D8000E060E168084311494860207800F00800ED
:101D9000082808D10D48406820F46050216940EAC5
:101DA000C1000A49486000F061F808494968C1F378
:101DB0000311074A515CC84006490860064800689C
:101DC000FFF7C8FD002048E7002002400010024055
:101DD000A66E00080C000020040000200F22026004
:101DE0000D4A526802F0030242600B4A526802F048
:101DF000F0028260084A526802F4E062C260064A59
:101E0000526802F46052D2080261044A126802F079
:101E100007020A60704700000010024000200240E4
:101E200001480068704700000C00002000B5FFF773
:101E3000F7FF04494968C1F30221034A515CC840D5
:101E400000BD000000100240B66E000800B5FFF7AC
:101E5000E7FF04494968C1F3C221034A515CC84005
:101E600000BD000000100240B66E000870B50021F1
:101E70000022002400230020134D696801F00C05A6
:101E8000F5B1042D02D0082D19D101E00F4819E059
:101E90000F4DC1F38346AB5D01F4803555B10A4D5A
:101EA0006D68C5F340450B4E725D084D5D43B5FB53
:101EB000F2F402E0084D03FB05F4204602E000BF07
:101EC000024800BF00BF70BD0010024000127A003F
:101ED000946E0008A46E000800093D00F8B50446A1
:101EE0000CB90120F8BD207800F00100002878D05E
:101EF000F848406800F00C0004280CD0F548406811
:101F000000F00C00082811D1F248406800F480303D
:101F1000B0F5803F0AD1EF48006800F40030002897
:101F20005FD0606800285CD10120DBE700BF6068FB
:101F3000B0F5803F06D1E748006840F48030E549BD
:101F4000086028E0606858B9E248006820F48030F2
:101F5000E04908600846006820F4802008601AE024
:101F60006068B0F5A02F0BD1DA48006840F48020FB
:101F7000D84908600846006840F4803008600AE0EC
:101F8000D448006820F48030D249086008460068D0
:101F900020F48020086000BF606888B1FFF752FB22
:101FA000054606E0FFF74EFB401B642801D90320DD
:101FB00098E7C848006800F400300028F2D010E02C
:101FC000FFF740FB054606E0FFF73CFB401B64289B
:101FD00001D9032086E7BF48006800F400300028DC
:101FE000F2D1207800F00200022857D1B9484068A9
:101FF00000F00C0050B1B748406800F00C00082811
:1020000018D1B448406800F4803098B9B1480068ED
:1020100000F0020020B12069012801D0012061E711
:10202000AC48006820F0F800616940EAC100A949A5
:10203000086033E02069E8B10120A7490860FFF794
:1020400001FB054606E0FFF7FDFA401B022801D917
:10205000032047E79F48006800F002000028F2D004
:102060009C48006820F0F800616940EAC100994985
:10207000086013E0002098490860FFF7E3FA05467E
:1020800006E0FFF7DFFA401B022801D9032029E709
:102090009048006800F002000028F2D1207800F09B
:1020A000080008282DD1A069B8B101208B4908602B
:1020B000FFF7C8FA054606E0FFF7C4FA401B0228FE
:1020C00001D903200EE78348406A00F0020000288F
:1020D000F2D0012001F098FC13E000207F49086055
:1020E000FFF7B0FA054606E0FFF7ACFA401B0228FE
:1020F00001D90320F6E67748406A00F00200002884
:10210000F2D1207800F00400042873D10027714830
:10211000C06900F0805070B900BF6E48C06940F0DF
:1021200080506C49C8610846C06900F0805000903A
:1021300000BF00BF01276A48006800F48070B0B992
:102140006748006840F4807065490860FFF77AFAD4
:10215000054606E0FFF776FA401B642801D9032004
:10216000C0E65F48006800F480700028F2D000BF2D
:10217000E068012806D15748006A40F0010055493F
:10218000086227E0E06858B95248006A20F0010070
:10219000504908620846006A20F00400086219E00D
:1021A000E06805280BD14B48006A40F0040049491B
:1021B00008620846006A40F0010008620AE04548EB
:1021C000006A20F00100434908620846006A20F0D6
:1021D0000400086200BFE068A0B1FFF733FA0546CB
:1021E00009E0FFF72FFA401B41F28831884202D9FB
:1021F000032077E622E03748006A00F0020000285A
:10220000EFD012E0FFF71EFA054608E0FFF71AFAD2
:10221000401B41F28831884201D9032062E62D48F3
:10222000006A00F002000028F0D1012F05D12948F2
:10223000C06920F080502749C86100BFE069C8B379
:102240002448406800F00C00082860D0E0690228AB
:1022500048D1002020490866FFF7F4F9054606E05A
:10226000FFF7F0F9401B022801D903203AE619488C
:10227000006800F000700028F2D1206AB0F5803FBD
:1022800007D11448406820F40030A1680843114980
:102290004860D4E9080108430E49496821F47411E3
:1022A00008430C49486001200B490866FFF7CAF94A
:1022B000054607E03DE0FFF7C5F9401B022801D9BC
:1022C00003200FE60348006800F000700028F2D0F9
:1022D0002FE0000000100240000042428004424211
:1022E00000700040002014490866FFF7ABF905466E
:1022F00006E0FFF7A7F9401B022801D90320F1E50A
:102300000E48006800F000700028F2D111E0E0698A
:10231000012800D1E6E50948466806F48031206AC4
:10232000814204D106F47011606A814201D001201B
:10233000D8E50020D6E5000000004242001002402F
:1023400010B504460CB9012010BD606A38B9606848
:10235000B0F5827F00D105E00021E16102E00021BB
:10236000216161610021A16294F8510028B9002027
:1023700084F85000204600F043F8022084F8510011
:102380002068006820F0400021680860A08800F400
:102390008270218901F404410843A18901F400619C
:1023A0000843217C01F002010843217D01F0010175
:1023B0000843218B01F400710843217F01F03801AB
:1023C00008432021095D01F080010843218D01F4BB
:1023D00000510843216808600421A06901EA104007
:1023E000216848602068C06920F400602168C861E5
:1023F00000206065012084F851000020A4E700005F
:1024000010B586B004460020029003900490059019
:102410001A49206888422FD100BF1948C06940F48A
:1024200080401749C8610846C06900F480400190A7
:1024300000BF00BF00BF0846806940F00800886107
:102440000846806900F00800019000BF00BF4FF40B
:1024500020400290022003900320059002A9094821
:10246000FEF74AFF4FF48040029000200390049052
:1024700002A90448FEF740FF06B010BD0038004036
:1024800000100240000C01407047704710B5034631
:10249000002200BF93F83C00012801D1022010BDAA
:1024A000012083F83C0000BF22F0FF00CC6840EA26
:1024B000040222F440708C6840EA040222F4806036
:1024C0004C6840EA040222F400600C6840EA04020E
:1024D00022F480500C6940EA040222F400504C6956
:1024E00040EA040222F48040CC6940EA0402186801
:1024F000426400BF002083F83C0000BF00BFCEE76D
:1025000030B502460B4600BF92F83C00012801D1CD
:10251000022030BD012082F83C0000BF022082F87A
:102520003D00106844681068816824F070041868E1
:10253000044310684460144D1068A84213D0134D32
:102540001068A8420FD01068B0F1804F0BD0104D2A
:102550001068A84207D00F4D1068A84203D00E4D56
:102560001068A84205D121F0800158680143106825
:102570008160012082F83D0000BF002082F83C000D
:1025800000BF00BFC5E70000002C0140003401403F
:102590000004004000080040000C004010B5044654
:1025A0000CB9012010BD94F83D0028B9002084F832
:1025B0003C00204600F026F8022084F83D00211D52
:1025C000206801F099FA012084F8460000BF84F8E1
:1025D0003E0001213F200155402001554120015579
:1025E00000BF00BF012084F8420043200155442071
:1025F00001554520015500BF012084F83D00002011
:10260000D0E7000008B51B4A016891420DD100BF18
:102610001949896941F40061174A91611146896934
:1026200001F40061009100BF23E00168B1F1804F27
:102630000DD100BF1049C96941F001010E4AD161B5
:102640001146C96901F00101009100BF11E00B4A78
:10265000016891420DD100BF0749C96941F00401E9
:10266000054AD1611146C96901F00401009100BF1A
:1026700000BF08BD002C01400010024000080040CF
:10268000014691F83D00012801D001207047022049
:1026900081F83D000868C06840F001000B68D86010
:1026A000164B0868984213D0154B086898420FD013
:1026B0000868B0F1804F0BD0124B0868984207D0E1
:1026C000114B0868984203D0104B086898420CD10F
:1026D0000868806800F00702062A0CD008680068C5
:1026E00040F001000B68186005E00868006840F0E1
:1026F00001000B6818600020C8E70000002C0140B2
:10270000003401400004004000080040000C00407C
:102710002DE9F04104460D46002700BF94F83C0027
:10272000012802D10220BDE8F081012084F83C009C
:1027300000BF022084F83D002068866826F07706F6
:1027400026F47F46206886602868502833D00CDC49
:10275000202850D004DC00284BD0102851D149E06B
:10276000302849D040284CD139E060282DD070283D
:1027700007D0B0F5805F03D0B0F5005F41D10DE028
:1027800041E0D5E902136A68206801F01CFA20686C
:10279000866846F077062068866034E0D5E9021343
:1027A0006A68206801F00FFA2068806840F4804071
:1027B0002168886027E0EA686968206801F0F4FA17
:1027C0005021206801F00AFA1DE0EA686968206873
:1027D00001F0FDFA6021206801F000FA13E0EA68D8
:1027E0006968206801F0E0FA4021206801F0F6F9FC
:1027F00009E000BF00BF00BF2968206801F0EEF9C2
:1028000001E0012700BF00BF012084F83D0000BFA8
:10281000002084F83C0000BF384684E72DE9F041F1
:1028200004460D4614B90120BDE8F08194F83D003E
:1028300028B9002084F83C00204600F051F802201E
:1028400084F83D002068806844F2070188432168CD
:102850008860211D206801F04FF92068D0F80880B9
:10286000206886692068076A286840EA080840F2FC
:1028700003308643A969A86840EA0120064340F670
:102880000C4086434FF2F0008643E969E86840EA6D
:102890000120064328690001296A40EA0130064305
:1028A00027F022076969686840EA01100743206839
:1028B000C0F808802068866120680762012084F8DB
:1028C000460084F83E0001213F200155012084F894
:1028D000420043200155012084F83D000020A3E779
:1028E00010B586B004460020029003900490059035
:1028F0001A49206888422FD100BF1948C06940F0AA
:1029000002001749C8610846C06900F00200019042
:1029100000BF00BF00BF0846806940F00800886122
:102920000846806900F00800019000BF00BF302019
:102930000290002003900120049002A90948FEF7AC
:10294000DBFC00BF0849486820F4406040F0E060CC
:1029500040F40060486000BF06B010BD00040040B5
:1029600000100240000C014000000140704770B5AB
:1029700004462068C5682068066906F0020002283F
:1029800019D105F00200022815D1401F2168086105
:10299000012020772068806900F0030018B12046EC
:1029A000FFF7E4FF05E0204600F000F9204600F0C4
:1029B000B4F90020207706F00400042819D105F0AE
:1029C0000400042815D1C043216808610220207743
:1029D0002068806900F4407018B12046FFF7C6FFF8
:1029E00005E0204600F0E2F8204600F096F90020CD
:1029F000207706F00800082819D105F008000828FB
:102A000015D1C04321680861042020772068C0697F
:102A100000F0030018B12046FFF7A8FF05E02046AC
:102A200000F0C4F8204600F078F90020207706F086
:102A30001000102819D105F01000102815D1C0433E
:102A400021680861082020772068C06900F4407080
:102A500018B12046FFF78AFF05E0204600F0A6F8EF
:102A6000204600F05AF90020207706F0010048B116
:102A700005F0010030B16FF00100216808612046C7
:102A800000F0A0F906F08000802809D105F0800050
:102A9000802805D1C043216808612046FFF7F4FC77
:102AA00006F04000402809D105F04000402805D13B
:102AB000C04321680861204600F090F906F020002C
:102AC000202809D105F02000202805D1C043216825
:102AD00008612046FFF7D9FC70BD000010B586B034
:102AE0000446002002900390049005902A49206833
:102AF000884217D100BF2948806940F00400274967
:102B000088610846806900F00400019000BF00BFA2
:102B10008815029002200390059002A92048FEF734
:102B2000EBFB36E02068B0F1804F17D100BF1B48A7
:102B3000806940F00400194988610846806900F006
:102B40000400019000BF00BF01200290022003900A
:102B5000059002A91248FEF7CFFB1AE01149206840
:102B6000884216D100BF0D48806940F008000B492B
:102B700088610846806900F00800019000BF00BF2E
:102B80008815029002200390059002A90648FEF7DE
:102B9000B3FB06B010BD0000002C01400010024045
:102BA0000008014000080040000C014070472DE97A
:102BB000F04104460D461646002700BF94F83C003D
:102BC000012802D10220BDE8F081012084F83C00F8
:102BD00000BF36B1042E1BD0082E31D00C2E5ED192
:102BE00045E02946206801F003F82068806940F03C
:102BF0000800216888612068806920F0040021684D
:102C0000886120688069296908432168886148E0F3
:102C10002946206801F024F82068806940F40060AB
:102C2000216888612068806920F48060216888615B
:102C300020688069296940EA01202168886130E0C4
:102C40002946206801F04AF82068C06940F0080071
:102C50002168C8612068C06920F004002168C8614B
:102C60002068C069296908432168C86119E02946BC
:102C7000206801F06FF82068C06940F400602168A6
:102C8000C8612068C06920F480602168C86120683C
:102C9000C069296940EA01202168C86101E0012773
:102CA00000BF00BF00BF002084F83C0000BF3846D2
:102CB00089E710B504460CB9012010BD94F83D0019
:102CC00028B9002084F83C00204600F025F80220B6
:102CD00084F83D00211D206800F00EFF012084F8DB
:102CE000460000BF84F83E0001213F2001554020EE
:102CF00001554120015500BF00BF012084F842006A
:102D000043200155442001554520015500BF0120B5
:102D100084F83D000020D0E77047704730B5044686
:102D20000D4600222946206800F03CFF2349206818
:102D3000884203D022492068884201D1012000E066
:102D4000002090B100BF2068006A41F211110840D4
:102D500050B92068006A8910084028B92068406C82
:102D600020F400402168486400BF00BF2068006A6A
:102D700041F21111084050B92068006A89100840DA
:102D800028B92068006820F001002168086000BFB1
:102D90001DB9012084F83E000EE0042D03D101216D
:102DA0003F20015508E0082D03D1012140200155A5
:102DB00002E0012141200155002030BD002C0140DE
:102DC0000034014010B5044603492068884201D10F
:102DD000FEF7A0FD10BD00000010004070477047D6
:102DE000704700002DE9F84F044620680568206808
:102DF000C668206847694FF00009CA4605F00F0908
:102E0000B9F1000F0AD105F0200038B106F020001A
:102E100020B1204601F048F8BDE8F88FB9F1000F65
:102E20007BD007F0010018B906F49070002874D028
:102E300005F0010030B106F4807018B1606C40F00C
:102E40000100606405F0040030B107F0010018B122
:102E5000606C40F00200606405F0020030B107F0E1
:102E6000010018B1606C40F00400606405F00800D7
:102E700048B106F0200010B907F0010018B1606CED
:102E800040F008006064606C002845D005F0200028
:102E900028B106F0200010B1204601F005F82068A6
:102EA0004069C0F3801A606C00F0080010B9BAF1F4
:102EB000000F2CD0204600F0B1FF2068406900F0E0
:102EC000400000B300BF00BF2168143151E8001F6B
:102ED00021F040002168143141E80002002AF3D1BA
:102EE00000BFE06B50B17748E16B4863E06BFEF7E1
:102EF0001FF988B1E06B416B88470DE02046FFF772
:102F00006FFF09E009E02046FFF76AFF04E0204672
:102F1000FFF766FF002060647EE7206B012877D111
:102F200005F01000002873D006F010000028FAD039
:102F300000BF002000902068006800902068406872
:102F4000009000BF00BF2068406900F040000028EA
:102F50005FD0E06B006840681FFA80F8B8F1000F9E
:102F600055D0A08D404552DDA4F82E80E06B8069DD
:102F7000202843D000BF00BF21680C3151E8001F5A
:102F800021F4807021680C3141E80002002AF3D15D
:102F900000BF00BF00BF2168143151E8001F21F0BD
:102FA00001002168143141E80002002AF3D100BF7A
:102FB00000BF00BF2168143151E8001F21F040001C
:102FC0002168143141E80002002AF3D100BF20201B
:102FD00084F842000020206300BF00BF21680C314C
:102FE00051E8001F21F0100021680C3141E8000277
:102FF000002AF3D100BFE06BFEF76EF80220606399
:10300000A08DE28D801A81B22046FFF7E8FE03E72B
:1030100042E0A08DE18D401A1FFA80F8E08DD0B318
:10302000B8F1000F37D000BF00BF21680C3151E864
:10303000001F21F4907021680C3141E80002002A41
:10304000F3D100BF00BF00BF2168143151E8001F59
:1030500021F001002168143141E80002002AF3D177
:1030600000BF202084F842000020206300BF00BF82
:1030700021680C3151E8001F21F0100021680C314B
:1030800041E80002002AF3D100BF022060634146FC
:103090002046FFF7A4FEBFE605F0800030B106F041
:1030A000800018B1204600F0FBFFB5E605F04000B7
:1030B00030B106F0400018B1204600F0E5FEABE666
:1030C00000BFA9E6093E000810B504460CB901206E
:1030D00010BDA06900B100E000BF94F8410028B91C
:1030E000002084F84000204600F02AF8242084F8CC
:1030F00041002068C06820F400502168C860204664
:1031000000F050FF2068006920F4904021680861B9
:103110002068406920F02A00216848612068C06862
:1031200040F400502168C86000206064202084F8CA
:10313000410084F842000020606300BFC8E700003F
:1031400010B586B0044600200290039004900590CC
:1031500057492068884238D100BF5648C06940F4BA
:1031600000205449C8610846C06900F4002001905D
:1031700000BF00BF00BF0846806940F010008861B2
:103180000846806900F01000019000BF00BF0815DC
:103190000290022003900320059002A94648FEF702
:1031A000ABF84FF4006002900020039001200490DF
:1031B00002A94148FEF7A0F8002205213420FEF7BD
:1031C0005DFC3420FEF74AFC6FE03C4920688842F1
:1031D00030D100BF3748806940F48040354988616C
:1031E0000846806900F48040019000BF00BF00BF26
:1031F0000846806940F0040088610846806900F054
:103200000400019000BF00BF481502900220039007
:103210000320059002A92A48FEF76EF84FF480605B
:103220000290002003900120049002A92448FEF798
:1032300063F83AE023492068884236D100BF1D4830
:10324000C06940F400301B49C8610846C06900F4F9
:103250000030019000BF00BF00BF0846806940F009
:10326000040088610846806900F00400019000BFF6
:1032700000BF04200290022003900320059002A9C1
:103280000F48FEF739F80820029000200390012033
:10329000049002A90A48FEF72FF8002205212620F3
:1032A000FEF7ECFB2620FEF7D9FB06B010BD0000B0
:1032B000004C004000100240001001400038014066
:1032C000000801400044004070472DE9F84F0446D3
:1032D0000E46174699464FF0000A94F84100202800
:1032E00050D106B117B90120BDE8F88F0020606405
:1032F000212084F84100FEF7A5F98246A784E784DF
:10330000A068B0F5805F04D1206910B90025B046EF
:1033100002E035464FF000081EE0534600228021AF
:103320002046CDF8009000F0EBFE20B1202084F87C
:1033300041000320D8E745B9B8F80000C0F3080001
:103340002168486008F1020803E028782168486095
:103350006D1CE08C401EE084E08C0028DDD15346DB
:10336000002240212046CDF8009000F0C9FE20B197
:10337000202084F841000320B6E7202084F8410093
:103380000020B1E70220AFE7704700BFFEE7000072
:103390000EB5002000900190029033483349086038
:1033A00081153248816001210173002101754FF4BC
:1033B0006021C16100202D49486004212B48016132
:1033C000FDF776FD08B1FDF7BFFC04200090012059
:1033D00001900720029069462448FDF7B9FC08B126
:1033E000FDF7B2FC082000900220019069461F48BA
:1033F000FDF7AEFC08B1FDF7A7FC09200090032003
:10340000019069461948FDF7A3FC08B1FDF79CFC43
:103410000A2000900420019069461448FDF798FCAA
:1034200008B1FDF791FC04200090022001900020DB
:10343000029069460D48FDF78BFC08B1FDF784FC4E
:103440000320019069460948FDF782FC08B1FDF7A9
:103450007BFC0420019069460448FDF779FC08B123
:10346000FDF772FC0EBD000000240140A00000200A
:1034700000B585B00020019002900390049000BF39
:103480005848806940F020005649886108468069A4
:1034900000F02000009000BF00BF00BF0846806918
:1034A00040F0100088610846806900F0100000902C
:1034B00000BF00BF00BF0846806940F0040088617B
:1034C0000846806900F00400009000BF00BF00BF04
:1034D0000846806940F0080088610846806900F06D
:1034E0000800009000BF00BF012204213E48FEF703
:1034F000A3F8002202213D48FEF79EF801221103A5
:103500003B48FEF799F800224FF400713848FEF767
:1035100093F80420019001200290002003900220E3
:10352000049001A93048FDF7E7FE08200190002033
:103530000290039001A92C48FDF7DEFE02200190C5
:1035400001200290002003900220049001A9274846
:10355000FDF7D2FE30200190264802900020039013
:1035600001A92148FDF7C8FE4FF4905001900120B9
:103570000290002003900220049001A91C48FDF74E
:10358000BBFE4FF470700190002002900120039068
:1035900001A91548FDF7B0FE4FF480500190164880
:1035A00002900020039001A90F48FDF7A5FE00221C
:1035B00006210A20FEF762FA0A20FEF74FFA0022DF
:1035C00006211720FEF75AFA1720FEF747FA0022C5
:1035D00006212820FEF752FA2820FEF73FFA05B010
:1035E00000BD000000100240001001400008014032
:1035F000000C0140000011100000211010B50B4814
:103600000B4908600B484860002109488160C1608F
:103610004FF480410161002141618161C16101621A
:10362000FEF728F808B1FDF78FFB10BD00540040ED
:10363000D0000020A086010010B50B480B4908609F
:103640000B484860002109488160C1604FF4804107
:103650000161002141618161C1610162FEF70AF8E7
:1036600008B1FDF771FB10BD005800402401002097
:10367000A086010010B50E480E4908604FF4827014
:10368000486000210B488160C160016141614FF4D5
:10369000007181611021C16100210162416281627A
:1036A0000A21C162FEF74CFE08B1FDF74DFB10BDCB
:1036B000003800407801002000B595B0002011903E
:1036C0001290139014900F9010901C2108A8FCF7F2
:1036D000C2FD20216846FCF7BEFD2C482C4908603D
:1036E0000020486000212A48816044F24F61C16097
:1036F0000021016141618161FEF750FF08B1FDF7D2
:1037000023FB4FF48050119011A92148FFF700F8D6
:1037100008B1FDF719FB1E48FFF7CBFA08B1FDF71A
:1037200013FB00200F9010900FA91948FEF7E8FE38
:1037300008B1FDF709FB6020089042F2283009909B
:1037400000200A900B900C900D900E90002208A97A
:103750000F48FFF72CFA08B1FDF7F6FA00200090A9
:1037600001900290039004904FF4005005900020C7
:10377000079069460648FEF789FE08B1FDF7E4FAAE
:103780000348FFF7ABF915B000BD0000002C014065
:10379000D001002000B58DB0002009900A900B9058
:1037A0000C90079008901C216846FCF754FD4FF0E0
:1037B00080401F4908604720486000211C48816004
:1037C00040F2E731C160002101618161FEF7E6FE50
:1037D00008B1FDF7B9FA4FF48050099009A91448CF
:1037E000FEF796FF08B1FDF7AFFA1148FFF761FA4F
:1037F00008B1FDF7A9FA00200790089007A90C4826
:10380000FEF77EFE08B1FDF79FFA602000900020D1
:10381000019002900490002269460548FFF7C7F91D
:1038200008B1FDF791FA0248FFF758F90DB000BD55
:103830001802002000B58BB0242102A8FCF70BFD74
:103840000020009001901948194908600020486044
:103850000021174881604FF6FF71C16000210161AE
:103860008161032002900020039001200490002039
:103870000590062006900020079001200890002067
:10388000099006200A9002A90948FEF7C7FF08B16F
:10389000FDF75AFA00200090019069460448FEF7AF
:1038A0002FFE08B1FDF750FA0BB000BD0004004038
:1038B0006002002000B58DB0002009900A900B90A6
:1038C0000C90079008901C216846FCF7C4FC204827
:1038D000204908600020486000211E48816040F6B1
:1038E0000F61C160002101618161FEF757FE08B1DF
:1038F000FDF72AFA4FF48050099009A91548FEF700
:1039000007FF08B1FDF720FA1248FFF7D2F908B116
:10391000FDF71AFA00200790089007A90D48FEF756
:10392000EFFD08B1FDF710FA602000900020019033
:1039300002900490082269460648FFF738F908B15A
:10394000FDF702FA0348FFF7C9F80DB000BD00000B
:1039500000080040A802002010B50B480B49086081
:103960004FF4E1304860002108488160C160016186
:103970000C21416100218161C161FFF7A5FB08B104
:10398000FDF7E2F910BD0000004C0040F0020020FD
:1039900010B50B480B4908604FF4E1304860002136
:1039A00008488160C16001610C2141610021816191
:1039B000C161FFF789FB08B1FDF7C6F910BD000032
:1039C000003801403803002010B50B480B4908604F
:1039D0004FF416504860002108488160C1600161C1
:1039E0000C21416100218161C161FFF76DFB08B1CC
:1039F000FDF7AAF910BD000000440040800300203C
:103A000000BFFEE700BFFEE708B508490968C9081E
:103A10004FF47A72B1FBF2F14143009100BF00BF55
:103A200000994A1E00920029F9D108BD0C0000201F
:103A300010B500BF502080F31188BFF34F8FBFF344
:103A40006F8F00BF02F09CFE18B14FF08050044908
:103A5000086000BF002080F3118800BF10BD000087
:103A600004ED00E000B595B028210BA8FCF7F3FBAE
:103A7000142106A8FCF7EFFB18216846FCF7EBFBC6
:103A800001200B9000040C9000200D9001200F905D
:103A900002201290C10313914FF4E01114910BA86E
:103AA000FEF71CFA08B1FDF74FF90F20069002202F
:103AB0000790002008904FF48060099000200A9041
:103AC000022106A8FEF7C4F808B1FDF73DF902206F
:103AD0000090800302906846FEF722F808B1FDF7D7
:103AE00033F915B000BD704710B50248FEF73FFF2F
:103AF00010BD0000C803002010B50268244B984296
:103B00000ED0244B98420BD0B0F1804F08D0224BFE
:103B1000984205D0214B984202D0214B984203D1C4
:103B200022F070024B681A43194B98420ED0194B81
:103B300098420BD0B0F1804F08D0174B984205D077
:103B4000164B984202D0164B984203D122F4407291
:103B5000CB681A4322F080034C6943EA04020260F6
:103B60008B68C3620B688362094B984202D0094B91
:103B7000984201D10B69036301234361036903F098
:103B800001031BB1036923F00103036110BD0000B1
:103B9000002C0140003401400004004000080040B7
:103BA000000C004030B501F01F05012404FA05F3B4
:103BB000046A9C430462046A01F01F0502FA05F5D9
:103BC0002C43046230BD30B50C46816821F47F413E
:103BD00042EA032525432943816030BD0A468168B6
:103BE00021F0700142F00703194381607047000023
:103BF00030B5026A056A25F00105056243688469EB
:103C000024F0700424F003040D682C4322F0020217
:103C10008D682A43104DA84200D103E00F4DA84201
:103C200006D100BF22F00802CD682A4322F0040228
:103C3000094DA84202D0094DA84207D123F4807350
:103C400023F400734D692B438D692B4343608461DA
:103C50004D684563026230BD002C014000340140D4
:103C600030B5026A056A25F010050562436884696B
:103C700024F4E04424F440740D6844EA052422F05E
:103C800020028D6842EA0512124DA84200D103E0DD
:103C9000114DA84207D100BF22F08002CD6842EA50
:103CA000051222F040020B4DA84202D00A4DA84254
:103CB00009D123F4806323F400634D6943EA85034B
:103CC0008D6943EA8503436084614D6885630262C0
:103CD00030BD0000002C01400034014030B5026AC4
:103CE000056A25F4807505624368C46924F0700490
:103CF00024F003040D682C4322F400728D6842EA1C
:103D00000522124DA84200D103E0114DA84207D16F
:103D100000BF22F40062CD6842EA052222F48062EC
:103D20000A4DA84202D00A4DA84209D123F480537B
:103D300023F400534D6943EA05138D6943EA0513E3
:103D40004360C4614D68C563026230BD002C014010
:103D50000034014030B5036A056A25F480550562D8
:103D60004468C26922F4E04222F440720D6842EADB
:103D7000052223F400538D6843EA0533084DA84219
:103D800002D0084DA84204D124F480444D6944EA8D
:103D900085144460C2614D680564036230BD000053
:103DA000002C01400034014030B50B461446026A35
:103DB000056A25F001050562816921F0F00141EAFB
:103DC000041122F00A021A438161026230BD30B54B
:103DD0000B461446026A056A25F0100505628169E2
:103DE00021F4704141EA043122F0A00242EA0312B8
:103DF0008161026230BD000010B50248FEF7F2FF9B
:103E000010BD0000F002002070B505466C6A00206D
:103E1000E085E0842046FEF7E3FF70BD00BF00BFF1
:103E200002680C3252E8002F22F4907102680C32C2
:103E300042E80013002BF3D100BF00BF00BF0268AF
:103E4000143252E8002F22F001010268143242E8D5
:103E50000013002BF3D100BF016B01290ED100BF6D
:103E600000BF02680C3252E8002F22F010010268F5
:103E70000C3242E80013002BF3D100BF202180F860
:103E8000421000210163704710B504462068C068E5
:103E900020F040002168C860202084F841002046BE
:103EA000FFF772FA002010BDF8B5044694F84200FE
:103EB000222875D1A068B0F5805F0CD1206950B977
:103EC0000025A66A20684068C0F308003080A06A18
:103ED000801CA06215E0A56A0026A068B0F5805F8E
:103EE00003D0A06828B9206918B9206840682870F4
:103EF00004E02068406800F07F002870A06A401C41
:103F0000A062E08D401E80B2E085002846D1206886
:103F1000C06820F020002168C8602068C06820F4D4
:103F200080702168C8602068406920F00100216825
:103F30004861202084F8420000206063206B012843
:103F400026D10020206300BF00BF21680C3151E85A
:103F5000001F21F0100021680C3141E80002002A06
:103F6000F3D100BF2068006800F0100010280AD1CB
:103F700000BF002000902068006800902068406822
:103F8000009000BF00BFA18D2046FEF728FF02E091
:103F90002046FFF799F90020F8BD01E00020FBE77B
:103FA0000220F9E770B504462168096921F44051FF
:103FB000E2681143226811612269A16811436269B4
:103FC00041EA02052168C96841F20C629143294324
:103FD0002268D1602168496921F44071A2691143C6
:103FE000226851612D4A2168914202D1FDF72EFFCE
:103FF00001E0FDF71BFF00EBC00101EB001162685F
:104000009200B1FBF2F100EBC00202EB0012636818
:104010009B00B2FBF3F26423B2FBF3F202EBC203A8
:1040200003EB0212A1EB8201322202EB01116422A6
:10403000B1FBF2F101F0F00100EBC00202EB001263
:1040400063689B00B2FBF3F26423B2FBF3F201EB73
:10405000021200EBC00101EB001163689B00B1FB91
:10406000F3F100EBC00303EB00136668B600B3FB8B
:10407000F6F36426B3FBF6F303EBC30606EB031378
:10408000A1EB8301322303EB01116423B1FBF3F1B4
:1040900001F00F0111442268916070BD00380140A9
:1040A000014691F84100212828D18868B0F5805F49
:1040B0000BD1086948B90A6A1088C0F308000B6878
:1040C0005860086A801C086205E00B6A581C086288
:1040D00018780B685860C88C401E80B2C88458B9E4
:1040E0000868C06820F080000B68D8600868C06865
:1040F00040F040000B68D860002070470220FCE7C9
:104100002DE9F84304460D4617469846089E31E0CF
:10411000701C70B3FDF796FAA0EB0800B04200D80F
:1041200016B90320BDE8F8832068C06800F00400D9
:10413000F8B1802D1ED0402D1CD020680068C0F33F
:10414000C000B0B100BF002000902068006800905F
:1041500020684068009000BF00BF2046FFF75EFE69
:104160000820606400BF002084F8400000BF0120E8
:10417000D8E7FFE7206800682840A84201D1012065
:1041800000E00020B842C3D00020CBE710B50248C1
:10419000FEF728FE10BD00008003002000BFFEE7F0
:1041A0007CB50C001D461646014601D0601E00E09D
:1041B0000020CDE90010064B6A462946304600F043
:1041C000F7F8002C02D0009A002111707CBD00008D
:1041D000B74A000802480068C0F302207047000098
:1041E0000CED00E010B5002804DB0A07130E054AA9
:1041F000135406E00A07140E034A00F00F031B1FB6
:10420000D45410BD00E400E018ED00E002E008C85E
:10421000121F08C1002AFAD170477047002001E040
:1042200001C1121F002AFBD1704700002DE9FF5F7A
:1042300082B00021DDE90430020DDDF840B0034317
:1042400018D044F61050A2F2FF32424315141198D0
:1042500001281FD0A5EB0B00401C5FEA000A4FF0BD
:1042600000064E4FDFF83891B046504615D5CAF1DA
:10427000000413E0119801244AA3012801D16FEA38
:104280000B010298119AC0E90031C0E9024206B060
:10429000BDE8F09FCBF10000DFE704460021404A73
:1042A000491842EB0450CDE9001012E0E00707D0B6
:1042B00032463B4640464946FCF7CDF880468946A3
:1042C00032463B4610461946FCF7C5F806460F46EF
:1042D0006410002CEAD1DDE90401DDE90023BAF124
:1042E000000F06DAFCF7B7F842464B46FCF7B3F886
:1042F00005E0FCF722F942464B46FCF71EF904465E
:104300000E460022284BFCF79FF903D84FF0FF30F0
:10431000014607E00022254B20463146FBF7F4FF1B
:10432000FCF77AF9102409E0002C0ADB0A220023AA
:10433000FBF7B9FF039B30321A55641E50EA0102A5
:10434000F2D1641C039AC4F111031444119A012A96
:1043500003D0012208430DD10AE0084304D0002015
:104360004FF0110B119072E7A3EB0B056D1E0DE0E2
:104370005B4504DD4FF0000205F1010504E003DABE
:104380004FF00002A5F10105002AECD00298119926
:10439000C0E90231C0E9004579E70000000014409F
:1043A0000000F03F300000000000F0430000E03F5C
:1043B0002DE9FF4F95B09A46884606460025EEE166
:1043C000252877D100242746F94A0121039400E0EB
:1043D000044316F8013F203B01FA03F01042F7D1E5
:1043E00030782A2811D06FF02F033078A0F13002F6
:1043F000092A16D8039A44F0020402EB820203EB66
:1044000042021044761C0390EFE758F8042B039205
:10441000002A03DA504244F40054039044F00204AA
:10442000761C30782E2816D116F8010F44F00404BB
:104430002A280DD06FF02F023078A0F13003092B1D
:1044400009D807EB870302EB4303C718761CF3E791
:1044500058F8047B761C30786C280FD006DC4C288A
:1044600017D068280DD06A2814D104E0742810D021
:104470007A280FD10DE044F400140AE044F48014CB
:1044800001E044F440147278824202D104F58014B1
:10449000761C761C307866280BD013DC582877D031
:1044A00009DC002875D04528F6D04628F4D04728E6
:1044B0001AD193E118E0632835D0642879D06528B3
:1044C00012D18BE1702873D008DC6728F1D06928FD
:1044D0006FD06E280DD06F2806D1ACE073282CD099
:1044E000752874D0782853D05246179990476D1C80
:1044F00054E1C4F30250022809D003280DD0D8F8A3
:10450000001004280DD00D6008F1040846E1D8F829
:104510000010EA17C1E90052F6E7D8F800100D8044
:10452000F2E70D70F0E718F8041B8DF8001000207A
:104530008DF80100EB46012003E058F804BB4FF072
:10454000FF3061074FF0000102D40DE009F10101D5
:104550008946B9420FDA8145F8DB1BF809100029BA
:10456000F4D108E009F1010189468142FADB1BF828
:1045700009100029F6D103985346A0EB09072146FC
:104580003846179A00F080FA284400EB090507E046
:1045900044E008E10DE01BF8010B524617999047E3
:1045A000B9F10109F7D2534621463846179AF2E08D
:1045B00039E00A21C4F302524FF0000B0091022AA5
:1045C00006D058F8040BC117032A09D00AE023E0EB
:1045D00008F1070020F00702F2E80201904605E02A
:1045E00000B2C117042A01D140B2C117002906DA6E
:1045F0000A460021404261EB02012D2202E0220521
:1046000004D52B228DF80420012203E0E20701D01B
:104610002022F7E7914657E00A2100E010214FF0F1
:10462000000B00910BE010214FF0000B44F004044C
:104630000827009103E008204FF0000B0090C4F31E
:104640000252022A05D058F8040B0021032A08D090
:1046500008E008F1070020F00702F2E802019046A6
:1046600003E080B2042A00D1C0B24FF00009220753
:104670002AD53278702A07D0DDF800C08CF0100CF3
:104680005CEA0B0C05D00EE040228DF804200122DC
:1046900008E050EA010306D030238DF804308DF88D
:1046A000052002229146009B83F0080353EA0B0386
:1046B0000AD150EA010201D1620705D530228DF8F6
:1046C00004204FF001097F1E3278582A04D039A205
:1046D0000C920CAA02920BE03BA2F9E75B46009A0F
:1046E000FBF7E1FD0C9B9B5C029A521E0292137039
:1046F00050EA0102F2D1029804A9081A00F1200B35
:10470000600702D524F4803400E001275F4502DD14
:10471000A7EB0B0000E0002000EB0B0100900398DA
:104720004944401A0390E00306D453462146179AA1
:10473000039800F0A9F90544002706E001A85246B5
:10474000C05D179990476D1C7F1C4F45F6DBE00359
:104750000CD553462146179A039800F095F9054465
:1047600004E030205246179990476D1C0099481E6E
:1047700000900029F5DC08E0029802995246007882
:10478000491C0291179990476D1CBBF10001ABF1D8
:10479000010BF1DC5BE100F065F90544761C307833
:1047A00000287FF40DAE19B02846BDE8F08F000058
:1047B00009280100303132333435363738396162F7
:1047C00063646566000000003031323334353637BB
:1047D000383941424344454600000000600700D498
:1047E000062708F1070020F00700F0E802238046C2
:1047F00003F0004C5FEA0C0001D097A009E020050F
:1048000001D596A005E0E00701D095A001E0AFF248
:104810004C001390307823F0004365280CD006DC60
:10482000452809D046281DD047287FD13BE066287F
:1048300018D067287AD136E00021112F01DB112032
:1048400000E0781CCDE9000104A90CA8FFF7EEFCFC
:10485000DDE90D010C9A4FF0000B07F101091092F0
:1048600000914EE04FF000400097CDE9011004A9FF
:104870000CA8FFF7DBFCDDE90D020C9B0F994FF054
:10488000000B91461093009211B9791C00EB0109BD
:10489000B7EB090003D4C0F1FF3B07F10109A9EB15
:1048A0000700019042E0012F00DA01270021112FBB
:1048B00001DD112000E03846CDE9000104A90CA873
:1048C000FFF7B4FCDDE90D010C9A00914FF0000BED
:1048D000B946109221070FD4009A4A4503DA91464F
:1048E00001E0A9F10109B9F1010F05DD109AA9F163
:1048F0000101515C3029F4D0B84202DA10F1040F02
:1049000003DA0121CDE9011010E0002803DC834423
:10491000A9EB000102E0411C494500DD8946A0EBFE
:104920000B00401C01904FF000400290200705D47E
:104930000198484502DB4FF0FF30019000208DF8D0
:104940004B0002980DF14B07B0F1004F25D002202B
:104950000C902B200D90029800280CDA4042029017
:104960002D200D9007E00A210298FBF786FC3031DC
:10497000029007F8011D0C99481E0C900029F2DCEA
:1049800002980028EFD1791E0D980870307800F059
:10499000200040F0450007F8020D11A8C01BC01D03
:1049A00002901398007800B1012000EB09010198F2
:1049B00001EBE071029801440398401A401E0390F5
:1049C000E00306D453462146179A039800F05CF89A
:1049D00005441398007818B15246179990476D1CFA
:1049E000E00323D553462146179A039800F04CF86C
:1049F00005441BE0BBF1000F07DB0098584504DDC0
:104A00001098179910F80B0001E0179930205246C2
:104A1000904701980BF1010B401E05F10105019033
:104A200004D12E205246179990476D1CB9F1000110
:104A3000A9F10109DEDC05E017F8010B52461799D0
:104A400090476D1C0299481E02900029F4DC5346E1
:104A50002146179A03989EE62D0000002B000000C7
:104A6000200000002DE9F041044600251E461746AF
:104A7000880404D405E039462020B0476D1C641E2C
:104A8000F9D52846BDE8F0812DE9F041044600251E
:104A90001E469046C80301D5302700E02027880431
:104AA00004D505E041463846B0476D1C641EF9D573
:104AB0002846BDE8F0814A68002A06D00A68531CDF
:104AC0000B6010704868401E48607047FCF72EFF6E
:104AD000FEF7C8FFFEF7CCFCFEF75AFCFEF78EFD92
:104AE000FEF7AAFDFEF7C6FDFEF7E6FDFEF752FE55
:104AF000FEF7A0FEFEF7DEFEFEF72EFFFEF748FFF4
:104B0000FEF762FFFCF76AF800BFFEE72DE9F04709
:104B100005460E46294807682948D0F800802948EC
:104B2000D0F8009028480068001D00F0BBFE50B986
:104B30002548006890F82C10012088402349096816
:104B4000814322480160681CE0B9DEB100BF204902
:104B500048681D49096888601B4982680968CA60FD
:104B600019490968091D8268516017490968091DBA
:104B70008160174A144909684A6111460968491C4D
:104B8000116018E07C19104800684460BC4206D2ED
:104B90000D480168091D484600F0FAFE0BE00A487E
:104BA0000168091D404600F0F3FE0A48006884428F
:104BB00001D208480460BDE8F087000038000020FA
:104BC000280000202C000020240000203C000020B1
:104BD000240500205400002010B5044600F0F2FE29
:104BE00032480068401C314908603148006840B9CB
:104BF0002F4804600846006801280DD100F094FA9F
:104C00000AE02C48006838B929480068C06AE16A9F
:104C1000884201D82648046027480068401C26497D
:104C2000086000BF94F82C100120884023490968CF
:104C300008432249086000BFE16A01EB8101204A74
:104C400002EB81014868A0608268E260211D8268F1
:104C500051608160E16A01EB8101194A02EB810236
:104C60006261E16A01EB8101154A52F82110491C89
:104C7000E26A02EB8202124B43F8221000BF00BF2F
:104C800000F0CAFE0B48006878B100BF0848006811
:104C9000C06AE16A884207D24FF080500949086033
:104CA000BFF34F8FBFF36F8F00BF10BD34000020E4
:104CB0002400002040000020500000203C00002084
:104CC0007004002004ED00E010B500F07BFE1048F9
:104CD0000068D0B90F4800F04BFE0F4800F048FEC6
:104CE0000C480E4908600C480D490860002210214C
:104CF0000A2001F0D8F9064908600846006820B18A
:104D000008A10348006800F019FF00F085FE10BDFF
:104D10006C000020380500204C05002064000020B5
:104D200068000020546D72510000000010B516E0BC
:104D300000F048FE0C48C068C468201D00F0B2FDB9
:104D40000A480068401E0949086009480068401E7A
:104D50000749086000F060FE204600F0C0F80448F3
:104D600000680028E4D110BD1005002034000020A8
:104D70003000002070B504460D46206C70B1216CE7
:104D8000E0680144E160D4E90210884201D321685F
:104D9000E1602846226CE168FBF744FA70BD2DE91A
:104DA000F04104460F4615464FF00008A66B206CF4
:104DB00048B9206800282CD1A06801F0C7FD8046C2
:104DC0000020A06025E07DB93946226C6068FBF7C1
:104DD00029FA216C606808446060D4E901018842C6
:104DE00017D32068606014E03946226CE068FBF756
:104DF00019FA216CE068411AE1602168E068884294
:104E000003D2216CA068411AE160022D01D106B1E4
:104E1000761E701CA0634046BDE8F081F0B587B0F7
:104E200001260027002408E012A0005D03A9085510
:104E300003A8005D00B902E0641C102CF4DB00BF85
:104E4000002510E00D4F0E4800EB850000210B46B9
:104E50008022CDE9001003A9384601F05FFC064628
:104E600006B902E06D1C012DECDB00BF304607B037
:104E7000F0BD000049444C4500000000994F000877
:104E8000580000202DE9FF5F0746884616469946E0
:104E9000DDE90EABB00000F0E9FB054675B154202A
:104EA00000F0E4FB04462CB154212046FBF7D3F973
:104EB000256304E0284600F0CDFD00E0002454B155
:104EC00000204B4632464146CDE900ABCDE90240D9
:104ED000384600F097F8204604B0BDE8F09F10B5C2
:104EE0000446206B00F0B6FD204600F0B3FD10BD77
:104EF00001464A6A22B10A6B1268C2F1050000E05D
:104F0000002070470146084A126812680AB9012257
:104F100000E000220A600A6822B9034A1268D268D7
:104F2000106800E0002070476400002030B54FF4A6
:104F30000043144800F007042CB1C01D20F0070006
:104F4000104C041B1B1B104C206000240E4D6C6089
:104F5000C218083A22F007020C4C226000240B4DC4
:104F60002D686C60094D2D682C600146541A4C6008
:104F7000064C24680C60064D4C682C60054D4C684E
:104F80002C6030BD600500207800002080000020EB
:104F9000880000208400002000BFFFF7C7FE0648FD
:104FA00000680128F9D94FF0805004490860BFF328
:104FB0004F8FBFF36F8FF0E77004002004ED00E027
:104FC00010B5044654B10020A06020600021E160CB
:104FD00000231A461946204601F006F910BD2DE9B6
:104FE000F04106460D4617469846069C0DB92460CA
:104FF00000E02760E66325640121204601F086F881
:10500000BDE8F0812DE9F05F82460F4690469B4651
:105010000A9E0C9C4FEA8801A522206BFBF714F92D
:10502000A8F10100216B01EB800929F0070909F0C3
:10503000070008B9012000E0002050B900BF50204F
:1050400080F31188BFF34F8FBFF36F8F00BF00BF96
:10505000FEE77FB1002507E0795D04F1340041559A
:10506000785D00B902E06D1C102DF5D300BF002162
:1050700043200155052E01D2012000E0002050B947
:1050800000BF502080F31188BFF34F8FBFF36F8FA5
:1050900000BF00BFFEE7052E00D30426E66266646B
:1050A000201D00F072FC04F1180000F06EFC246179
:1050B000C6F10500A06164625A465146484600F0B8
:1050C000DFFB20600B9808B10B980460BDE8F09FEF
:1050D0002DE9F04706460D4617469846DDE9089447
:1050E0000DB1012000E0002050B900BF502080F336
:1050F0001188BFF34F8FBFF36F8F00BF00BFFEE774
:10510000FFF7E2FD2660A561C4F81C80C4F820907A
:10511000201D00F03AFC2FB194F8240040F0040068
:1051200084F82400BDE8F08710B5002407E004EB04
:1051300084010F4A02EB810000F01AFC641C052C6C
:10514000F5D30C4800F014FC0B4800F011FC0B48A0
:1051500000F00EFC0A4800F00BFC0A4800F008FCC6
:1051600004480949086004480849086010BD000067
:1051700070040020D4040020E8040020FC04002077
:105180001005002024050020280000202C0000200D
:1051900010B50146224800E0006803688B42FBD34B
:1051A0001F4B984214D01F4B984204D31E4B984279
:1051B00001D8012300E0002353B900BF502383F33B
:1051C0001188BFF34F8FBFF36F8F00BF00BFFEE7A3
:1051D0000246436813448B4204D143684C6823441D
:1051E000436001460A464B6813440468A34211D148
:1051F0000E4C03682468A34208D04B6804686468B6
:1052000023444B6003681B680B6005E0074B1B6879
:105210000B6001E003680B60884200D0016010BDA4
:1052200078000020600500205F85002080000020BD
:105230002DE9F04104460D4616461F464FF0000882
:1052400065602461B5420CD8F01BA169884202D385
:105250004FF0010811E0211D0948006800F098FB9B
:105260000BE0BE4204D2BD4202D34FF0010804E07D
:10527000211D0448006800F08BFB4046BDE8F0812A
:10528000680000206400002070B5054600F09AFB1D
:10529000A86B08B9012400E0002400F0BDFB204603
:1052A00070BD70B5054600F08DFBA86BE96B8842B8
:1052B00001D1012400E0002400F0AEFB204670BDC7
:1052C00070B505460E460E480068C068C468201DCB
:1052D00000F0E8FA94F8240000F0040028B1324607
:1052E0002946204600F0F2F805E094F8240000F08A
:1052F000FE0084F824002046216A884770BD000023
:105300006400002070B586B00020029003900490E5
:10531000059094E00298002811DA03AE56B900BF58
:10532000502080F31188BFF34F8FBFF36F8F00BF02
:1053300000BFFEE7D6E90020B168904700BF0298A1
:1053400000287CDB049C606908B9012000E0002093
:1053500010B9201D00F0A6FA01A800F0E3F80546F8
:1053600002980A2869D2DFE800F06805072E36584F
:1053700006082F3700BF00BF00BF94F8240040F09C
:10538000010084F824000398A269811803462A4684
:105390002046FFF74DFFA8B194F8240000F0040068
:1053A00038B10398A26981182A46204600F08EF889
:1053B00005E094F8240000F0FE0084F82400204664
:1053C000216A88473AE000BF94F8240000F0FE000C
:1053D00084F8240032E000BF94F8240040F001007B
:1053E00084F824000398A061A06908B1012000E0BE
:1053F000002050B900BF502080F31188BFF34F8FB9
:10540000BFF36F8F00BF00BFFEE7A06941192B46B5
:105410002A462046FFF70CFF10E094F8240000F025
:10542000020018B9204600F015FB05E094F82400AE
:1054300000F0FE0084F8240000E000BF00BF00225E
:1054400002A90448006800F0A3FF00287FF462AFBF
:1054500006B070BD6C000020F8B505460C4600F0A3
:1054600021FD684600F05EF80646009820BB44B96E
:10547000B54206D801F0F8FB31462846FFF720FF79
:105480001CE03CB10E480068006808B9012000E04B
:1054900000200446A91B22460A48006800F07EFB53
:1054A00001F0E2FB50B94FF0805007490860BFF3AC
:1054B0004F8FBFF36F8F01E001F0D6FBF8BD000006
:1054C000680000206C00002004ED00E070B5044688
:1054D0000D46164604E0A06905442046216A884727
:1054E000A06941192B4632462046FFF7A1FE00284D
:1054F000F1D170BD09480068006808B9012000E0DA
:10550000002020B14FF0FF300549086005E0034856
:105510000068C068006802490860704728000020E1
:105520005400002070B5044601F024F905460748F0
:105530000068854204D200F00BF80120206001E0F1
:105540000020206001480560284670BD74000020DE
:1055500070B508E00D480068C06804684FF0FF317E
:105560002046FFF7ADFE09480068006808B9012031
:1055700000E000200028EDD00448056804480068D9
:10558000024908600248056070BD00006400002008
:10559000680000200E480068401C08B9012000E0A7
:1055A000002050B900BF502080F31188BFF34F8F07
:1055B000BFF36F8F00BF00BFFEE700BF502080F336
:1055C0001188BFF34F8FBFF36F8F00BF00BFFEE79F
:1055D0009400002008B500BF6846FFF793FC04461E
:1055E00020460099FFF738FFFFF78CFEF4E770B50F
:1055F000044600F0E7F994F9455010E0606A08B9F4
:10560000012000E0002038B904F1240001F094FAF0
:1056100018B100F023FB00E003E0681E45B2002D46
:10562000ECDC00BFFF2084F8450000F0F5F900F045
:10563000C9F994F9445010E0206908B9012000E04C
:10564000002048B904F1100001F076FA08B100F02A
:1056500005FB681E45B200E001E0002DECDC00BF58
:10566000FF2084F8440000F0D7F970BD2DE9F04721
:1056700005464FF00008DDB115F1090F01D90120F1
:1056800000E0002098B9083505F0070080B105F06A
:105690000700C0F10809C9F1FF30A84201D201207A
:1056A00000E0002008B94D4402E0002500E000259C
:1056B00000F0F8FB6648006808B9FFF737FC0120E6
:1056C00000EBE570002877D0002DFCD06148006821
:1056D000854271D8604E304604686048844204D3E5
:1056E0005F48844201D8012000E0002050B900BF8B
:1056F000502080F31188BFF34F8FBFF36F8F00BF2F
:1057000000BFFEE716E0264624685448844204D3CE
:105710005348844201D8012000E0002050B900BF66
:10572000502080F31188BFF34F8FBFF36F8F00BFFE
:1057300000BFFEE76068A84202D220680028E2D1DC
:1057400043480068844267D0306800F10808434845
:10575000804504D34248804501D8012000E0002064
:1057600050B900BF502080F31188BFF34F8FBFF3B3
:105770006F8F00BF00BFFEE7206830606068A842FE
:1057800001D2012000E0002080F0010050B900BFEC
:10579000502080F31188BFF34F8FBFF36F8F00BF8E
:1057A00000BFFEE76068401B10281AD9671907F090
:1057B000070010B9012001E02EE0002050B900BF21
:1057C000502080F31188BFF34F8FBFF36F8F00BF5E
:1057D00000BFFEE76068401B786065603068386035
:1057E00037601C4960680968081A1A490860084649
:1057F00000681C490968884203D2164800681949A4
:105800000860606840F0004060600020206016483A
:105810000068401C1449086001F026FAB8F1000F36
:1058200001D100F053F808F0070008B9012000E0AA
:10583000002050B900BF502080F31188BFF34F8F74
:10584000BFF36F8F00BF00BFFEE74046BDE8F087A3
:1058500080000020840000207800002060050020E7
:105860005F850020880000208C0000200349086824
:1058700010B1816C491C8164704700002400002035
:10588000001F4FF080730360001F21F001030360CD
:10589000001F034B0360143802602038704700007B
:1058A0009555000801460A69D1E901309860D1E9AF
:1058B000010358605068884201D188685060002018
:1058C00008611068401E10601068704706A0FAF763
:1058D000D5FF00BF502080F31188BFF34F8FBFF377
:1058E0006F8F00BF00BFFEE75B4552525D206D61C8
:1058F0006C6C6F63206661696C65640D0A00000062
:105900000C464CB10BA0FAF7B9FF2046FAF7B6FFE8
:105910000EA0FAF7B3FF02E00DA0FAF7AFFF00BF49
:10592000502080F31188BFF34F8FBFF36F8F00BFFC
:1059300000BFFEE75B4552525D20737461636B20CC
:105940006F766572666C6F773A0000000D0A000092
:105950005B4552525D20737461636B206F76657294
:10596000666C6F773A756E6B6E6F776E0D0A00001E
:1059700000F1080141604FF0FF31816000F1080142
:10598000C160016100210160704700210161704721
:1059900010B502460B685C1C0CB9106907E002F1F7
:1059A000080000E04068446824689C42FAD94468D2
:1059B0004C604C68A160886041600A611468641C96
:1059C000146010BD00BF502080F31188BFF34F8FCB
:1059D000BFF36F8F00BF0E480068401C0C49086081
:1059E00008460068012812D10A480068C0B208B908
:1059F000012000E0002050B900BF502080F3118842
:105A0000BFF34F8FBFF36F8F00BF00BFFEE770473C
:105A10009400002004ED00E00D48006850B900BF7C
:105A2000502080F31188BFF34F8FBFF36F8F00BFFB
:105A300000BFFEE706480068401E054908600846AA
:105A4000006820B9002080F3118800BF00BF7047B4
:105A50009400002070B506463546002E50D0083D13
:105A60002C462848844204D32748844201D8012088
:105A700000E0002050B900BF502080F31188BFF330
:105A80004F8FBFF36F8F00BF00BFFEE76068C00F8E
:105A900050B900BF502080F31188BFF34F8FBFF380
:105AA0006F8F00BF00BFFEE7206808B9012000E04B
:105AB000002050B900BF502080F31188BFF34F8FF2
:105AC000BFF36F8F00BF00BFFEE76068C00FB8B1C3
:105AD0002068A8B9606820F00040606000F0E2F93A
