:020000040800F2
:1000000000700020E10100086D95000829870008B4
:1000100069950008E5470008619E0008000000009F
:10002000000000000000000000000000490100087E
:1000300063480008000000008D010008B596000824
:10004000FB010008FB010008FB010008FB010008A0
:10005000FB010008FB010008FB010008FB01000890
:10006000FB010008F94C0008034D00083548000862
:10007000FB010008FB010008FB010008FB01000870
:10008000FB010008FB010008FB010008FB01000860
:10009000FB010008FB010008FB0100080D4D0008F2
:1000A000FB010008FB010008FB010008FB01000840
:1000B000FB010008FB010008FB010008FB01000830
:1000C000FB010008FB010008FB010008FB01000820
:1000D000FB010008FB010008519E0008FB0100081D
:1000E000ED4C0008FB010008FB010008FB010008C3
:1000F000FB010008FB010008FB010008FB010008F0
:10010000FB010008FB010008FB010008FB010008DF
:100110007D9A0008FB0100086D970008FB010008AC
:10012000FB010008FB010008FB010008FB010008BF
:10013000DFF810D000F026FC00480047E9AB0008CB
:10014000AFF3008000700020224B19680868B0E807
:10015000F00F80F30988BFF36F8F4FF0000080F33A
:1001600011884EF00D0E7047000000000648006830
:10017000006880F3088862B661B6BFF34F8FBFF3A3
:100180006F8F00DF00BF00BF08ED00E0EFF30980D4
:10019000BFF36F8F0F4B1A6820E9F00F106008B59E
:1001A0004FF0500080F31188BFF34F8FBFF36F8F74
:1001B0000CF034FE4FF0000080F31188BDE80840D9
:1001C00019680868B0E8F00F80F30988BFF36F8FF3
:1001D000704700BFBC000020EFF3058070470000AF
:1001E0000648804706480047FEE7FEE7FEE7FEE7D1
:1001F000FEE7FEE7FEE7FEE7FEE7FEE76B97000897
:10020000310100082DE9F05F0546002092469B462B
:1002100088460646814640241BE02846414647461C
:10022000224600F020F853465A46C01A914110D396
:1002300011461846224600F09BF92D1A67EB01087B
:100240004F4622460120002100F092F917EB0009E9
:100250004E41201EA4F10104DFDC484631462A4607
:100260004346BDE8F09F202A04DB203A21FA02F041
:100270000021704721FA02F3D040C2F120029140E0
:1002800008431946704740EA01039B0703D009E081
:1002900008C9121F08C0042AFAD203E011F8013B72
:1002A00000F8013B521EF9D27047D2B201E000F8CB
:1002B000012B491EFBD270470022F6E710B513460A
:1002C0000A4604461946FFF7F0FF204610BD421CBF
:1002D00010F8011B0029FBD1801A704710B50022CD
:1002E00000E0521C835C8C5CA34201D1002BF8D14E
:1002F000D8B2E1B2401A10BD30B505460020034621
:1003000000E05B1C934205D2EC5CC85C201A01D172
:10031000002CF6D130BDF0B480EA0102D40F4200C7
:10032000B2EB410F02D20246084611464A0042D0C3
:10033000C30DDDB2C1F3C752AD1A202D35DAC1F3BA
:10034000160141F4000204B15242C5F1200602FA3E
:1003500006F12A411044B3EBD05F23D0C4B1012D84
:10036000A0EBC35009DCF0BC4FF0004202EAC352DC
:10037000DBB200F5000000F013B9400000F180701E
:1003800000EBC350A0F1807040EAD170490009E051
:10039000490841EAC071A0EBC35000F500004008D5
:1003A00000EBC350F0BC00F0F2B86142012202EB56
:1003B0004101001BF6E7F0BC704781F00041AAE75D
:1003C00080F00040A7E780EA010210B502F0004388
:1003D000400022D04A001FD0010E01EB1261C0F391
:1003E0005600C2F3560240F4000042F40002A0FBA3
:1003F000022000047F39140400D0401C50EA12404F
:1004000001D44000491EC2B20C0604EBD010401CBF
:100410004008802A02D003E0002010BD20F0010037
:10042000002900DA0020184310BD30B480EA010230
:1004300002F0004530F0004221F0004013D090B1AE
:10044000C30DD40DC2F31601C0F31600E41A41F433
:10045000000140F400027D34914201D3641C00E0AD
:100460004900002C02DA30BC002070474FF4000035
:100470000023914201D3891A034340084FEA410106
:10048000F7D151B1914202D14FF0004105E002D2C3
:100490004FF0010101E06FF0010103EBC45028446B
:1004A00030BC00F074B8C10F80EAE0700844CA079D
:1004B0009623002100F074B896230022114600F024
:1004C0006FB800F0004220F00040C10DC0F31600EC
:1004D00040F400007F2901DA00207047962903DCF0
:1004E000C1F19601C84001E096398840002AF4D055
:1004F0004042704720F00040C10DC0F3160040F4A8
:1005000000007F2901DA00207047962903DCC1F141
:100510009601C8407047963988407047002801DB33
:10052000C0F10040002901DBC1F100418142704768
:10053000002801DBC0F10040002901DBC1F10041CE
:100540008842704730B50B46014600202022012426
:1005500009E021FA02F59D4205D303FA02F5491B91
:1005600004FA02F52844151EA2F10102F1DC30BDA7
:10057000202A04DB203A00FA02F100207047914063
:10058000C2F1200320FA03F3194390407047002979
:10059000A8BF7047401C490008BF20F00100704709
:1005A00010B4B0FA80FC00FA0CF050EA010404BF69
:1005B00010BC704749B1CCF1200421FA04F411FABF
:1005C0000CF118BF012121430843A3EB0C01CB1D03
:1005D0004FEA00614FEA102042BF002010BC704774
:1005E00000EBC35010440029A4BF10BC7047401C4E
:1005F000490008BF20F0010010BC7047420005D040
:10060000C0F3C7525242914201DC0020704700EB18
:10061000C15070472DE9FE4F804681EA0300C00FAC
:100620000C46009021F0004123F00045B8EB020099
:10063000A94105D24046214690461C460B4602463B
:1006400023F00040104347D0270DC7F30A00C3F33F
:100650000A510290401A019040286BDAC3F313004C
:1006600040F4801B0098924620B10023D2EB030A8D
:1006700063EB0B0B01985946C0F140025046FFF75F
:1006800077FF06460D4650465946019A00F08CF910
:1006900010EB08006141002487EA115284EAE773F5
:1006A0001A4340D0009A62B3019A012A4FEA0752D6
:1006B00015DC001B61EB02014FF0004202EA075219
:1006C000CDE90042001C41F5801132462B4600F076
:1006D0008CF903B0BDE8F08F40462146F9E7001BD6
:1006E00061EB0201001C41F5801300185B412018EA
:1006F000A2F5001747EB030140EAD570B6196D412A
:1007000011E06D084FEA360645EAC0754FEA075218
:10071000001B61EB0201001C41F5801149084FEA02
:1007200030000019514132462B4603B0BDE8F04F6E
:1007300000F04CB90098012240000023D0EB0202E7
:1007400063EBE073009821464FEAE074B8EB0000D9
:1007500061EB0401E9E783F000435BE781F00041CE
:1007600058E72DE9FE4F81EA030404F0004421F02C
:10077000004100944FF0000B23F0004350EA0104C5
:100780005ED052EA03045BD0C3F30A54C1F30A55A6
:100790002C44A4F2F3340194A0FB0254C1F31301DE
:1007A00041F48011C3F3130343F4801301FB0244AB
:1007B00000FB034E840A970A44EA815447EA8357B0
:1007C000A4FB076802958D0A05FB07854FEA932C69
:1007D00004FB0C542705029D4FEA065847EA1637DA
:1007E000B5EB08056EEB070C870E920E47EA8117F2
:1007F00042EA8312A7FB0201B6EB0B0164EB000493
:100800002B0D43EA0C335E1844EB1C50DA4651467C
:10081000E7FB0201C5F313044FEA0B3343EA145319
:100820004FEA0432019C43EA0603A4F10C0402944B
:10083000009CCDE900B400F0D8F803B0BDE8F08F1B
:1008400000200146F9E72DE9F04D81EA030404F0A8
:10085000004B21F0004514464FF0000A23F0004100
:1008600050EA050220D054EA01021DD0C5F30A5710
:100870000246C5F31303C1F31300C1F30A5640F453
:10088000801543F48013A7EB0608101BD64608F228
:10089000FD3873EB050002D308F1010801E092185E
:1008A0005B41B8F1000F03DA00200146BDE8F08D8E
:1008B00000204FF48011064684460EE0171B73EBB0
:1008C000050705D3121B63EB050306434CEA010C35
:1008D00049084FEA300092185B4150EA0107EDD118
:1008E00052EA030012D082EA040083EA05010843B9
:1008F00005D0101BAB4106D20122002306E00022E6
:100900004FF0004302E06FF0010253101AEB0600B3
:100910004CEB085110EB0A0041EB0B01BDE8F04D28
:1009200000F054B8C1F30A52C1F3130140F2FF338F
:1009300041F480119A4202DA00200146704740F2E9
:1009400033439A42A2F2334202DC5242FFF78BBC9D
:10095000FFF70EBE30B5041E71F1000404DB4FF04A
:100960000044404264EB0101141E73F1000405DBF6
:100970001C464FF00043524263EB0403994208BF08
:10098000904230BD064C074D06E0E06840F00103A0
:1009900094E8070098471034AC42F6D3FFF7CCFB3D
:1009A00094FA0008B4FA0008202A06DBCB17203A94
:1009B00041FA02F043EAE07306E041FA02F3D04064
:1009C000C2F12002914008431946704710B5141E29
:1009D00073F1000408DA401C41F1000192185B41F8
:1009E0001A4301D120F0010010BD2DE9F04D9246CF
:1009F0009B4611B1B1FA81F202E0B0FA80F22032E6
:100A00009046FFF7B5FD04460F4640EA0A0041EA6A
:100A10000B0153465A46084313D0114653EA0100CE
:100A200019D0C8F140025046FFF71DFC05460E469E
:100A3000504659464246FFF79BFD084305D001202A
:100A400004E020463946BDE8F08D0020054346EA23
:100A5000E0762C4337430A986305E40AA0EB0800CC
:100A60000022FD0A44EA47540A3002D5002001461C
:100A7000E9E7010510196941DDE9084500196941F7
:100A8000BDE8F04DA2E730B58C1810F8012B12F03C
:100A90000F0301D110F8013B120906D110F8012B08
:100AA00003E010F8015B01F8015B5B1EF9D101E086
:100AB00001F8013B521EFBD1A142E6D3002030BD1C
:100AC00070B5044600252068806800F0010018B366
:100AD0002068806820F001002168886004F0D0FF61
:100AE000054613E004F0CCFF401B02280ED9206815
:100AF000806800F0010048B1A06A40F01000A062D8
:100B0000E06A40F00100E062012070BD206880686A
:100B100000F001000028E5D10020F6E770B5054699
:100B20006C6AA06A00F05000E0B9A06A40F400705E
:100B3000A0622068806800F46020B0F5602F0DD1BD
:100B4000207B58B9A06A20F48070A062A06A00F4EB
:100B5000805018B9A06A40F00100A062204604F05D
:100B60001BFA03E0206A016B2846884770BD70B508
:100B700005466C6AA06A40F04000A062E06A40F05E
:100B80000400E062204604F009FA70BD70B5044626
:100B9000656A284604F001FA70BD000038B50446C5
:100BA0000025002000902068806800F0010078BBDC
:100BB0002068806840F0010021688860194800685A
:100BC0001949B0FBF1F0009002E00098401E00903F
:100BD00000980028F9D104F053FF054619E004F00D
:100BE0004FFF401B022814D92068806800F00100E4
:100BF00078B9A06A40F01000A062E06A40F00100FD
:100C0000E06200BF002084F8240000BF012038BD4E
:100C100005E02068806800F001000028DFD0002097
:100C2000F5E700000C00002040420F001CB50A4808
:100C3000007808B900201CBD002001210346C02215
:100C4000CDE9001005A108480CF0B2FD012800D143
:100C5000F1E70020EFE7000083000020426C75659B
:100C6000746F6F7468000000BD0E00081CB5044668
:100C700002221BA12046FFF73FFBB0B119A120467D
:100C8000FFF72CFB88B118A12046FFF727FB60B1C6
:100C900020782B2809D016A12046FFF71FFB20B192
:100CA00016A12046FFF71AFB30B92346672216A18A
:100CB0001CA003F099FD1CBD6946204600F07EF89B
:100CC00040B1684602F0CCFB20B108211A4808F078
:100CD00097F8F0E70B21194808F092F800BFEAE70F
:100CE000415400004F4B00004552524F520000004B
:100CF000434F4E4E454354204F4B0000444953430D
:100D00004F4E4E4543540000557365725C41707000
:100D10005C4170705F626C7565746F6F74682E6390
:100D2000000000005B25733A25645D454342303185
:100D3000433A2025730D0A0074E200087DE20008A2
:100D400010B508F01BF8064908700846007820B96D
:100D5000A02204A10AA003F047FD0148007810BDBD
:100D600083000020557365725C4170705C41707047
:100D70005F626C7565746F6F74682E6300000000AD
:100D80005B25733A25645D426C7565746F6F74689A
:100D90002055534152543220696E6974206661694E
:100DA0006C65640D0A0000000146302903DB392917
:100DB00001DC012070470020FCE7000030B587B05F
:100DC00005460C4675B16CB12846FFF780FA11282C
:100DD00008D104222AA12846FFF78EFA10B9A87A72
:100DE0002C2802D0002007B030BD01A9281D00F03A
:100DF0004BF8E0B106A9A81D00F046F8B8B105A966
:100E000005F1080000F040F888B104A905F10B00D5
:100E100000F03AF858B103A905F10D0000F034F8DC
:100E200028B102A905F10F0000F02EF808B9002042
:100E3000D9E79DF8040000F5FA60E0809DF81800FD
:100E400060719DF8140020719DF8180058B19DF84C
:100E500018000C2807D8E0889DF814209DF8181079
:100E600000F056F800E00020E0709DF81000A0703F
:100E70009DF80C0060709DF8080020700120B2E71A
:100E80005254432C0000000070B504460D4644B196
:100E90003DB12078FFF788FF18B16078FFF784FF35
:100EA00008B9002070BD607830382178303901EB06
:100EB000810100EB410028700120F3E78AB0002493
:100EC00000BF1BE09DF824000A2808D1002001A9DA
:100ED000085514B101A8FFF7C9FE00240EE09DF8E3
:100EE00024000D280AD01F2C07D29DF8242020466C
:100EF000611C8CB201A90A5400E0002409A807F083
:100F00005DFF0028DED10A200BF056FDD9E7000076
:100F1000F0B504460B462146032B01D2481E81B290
:100F20006420B1FBF0F001EB9106301A4FF4C87663
:100F3000B1FBF6F60644581E064F385C30441044A8
:100F40000726B0FBF6F706FB17050DB90720F0BD25
:100F50002846FCE768E20008F8B506460C461A4841
:100F6000007800B9F8BDACB91848007838BB00F07B
:100F7000A7F80CF03FFD0546002003462A46012154
:100F80000090134800680DF0C5F801281AD000F051
:100F9000BFF817E0022C01D1012000E000200B492E
:100FA00008700020034602460321009008480068AC
:100FB0000DF0B0F80548007810B100F081F801E0BC
:100FC00000F0A6F800BFCDE71400002015000020B7
:100FD0001000002008B51148007808B1012008BDB4
:100FE00041F294100E490968486300F091F80D48E9
:100FF00000231A46322100900BA00DF045F80C4951
:1010000008600846006808B90020E8E700200949A0
:10101000087001200149087000BFE0E714000020BB
:10102000B0020020AD10000842757A7A65720000A7
:10103000100000201500002038B504464FF00000D5
:10104000009000BFEFF3058098B16B462246002167
:101050000B480DF0D1F8012811D100BF009838B12C
:101060004FF0805007490860BFF34F8FBFF36F8F79
:1010700005E000232246194601480DF095F838BDD9
:10108000590F000804ED00E010B50446064800784A
:1010900000B910BD0CB1022100E001210846FFF7A4
:1010A000CBFF00BFF5E700001400002010B5044698
:1010B0000248007808B900F02BF810BD1500002098
:1010C00010B541F2941004490968486300210248B0
:1010D00006F038FF10BD0000B002002010B50B482C
:1010E000007800B910BDFFF7EBFF502004F0EEFAD6
:1010F00000F00EF8282004F0E9FAFFF7E1FF502095
:1011000004F0E4FA00F004F800BFEBE7140000205C
:1011100010B50021014806F08FFF10BDB00200207D
:1011200070B504462046FFF7D2F885B2C8232A4698
:101130002146024807F098FA70BD0000180400200C
:1011400010B5044600212046FFF7E8F902D284F0EA
:10115000004010BD2046FCE72DE9F0410646002185
:101160003046FFF7DBF90BD800F038FB2048007859
:1011700020B100201E49087000F062F8BDE8F0813F
:1011800000F00AFB01201A490870012202211948C7
:1011900004F070FC18480068C06A441C2046FFF741
:1011A0008BF980463146FFF70EF90746FFF7A2F9A3
:1011B0000546A54200D3651E0F48006845630F48E9
:1011C000007888B900210C4806F0BCFE48B1002028
:1011D00009490968486300220221064804F04AFCD4
:1011E000CCE70120054908700548866000BFC5E7C7
:1011F0008100002000080140F80200206800002063
:10120000E409002070B504460025681E02F094FC35
:1012100088B10A48007D01280BD10848806A40B98E
:101220000648B0F90400002803DD2046FFF794FFCC
:10123000012502F003FD284670BD0000F0040020E7
:1012400010B501220221074804F014FC0CF0D2FB77
:101250004EF66021084404490860012003490870E3
:1012600010BD0000000801407C000020800000202C
:101270002DE9FF5F4FF00008C146002700204D49CF
:1012800008604D4908604D4908604D490870824624
:1012900028E002A803F0E6FAE8B1BDF80A0000F081
:1012A00005FAC0B1BDF80C0000F000FA98B1BDF825
:1012B0000A0000F0BFF983464146FFF72CF880464C
:1012C000BDF80C0000F0B6F983464946FFF723F855
:1012D0008146781CC7B264200BF06EFB0AF1010056
:1012E00000F0FF0ABAF10A0FD3D3032F04D235A0BE
:1012F00003F07AFABDE8FF9F3846FFF7DDF8834632
:1013000059464046FFF791F804463846FFF7D4F8AF
:10131000834659464846FFF788F805462946204641
:10132000FFF74BF80190FFF70BFF83464FF0824128
:10133000FFF7FEF80DD22846FFF7C3F88346204694
:10134000FFF7BFF85A460146019027A003F04CFA78
:10135000D0E729462046FEF7DEFF83464FF07C515A
:10136000FFF731F8064621463046FFF726F81249C6
:10137000086029463046FFF720F8104908600D48FC
:10138000066001200E4908700C480068FFF799F8C4
:10139000834609480068FFF794F801903046FFF74C
:1013A00090F85B46009001461CA0019A03F01CFADD
:1013B00000BF9FE76C000020700000207400002038
:1013C000780000204845415420636F6C64206361BD
:1013D0006C6962726174696F6E20756E61766169A5
:1013E0006C61626C650D0A004845415420636F6C66
:1013F000642063616C6962726174696F6E20736BE3
:10140000697070656420626F6172643A2564206C53
:1014100069717569643A25640D0A000048454154B4
:1014200020636F6C642063616C6962726174696FC0
:101430006E206F6B207265663A256420626F617260
:10144000644F66733A2564206C69717569644F66F0
:10145000733A25640D0A000070B504460D48007803
:10146000A8B10D4801682046FFF762F80FD20A487C
:1014700001682046FEF7A1FF06460849FEF7A3FFD4
:101480000546054801682846FEF745FF70BD204621
:10149000FCE70000780000206C0000206666E63F54
:1014A0001CB50848022100234FF4C072CDE900109A
:1014B00005A107480CF07CF9012800D11CBD0020D3
:1014C000FCE700006400002048656174657200005C
:1014D0000918000870B505460C4600F06BF928465F
:1014E00002F040FB0120FFF7CFFD0848007848B923
:1014F000012006490870234640F2571204A10AA0B1
:1015000003F072F902F02CFC70BD000069000020AD
:10151000557365725C4170705C4170705F686561A5
:101520007465722E630000005B25733A25645D25A7
:10153000730D0A0038B5044600200090082C13D122
:101540000A48006880B16A460021084800680BF02C
:1015500061FA00BF009830B1600605490860BFF32A
:101560004F8FBFF36F8F00BF38BD000064000020B5
:1015700004ED00E010B500F01DF900F005F90020C1
:101580000F4908700F4908600F4908600F4908604B
:101590000F4908700F4908600F4908700F4908701B
:1015A000002204210E4804F065FA022004F08EF8AF
:1015B000012204210A4804F05DFA012010BD000058
:1015C000690000206C0000207000002074000020E2
:1015D000780000207C000020800000208100002096
:1015E000001001402DE9F04106460C460E49204608
:1015F000FEF79EFF02D80020BDE8F0810B4920468F
:10160000FEF796FF0DD221460748FEF7D6FE0746A5
:101610000749FEF70AFF054629463046FEF7D3FE86
:1016200006463046E8E700000000BE420000964251
:101630000000A0412DE9F04704462046FEF73CFF9C
:1016400081461549FEF7BCFE07462046FEF734FFEB
:1016500081461249FEF7B7FE80463946FEF7E5FEA1
:1016600005460E492846FEF7E0FE814609F0F4F9EA
:1016700080460B49FEF7D9FE07460A49FEF74BFEA6
:10168000064631464FF07E50FEF7CFFE074606492C
:10169000FEF793FEBDE8F08700F07F4500401C4652
:1016A00000B09A450FCF5B3B339388430146052931
:1016B00005D940F6FA70814201D20120704700201E
:1016C000FCE700002DE9FC5F074688464FF07C5A96
:1016D00041463846FEF771FE044600212046FEF7DB
:1016E0001DFF04D800F050F80020BDE8FC9F4FF02B
:1016F0007C512046FEF767FE81461E480168484639
:10170000FEF709FE1B49086008681B49FEF710FF39
:1017100002D2194817490860164841682046FEF76A
:101720004CFE81464FF07C51FEF77FFE0546294670
:101730000020FEF748FE01900E4801680F48FEF7B2
:1017400042FE834621460E48FEF73DFE5946009074
:10175000FEF7E1FD81460199FEF7DDFD06460548ED
:10176000446008493046FEF7E3FE00D2054E30469D
:10177000BBE70000E4090020000096436F12033B22
:101780008FC2F53C9A99193F0020024908604860D1
:1017900088607047E409002010B501220221034847
:1017A00004F068F900200249087010BD00080140EB
:1017B0008000002010B500F011F80022022104483A
:1017C00004F058F90020034908700349087010BD5F
:1017D00000080140800000208100002010B500209A
:1017E0000649096848630021044806F025FC0020EA
:1017F000034908700349886010BD0000F80200200A
:1018000068000020E40900208AB000240025FFF7CA
:101810002FFD0CF0EFF8804600BF4FF4FA72012163
:1018200000200AF07FFE08216F4804F01BF920B960
:101830006EA11020FFF74EFEEFE708A803F012F8A4
:1018400040B9601CC4B2032C03D36EA12020FFF763
:1018500041FEE2E70024BDF8200040F6FA7188421C
:1018600003D2BDF82600884208D3681CC5B2032DF8
:1018700003D36AA12020FFF72DFECEE70025BDF897
:101880002200FFF713FF20B1BDF82400FFF70EFF81
:1018900020B969A10420FFF71DFEBEE7BDF82200B4
:1018A000FFF7C8FE8246BDF82400FFF7C3FE83465B
:1018B000684801685046FEF72EFD8246664801687A
:1018C0005846FEF728FD83465046FFF7C5FD824681
:1018D0004FF0FF3002F030F9B8B14FF07C51504674
:1018E000FEF719FD8146FEF7ECFD00B25B4948802A
:1018F0004FF07C515846FEF70EFD8146FEF7E1FDA4
:1019000000B25649088002F099F902F029FA5449C8
:101910005046FEF70DFE04D952495846FEF708FE20
:1019200004D851A10820FFF7D5FD76E7002600274F
:10193000701E02F001F948B14848067D0146B1F930
:101940000400FEF7B0FD074602F078F902F008FA4D
:10195000012E17D100213846FEF7EAFD12D2594672
:101960003846FFF7AFFE079051460798FFF73AFE5B
:1019700007900798FFF746FC40B9FFF705FFFFF710
:1019800019FF03E0FFF700FFFFF714FF00F0D8F99D
:101990000CF030F8A0EB0800B0F5FA6F23D30CF090
:1019A00029F88046364988683649FEF70CFD0390D1
:1019B000FEF7A0FD81465046FEF783FD069058468F
:1019C000FEF77FFD05903846FEF77BFD0490BDF8DD
:1019D0002200BDF82410CDE9009102902AA004A9AC
:1019E0000EC902F001FF18E700100140486561745C
:1019F0006572206861726477617265206661756CDA
:101A0000740000004865617465722041444320758C
:101A10006E617661696C61626C6500004865617435
:101A20006572204144432076616C75652061626E69
:101A30006F726D616C000000486561746572204EC4
:101A40005443206F70656E206F722073686F7274DC
:101A5000000000007000002074000020F00400204E
:101A60000000DC4200000243486561746572206F2B
:101A700076657274656D706572617475726500006B
:101A8000E40900200000C8424845415420746172B6
:101A90006765743A2564206C69717569643A2564D8
:101AA00020626F6172643A256420647574793A2506
:101AB000752525207261773A25752F25750D0A0049
:101AC0002DE9FC413C274FF0FF3002F035F810B90A
:101AD0000020BDE8FC814748846A02F0AFF804F0BA
:101AE0003C0008B90020F4E70821434803F0BAFF9E
:101AF00038B940F2232241A146A002F075FE002031
:101B0000E7E7684602F0AEFE98B1BDF8000040F687
:101B1000FA7188420DD2BDF80600884209D2BDF89C
:101B20000200FFF7C3FD20B1BDF80400FFF7BEFDC2
:101B300038B94FF40B7231A146A002F055FE0020D7
:101B4000C7E7BDF80200FFF775FD80465048016801
:101B50004046FEF7E0FB0646BDF80400FFF76AFDCD
:101B600080464C4801684046FEF7D5FB05463046A6
:101B7000FFF772FC064648493046FEF7D9FC04D907
:101B800046492846FEF7D4FC07D84FF40E721BA135
:101B900043A002F029FE00209BE700220421164802
:101BA00003F068FF022003F091FD01220421124896
:101BB00003F060FF0821104803F054FF38B940F2E9
:101BC00045220EA146A002F00FFE002081E73C2036
:101BD00001F01EFF08B900207BE700204D49087086
:101BE00040F24E2205A14CA002F0FEFD02F0B8F832
:101BF00001206EE7F004002000100140557365726B
:101C00005C4170705C4170705F6865617465722ED4
:101C1000630000005B25733A25645D486561746567
:101C200072206661756C7420636C656172207265E8
:101C30006A65637465643A2068617264776172658D
:101C4000206661756C742072656D61696E730D0A32
:101C5000000000005B25733A25645D48656174658A
:101C600072206661756C7420636C656172207265A8
:101C70006A65637465643A20414443206F72204E64
:101C8000544320696E76616C69640D0A000000009F
:101C900070000020740000200000DC4200000243BD
:101CA0005B25733A25645D486561746572206661E1
:101CB000756C7420636C6561722072656A6563740B
:101CC00065643A206F76657274656D7065726174D3
:101CD0007572652072656D61696E730D0A00000092
:101CE0005B25733A25645D486561746572206661A1
:101CF000756C7420636C6561722072656A656374CB
:101D000065642061667465722072657365740D0A7E
:101D100000000000690000205B25733A25645D48DF
:101D20006561746572206661756C7420636C6561B1
:101D3000726564206279204B4559310D0A0000001C
:101D400010B50948007868B10BF054FE07490968DE
:101D5000401A07D400220221054803F08BFE002020
:101D60000149087010BD0000800000207C000020A8
:101D7000000801401CB50A48006808B101201CBDDC
:101D8000074802210023CA01CDE9001005A1064839
:101D90000BF00EFD012800D1F1E70020EFE7000075
:101DA00084000020494D55002521000838B504461F
:101DB000002000900C480068A8B1102C01D0202C05
:101DC00011D16A460021084800680AF023FE00BFCE
:101DD000009838B14FF0805004490860BFF34F8F2E
:101DE000BFF36F8F00BF38BD8400002004ED00E01A
:101DF00008B5002029490870294908702949087048
:101E00002949087002F05CFC38B94FF4877227A1A9
:101E10002BA002F0E9FC002008BD69460F2000F06D
:101E200036F938B94FF48A7220A12EA002F0DCFCFA
:101E30000020F1E79DF8003040F217121BA133A0FB
:101E400002F0D2FC9DF800006A2807D04FF48D7292
:101E500016A137A002F0C8FC0020DDE744211220C3
:101E600000F036FA48B14021102000F031FA20B1DC
:101E700001210D2000F02CFA38B94FF491720BA11A
:101E800034A002F0B1FC0020C6E740F2251207A101
:101E90003CA002F0A9FC0120BEE700008F0000205A
:101EA0009000002091000020920000205573657280
:101EB0005C4170705C4170705F696D752E630000ED
:101EC0005B25733A25645D4C534D3644534D205386
:101ED00050493220696E6974206661696C65640DD1
:101EE0000A0000005B25733A25645D4C534D36446F
:101EF000534D2057484F5F414D5F492072656164E3
:101F0000206661696C65640D0A0000005B25733A08
:101F100025645D4C534D3644534D2057484F5F4127
:101F20004D5F49203D203078253032580D0A0000A1
:101F30005B25733A25645D4C534D3644534D205711
:101F4000484F5F414D5F49206D69736D61746368EF
:101F50000D0A00005B25733A25645D4C534D3644F1
:101F6000534D20616363656C65726F6D6574657256
:101F700020636F6E666967206661696C65640D0A2F
:101F8000000000005B25733A25645D4C534D3644D8
:101F9000534D2072656164790D0A000030B5014629
:101FA00009B9002030BDB1F90000002801DB054669
:101FB00000E045422A46B1F90200002801DB05464F
:101FC00000E045422B46B1F90400002801DB05463C
:101FD00000E045422C4643F23330844207DB42F2B4
:101FE0006660824203DC834201DC0120DAE70020E4
:101FF000D8E730B5014609B9002030BDB1F900007D
:10200000002801DB054600E045422A46B1F90200FE
:10201000002801DB054600E045422B46B1F90400EB
:10202000002801DB054600E045422C4642F6CC4044
:10203000844203DB824201DC834201DD0120DCE7D4
:102040000020DAE71CB504462CB106226946282098
:1020500000F038F808B900201CBD9DF800009DF87C
:10206000011040EA012000B220809DF802009DF896
:10207000031040EA012000B260809DF804009DF842
:10208000051040EA012000B2A0800120E4E77CB501
:1020900005460C460CB900207CBD45F080008DF84B
:1020A0000400FF208DF8050064230222694601A880
:1020B00002F07CFB08B10020EEE79DF801002070E3
:1020C0000120E9E7F0B593B007460E46154616B174
:1020D0000DB1202D02D9002013B0F0BD47F08000D3
:1020E0008DF82800012404E0FF200AA90855601C8F
:1020F00084B2AC42F8DD681C82B2642301A90AA84C
:1021000002F054FB08B10020E6E7002405E001A935
:10211000601C085C3055601C84B2AC42F7DB0120C7
:10212000DAE700001CB500BF1422012100200AF0EC
:10213000F9F96846FFF786FF00B9F5E727480099E7
:102140000160BDF8041081800120254908706846AF
:10215000FFF74FFF0446002C21D0002021490870D2
:102160002149087021480078052804D21F480078CA
:10217000401C1E4908701E48007800282DD11B48BD
:102180000078052829D3012019490870812219A156
:102190001DA002F029FB022001F066FC1DE00020DA
:1021A000124908706846FFF7F9FE98B10D480078AB
:1021B000142804D20B480078401C0A4908700C48C7
:1021C000007850B107480078142806D3012006494A
:1021D000087002E0002003490870A5E7880000208D
:1021E0008E0000209100002092000020900000202E
:1021F0008F000020557365725C4170705C41707097
:102200005F696D752E6300005B25733A25645D4937
:102210004D552074696C74206465746563746564DD
:102220002C20656E746572206661756C740D0A00F1
:1022300010B51248007848B11148007830B1114803
:10224000007818B11048FFF7A9FE08B9002010BDAA
:10225000022001F0DDFB04466CB100200749087044
:10226000074908700949087009490870AD2209A199
:102270000DA002F0B9FA2046E9E700008F00002027
:10228000920000208E000020880000209000002096
:1022900091000020557365725C4170705C417070F4
:1022A0005F696D752E6300005B25733A25645D4997
:1022B0004D552074696C74206661756C7420636C74
:1022C0006561726564206279204B4559310D0A00C1
:1022D00038B504460D4604F07F008DF800008DF8F7
:1022E000015064220221684602F034FA08B9012044
:1022F00038BD0020FCE7000070B505464FF0FF3008
:1023000001F01AFC00B970BD2A48007880B92A484B
:10231000B0F904004419002C01DA002404E0B4F5FB
:10232000004F01DB47F6FF7420B2234988803AE072
:1023300020480078012810D11F48B0F9080044193E
:10234000002C01DA002404E0B4F5004F01DB47F66D
:10235000FF7420B21849088125E016480078022849
:1023600021D1002D0EDA6E4213480069B04205D922
:1023700011480069801B1049086114E000200E49D3
:10238000086110E02E460C480069C6F1FF31884212
:1023900005D80948006930440749086103E04FF057
:1023A000FF300549086101F049FC01F089FA00BFDE
:1023B000A9E7000019000020F004002010B54FF03C
:1023C000FF3001F0B9FB00B910BD0B48007D0228B9
:1023D0000DD00A4800780949487008460078401C2A
:1023E0000321B0FBF1F201FB12000449087001F077
:1023F00025FC00BFE8E70000F004002019000020E1
:1024000070B50025681E01F097FB00B970BD154836
:10241000007D022802D001F011FCF7E71148846A20
:1024200001F00CFC04F0020030B1FFF701FF08B12D
:10243000012000E02846054604F03C0030B1FFF7DB
:102440003FFB08B1012000E0284605462DB940F2C7
:10245000351205A109A002F0C7F901F081FC00BF07
:10246000D4E70000F0040020557365725C41707081
:102470005C4170705F6B65792E6300005B25733A79
:1024800025645D4661756C7420636C6561722072B1
:10249000656A65637465643A20636F6E6469746924
:1024A0006F6E206E6F74207265636F7665726564FF
:1024B0000D0A000010B50024601E01F03DFB00B9BC
:1024C00010BD0948007D022804D00020064948625A
:1024D000C860012401F0B2FB14B1002001F06EFBD2
:1024E00001F0EEF900BFEBE7F004002010B5044660
:1024F00014B12078042800DB10BD204600F056F807
:1025000001F006FC40B92078032804D16078012846
:1025100001D101F0EDFBEFE7207830B1012810D0B8
:1025200002281ED003283AD12DE06078012802D17C
:10253000FFF744FF04E06078022801D1FFF760FF55
:102540002EE06078012802D1FFF7D6FE08E060781F
:10255000022802D06078032802D10520FFF7CCFEC4
:102560001EE06078012803D1801EFFF7C5FE09E058
:102570006078022802D06078032803D16FF004004D
:10258000FFF7BAFE0CE06078012802D100F05AF89B
:1025900004E06078022801D1FFF78CFF00E000BF63
:1025A00000BF01F0DDFB00BFA6E7000010B5044648
:1025B00014B16078032800D110BD6078012807D1DC
:1025C0002078431C1B2208A10CA002F00DF909E0A1
:1025D0006078022806D12078431C1F2202A10DA09A
:1025E00002F002F900BFE7E7557365725C41707055
:1025F0005C4170705F6B65792E6300005B25733AF8
:1026000025645D4B455925752073686F72740D0AFA
:10261000000000005B25733A25645D4B4559257524
:10262000206C6F6E670D0A0008B500BF684602F0A7
:10263000BFFA10B16846FFF759FF0A200AF0BCF94B
:10264000F4E7000010B50224E01E01F075FA00B9AD
:1026500010BD1348007D022818D01148007D0128C4
:1026600001D1002412E00E48006978B101240C4821
:10267000C06828B10A48406A09490969884205D3F7
:1026800000200749486208460069C86001F0D6FA90
:10269000022C02D0204601F091FA00BFD8E70000DA
:1026A000F00400202DE9F041064600213046FDF7F8
:1026B00035FF03D800F044F9BDE8F0811B493046EE
:1026C000FDF72CFF00D2194E4FF07E513046FDF73A
:1026D0002FFF01D24FF07E5615480068C06A441C97
:1026E0002046FDF7E9FE80463146FDF76CFE0746C1
:1026F000FDF700FF0546A54200D3651E00224FF4FA
:1027000000710C4803F0B6F90B48007830B9082185
:10271000074805F017FC01200749087004480068C5
:10272000C5630648066000BFC6E700000AD7A33DA0
:1027300088030020000C0140600000205C000020A5
:1027400070B504460025681E01F0F6F970B108481E
:10275000007D012808D10648B0F90800002803DDF3
:102760002046FFF79FFF012501F068FA284670BD5B
:10277000F00400201CB50020022103464FF4A07293
:10278000CDE9001004A106480BF012F8012800D191
:102790001CBD0020FCE700004D6F746F720000004C
:1027A0007D29000810B53C21094805F08DF908B1D4
:1027B000002010BD002006490968486205490860EC
:1027C0000549087000F0A4F800F0BAF80120F0E71D
:1027D000400300204C000020600000202DE9FE4F47
:1027E0008046894649464046FDF7E7FD04463B4999
:1027F0002046FDF7E8FD8246394801685046FDF75E
:102800008AFD3749086008683649FDF791FE03D212
:1028100034483349086008E0314908683249FDF717
:102820007DFE02D230482E4908602D48416820467E
:10283000FDF7C3FD82462949FDF7F7FD06463146FF
:102840000020FDF7C0FD0290254801682748FDF7EC
:10285000BAFD214601904FF08240FDF7B4FD009093
:102860000199FDF758FD83460299FDF754FD824614
:102870001F49FDF7DAFD05461E494046FDF7A3FD59
:1028800007461D493846FDF753FE00D21A4F1B4933
:102890002846FDF74DFE01D2184D05E0184928469F
:1028A000FDF73CFE00D2164D29463846FDF733FDB4
:1028B00007460B48446000213846FDF72FFE01D241
:1028C000002707E04FF07E513846FDF731FE01D278
:1028D0004FF07E573846BDE8FE8F0000CDCC4C3D12
:1028E0004400002000004844000048C4CDCC4C3FC8
:1028F00000401C46D66EBB3A6666663FCDCCCC3DEA
:10290000CDCCCCBD01480068406A70474003002030
:1029100000200649086048600549086005490870BC
:102920000549086005490860704700004400002020
:102930005000002054000020580000205C000020BF
:1029400010B5002009490968C8630821074805F047
:1029500073FB00224FF40071054803F08BF8002050
:10296000044908700449086010BD00008803002075
:10297000000C0140600000205C0000200EB5FFF755
:10298000C1FF04463A480460FFF7C2FF0BF032F87B
:10299000814600BF0026B046701E01F0CDF848B158
:1029A0003448067D0146B1F90800FDF77CFD8046FC
:1029B00001F044F9FFF7A6FF04462D480088201ACD
:1029C00005B22B480460284600F08CF88346012E9F
:1029D00012D100214046FDF7ABFD0DD259464046CD
:1029E000FFF7FCFE02900298FFF7AAFE40B9FFF73E
:1029F0008FFFFFF7A5FF03E0FFF78AFFFFF7A0FFB8
:102A00004FF07C515846FDF786FC8246FDF759FD94
:102A100007B2012E04D100214046FDF77FFD00D80A
:102A20000027384600F046F8012E1DD10AF0E2FFDB
:102A3000A0EB0900B0F57A7F16D30AF0DBFF8146E0
:102A40000D490E480068FDF7BEFC0090FDF752FDF1
:102A500082464046FDF735FD53463A460146CDE9EC
:102A6000005007A001F0C0FE322009F0A5FF91E759
:102A70004C000020F00400200000C8425C00002050
:102A80004D4F544F52207461726765743A2564202B
:102A900063757272656E743A256420647574793A50
:102AA000257525252064656C74613A256C640D0AD2
:102AB0000000000010B504464FF0FF3001F03CF874
:102AC00058B10748007D012802D10548C48002E0C2
:102AD00000200349C88001F0B1F801F041F910BDB0
:102AE000F00400202DE9F041044619480068204414
:102AF0001749086017480078401C164908700846B6
:102B0000007808281FD3144D11480068FDF7CBFC4E
:102B100007461249FDF789FC06462946FDF785FC64
:102B20000F49086000210E480068FDF7F7FC05D248
:102B30000B48006880F00040094908600020044903
:102B400008600449087006480068BDE8F08100008C
:102B500050000020540000200E74DA3B0000484171
:102B60005800002070B504460D4634B1224629466F
:102B700003A001F039FE002070BD0120FCE7000039
:102B800053534431333135202573206661696C65B8
:102B9000643A2025750D0A000FB400B5A9B02BA822
:102BA0000090A02101A8009B2A9A07F075F9002047
:102BB000009001A902A001F017FE29B05DF814FBF6
:102BC000257300002DE9F04104460AF003FF0228B6
:102BD0000ED14FF47A70A4FB006001464FF47A7274
:102BE00000233046FDF70EFB054609F0E5FE02E046
:102BF000204602F06BFDBDE8F08100207047002008
:102C00007047024600207047014600207047024688
:102C100022B11078884201D13E2070472020FCE785
:102C20000020704710B501F0CDFB08B9012010BDA0
:102C30000020FCE72DE9F04107460E4615461C46EC
:102C40000DB1802C02D90120BDE8F0810948067041
:102C500022462946401CFDF716FB601C82B2642305
:102C60000449384601F010FC08B10120ECE70020CF
:102C7000EAE700006009002010B586B08CA103C906
:102C8000CDE9040114220321782001F0BBFB18B91F
:102C90007820894908700FE0142203217A2001F07E
:102CA000B1FB18B97A208449087005E083A001F0CF
:102CB0009BFD002006B010BD40F23C418648FDF768
:102CC000FBFA8648844908608548486085488860E2
:102CD0008548C860854808618548486182488861A0
:102CE0008248C861834808627F4848627F4888629A
:102CF0008048C8628048486380480863002176485D
:102D000009F025FB6C480178734809F0ADF9724869
:102D100008F09EFF04467AA1FFF724FF08B90020BF
:102D2000C8E700216C4809F01AFA044676A1FFF7BB
:102D300019FF00287ED000220821674809F028FAF0
:102D4000044674A1FFF70EFF0028F3D03F2162482C
:102D500009F01EFB044671A1FFF704FF0028E9D02B
:102D600000215D4809F080FA04466FA1FFF7FAFEE2
:102D7000002877D00021584809F0A6FA04466CA133
:102D8000FFF7F0FE00286DD002220121524809F021
:102D900073F9044669A1FFF7E5FE002862D001211E
:102DA0004D4809F0A6FB044667A1FFF7DBFE0028AB
:102DB00058D00121484809F083FB044664A1FFF77D
:102DC000D1FE00284ED000220121434809F077F9B6
:102DD000044661A1FFF7C6FE002843D0FF213E480C
:102DE00009F08BF904465FA1FFF7BCFE002839D03B
:102DF0000F220121384809F015FB04465CA1FFF7BA
:102E0000B1FE00282ED00321334809F08EF9044684
:102E10005AA1FFF7A7FE68B100212F4809F07EFAFA
:102E2000044659A1FFF79EFE20B102212A4809F06D
:102E300096FA00E016E0044657A1FFF793FE88B12A
:102E40000021254809F0F6F9044657A1FFF78AFE4C
:102E500040B10121204809F082F9044656A1FFF74C
:102E600081FE08B9002025E71B4808F0A9FD0446AB
:102E700054A1FFF777FEA0B110200121052204AB79
:102E8000CDE90021029018222C21134808F07EFE83
:102E900038B9114808F008FE04464CA1FFF762FE5D
:102EA00008B9002006E74BA001F09EFC012001E7D5
:102EB0004179616E670000003800002053534431AF
:102EC000333135206E6F7420666F756E64206F6EBF
:102ED00020493243310D0A0024050020252C00082A
:102EE000212C0008352C0008FF2B0008FB2B0008C4
:102EF000032C0008092C0008C52B0008992B00089A
:102F0000696E697400000000646973706C617920F7
:102F10006F666600636C6F636B0000006D756C74A8
:102F200069706C65780000006F66667365740000F8
:102F30007374617274206C696E65000063686172FD
:102F400067652070756D70007365676D656E7400E0
:102F50007363616E00000000636F6D2070696E73B3
:102F600000000000636F6E747261737400000000F3
:102F700070726563686172676500000064657365FF
:102F80006C65637400000000656E7469726520648E
:102F90006973706C61790000616464726573732099
:102FA0006D6F646500000000646973706C61792066
:102FB0006D6F646500000000646973706C61792056
:102FC0006F6E0000636C6561720000007570646173
:102FD00074650000535344313331352072656164A8
:102FE000792C20646973706C6179204179616E6716
:102FF0002061742063656E7465720D0A0000000024
:10300000014621B1012904D0022906D103E004A020
:10301000704705A0FCE706A0FAE707A0F8E7000064
:1030200049444C450000000052554E4E494E470061
:103030004641554C54000000554E4B4E4F574E00E4
:103040002DE9F0418AB004460E46594890F8380000
:10305000012801D104B11EB900200AB0BDE8F081F9
:103060004FF4806152483B30FDF726F9D4E9060160
:103070004840216A80EA01073B464EA2182104A875
:1030800006F0F0FE04A8FDF722F905460C21012206
:10309000A8B204ABCDE901210090002211464448BA
:1030A00008F074FD00213046FFF7B1FD8046B4F909
:1030B0000200B4F90410B4F900204346CDE9002120
:1030C00002903FA2182104A806F0CCFE04A8FDF748
:1030D000FEF805460C210122A8B204ABCDE901217E
:1030E00000900A460021324808F050FD0121304688
:1030F000FFF78DFD8046B4F90800B4F90610434689
:1031000033A2CDE90010182104A806F0ABFE04A8F4
:10311000FDF7DDF805460C210122A8B204ABCDE98C
:103120000121009018220021214808F02FFD0221E2
:103130003046FFF76CFD80462169606A434628A24D
:10314000CDE90001182104A806F08CFE04A8FDF7C3
:10315000BEF805460C210122A8B204ABCDE901213D
:10316000009024220021124808F010FD207DFFF776
:1031700047FF804643461EA2182104A806F072FEAF
:1031800004A8FDF7A4F805460C210122A8B204AB5F
:10319000CDE90121009030220021054808F0F6FC1D
:1031A000034808F081FC08B9012056E7002054E7E5
:1031B0002405002049443A2530386C5800000000AE
:1031C0002563543A25642F256420423A2564000083
:1031D000256353504545443A25642F25640000007B
:1031E000256354494D453A256C752F256C75730040
:1031F000205354415455533A2573000010B588B0FC
:103200000446294890F83800012800D114B900205C
:1032100008B010BD4FF4806123483B30FDF74CF8F7
:10322000102322A230212C2000F05AF808B90020E7
:10323000EEE72F20005D2E21095DCDE90010A38D62
:103240001CA2182102A806F00DFE0C2302AA1C21C4
:10325000222000F045F808B90020D9E73320005DAE
:103260003221095DCDE900103120035D15A218213E
:1032700002A806F0F7FD0C2302AA1021282000F076
:103280002FF830B10C2313A23021282000F028F8A9
:1032900008B90020BCE7044808F006FC08B9012082
:1032A000B6E70020B4E70000240500204179616EF4
:1032B00067000000253034752D253032752D2530FE
:1032C00032750000253032753A253032753A253096
:1032D000327500004B4559343A5345540000000004
:1032E0002DE9FE4305460E4614461F4614B900203C
:1032F000BDE8FE832046FCF7EAFF1FFA80F80120B4
:10330000234632462946CDE900800297034808F05B
:103310003DFC08B90120EBE70020E9E72405002087
:103320001CB5002001210346C022CDE9001004A1F4
:1033300004480AF03DFA012800D11CBD0020FCE73A
:1033400052544300F934000800B587B001F0F1FA97
:1033500018B105A801F021FB38B93A2212A117A033
:1033600001F042FA002007B000BD01201A490870A0
:1033700005A800F04DF89DF814009DF815109DF873
:1033800016209DF81830CDE90132CDE903109DF8E3
:1033900019000090BDF81A30412203A10FA001F0DE
:1033A00023FA0120DFE70000557365725C417070FD
:1033B0005C4170705F7274632E6300005B25733A2A
:1033C00025645D44533332333120696E697420665D
:1033D00061696C65640D0A00820000205B25733A08
:1033E00025645D4453333233312072656164792042
:1033F000253034752D253032752D25303275202538
:103400003032753A253032753A253032750D0A0062
:1034100010B5044624B14FF0FF3000F08DFB00B929
:1034200010BDE0880D49888561790C4880F82E1020
:10343000217980F82F10E17880F83010A17880F899
:103440003110617880F83210217880F8331000F064
:10345000F5FB00F085FC00BFE2E70000F00400206F
:1034600010B586B004461048007820B11CB1204643
:1034700001F00CFB10B9002006B010BD2046FFF78C
:10348000C7FF20786178A2782379CDE90132CDE9B0
:10349000031060790090E388572204A108A001F08E
:1034A000A3F90120E8E7000082000020557365724F
:1034B0005C4170705C4170705F7274632E630000D9
:1034C0005B25733A25645D4453333233312074698C
:1034D0006D652073657420253034752D2530327567
:1034E0002D2530327520253032753A253032753A27
:1034F000253032750D0A00001CB500BF0A4800785F
:1035000038B1684601F049FA18B16846FFF780FF04
:1035100004E02E2205A10AA001F066F94FF47A70AA
:1035200009F04AFAEAE7000082000020557365724C
:103530005C4170705C4170705F7274632E63000058
:103540005B25733A25645D44533332333120726511
:103550006164206661696C65640D0A0000BF002427
:10356000601E00F0E9FAF8B11848007D012819D171
:103570001648C068B0B11548C068401E1349C860FD
:103580000846406A0969884204D21048406A401CD3
:103590000E4948620D48C06820B90C4800690B49C3
:1035A0004862012400F04AFB44B1002000F006FB11
:1035B0004FF4827206A10BA001F016F900F0D0FBC7
:1035C0004FF47A7009F0F8F9C9E70000F004002020
:1035D000557365725C4170705C4170705F6D6169BC
:1035E0006E2E63005B25733A25645D52756E206311
:1035F0006F6D706C6574652C2072657475726E20C9
:10360000746F2049444C450D0A00000010B5044673
:103610000AF0E0F902280DD1C01E00F08DFA80B149
:10362000208808498880608808816068086100F007
:1036300005FB06E02088034988806088088160686F
:10364000086110BDF004002030B502460B464FF66D
:10365000FF70002118E0555C80EA052000240FE08F
:1036600000F400452DB141F2210585EA4005ADB2D7
:1036700003E04FF6FF7505EA40052846651CECB2ED
:10368000082CEDD34D1CA9B29942E4DB30BD70B5D6
:1036900005460C46A81D00F03DF800B2208005F15B
:1036A000080000F037F800B2608005F10A0000F071
:1036B00037F8606070BD2DE9F04105460E461446AE
:1036C00042F20401204600F07FF84FF48071A01C04
:1036D00000F07AF83146201D00F076F8288881B293
:1036E000A01D00F071F8688881B204F1080000F0B4
:1036F0006BF804F10A00696800F06AF80E212046B0
:10370000FFF7A2FF0746394604F10E0000F05CF80F
:10371000BDE8F081014608784A7840EA0220704707
:10372000014608784A7840EA02208A7840EA024056
:10373000CA7840EA026070470EB505F096FB80B982
:1037400001201D49087000201C49088048804860FD
:103750001B480A4606CA06C000201A4908800220F3
:103760000EBD694601A800F03BF880B9012012495E
:1037700008700020114908804880486010480A46B7
:1037800006CA06C000200F4908800120E8E701A80A
:10379000FFF73CFF0948DDE9011206C00848DDE9F2
:1037A000011206C0BDF80000401C06490880012037
:1037B000014908700020D3E73600002024000020D3
:1037C0002C0000203400002001700A124270704763
:1037D00001700A0A42700A0C82700A0EC2707047A9
:1037E0002DE9F04389B007460C46102205A90020B8
:1037F00005F046FB08B1012000E00020054610223C
:1038000001A9104605F03CFB08B1012000E00020B2
:1038100006461DB105A800F031F800E0002005467D
:103820001EB101A800F02AF800E00020064625B9E4
:103830001EB9002009B0BDE8F083ADB15EB102A8A9
:10384000FFF768FF804606A8FFF764FF8146414600
:1038500000F03CF840B1394605A8FFF718FF06A86C
:10386000FFF758FF208007E0394601A8FFF70FFF58
:1038700002A8FFF74FFF20800120DBE770B5044668
:103880002046FFF747FF42F20401884201D00020A2
:1038900070BDA01CFFF73EFFB0F5807F01D0002077
:1038A000F6E704F10E00FFF735FF05460E2120462E
:1038B000FFF7CAFEA84201D10120E9E70020E7E7AF
:1038C0000120014908707047370000200246501A55
:1038D00000B2002801DD012070470020FCE702460D
:1038E000B2F90000B1F9003098420BD1B2F90200F0
:1038F000B1F90230984205D150684B68984201D125
:10390000012070470020FCE71FB500250AF072F87F
:10391000044600BF2D480078002853D0002000F056
:103920000BF900284ED02A488088ADF808002848B6
:103930000089ADF80A0026480069039000F07EF97E
:10394000244902A8FFF7CBFF58B92248DDE902124B
:1039500006C0DDE90201CDE900010AF04BF804469A
:1039600001251D48007850B1DDE90201CDE90001D3
:103970000AF040F8044601250020174908700DB3ED
:103980000AF038F8001B41F2883188421AD31349F3
:103990006846FFF7A4FF08B1002513E0104801882E
:1039A000684600F01FF850B10C48DDE9001206C06F
:1039B0000B480088401C0A490880002502E00AF0F4
:1039C00019F80446642008F0F7FFA3E7360000204A
:1039D000F004002024000020370000202C000020EC
:1039E000340000207FB505460C466A46214628462D
:1039F000FFF761FE04F0010008B9002000E010208C
:103A0000064610226946304605F053FA04B070BDF0
:103A100070B5044600250CB9002070BD00F02AF8EE
:103A20004FF0FF3000F088F808B90020F5E70B48A8
:103A3000806AA043094988620846806A30B900203C
:103A400008750749087007490870012500F0F6F865
:103A500015B10020FDF718FB0120DEE7F00400207F
:103A6000180000202000002010B50446204600F079
:103A700079F810BD10B500200D4909684863002190
:103A80000B4804F0D9FA00200A490968C8630821E4
:103A9000084804F0D1FA00220221074801F0EAFFA9
:103AA00000224FF40071054801F0E4FF10BD000052
:103AB000F80200208803002000080140000C0140AB
:103AC00010B51848006808B1012010BD012009F0A8
:103AD0008DFA144908600846006808B90020F4E728
:103AE0000020114908701149087048701049088079
:103AF00048808880C8800881C8600861087548626D
:103B0000886201F0C3FF0A49886101F0C5FF0849D6
:103B1000C86101F0C7FF0649086200200549087026
:103B20000120D2E71C00002018000020190000200E
:103B3000F00400202000002010B50446074800686B
:103B400008B9002010BD21460448006809F01EFD98
:103B5000012800D1F6E70020F4E700001C00002057
:103B60007047000010B504460CB9002010BDFFF7E7
:103B700081FF4FF0FF30FFF7DFFF18B9FFF77AFF43
:103B80000020F3E70A48806A20430949886202203E
:103B900008750849087001200749087000F04EF8C0
:103BA000FFF768FF0120FDF76FFA0120DEE7000054
:103BB000F0040020180000202000002070B504460A
:103BC000002500262CB1012C03D0022C01D00020AE
:103BD00070BD4FF0FF30FFF7AFFF08B90020F7E7E7
:103BE000022C06D01248806A18B100F027F8002095
:103BF000EEE7104804700E480475022C07D10E48F9
:103C0000007838B901200C490870012502E0002035
:103C100009490870012C00D0012600F00FF80EB100
:103C2000FFF728FF0DB1FFF79BFF0120D0E7000051
:103C3000F0040020180000202000002010B50548E6
:103C4000006830B100231A4619460248006809F09E
:103C50007FFA10BD1C00002070B504460D46B4F973
:103C60000000B2F90060B0422BD1B4F90200B2F901
:103C70000260B04225D1B4F90400B2F90460B04248
:103C80001FD1B4F90600B2F90660B04219D1B4F9F7
:103C90000800B2F90860B04213D1606A566AB042B7
:103CA0000FD1E068D668B0420BD120691669B042E6
:103CB00007D1207D167DB04203D128781E78B0420E
:103CC00001D0012070BD00210DE004F1180050F872
:103CD000216002F1180050F82100864201D0012035
:103CE000F0E7481CC1B20329EFD30020EAE7000047
:103CF00010B50648007808B1002010BD0120034926
:103D0000087000F02DF80120F7E7000040000020C7
:103D10000148007870470000400000200246908D66
:103D20008B8D984218D12E20835C405C834213D146
:103D30002F20835C405C83420ED13120835C405C49
:103D4000834209D13220835C405C834204D133201A
:103D5000835C405C834201D0012070470020FCE777
:103D600008B50648006840B100200223024601461B
:103D700000900248006809F037FD08BD3C000020B3
:103D80009CB0342101A8FCF797FA00200090002590
:103D9000012609F019FE2149086000BF64220121B3
:103DA000002008F0BFFB4FF0FF30FFF7C5FE0028F2
:103DB000F4D034221A490FA8FCF765FA1948008894
:103DC0000E90FFF73BFF184804788EB9AC420FD134
:103DD00024B901A90FA8FFF7A1FF48B9012CDDD133
:103DE0006B4601AA0EA90FA8FFF736FF0028D5D011
:103DF0001CB90FA8FFF702FA03E00EA90FA8FFF7FE
:103E00001FF90746002FC9D034220FA901A8FCF7DB
:103E10003AFA0E98009025460026BFE73C000020A5
:103E2000F004002019000020400000201CB50024F0
:103E3000002500F059FB30B92D2281A185A000F0AA
:103E4000D3FC00BFFEE700F0BDFA28B935227CA103
:103E50008AA000F0C9FC09E0FEF70EFF28B939225C
:103E600077A190A000F0C0FC00E0012400F06CFEFF
:103E700028B9442272A192A000F0B6FC00E001250E
:103E8000FFF71EFE30B94D226DA194A000F0ACFCEE
:103E900000BFFEE7FFF758FA28B9562268A19AA09A
:103EA00000F0A2FC07E0FFF73BFA20B95A2264A118
:103EB0009CA000F099FCFCF743FF28B9602260A1A8
:103EC000A0A000F091FC07E0FCF7B0FE20B964224E
:103ED0005BA1A4A000F088FCFDF78AFF28B96A2244
:103EE00057A1AAA000F080FC07E0FDF743FF20B92E
:103EF0006E2253A1ADA000F077FCFEF753FC30B961
:103F000074224FA1B1A000F06FFC00BFFEE7FFF7E5
:103F100013FC20B1012808D0022812D10BE07D2229
:103F200047A1B1A000F060FC11E0802244A1B6A03E
:103F300000F05AFC0BE0832241A1BFA000F054FC2A
:103F400005E086223EA1C7A000F04EFC00BF00BFE6
:103F5000FDF740F830B98C2239A1CBA000F044FC29
:103F600000BFFEE7FDF7BAF8FDF704FB30B9992270
:103F700033A1CCA000F038FC00BFFEE7FDF790FABB
:103F800030B9A0222EA1CEA000F02EFC00BFFEE78B
:103F9000FEF7F0FB30B9A92229A1D2A000F024FC41
:103FA00000BFFEE7002001210346C022CDE900103A
:103FB000D5A1D74809F0FCFB012806D0B22220A1E8
:103FC000D4A000F011FC00BFFEE700200121034651
:103FD000C022CDE90010D8A1DA4809F0E9FB012898
:103FE00006D0BA2216A1D8A000F0FEFB00BFFEE763
:103FF00084B10020012103460A02CDE90010DCA1B2
:10400000DC4809F0D5FB012804D0C3220CA1DAA0BA
:1040100000F0EAFB85B10020012103460A02CDE948
:104020000010DEA1DE4809F0C3FB012804D0CB223A
:1040300003A1DCA000F0D8FB08F0AAFE00BFFEE759
:10404000557365725C4170705C4170705F6D616941
:104050006E2E63005B25733A25645D49324332203E
:10406000627573206D75746578206372656174651F
:10407000206661696C65640D0A0000005B25733A77
:1040800025645D4932433120627573206D75746516
:104090007820637265617465206661696C65640D82
:1040A0000A0000005B25733A25645D4F4C454420AF
:1040B000696E6974206661696C65640D0A000000B0
:1040C0005B25733A25645D4B657920696E697420C0
:1040D0006661696C65640D0A000000005B25733A37
:1040E00025645D53797374656D2073746174652004
:1040F0006D757465782063726561746520666169A9
:104100006C65640D0A0000005B25733A25645D52FE
:10411000544320696E6974206661696C65640D0A98
:10412000000000005B25733A25645D5254432074FF
:1041300061736B20637265617465206661696C658B
:10414000640D0A005B25733A25645D426C756574E5
:104150006F6F746820696E6974206661696C65644C
:104160000D0A00005B25733A25645D426C75657429
:104170006F6F7468207461736B206372656174651E
:10418000206661696C65640D0A0000005B25733A66
:1041900025645D494D55206272696E672D757020EA
:1041A0006661696C65640D0A000000005B25733A66
:1041B00025645D494D55207461736B2063726561A0
:1041C0007465206661696C65640D0A005B25733A4D
:1041D00025645D4D6F746F7220696E69742066612D
:1041E000696C65640D0A00005B25733A25645D55B2
:1041F0007365722073657474696E6773206C6F6188
:104200006465640D0A0000005B25733A25645D4E09
:104210006F2076616C6964207573657220736574B4
:1042200074696E67732C20757365206465666175AB
:104230006C74730D0A0000005B25733A25645D55AC
:104240007365722073657474696E67732045455099
:10425000524F4D20756E617661696C61626C650DBF
:104260000A0000005B25733A25645D557365722072
:1042700073657474696E677320696E697420666112
:10428000696C65640D0A00005B25733A25645D4224
:10429000757A7A657220696E6974206661696C65E9
:1042A000640D0A005B25733A25645D486561746599
:1042B0007220696E6974206661696C65640D0A001C
:1042C0005B25733A25645D4865617465722074618D
:1042D000736B20637265617465206661696C6564E7
:1042E0000D0A00005B25733A25645D4D6F746F7293
:1042F000207461736B206372656174652066616907
:104300006C65640D0A00000053746F72616765008C
:10431000093900085B25733A25645D53746F726137
:104320006765207461736B206372656174652066D4
:1043300061696C65640D0A0052756E436F6E74722C
:104340006F6C00005D3500085B25733A25645D5293
:10435000756E20636F6E74726F6C207461736B2066
:10436000637265617465206661696C65640D0A003D
:1043700055490000813D00085B25733A25645D4F77
:104380004C4544207461736B2063726561746520D1
:104390006661696C65640D0A000000004B65790078
:1043A000292600085B25733A25645D4B65792074E6
:1043B00061736B20637265617465206661696C6509
:1043C000640D0A0010B50C48006808B1012010BD4A
:1043D0000A4800680A49884201D00020F7E7012016
:1043E00008F004FE044908600846006808B101208E
:1043F000EDE70020EBE7000098000020B00100206E
:10440000005400402DE9F04106460C46174614B909
:104410000120BDE8F08100F013F805460DB9022037
:10442000F7E73B4622463146044801F029FC804626
:10443000284600F04BF84046EBE70000B0010020B2
:1044400010B500BFEFF3058008B1002010BD0D4886
:10445000006808B90020F9E709F0BCFA0446012C0D
:1044600001D10220F2E7022C01D00020EEE74FF04C
:10447000FF310448006809F089F8012800D1E5E718
:104480000020E3E7980000202DE9F84307460C469A
:104490001546984604B115B90120BDE8F883FFF729
:1044A000CFFF06460EB90220F7E72B4622463946D3
:1044B0000548CDF8008001F0BFFC8146304600F091
:1044C00005F84846E9E70000B001002010B50446B1
:1044D000012C06D100231A4619460248006808F04C
:1044E00037FE10BD9800002010B50C48006808B1D8
:1044F000012010BD0A4800680A49884201D0002006
:10450000F7E7012008F072FD0449086008460068DA
:1045100008B10120EDE70020EBE700009400002047
:1045200004020020005800402DE9F04106460C46E8
:10453000174614B90120BDE8F08100F013F80546D4
:104540000DB90220F7E73B4622463146044801F008
:1045500097FB8046284600F075F84046EBE70000E0
:104560000402002010B500BFEFF3058008B1002061
:1045700010BD0D48006808B90020F9E709F02AFAD3
:104580000446012C01D10220F2E7022C01D00020C8
:10459000EEE74FF0FF310448006808F0F7FF01280C
:1045A00000D1E5E70020E3E7940000202DE9FE4F6D
:1045B00006460F4690461C46DDE90C9B14B1B9F146
:1045C000000F02D10120BDE8FE8FFFF7CBFF0546AB
:1045D0000DB90220F7E743463A46314605488DE8D3
:1045E000100A01F0E1FC8246284600F02BF8504604
:1045F000E9E70000040200202DE9FE4F06460F46C1
:1046000090461C46DDE90C9B14B1B9F1000F02D1B4
:104610000120BDE8FE8FFFF7A5FF05460DB902207A
:10462000F7E743463A46314605488DE8100A01F05F
:1046300075FE8246284600F005F85046E9E700007E
:104640000402002010B50446012C06D100231A46AE
:1046500019460248006808F07BFD10BD9400002058
:104660002DE9F84304460D46164698460CB105B1AF
:1046700016B90120BDE8F88300F048F807460FB9E5
:104680000220F7E700224FF480510B4801F0F2F9C5
:1046900033462A4621460948CDF8008002F07DFEC7
:1046A000814601221103044801F0E4F9384600F084
:1046B0008BF84846DEE70000000C0140580200205D
:1046C00010B50E48006808B1012010BD0C48006804
:1046D0000C49884201D00020F7E7012211030A4863
:1046E00001F0C8F9012008F081FC0449086008467F
:1046F000006808B10120E8E70020E6E79C00002000
:104700005802002000380040000C014010B500BFE6
:10471000EFF3058008B1002010BD0D48006808B90E
:104720000020F9E709F056F90446012C01D10220D6
:10473000F2E7022C01D00020EEE74FF0FF310448F1
:10474000006808F023FF012800D1E5E70020E3E737
:104750009C0000202DE9F04104460D46174604B1A7
:1047600015B90120BDE8F081FFF7D0FF06460EB96C
:104770000220F7E700224FF480510A4801F07AF94D
:104780003B462A462146084802F028FD8046012281
:104790001103044801F06EF9304600F015F8404668
:1047A000E0E70000000C0140580200202DE9F04134
:1047B00004460D4616461F463B46324629462046CD
:1047C000FFF74EFFBDE8F08110B50446012C06D17D
:1047D00000231A4619460248006808F0B9FC10BDCB
:1047E0009C00002000BFFEE70FB410B5C2B0449893
:1047F00018B942B010BC5DF814FB45A801904FF405
:10480000807102A8019B449A05F046FB04460020F3
:104810000190002C00DCECE7FF2C00D9FF24A2B2B1
:10482000C82302A9024803F01FFF00BFE1E7000010
:1048300018040020704730B590F840500124AC4077
:10484000C56B6C60046863604468102C04D1046814
:10485000A2600468E16003E00468A1600468E260AB
:1048600030BD70477FB5044614B9002004B070BD58
:104870002148007890B9214800F050FA08B1002092
:10488000F4E720221E491D4800F0CCFC08B10020AE
:10489000ECE70120184908700020E7E700220092A9
:1048A000019202920392002111E000200BE05DF8DA
:1048B000202000EB8103124D35F813301A444DF8D7
:1048C0002020421CD0B20428F1D34A1CD1B20829BE
:1048D000EBD3009AC2F3CF022280019AC2F3CF0237
:1048E0006280029AC2F3CF02A280039AC2F3CF027F
:1048F000E2800120BAE70000B80000203C0100205F
:10490000900A0020014601F00F000A1102EB82021A
:1049100000EB4200C0B2704701460A20B1FBF0F242
:1049200000FB12100A22B1FBF2F240EA0210C0B200
:10493000704710B532220321D020FFF7F5FD08B9EA
:10494000012010BD0020FCE7014609B90020704796
:10495000C888B0F5FA6F1ED3C88840F6330290427B
:1049600019D84879B8B148790C2814D8087990B189
:1049700008791F280FD8C87868B1C87807280AD8DE
:104980008878182807D248783C2804D208783C2830
:1049900001D20120DBE70020D9E77FB5044654B1FE
:1049A0003220072102AB0122CDE900100021D020E6
:1049B000FFF7FCFD10B1002004B070BD9DF8081099
:1049C00001F07F00FFF79EFF20709DF8091001F0B5
:1049D0007F00FFF797FF60709DF80A5005F04000D8
:1049E000B8B105F01F00FFF78DFFA07005F02000A3
:1049F00030B1A0780C2803D2A0780C30A0700DE064
:104A000005F0200050B9A0780C2807D10020A07034
:104A100004E005F03F00FFF775FFA0709DF80B1054
:104A200001F00700FFF76EFFE0709DF80C1001F039
:104A30003F00FFF767FF20719DF80D1001F01F0088
:104A4000FFF760FF60719DF80E00FFF75BFF00F558
:104A5000FA60E08020783C2816D260783C2813D297
:104A6000A078182810D2E07870B1E07807280BD829
:104A7000207948B120791F2806D8607920B1607963
:104A80000C2801D8012097E7002095E710B586B0E3
:104A900004462046FFF758FF10B9002006B010BDAD
:104AA0002078FFF739FF8DF810006078FFF734FFAA
:104AB0008DF81100A078FFF72FFF8DF81200E07835
:104AC000FFF72AFF8DF813002079FFF725FF8DF8F7
:104AD00014006079FFF720FF8DF81500A179A1F58A
:104AE000FA61C8B2FFF718FF8DF8160032200721CF
:104AF00004AB0122CDE900100021D020FFF77CFD9E
:104B000008B10020CAE73220012103AB0A46CDE9F3
:104B100000100F21D020FFF749FD08B10020BDE7AC
:104B20009DF80C0000F07F0003903220012103ABC0
:104B30000A46CDE900100F21D020FFF75DFD08B92E
:104B40000120ABE70020A9E710B5002418E00F48CA
:104B500030F814100E4800F085FF0E49085508463D
:104B6000005D0D49085500200C4908550C4941F8D5
:104B700024000C4941F824000B490855601CC4B2BC
:104B8000042CE4DB01200949087010BD4AFA000832
:104B900000100140A7000020AB000020AF00002063
:104BA000700A0020800A0020B3000020B700002017
:104BB0002DE9F041054600274348007800B115B9BA
:104BC0000020BDE8F081002028706870002476E0A5
:104BD0003E4830F814103E4800F044FF06463D4879
:104BE000005DB04205D03B48065501203A490855C2
:104BF00063E03948005D032805D23748005D401C5A
:104C00003549085559E03548005DB0421DD033485C
:104C100006554EB90020324941F82400314941F887
:104C200024003149085510E02F48005D20B91FB914
:104C30002C700120687001270020294941F82400C8
:104C4000284941F82400284908552448005D98BBAC
:104C5000234850F824000A30214941F82400224812
:104C6000005D90B9084650F82400B0F5167F0CD3CB
:104C700001201D49085500201A4941F82400DFB9D8
:104C80002C7002206870012716E01748005D98B16B
:104C9000144850F824000A30124941F8240008460C
:104CA00050F82400782807D3002041F824001FB9C9
:104CB0002C7003206870012700BF601CC4B2042C54
:104CC00086DB38467DE70000B70000204AFA00087E
:104CD00000100140A7000020AF000020AB00002022
:104CE000700A0020800A0020B300002010B54FF4A5
:104CF000805000F009FD10BD10B5082000F004FD43
:104D000010BD10B5102000F0FFFC10BD10B5202024
:104D100000F0FAFC10BD72B600BFFEE7F8B504461D
:104D200000260020009000BF94F82400012801D143
:104D30000220F8BD012084F8240000BF2046FBF7C4
:104D4000BFFE06462046FBF729FF0646002E69D126
:104D5000A06A20F4885040F00200A062022001F016
:104D6000FDFC34490968B1FBF0F04000009002E01E
:104D70000098401E009000980028F9D120688068B3
:104D800040F008002168886000F07AFE054616E0D1
:104D900000F076FE401B0A2811D92068806800F0D8
:104DA000080060B1A06A20F0020040F01000A0628C
:104DB00000BF002084F8240000BF0120B9E720686C
:104DC000806800F008000028E2D12068806840F088
:104DD00004002168886000F053FE054616E000F0EC
:104DE0004FFE401B0A2811D92068806800F004009B
:104DF00060B1A06A20F0020040F01000A06200BF85
:104E0000002084F8240000BF012092E72068806819
:104E100000F004000028E2D1A06A20F0020040F077
:104E20000100A06200BF002084F8240000BF3046CB
:104E30007FE700000C00002038B502460023002068
:104E4000009000BF92F82400012801D1022038BD53
:104E5000012082F8240000BF4868072812D2106899
:104E6000406B0C79641E04EB84051F24AC40A04306
:104E70000D796D1E05EB85050C68AC402043146868
:104E8000606327E048680D2812D21068006B0C7927
:104E9000E41F04EB84051F24AC40A0430D79ED1FF3
:104EA00005EB85050C68AC4020431468206311E0D5
:104EB0001068C06A0C790D3C04EB84051F24AC40DB
:104EC000A0430D790D3D05EB85050C68AC402043F2
:104ED0001468E06208680A2812D31068C0680C7869
:104EE0000A3C04EB44050724AC40A0430D780A3D7E
:104EF00005EB45058C68AC4020431468E0600FE08A
:104F0000106800690C7804EB44050724AC40A0430A
:104F10000D7805EB45058C68AC4020431468206192
:104F20000868102802D00868112827D1174C10688B
:104F3000A0421ED11068806800F40000F0B910682B
:104F4000806840F400001468A0600868102815D13B
:104F50000F4800680F4CB0FBF4F000EB80004000FD
:104F6000009002E00098401E009000980028F9D1BF
:104F700004E0906A40F020009062012300BF00200E
:104F800082F8240000BF184661E7000000240140B9
:104F90000C00002040420F0070477047704700002F
:104FA0002DE9F0410446002700250026A84614B943
:104FB0000120BDE8F081A06810B1207D00B100BFE4
:104FC000A06A30B90020E06284F82400204600F096
:104FD00097F82046FBF774FD0746A06A00F0100022
:104FE000002873D1002F7ED1A06A20F4885040F0B1
:104FF0000200A0623F4AD4E90001904208D1E06972
:10500000B0F5402F02D14FF4002002E0E06900E04B
:10501000E0690143207B41EA40000643A068B0F507
:10502000807F02D0A068012802D14FF4807000E098
:1050300000200543207D012811D1207B38B9A069CB
:10504000401E4FF4006141EA4030054307E0A06A8A
:1050500040F02000A062E06A40F00100E0622068B9
:10506000406820F4694028432168486020688068CF
:1050700021490840304321688860A068B0F5807FEE
:1050800002D0A068012802D14FF4807000E0002017
:10509000B0F5807F03D1208A401E4FEA0058206877
:1050A000C06A20F4700040EA08002168C8622068E5
:1050B000806812490840B04209D10020E062A06A2D
:1050C00020F0020040F00100A06211E00BE0A06AB5
:1050D00020F0020040F01000A062E06A40F0010001
:1050E000E062012704E0A06A40F01000A0620127FE
:1050F00038465EE7003C0140FDF7E1FFFE0E1FFF72
:1051000010B586B0044600200290039004900590EC
:105110003D492068884275D100BF3C48806940F411
:1051200000703A4988610846806900F40070019077
:1051300000BF00BF00BF0846406940F00100486161
:105140000846406900F00100019000BF00BF3048F0
:10515000304908600020486000212E48816080218D
:10516000C16049000161890041612021816109021A
:10517000C16100F017FA08B1FFF7CDFD00BF254867
:105180002062446200BF00BF2048806940F01000E8
:105190001E4988610846806900F01000019000BF38
:1051A00000BF00BF0846806940F0040088610846DF
:1051B000806900F00400019000BF00BF00BF0846F6
:1051C000806940F0080088610846806900F00800A6
:1051D000019000BF00BF012002900320039002A9AC
:1051E0000D4800F09FFA102002900320039002A9BE
:1051F0000A4800F097FA03200290039002A9084899
:1052000000F090FA06B010BD0024014000100240EA
:10521000080002406C01002000100140000801401D
:10522000000C01402DE9F04104460D4616460027CA
:1052300057492068884203D056492068884205D1E2
:105240005348001D006800F4702000E00020002892
:105250007ED100BF94F82400012802D10220BDE8CD
:10526000F081012084F8240000BF2046FBF796FC63
:105270000746002F6DD1A06A40F60161884340F4D3
:105280008070A06243492068884209D14048001DCF
:10529000006800F4702008B9012002E0002000E05E
:1052A000012078B1A06A20F48010A06220684068D4
:1052B00000F4806000B3A06A20F4005040F48050F5
:1052C000A06219E0A06A40F48010A0623049206812
:1052D000884203D02F492068884205D12C48001D00
:1052E000006800F4806000E0002028B1A06A20F48B
:1052F000005040F48050A062A06A00F4805020B1B9
:10530000E06A20F00600E06201E00020E06200BFF9
:10531000002084F8240000BF1F48216A88621F48CB
:10532000216AC8621E48216A08636FF00200216882
:1053300008602068806840F4807021688860226876
:1053400002F14C0133462A46206A00F071F901E06F
:105350001AE014E02068806800F46020B0F5602F47
:1053600006D12068806840F4A000216888600CE0C5
:105370002068806840F480102168886005E000BFE4
:10538000002084F8240000E00127384667E7000089
:1053900000240140002801401D0B00088D0B00086F
:1053A0006F0B00080146002291F82100022808D066
:1053B0000420886300BF002081F8200000BF012086
:1053C00070470868006820F00E000B6818600868D5
:1053D000006820F001000B68186091F8403001204F
:1053E0009840CB6B5860012081F8210000BF00205D
:1053F00081F8200000BF1046E2E7000070B50446C7
:10540000002594F82100022803D00420A063012580
:10541000C1E02068006820F00E0021680860206864
:10542000006820F00100216808605C49206888421B
:1054300052D95A4978392068884201D1012047E081
:10544000564964392068884201D1102040E0534910
:1054500050392068884201D1801539E04F493C39E4
:105460002068884201D1801432E04C4928392068F4
:10547000884202D14FF480302AE04849143920682C
:10548000884202D14FF4801022E0444920688842CB
:1054900001D140041CE042492068884201D101202A
:1054A00016E03F4914312068884201D110200FE0F6
:1054B0003B4928312068884201D1801508E03849ED
:1054C0003C312068884201D1801401E04FF48030E3
:1054D0003349091F086051E0304978392068884213
:1054E00001D1012047E02D4964392068884201D16B
:1054F000102040E0294950392068884201D18015A8
:1055000039E026493C392068884201D1801432E0D4
:10551000224928392068884202D14FF480302AE09D
:105520001E4914392068884202D14FF4801022E0CD
:105530001A492068884201D140041CE018492068BB
:10554000884201D1012016E01549143120688842B3
:1055500001D110200FE0124928312068884201D182
:10556000801508E00E493C312068884201D1801442
:1055700001E04FF48030094980394860012084F807
:10558000210000BF002084F8200000BF606B10B134
:105590002046616B8847284670BD000080000240AD
:1055A000080402400146002209B9012070471E4B41
:1055B000086898420BD21D4B0868C01A1423B0FB30
:1055C000F3F08000086419480838C8630AE0164BF5
:1055D0000868C01A1423B0FBF3F080000864124876
:1055E0000838C863022081F821000868026843F681
:1055F000F0708243D1E901031843CB6818430B696B
:1056000018434B6918438B691843CB69184302430D
:105610000868026000208863012081F821000020D2
:1056200081F8200000BFC1E70804024008000240E2
:105630002DE9F04104460D4616461F464FF000087E
:1056400000BF94F82000012802D10220BDE8F081BB
:10565000012084F8200000BF94F8210001282CD1FB
:10566000022084F821000020A0632068006820F058
:105670000100216808603B46324629462046FFF774
:10568000DAF8E06A30B12068006840F00E00216866
:1056900008600BE02068006820F0040021680860C2
:1056A0002068006840F00A002168086020680068EF
:1056B00040F001002168086006E000BF002084F887
:1056C000200000BF4FF002084046BFE770B5044617
:1056D00000F0D6F906462546681C10B1044800784B
:1056E000054400BF00F0CCF9801BA842FAD370BD7E
:1056F0000800002010B504462046FBF71BFF20469B
:10570000FCF754FB10BD000010B5044604480068C7
:10571000204020B1024804602046FFF7EBFF10BD97
:10572000140401402DE9F847024600239C467BE122
:105730004FF0010808FA03F4D1F8008008EA0400E9
:10574000A0427DD1DFF8F4A2D1F80480A8EB0A09C9
:10575000D0453AD014DCB8F1030F50D009DCB8F1D1
:10576000000F31D0B8F1010F1CD0B8F1020F49D1B0
:1057700020E0B8F1110F18D0B8F1120F42D11EE09D
:10578000B9F5881F25D006DCB9F5803F20D0B9F5E2
:10579000801F37D11AE0B9F5001F18D0B9F5041FE2
:1057A00030D117E0D1F80CC02DE0D1F80C8008F111
:1057B000040C28E0D1F80C8008F1080C23E0D1F8A3
:1057C0000C8008F10C0C1EE000BF00BF00BF00BF42
:1057D00000BF00BFD1F80880B8F1000F02D14FF030
:1057E000040C0BE0D1F80880B8F1010F03D14FF0A1
:1057F000080C146102E04FF0080C546103E04FF014
:10580000000C00E000BF00BFFF2801D8904601E077
:1058100002F104084646FF2802D84FEA830803E055
:10582000A3F108084FEA88084746D6F800804FF0F1
:105830000F0909FA07F928EA09080CFA07F900E044
:105840007AE048EA0908C6F80080D1F8048008F038
:105850008058B8F1805F6FD100BFDFF8E481D8F8DD
:10586000188048F00108DFF8D891C9F81880C846B8
:10587000D8F8188008F00108CDF8008000BF00BFFC
:105880004FEAB9384FEA930958F829504FEA83781C
:105890004FEA18794FF00F0808FA09F825EA0805C9
:1058A000DFF8A081424502D14FF0000824E0DFF884
:1058B0009881424502D14FF001081DE0DFF88C814C
:1058C000424502D14FF0020816E0DFF884814245DC
:1058D00002D14FF003080FE0DFF87881424502D192
:1058E0004FF0040808E0DFF87081424502D14FF024
:1058F000050801E04FF006084FEA83794FEA19796D
:1059000008FA09F848EA0505DFF850814FEA9309DB
:1059100048F82950D1F8048008F48018B8F5801FA1
:105920000BD1DFF83C81D8F8008048EA0008DFF8A6
:105930003091C9F800800AE075E0DFF82481D8F8DA
:10594000008028EA0008DFF81891C9F80080D1F833
:10595000048008F40018B8F5001F0ED1DFF80081AC
:1059600008F10408D8F8008048EA0008DFF8F09051
:1059700009F10409C9F800800DE0DFF8E48008F1BE
:105980000408D8F8008028EA0008DFF8D49009F16C
:105990000409C9F80080D1F8048008F40038B8F58B
:1059A000003F0ED1DFF8B880A8F10408D8F80080D5
:1059B00048EA0008DFF8A890A9F10409C9F80080B6
:1059C0000DE0DFF89C80A8F10408D8F8008028EAF0
:1059D0000008DFF88C90A9F10409C9F80080D1F81B
:1059E000048008F48038B8F5803F0ED1DFF870806D
:1059F000A8F10808D8F8008048EA0008DFF86090AD
:105A0000A9F10809C9F800800DE0DFF85480A8F179
:105A10000808D8F8008028EA0008DFF84490A9F1C7
:105A20000809C9F800805B1CD1F8008028FA03F847
:105A3000B8F1000F7FF47CAEBDE8F88700001110CC
:105A40000010024000080140000C0140001001401D
:105A50000014014000180140001C014008000140F2
:105A600008040140024693680B400BB1012000E09E
:105A7000002070470AB1016101E00B040361704727
:105A800001480068704700000000002001480068DD
:105A900070470000E8F7FF1F0148006870470000EA
:105AA000ECF7FF1F0148006870470000F0F7FF1F88
:105AB00070B504460CB9012070BD94F83D0028B9BA
:105AC000002084F83C00204600F0DAFC242084F812
:105AD0003D002068006820F001002168086020680F
