:020000040800F2
:1000000080720020E101000885AC0008F59D000821
:1000100081AC0008E1530008A5B50008000000000D
:10002000000000000000000000000000490100087E
:100030005F540008000000008D010008CDAD0008ED
:10004000FB010008FB010008FB010008FB010008A0
:10005000FB010008FB010008FB010008FB01000890
:10006000FB010008F5580008FF580008315400084B
:10007000FB010008FB010008FB010008FB01000870
:10008000FB010008FB010008FB010008FB01000860
:1000900095B50008FB010008FB010008095900089C
:1000A000FB010008FB010008FB010008FB01000840
:1000B000FB010008FB010008FB010008FB01000830
:1000C000FB010008FB010008FB010008FB01000820
:1000D000FB010008FB01000885B50008FB010008D2
:1000E000E9580008FB010008FB010008FB010008BB
:1000F000FB010008FB010008FB010008FB010008F0
:10010000FB010008FB010008FB010008FB010008DF
:1001100095B10008FB01000885AE0008FB0100084E
:10012000FB010008FB010008FB010008FB010008BF
:10013000DFF810D000F026FC004800473DCA000858
:10014000AFF3008080720020224B19680868B0E885
:10015000F00F80F30988BFF36F8F4FF0000080F33A
:1001600011884EF00D0E7047000000000648006830
:10017000006880F3088862B661B6BFF34F8FBFF3A3
:100180006F8F00DF00BF00BF08ED00E0EFF30980D4
:10019000BFF36F8F0F4B1A6820E9F00F106008B59E
:1001A0004FF0500080F31188BFF34F8FBFF36F8F74
:1001B0000EF024FE4FF0000080F31188BDE80840E7
:1001C00019680868B0E8F00F80F30988BFF36F8FF3
:1001D000704700BFF4010020EFF305807047000076
:1001E0000648804706480047FEE7FEE7FEE7FEE7D1
:1001F000FEE7FEE7FEE7FEE7FEE7FEE783AE000868
:10020000310100082DE9F05F0546002092469B462B
:1002100088460646814640241BE02846414647461C
:10022000224600F020F853465A46C01A914110D396
:1002300011461846224600F09BF92D1A67EB01087B
:100240004F4622460120002100F092F917EB0009E9
:100250004E41201EA4F10104DFDC484631462A4607
:100260004346BDE8F09F202A04DB203A21FA02F041
:100270000021704721FA02F3D040C2F120029140E0
:1002800008431946704740EA01039B0703D009E081
:1002900008C9121F08C0042AFAD203E011F8013B72
:1002A00000F8013B521EF9D27047D2B201E000F8CB
:1002B000012B491EFBD270470022F6E710B513460A
:1002C0000A4604461946FFF7F0FF204610BD421CBF
:1002D00010F8011B0029FBD1801A704710B50022CD
:1002E00000E0521C835C8C5CA34201D1002BF8D14E
:1002F000D8B2E1B2401A10BD30B505460020034621
:1003000000E05B1C934205D2EC5CC85C201A01D172
:10031000002CF6D130BDF0B480EA0102D40F4200C7
:10032000B2EB410F02D20246084611464A0042D0C3
:10033000C30DDDB2C1F3C752AD1A202D35DAC1F3BA
:10034000160141F4000204B15242C5F1200602FA3E
:1003500006F12A411044B3EBD05F23D0C4B1012D84
:10036000A0EBC35009DCF0BC4FF0004202EAC352DC
:10037000DBB200F5000000F013B9400000F180701E
:1003800000EBC350A0F1807040EAD170490009E051
:10039000490841EAC071A0EBC35000F500004008D5
:1003A00000EBC350F0BC00F0F2B86142012202EB56
:1003B0004101001BF6E7F0BC704781F00041AAE75D
:1003C00080F00040A7E780EA010210B502F0004388
:1003D000400022D04A001FD0010E01EB1261C0F391
:1003E0005600C2F3560240F4000042F40002A0FBA3
:1003F000022000047F39140400D0401C50EA12404F
:1004000001D44000491EC2B20C0604EBD010401CBF
:100410004008802A02D003E0002010BD20F0010037
:10042000002900DA0020184310BD30B480EA010230
:1004300002F0004530F0004221F0004013D090B1AE
:10044000C30DD40DC2F31601C0F31600E41A41F433
:10045000000140F400027D34914201D3641C00E0AD
:100460004900002C02DA30BC002070474FF4000035
:100470000023914201D3891A034340084FEA410106
:10048000F7D151B1914202D14FF0004105E002D2C3
:100490004FF0010101E06FF0010103EBC45028446B
:1004A00030BC00F074B8C10F80EAE0700844CA079D
:1004B0009623002100F074B896230022114600F024
:1004C0006FB800F0004220F00040C10DC0F31600EC
:1004D00040F400007F2901DA00207047962903DCF0
:1004E000C1F19601C84001E096398840002AF4D055
:1004F0004042704720F00040C10DC0F3160040F4A8
:1005000000007F2901DA00207047962903DCC1F141
:100510009601C8407047963988407047002801DB33
:10052000C0F10040002901DBC1F100418142704768
:10053000002801DBC0F10040002901DBC1F10041CE
:100540008842704730B50B46014600202022012426
:1005500009E021FA02F59D4205D303FA02F5491B91
:1005600004FA02F52844151EA2F10102F1DC30BDA7
:10057000202A04DB203A00FA02F100207047914063
:10058000C2F1200320FA03F3194390407047002979
:10059000A8BF7047401C490008BF20F00100704709
:1005A00010B4B0FA80FC00FA0CF050EA010404BF69
:1005B00010BC704749B1CCF1200421FA04F411FABF
:1005C0000CF118BF012121430843A3EB0C01CB1D03
:1005D0004FEA00614FEA102042BF002010BC704774
:1005E00000EBC35010440029A4BF10BC7047401C4E
:1005F000490008BF20F0010010BC7047420005D040
:10060000C0F3C7525242914201DC0020704700EB18
:10061000C15070472DE9FE4F804681EA0300C00FAC
:100620000C46009021F0004123F00045B8EB020099
:10063000A94105D24046214690461C460B4602463B
:1006400023F00040104347D0270DC7F30A00C3F33F
:100650000A510290401A019040286BDAC3F313004C
:1006600040F4801B0098924620B10023D2EB030A8D
:1006700063EB0B0B01985946C0F140025046FFF75F
:1006800077FF06460D4650465946019A00F08CF910
:1006900010EB08006141002487EA115284EAE773F5
:1006A0001A4340D0009A62B3019A012A4FEA0752D6
:1006B00015DC001B61EB02014FF0004202EA075219
:1006C000CDE90042001C41F5801132462B4600F076
:1006D0008CF903B0BDE8F08F40462146F9E7001BD6
:1006E00061EB0201001C41F5801300185B412018EA
:1006F000A2F5001747EB030140EAD570B6196D412A
:1007000011E06D084FEA360645EAC0754FEA075218
:10071000001B61EB0201001C41F5801149084FEA02
:1007200030000019514132462B4603B0BDE8F04F6E
:1007300000F04CB90098012240000023D0EB0202E7
:1007400063EBE073009821464FEAE074B8EB0000D9
:1007500061EB0401E9E783F000435BE781F00041CE
:1007600058E72DE9FE4F81EA030404F0004421F02C
:10077000004100944FF0000B23F0004350EA0104C5
:100780005ED052EA03045BD0C3F30A54C1F30A55A6
:100790002C44A4F2F3340194A0FB0254C1F31301DE
:1007A00041F48011C3F3130343F4801301FB0244AB
:1007B00000FB034E840A970A44EA815447EA8357B0
:1007C000A4FB076802958D0A05FB07854FEA932C69
:1007D00004FB0C542705029D4FEA065847EA1637DA
:1007E000B5EB08056EEB070C870E920E47EA8117F2
:1007F00042EA8312A7FB0201B6EB0B0164EB000493
:100800002B0D43EA0C335E1844EB1C50DA4651467C
:10081000E7FB0201C5F313044FEA0B3343EA145319
:100820004FEA0432019C43EA0603A4F10C0402944B
:10083000009CCDE900B400F0D8F803B0BDE8F08F1B
:1008400000200146F9E72DE9F04D81EA030404F0A8
:10085000004B21F0004514464FF0000A23F0004100
:1008600050EA050220D054EA01021DD0C5F30A5710
:100870000246C5F31303C1F31300C1F30A5640F453
:10088000801543F48013A7EB0608101BD64608F228
:10089000FD3873EB050002D308F1010801E092185E
:1008A0005B41B8F1000F03DA00200146BDE8F08D8E
:1008B00000204FF48011064684460EE0171B73EBB0
:1008C000050705D3121B63EB050306434CEA010C35
:1008D00049084FEA300092185B4150EA0107EDD118
:1008E00052EA030012D082EA040083EA05010843B9
:1008F00005D0101BAB4106D20122002306E00022E6
:100900004FF0004302E06FF0010253101AEB0600B3
:100910004CEB085110EB0A0041EB0B01BDE8F04D28
:1009200000F054B8C1F30A52C1F3130140F2FF338F
:1009300041F480119A4202DA00200146704740F2E9
:1009400033439A42A2F2334202DC5242FFF78BBC9D
:10095000FFF70EBE30B5041E71F1000404DB4FF04A
:100960000044404264EB0101141E73F1000405DBF6
:100970001C464FF00043524263EB0403994208BF08
:10098000904230BD064C074D06E0E06840F00103A0
:1009900094E8070098471034AC42F6D3FFF7CCFB3D
:1009A0007421010894210108202A06DBCB17203A84
:1009B00041FA02F043EAE07306E041FA02F3D04064
:1009C000C2F12002914008431946704710B5141E29
:1009D00073F1000408DA401C41F1000192185B41F8
:1009E0001A4301D120F0010010BD2DE9F04D9246CF
:1009F0009B4611B1B1FA81F202E0B0FA80F22032E6
:100A00009046FFF7B5FD04460F4640EA0A0041EA6A
:100A10000B0153465A46084313D0114653EA0100CE
:100A200019D0C8F140025046FFF71DFC05460E469E
:100A3000504659464246FFF79BFD084305D001202A
:100A400004E020463946BDE8F08D0020054346EA23
:100A5000E0762C4337430A986305E40AA0EB0800CC
:100A60000022FD0A44EA47540A3002D5002001461C
:100A7000E9E7010510196941DDE9084500196941F7
:100A8000BDE8F04DA2E770B58C1810F8015B15F0C9
:100A9000070301D110F8013B2A1106D110F8012BF0
:100AA00003E010F8016B01F8016B5B1EF9D12B0715
:100AB00005D40023521E0DD401F8013BFAE710F8CB
:100AC000013BCB1A921C03E013F8015B01F8015BB8
:100AD000521EF9D5A142D8D3002070BD70B504468E
:100AE00000252068806800F0010018B32068806845
:100AF00020F001002168886006F0B2FA054613E094
:100B000006F0AEFA401B02280ED92068806800F07B
:100B1000010048B1A06A40F01000A062E06A40F015
:100B20000100E062012070BD2068806800F00100D3
:100B30000028E5D10020F6E770B505466C6AA06A8A
:100B400000F05000E0B9A06A40F40070A062206894
:100B5000806800F46020B0F5602F0DD1207B58B97B
:100B6000A06A20F48070A062A06A00F4805018B9D6
:100B7000A06A40F00100A062204605F00BF803E0F7
:100B8000206A016B2846884770BD70B505466C6ABF
:100B9000A06A40F04000A062E06A40F00400E06219
:100BA000204604F0F9FF70BD70B50446656A28461A
:100BB00004F0F1FF70BD000038B5044600250020A8
:100BC00000902068806800F0010078BB2068806891
:100BD00040F0010021688860194800681949B0FB9D
:100BE000F1F0009002E00098401E0090009800286C
:100BF000F9D106F035FA054619E006F031FA401B46
:100C0000022814D92068806800F0010078B9A06A31
:100C100040F01000A062E06A40F00100E06200BF16
:100C2000002084F8240000BF012038BD05E02068C2
:100C3000806800F001000028DFD00020F5E7000008
:100C40000C00002040420F001CB50A48007808B98B
:100C500000201CBD002001210346C022CDE9001068
:100C600005A108480EF000FF012800D1F1E700209F
:100C7000EFE700008F000020426C7565746F6F74A1
:100C800068000000D90E00081CB5044602221BA112
:100C90002046FFF731FBB0B119A12046FFF71EFB3C
:100CA00088B118A12046FFF719FB60B120782B28E6
:100CB00009D016A12046FFF711FB20B116A120464E
:100CC000FFF70CFB30B92346672216A11CA004F0E5
:100CD00089FB1CBD6946204600F07EF840B168469D
:100CE00003F01EF920B108211A4809F0EFFBF0E7E4
:100CF0000B21194809F0EAFB00BFEAE74154000064
:100D00004F4B00004552524F52000000434F4E4E91
:100D1000454354204F4B0000444953434F4E4E45EA
:100D200043540000557365725C4170705C41707093
:100D30005F626C7565746F6F74682E6300000000ED
:100D40005B25733A25645D4543423031433A2025A3
:100D5000730D0A00940601089D06010810B509F0FC
:100D600073FB064908700846007820B9A02204A148
:100D70000AA004F037FB0148007810BD8F00002066
:100D8000557365725C4170705C4170705F626C7528
:100D900065746F6F74682E63000000005B25733A02
:100DA00025645D426C7565746F6F7468205553419E
:100DB00052543220696E6974206661696C65640DF5
:100DC0000A0000000146302903DB392901DC01203B
:100DD00070470020FCE7000030B587B005460C46A0
:100DE00075B16CB12846FFF772FA112808D10422B8
:100DF0002AA12846FFF780FA10B9A87A2C2802D039
:100E0000002007B030BD01A9281D00F04BF8E0B16B
:100E100006A9A81D00F046F8B8B105A905F108001B
:100E200000F040F888B104A905F10B0000F03AF891
:100E300058B103A905F10D0000F034F828B102A95A
:100E400005F10F0000F02EF808B90020D9E79DF851
:100E5000040000F5FA60E0809DF8180060719DF8CC
:100E6000140020719DF8180058B19DF818000C2846
:100E700007D8E0889DF814209DF8181000F056F867
:100E800000E00020E0709DF81000A0709DF80C00BC
:100E900060709DF8080020700120B2E75254432C86
:100EA0000000000070B504460D4644B13DB1207805
:100EB000FFF788FF18B16078FFF784FF08B90020BA
:100EC00070BD607830382178303901EB810100EB5A
:100ED000410028700120F3E78AB0002400BF1BE026
:100EE0009DF824000A2808D1002001A9085514B152
:100EF00001A8FFF7C9FE00240EE09DF824000D288C
:100F00000AD01F2C07D29DF824202046611C8CB2E9
:100F100001A90A5400E0002409A809F0B5FA002844
:100F2000DED10A200DF038FDD9E70000F0B5044607
:100F30000B462146032B01D2481E81B26420B1FB2F
:100F4000F0F001EB9106301A4FF4C876B1FBF6F6DB
:100F50000644581E064F385C304410440726B0FB48
:100F6000F6F706FB17050DB90720F0BD2846FCE78C
:100F700088060108F8B506460C461A48007800B9FC
:100F8000F8BDACB91848007838BB00F0A7F80EF0EF
:100F9000F9FE0546002003462A4601210090134829
:100FA00000680FF0C7FA01281AD000F0BFF817E068
:100FB000022C01D1012000E000200B490870002024
:100FC0000346024603210090084800680FF0B2FA79
:100FD0000548007810B100F081F801E000F0A6F8B3
:100FE00000BFCDE7140000201500002010000020F5
:100FF00008B51148007808B1012008BD41F29410ED
:101000000E490968486300F091F80D4800231A461C
:10101000322100900BA00FF009FA0C490860084635
:10102000006808B90020E8E700200949087001209D
:101030000149087000BFE0E7140000201004002000
:10104000C910000842757A7A65720000100000200D
:101050001500002038B504464FF00000009000BF96
:10106000EFF3058098B16B46224600210B480FF044
:10107000D3FA012811D100BF009838B14FF0805049
:1010800007490860BFF34F8FBFF36F8F05E0002360
:101090002246194601480FF097FA38BD750F00082F
:1010A00004ED00E010B504460648007800B910BD14
:1010B0000CB1022100E001210846FFF7CBFF00BF81
:1010C000F5E700001400002010B50446024800783F
:1010D00008B900F02BF810BD1500002010B541F242
:1010E00094100449096848630021024808F01AFA7C
:1010F00010BD00001004002010B50B48007800B9A6
:1011000010BDFFF7EBFF502005F0D0FD00F00EF80A
:10111000282005F0CBFDFFF7E1FF502005F0C6FDCC
:1011200000F004F800BFEBE71400002010B5002128
:10113000014808F071FA10BD100400201CB50A48DF
:10114000022100234FF4C072CDE9001007A1084826
:101150000EF08AFC012804D0042006490870002003
:101160001CBD0120FCE70000A400002043414E000C
:10117000F9130008BC00002000B589B010E06B46F0
:1011800002AA00210A4805F077F820B9694602A8AA
:1011900000F012F804E007480068401C05490860A8
:1011A0000021034805F054F80028E8D109B000BD3B
:1011B00074020020B80000202DE9FC4706460C46CA
:1011C00066B15CB1B06848B940F2213130688842FC
:1011D00004D1F06810B93069072806D223480068A6
:1011E000401C22490860BDE8FC8721480068401C7B
:1011F0001F4908602078012806D0012567784FF044
:1012000000080020019024E06778E078A17840EAA7
:1012100001286079217940EA01200190032F0BD148
:1012200001A9404602F05AFC824600F077F80546D4
:101230007DB1002001900CE0062F09D1BDF804100B
:10124000404602F0B7FD824600F068F8054600E02F
:10125000022594F806904B460095BDF804204146BF
:10126000384600F065F800BFBDE70000B800002078
:10127000AC00002000B58BB0282101A8FFF71CF8B6
:101280000020069007900120089046F2204001902F
:101290004FF6E070039000200590012009900E2089
:1012A0000A9001A9194804F035FF50B101201849EE
:1012B0000870164804F0C9FF1649086000200BB0FA
:1012C00000BD124805F029FB48B102201049087002
:1012D0000E4804F0BAFF0F4908600020EFE7022132
:1012E0000A4804F05DFE48B1032009490870074828
:1012F00004F0ABFF074908600020E0E70120064941
:1013000008700020024908700120D8E7740200200C
:10131000BC000020C0000020A0000020014609B948
:1013200000207047012901D10320FAE70420F8E7E3
:101330002DE9F04389B006460C4615461F46DDF8F8
:101340004080182103A8FEF7B7FF40F22230039037
:101350000020059006900820079000208DF82000BE
:1013600001208DF804008DF8056020128DF806002C
:10137000E0B28DF8070028128DF80800E8B28DF869
:1013800009008DF80A708DF80B800EF0FBFC814689
:1013900011E00EF0F7FCA0EB0900052808D3134874
:1013A0000068401C11490860002009B0BDE8F083C6
:1013B00001200DF0F1FA0E4805F028F80028E8D0D9
:1013C0006B4601AA03A90A4804F0FFFD30B10748A3
:1013D0000068401C054908600020E6E705480068F1
:1013E000401C044908600120DFE70000B400002031
:1013F00074020020B000002086B00EF0C3FC04464A
:1014000000BF41F28832012100200CF0C9FF1948C9
:10141000007828B1FFF7B0FE0221174804F0C0FDA4
:101420000EF0B0FC001B41F288318842E9D30EF087
:10143000A9FC0446104804F008FF1049086008465B
:1014400000680F4909680F4A12680F4B1B68CDE905
:101450000232CDE904100D4800680D490968CDE954
:10146000001004480378B0220AA10F4803F0BAFF25
:10147000C7E70000A000002074020020C000002088
:10148000B8000020B4000020B0000020AC00002014
:10149000A8000020557365725C4170705C417070EB
:1014A0005F63616E2E630000B420010870B50446CE
:1014B0002046FEF70CFF85B2C8232A462146024883
:1014C00008F038FC70BD0000780500200148006875
:1014D00070470000B8010020014800687047000014
:1014E000B40100200148006870470000C0010020DE
:1014F0000148006870470000C401002001480068EE
:1015000070470000C80100200148006870470000D3
:10151000CC01002010B504461CB112492068884255
:1015200000D010BD104800781049087010480078AD
:1015300080B11048006868B10F480068401C0E492F
:1015400008600C4800688047012207490B4808F0F2
:10155000A7FB04E00A480068401C0949086000BF76
:10156000DFE70000004C0040BC010020BD0100206E
:10157000BF01002004010020C00100203005002030
:10158000C40100202DE9F0410446322004FB00F89C
:1015900008F2E7304FF47A71B0FBF1F505B9012597
:1015A0004FF47A70A5FB006001464FF47A72002375
:1015B0003046FEF727FEBDE8F081000010B5044676
:1015C0000548006838B105480068401C03490860B8
:1015D00001480068804710BD0C010020DC0100209C
:1015E0000148006870470000DC01002010B5044687
:1015F00000212046FEF792FF02D284F0004010BD89
:101600002046FCE72DE9F041064600213046FEF772
:1016100085FF0BD800F038FB2048007820B100206F
:101620001E49087000F062F8BDE8F08100F00AFB86
:1016300001201A49087001220221194805F00AFD0B
:1016400018480068C06A441C2046FEF735FF8046F3
:101650003146FEF7B8FE0746FEF74CFF0546A542A9
:1016600000D3651E0F48006845630F48007888B9AD
:1016700000210C4807F056FF48B1002009490968CD
:10168000486300220221064805F0E4FCCCE7012073
:10169000054908700548866000BFC5E78D00002039
:1016A000000801405804002074000020640B002052
:1016B00070B504460025681E02F09EFF88B10A48F6
:1016C000007D01280BD10848806A40B90648B0F96E
:1016D0000400002803DD2046FFF794FF012503F0F6
:1016E0000DF8284670BD00005006002010B50122FC
:1016F0000221074805F0AEFC0EF044FB4EF66021D7
:1017000008440449086001200349087010BD000026
:1017100000080140880000208C0000202DE9FF5FB8
:101720004FF00008C146002700204D4908604D4990
:1017300008604D4908604D490870824628E002A8BB
:1017400003F08EFEE8B1BDF80A0000F005FAC0B162
:10175000BDF80C0000F000FA98B1BDF80A0000F0E6
:10176000BFF983464146FEF7D6FD8046BDF80C0022
:1017700000F0B6F983464946FEF7CDFD8146781C58
:10178000C7B264200DF008F90AF1010000F0FF0A69
:10179000BAF10A0FD3D3032F04D235A003F022FEEF
:1017A000BDE8FF9F3846FEF787FE83465946404610
:1017B000FEF73BFE04463846FEF77EFE834659465A
:1017C0004846FEF732FE054629462046FEF7F5FD5F
:1017D0000190FFF70BFF83464FF08241FEF7A8FE12
:1017E0000DD22846FEF76DFE83462046FEF769FEC1
:1017F0005A460146019027A003F0F4FDD0E72946A0
:101800002046FEF788FD83464FF07C51FEF7DBFD56
:10181000064621463046FEF7D0FD124908602946AB
:101820003046FEF7CAFD104908600D4806600120E9
:101830000E4908700C480068FEF743FE83460948CD
:101840000068FEF73EFE01903046FEF73AFE5B462A
:10185000009001461CA0019A03F0C4FD00BF9FE761
:10186000780000207C000020800000208400002000
:101870004845415420636F6C642063616C696272F7
:101880006174696F6E20756E617661696C61626CFE
:10189000650D0A004845415420636F6C6420636104
:1018A0006C6962726174696F6E20736B69707065C8
:1018B0006420626F6172643A2564206C6971756995
:1018C000643A25640D0A00004845415420636F6C5A
:1018D000642063616C6962726174696F6E206F6B02
:1018E000207265663A256420626F6172644F667388
:1018F0003A2564206C69717569644F66733A256492
:101900000D0A000070B504460D480078A8B10D48D6
:1019100001682046FEF70CFE0FD20A4801682046F7
:10192000FEF74BFD06460849FEF74DFD0546054806
:1019300001682846FEF7EFFC70BD2046FCE700007A
:1019400084000020780000206666E63F1CB5084849
:10195000022100234FF4C072CDE9001005A1074811
:101960000EF082F8012800D11CBD0020FCE7000029
:10197000700000204865617465720000B51C0008A5
:1019800070B505460C4600F06BF9284602F04AFE99
:101990000120FFF787FB0848007848B90120064975
:1019A0000870234640F2571204A10AA003F01AFD62
:1019B00002F068FF70BD000075000020557365726D
:1019C0005C4170705C4170705F6865617465722E17
:1019D000630000005B25733A25645D25730D0A00E2
:1019E00038B5044600200090082C13D10A4800683E
:1019F00080B16A460021084800680CF0FBFF00BF78
:101A0000009830B1600605490860BFF34F8FBFF3FF
:101A10006F8F00BF38BD00007000002004ED00E0B3
:101A200010B500F01DF900F005F900200F4908700D
:101A30000F4908600F4908600F4908600F49087096
:101A40000F4908600F4908700F49087000220421EF
:101A50000E4805F0FFFA022005F028F901220421C2
:101A60000A4805F0F7FA012010BD000075000020BB
:101A7000780000207C0000208000002084000020EE
:101A8000880000208C0000208D0000200010014004
:101A90002DE9F04106460C460E492046FEF748FD6A
:101AA00002D80020BDE8F0810B492046FEF740FD3A
:101AB0000DD221460748FEF780FC07460749FEF78E
:101AC000B4FC054629463046FEF77DFC0646304606
:101AD000E8E700000000BE42000096420000A0417E
:101AE0002DE9F04704462046FEF7E6FC81461549FD
:101AF000FEF766FC07462046FEF7DEFC81461249EB
:101B0000FEF761FC80463946FEF78FFC05460E491C
:101B10002846FEF78AFC81460AF0C8FE80460B493B
:101B2000FEF783FC07460A49FEF7F5FB06463146F9
:101B30004FF07E50FEF779FC07460649FEF73DFC64
:101B4000BDE8F08700F07F4500401C4600B09A4594
:101B50000FCF5B3B339388430146052905D940F6F7
:101B6000FA70814201D2012070470020FCE700009A
:101B70002DE9FC5F074688464FF07C5A41463846BF
:101B8000FEF71BFC044600212046FEF7C7FC04D8E4
:101B900000F050F80020BDE8FC9F4FF07C5120463B
:101BA000FEF711FC81461E4801684846FEF7B3FB6C
:101BB0001B49086008681B49FEF7BAFC02D21948A5
:101BC00017490860164841682046FEF7F6FB814633
:101BD0004FF07C51FEF729FC054629460020FEF710
:101BE000F2FB01900E4801680F48FEF7ECFB8346BC
:101BF00021460E48FEF7E7FB59460090FEF78BFBA7
:101C000081460199FEF787FB06460548446008496E
:101C10003046FEF78DFC00D2054E3046BBE7000093
:101C2000640B0020000096436F12033B8FC2F53C0B
:101C30009A99193F002002490860486088607047FF
:101C4000640B002010B501220221034805F002FABE
:101C500000200249087010BD000801408C000020DF
:101C600010B500F011F800220221044805F0F2F945
:101C70000020034908700349087010BD00080140A6
:101C80008C0000208D00002010B500200649096856
:101C900048630021044807F0BFFC00200349087096
:101CA0000349886010BD0000580400207400002023
:101CB000640B00208AB000240025FFF72FFD0EF0F2
:101CC00061F8804600BF4FF4FA72012100200CF049
:101CD00067FB08216F4805F0B5F920B96EA1102007
:101CE000FFF74EFEEFE708A803F0BAFB40B9601C0F
:101CF000C4B2032C03D36EA12020FFF741FEE2E71C
:101D00000024BDF8200040F6FA71884203D2BDF8E5
:101D10002600884208D3681CC5B2032D03D36AA1EC
:101D20002020FFF72DFECEE70025BDF82200FFF7AB
:101D300013FF20B1BDF82400FFF70EFF20B969A101
:101D40000420FFF71DFEBEE7BDF82200FFF7C8FE26
:101D50008246BDF82400FFF7C3FE83466848016849
:101D60005046FEF7D8FA8246664801685846FEF7A4
:101D7000D2FA83465046FFF7C5FD82464FF0FF304A
:101D800002F03AFCB8B14FF07C515046FEF7C3FA6E
:101D90008146FEF796FB00B25B4948804FF07C51CC
:101DA0005846FEF7B8FA8146FEF78BFB00B256495B
:101DB000088002F0A3FC02F065FD54495046FEF78E
:101DC000B7FB04D952495846FEF7B2FB04D851A1DB
:101DD0000820FFF7D5FD76E700260027701E02F0E9
:101DE0000BFC48B14848067D0146B1F90400FEF7F6
:101DF0005AFB074602F082FC02F044FD012E17D187
:101E000000213846FEF794FB12D259463846FFF7B8
:101E1000AFFE079051460798FFF73AFE07900798E4
:101E2000FFF746FC40B9FFF705FFFFF719FF03E096
:101E3000FFF700FFFFF714FF00F0D8F90DF0A2FF45
:101E4000A0EB0800B0F5FA6F23D30DF09BFF80469E
:101E5000364988683649FEF7B6FA0390FEF74AFB22
:101E600081465046FEF72DFB06905846FEF729FBAB
:101E700005903846FEF725FB0490BDF82200BDF81A
:101E80002410CDE9009102902AA004A90EC903F004
:101E9000A9FA18E70010014048656174657220686E
:101EA00061726477617265206661756C7400000010
:101EB0004865617465722041444320756E617661A6
:101EC000696C61626C6500004865617465722041EF
:101ED00044432076616C75652061626E6F726D613E
:101EE0006C000000486561746572204E5443206F99
:101EF00070656E206F722073686F7274000000004E
:101F00007C00002080000020500600200000DC4201
:101F100000000243486561746572206F76657274D3
:101F2000656D70657261747572650000640B0020E8
:101F30000000C84248454154207461726765743A94
:101F40002564206C69717569643A256420626F614B
:101F500072643A256420647574793A2575252520C4
:101F60007261773A25752F25750D0A002DE9FC4120
:101F70003C274FF0FF3002F03FFB10B90020BDE8D6
:101F8000FC814748846A02F0B9FB04F03C0008B9C0
:101F90000020F4E70821434805F054F838B940F22E
:101FA000232241A146A003F01DFA0020E7E768467E
:101FB00003F056FA98B1BDF8000040F6FA71884275
:101FC0000DD2BDF80600884209D2BDF80200FFF725
:101FD000C3FD20B1BDF80400FFF7BEFD38B94FF4D2
:101FE0000B7231A146A003F0FDF90020C7E7BDF850
:101FF0000200FFF775FD8046504801684046FEF735
:102000008AF90646BDF80400FFF76AFD80464C4891
:1020100001684046FEF77FF905463046FFF772FC3F
:10202000064648493046FEF783FA04D94649284611
:10203000FEF77EFA07D84FF40E721BA143A003F0FF
:10204000D1F900209BE700220421164805F002F890
:10205000022004F02BFE01220421124804F0FAFFB2
:102060000821104804F0EEFF38B940F245220EA1D5
:1020700046A003F0B7F9002081E73C2002F028FADF
:1020800008B900207BE700204D49087040F24E223D
:1020900005A14CA003F0A6F902F0F4FB01206EE7C5
:1020A0005006002000100140557365725C4170704D
:1020B0005C4170705F6865617465722E630000003A
:1020C0005B25733A25645D486561746572206661BD
:1020D000756C7420636C6561722072656A656374E7
:1020E00065643A2068617264776172652066617523
:1020F0006C742072656D61696E730D0A00000000DA
:102100005B25733A25645D4865617465722066617C
:10211000756C7420636C6561722072656A656374A6
:1021200065643A20414443206F72204E5443206935
:102130006E76616C69640D0A000000007C0000206E
:10214000800000200000DC42000002435B25733A5F
:1021500025645D486561746572206661756C7420E4
:10216000636C6561722072656A65637465643A20A8
:102170006F76657274656D706572617475726520D5
:1021800072656D61696E730D0A0000005B25733A1C
:1021900025645D486561746572206661756C7420A4
:1021A000636C6561722072656A6563746564206141
:1021B000667465722072657365740D0A0000000014
:1021C000750000205B25733A25645D486561746580
:1021D00072206661756C7420636C65617265642041
:1021E0006279204B4559310D0A00000010B50948AD
:1021F000007868B10DF0C6FD07490968401A07D498
:1022000000220221054804F025FF00200149087042
:1022100010BD00008C000020880000200008014054
:102220001CB50A48006808B101201CBD07480221FE
:102230000023CA01CDE9001005A106480DF014FCE9
:10224000012800D1F1E70020EFE700009000002016
:10225000494D5500D125000838B5044600200090AE
:102260000C480068A8B1102C01D0202C11D16A466E
:102270000021084800680CF0BDFB00BF009838B191
:102280004FF0805004490860BFF34F8FBFF36F8F4A
:1022900000BF38BD9000002004ED00E008B500202C
:1022A0002949087029490870294908702949087086
:1022B00003F004F838B94FF4877227A12BA003F07C
:1022C00091F8002008BD69460F2000F036F938B9B2
:1022D0004FF48A7220A12EA003F084F80020F1E7C9
:1022E0009DF8003040F217121BA133A003F07AF8DA
:1022F0009DF800006A2807D04FF48D7216A137A010
:1023000003F070F80020DDE74421122000F036FAD7
:1023100048B14021102000F031FA20B101210D20F8
:1023200000F02CFA38B94FF491720BA134A003F0ED
:1023300059F80020C6E740F2251207A13CA003F09F
:1023400051F80120BEE700009B0000209C00002007
:102350009D0000209E000020557365725C417070E6
:102360005C4170705F696D752E6300005B25733A88
:1023700025645D4C534D3644534D20535049322013
:10238000696E6974206661696C65640D0A000000FD
:102390005B25733A25645D4C534D3644534D2057AD
:1023A000484F5F414D5F49207265616420666169F5
:1023B0006C65640D0A0000005B25733A25645D4C72
:1023C000534D3644534D2057484F5F414D5F492090
:1023D0003D203078253032580D0A00005B25733AD5
:1023E00025645D4C534D3644534D2057484F5F4153
:1023F0004D5F49206D69736D617463680D0A00005B
:102400005B25733A25645D4C534D3644534D206132
:102410006363656C65726F6D6574657220636F6E62
:10242000666967206661696C65640D0A00000000DA
:102430005B25733A25645D4C534D3644534D2072F1
:10244000656164790D0A000030B5014609B90020C4
:1024500030BDB1F90000002801DB054600E045422F
:102460002A46B1F90200002801DB054600E045429A
:102470002B46B1F90400002801DB054600E0454287
:102480002C4643F23330844207DB42F266608242DC
:1024900003DC834201DC0120DAE70020D8E730B515
:1024A000014609B9002030BDB1F90000002801DB68
:1024B000054600E045422A46B1F90200002801DB4A
:1024C000054600E045422B46B1F90400002801DB37
:1024D000054600E045422C4642F6CC40844203DBF0
:1024E000824201DC834201DD0120DCE70020DAE7E3
:1024F0001CB504462CB106226946282000F038F8A5
:1025000008B900201CBD9DF800009DF8011040EAAC
:10251000012000B220809DF802009DF8031040EADF
:10252000012000B260809DF804009DF8051040EA8B
:10253000012000B2A0800120E4E77CB505460C46EE
:102540000CB900207CBD45F080008DF80400FF2010
:102550008DF8050064230222694601A802F024FFD9
:1025600008B10020EEE79DF8010020700120E9E7A6
:10257000F0B593B007460E46154616B10DB1202DA5
:1025800002D9002013B0F0BD47F080008DF828007C
:10259000012404E0FF200AA90855601C84B2AC4263
:1025A000F8DD681C82B2642301A90AA802F0FCFECF
:1025B00008B10020E6E7002405E001A9601C085CE2
:1025C0003055601C84B2AC42F7DB0120DAE7000032
:1025D0001CB500BF1422012100200BF0E1FE68466B
:1025E000FFF786FF00B9F5E7274800990160BDF8BD
:1025F000041081800120254908706846FFF74FFFCD
:102600000446002C21D0002021490870214908707F
:1026100021480078052804D21F480078401C1E4934
:1026200008701E48007800282DD11B480078052826
:1026300029D3012019490870812219A11DA002F097
:10264000D1FE022001F070FF1DE000201249087049
:102650006846FFF7F9FE98B10D480078142804D2B7
:102660000B480078401C0A4908700C48007850B1AB
:1026700007480078142806D301200649087002E0B4
:10268000002003490870A5E7940000209A0000206C
:102690009D0000209E0000209C0000209B00002048
:1026A000557365725C4170705C4170705F696D75E7
:1026B0002E6300005B25733A25645D494D552074F7
:1026C000696C742064657465637465642C20656E40
:1026D000746572206661756C740D0A0010B512483D
:1026E000007848B11148007830B11148007818B12D
:1026F0001048FFF7A9FE08B9002010BD022001F024
:10270000E7FE04466CB100200749087007490870CD
:102710000949087009490870AD2209A10DA002F00D
:1027200061FE2046E9E700009B0000209E0000209B
:102730009A000020940000209C0000209D000020B2
:10274000557365725C4170705C4170705F696D7546
:102750002E6300005B25733A25645D494D55207456
:10276000696C74206661756C7420636C6561726558
:1027700064206279204B4559310D0A0038B5044672
:102780000D4604F07F008DF800008DF801506422A2
:102790000221684602F0DCFD08B9012038BD0020A6
:1027A000FCE7000070B505464FF0FF3001F024FF54
:1027B00000B970BD2A48007880B92A48B0F90400F1
:1027C0004419002C01DA002404E0B4F5004F01DBC9
:1027D00047F6FF7420B2234988803AE02048007809
:1027E000012810D11F48B0F908004419002C01DA63
:1027F000002404E0B4F5004F01DB47F6FF7420B27B
:102800001849088125E016480078022821D1002DBA
:102810000EDA6E4213480069B04205D911480069CA
:10282000801B1049086114E000200E49086110E087
:102830002E460C480069C6F1FF31884205D8094888
:10284000006930440749086103E04FF0FF30054953
:10285000086101F053FF01F093FD00BFA9E70000FC
:10286000190000205006002010B54FF0FF3001F095
:10287000C3FE00B910BD0B48007D02280DD00A48E8
:1028800000780949487008460078401C0321B0FBD5
:10289000F1F201FB12000449087001F02FFF00BFA4
:1028A000E8E70000500600201900002070B5002560
:1028B000681E01F0A1FE00B970BD1548007D022818
:1028C00002D001F01BFFF7E71148846A01F016FF00
:1028D00004F0020030B1FFF701FF08B1012000E071
:1028E0002846054604F03C0030B1FFF73FFB08B135
:1028F000012000E0284605462DB940F2351205A119
:1029000009A002F06FFD01F0BDFF00BFD4E7000099
:1029100050060020557365725C4170705C417070A8
:102920005F6B65792E6300005B25733A25645D4615
:1029300061756C7420636C6561722072656A656391
:102940007465643A20636F6E646974696F6E206E9B
:102950006F74207265636F76657265640D0A00009E
:1029600010B50024601E01F047FE00B910BD0948F3
:10297000007D022804D0002006494862C860012476
:1029800001F0BCFE14B1002001F078FE01F0F8FC6B
:1029900000BFEBE75006002010B5044614B12078C4
:1029A000042800DB10BD204600F056F801F042FF7D
:1029B00040B92078032804D16078012801D101F0C2
:1029C000F7FEEFE7207830B1012810D002281ED0A2
:1029D00003283AD12DE06078012802D1FFF744FFA7
:1029E00004E06078022801D1FFF760FF2EE06078F4
:1029F000012802D1FFF7D6FE08E06078022802D055
:102A00006078032802D10520FFF7CCFE1EE0607835
:102A1000012803D1801EFFF7C5FE09E06078022877
:102A200002D06078032803D16FF00400FFF7BAFEEC
:102A30000CE06078012802D100F05AF804E06078D8
:102A4000022801D1FFF78CFF00E000BF00BF01F0BA
:102A500019FF00BFA6E7000010B5044614B1607866
:102A6000032800D110BD6078012807D12078431CCD
:102A70001B2208A10CA002F0B5FC09E06078022836
:102A800006D12078431C1F2202A10DA002F0AAFC4F
:102A900000BFE7E7557365725C4170705C41707010
:102AA0005F6B65792E6300005B25733A25645D4B8F
:102AB000455925752073686F72740D0A0000000077
:102AC0005B25733A25645D4B45592575206C6F6E07
:102AD000670D0A0008B500BF684602F067FE10B136
:102AE0006846FFF759FF0A200BF056FFF4E7000095
:102AF00010B50224E01E01F07FFD00B910BD13489F
:102B0000007D022818D01148007D012801D1002441
:102B100012E00E48006978B101240C48C06828B161
:102B20000A48406A09490969884205D300200749D3
:102B3000486208460069C86001F0E0FD022C02D03E
:102B4000204601F09BFD00BFD8E7000050060020A2
:102B50001CB51148007808B900201CBD00200221D6
:102B600003460A02CDE900100CA10E480CF07CFFD0
:102B7000012801D00020F0E70020012103460A02CD
:102B8000CDE9001008A10A480CF06EFF012801D021
:102B90000020E2E70120E0E7C40000204D6F6462FE
:102BA00075730000992C00084D624469616700004C
:102BB000B52B00088CB000BF41F288300BF0ECFE62
:102BC000FEF784FC0446FEF787FC0546FEF708FD89
:102BD0000646FEF799FC8246FEF790FC0746FEF794
:102BE00087FC8046FEF77EFC81460F4800880F492F
:102BF00009880F4A12680F4B1B68CDE90832CDE9EE
:102C00000A100D480068CDE9027ACDE90098CDE9B7
:102C10000465CDE9064009480378312208A10E4831
:102C200002F0E0FBC8E70000D6000020D40000203E
:102C3000D0000020CC000020C8000020C4000020EC
:102C4000557365725C4170705C4170705F6D6F644C
:102C50006275732E63000000FC2001081CB5012082
:102C600000214FF4E1330422CDE900100146002099
:102C700009F0B6FB04460CB9012000E0002002492F
:102C80000870084600781CBDC400002010B504463A
:102C90002046FEF73FFC10BD0748007808B109F058
:102CA0007DFA00BF0448007810B109F00BFCF9E789
:102CB00064200BF071FEF5E7C40000202DE9F0411F
:102CC000064600213046FDF729FC03D800F09CF9A8
:102CD000BDE8F0811B493046FDF720FC00D2194EBB
:102CE0004FF07E513046FDF723FC01D24FF07E5667
:102CF00015480068C06A441C2046FDF7DDFB80468D
:102D00003146FDF760FB0746FDF7F4FB0546A5429B
:102D100000D3651E00224FF400710C4804F09AF9AC
:102D20000B48007830B90821074806F0FBFB01206A
:102D30000749087004480068C5630648066000BF7C
:102D4000C6E700000AD7A33DE8040020000C0140BC
:102D5000680000206400002070B504460025681E4D
:102D600001F04AFC70B10848007D012808D10648EE
:102D7000B0F90800002803DD2046FFF79FFF01257A
:102D800001F0BCFC284670BD500600201CB5002098
:102D9000022103464FF4A072CDE9001004A10648B9
:102DA0000CF062FE012800D11CBD0020FCE70000F1
:102DB0004D6F746F720000004530000870B5054615
:102DC00000212846FDF7AAFB01D8002070BD084964
:102DD0002846FDF7F8FA06460649FDF79CFA044630
:102DE00005492046FDF7A4FB00D2034C2046EDE741
:102DF000F7CC92397B14AE3E6666663F10B53C2137
:102E0000094806F051F908B1002010BD002006491C
:102E100009684862054908600549087000F0C8F86B
:102E200000F0F2F80120F0E7A00400205400002098
:102E3000680000202DE9F34F83B0DDE90301FDF7C1
:102E4000BCFA04464F492046FDF7BDFA82464E487B
:102E500001685046FDF75FFA05464C492846FDF7E4
:102E600067FB01D2494D05E049492846FDF756FB6D
:102E700000D2474D444841682046FDF79EFA8246FD
:102E80004049FDF7D2FA804641460020FDF79BFA03
:102E9000294602903F48FDF796FA214601904FF0EF
:102EA0008240FDF790FA00900199FDF734FA8346CD
:102EB0000299FDF730FA82463749FDF7B6FA064621
:102EC00036493046FDF734FB04D200212046FDF799
:102ED0002FFB09D332493046FDF720FB22D20021D7
:102EE0002046FDF71BFB1DD241460020FDF76BFA83
:102EF0000290254801682748FDF765FA21460190B0
:102F00004FF08240FDF75FFA00900199FDF703FA58
:102F100083460299FDF7FFF982461F49FDF785FABE
:102F2000064601E01848056037460398FFF746FF5C
:102F300081461A493846FDF7FBFA01D2174F05E0E2
:102F400017493846FDF7EAFA00D2154F3946484688
:102F5000FDF7E1F981460C48446000214846FDF741
:102F6000DDFA02D24FF0000907E04FF07E514846EB
:102F7000FDF7DEFA01D24FF07E59484605B0BDE8B4
:102F8000F08F0000CDCC4C3D4C00002000004844A8
:102F9000000048C4CDCC4C3F00401C46CDCCCC3DBD
:102FA000CDCCCCBD01480068406A7047A004002029
:102FB00000210D4A116051600C4A11600C4A1170D9
:102FC0000C4A1170002005E000210B4A42F8201045
:102FD000411CC8B20828F7D30021084A1160084AEA
:102FE0001160084A118070474C00002058000020F2
:102FF0005C0000205D000020440B002060000020E9
:10300000640000206A00002010B50020094909680A
:10301000C8630821074806F0FFFA00224FF4007148
:10302000054804F017F800200449087004490860B6
:1030300010BD0000E8040020000C014068000020E2
:10304000640000201FB5FFF7ADFF04465A48046036
:10305000FFF7AEFF0CF096FE0290DDF808A000BF6F
:1030600000BF322102A80CF01BFD00BF0026B046B5
:10307000701E01F0C1FA48B15048067D0146B1F911
:103080000800FDF710FA804601F038FBFFF78AFFD1
:10309000044649480088201A05B24748046028467B
:1030A00000F0CEF80390012E4AD100214046FDF7F2
:1030B0003FFA45D24248007818B94FF4967041491A
:1030C00008804048008850B33F494046FDF77BF9EF
:1030D00083460399FDF72CFA21D24046FFF76EFE96
:1030E00081463A494846FDF719FA01D2DFF8DC90EB
:1030F00000203749086040460399FDF75EF93449DE
:10310000486030480088322805D92E480088323877
:103110002C4908800BE000202A49088007E00020A5
:103120002849088040460399FFF784FE81464846B7
:10313000FFF712FE40B9FFF73BFFFFF765FF03E023
:10314000FFF736FFFFF760FF4FF07C510398FDF764
:10315000E2F88346FDF7B5F907B2012E04D100214C
:103160004046FDF7DBF900D80027384600F050F85C
:10317000012E7FF475AF0CF005FEA0EB0A00B0F550
:103180007A7FFFF46DAF0CF0FDFD824611491248C5
:103190000068FDF718F90090FDF7ACF9834640464A
:1031A000FDF78FF95B463A460146CDE900500BA08A
:1031B00002F018F954E700005400002050060020E7
:1031C000680000206A000020CDCC4C3F3333333FF1
:1031D0004C0000200000C842640000204D4F544FB6
:1031E00052207461726765743A2564206375727247
:1031F000656E743A256420647574793A25752525C1
:103200002064656C74613A256C640D0A000000004E
:1032100010B504464FF0FF3001F0EEF958B1074801
:10322000007D012802D10548C48002E00020034946
:10323000C88001F063FA01F025FB10BD50060020A4
:103240002DE9F04104462A480078082805D228488C
:103250000078401C2649087009E02648264909786C
:1032600050F8210025490968081A244908602148B6
:103270002149097840F821402048006820441F492E
:1032800008601D480078401C1B49087008460078FB
:10329000082801D30020087015480078FDF70CF9C4
:1032A00007461749FDF78FF806461649FDF7BDF8A2
:1032B000054612480068FDF7F6F807464FF08241D0
:1032C000FDF7B3F806462946FDF7AFF80E4908604A
:1032D00000210D480068FDF721F905D20A48006871
:1032E00080F000400849086007480068BDE8F081A8
:1032F0005C000020440B00205D00002058000020EE
:103300000000484200606A476000002070B5044633
:103310000D4634B12246294603A002F063F800208E
:1033200070BD0120FCE70000535344313331352098
:103330002573206661696C65643A2025750D0A0065
:103340000FB400B5A9B02BA80090A02101A8009B44
:103350002A9A08F043F90020009001A902A002F087
:1033600041F829B05DF814FB257300002DE9F04108
:1033700004460CF0F7FC02280ED14FF47A70A4FB3F
:10338000006001464FF47A7200233046FCF73AFFA2
:1033900005460BF001FB02E0204603F087FCBDE888
:1033A000F0810020704700207047024600207047DF
:1033B000014600207047024622B11078884201D1B0
:1033C0003E2070472020FCE70020704710B501F038
:1033D000F7FD08B9012010BD0020FCE72DE9F04100
:1033E00007460E4615461C460DB1802C02D9012019
:1033F000BDE8F0810948067022462946401CFCF7CA
:1034000042FF601C82B264230449384601F03AFE50
:1034100008B10120ECE70020EAE70000C00A002024
:1034200010B586B08CA103C9CDE904011422032193
:10343000782001F0E5FD18B97820894908700FE07F
:10344000142203217A2001F0DBFD18B97A20844987
:10345000087005E083A001F0C5FF002006B010BD94
:1034600040F23C418648FCF727FF864884490860C3
:1034700085484860854888608548C86085480861F7
:1034800085484861824888618248C86183480862EB
:103490007F4848627F4888628048C86280484863A5
:1034A00080480863002176480AF08FFE6C48017856
:1034B00073480AF017FD72480AF008FB04467AA127
:1034C000FFF724FF08B90020C8E700216C480AF084
:1034D00084FD044676A1FFF719FF00287ED0002264
:1034E000082167480AF092FD044674A1FFF70EFF19
:1034F0000028F3D03F2162480AF088FE044671A1FB
:10350000FFF704FF0028E9D000215D480AF0EAFD3A
:1035100004466FA1FFF7FAFE002877D00021584833
:103520000AF010FE04466CA1FFF7F0FE00286DD0F3
:103530000222012152480AF0DDFC044669A1FFF78E
:10354000E5FE002862D001214D480AF010FF044634
:1035500067A1FFF7DBFE002858D0012148480AF098
:10356000EDFE044664A1FFF7D1FE00284ED00022F4
:10357000012143480AF0E1FC044661A1FFF7C6FEC1
:10358000002843D0FF213E480AF0F5FC04465FA125
:10359000FFF7BCFE002839D00F22012138480AF07D
:1035A0007FFE04465CA1FFF7B1FE00282ED0032168
:1035B00033480AF0F8FC04465AA1FFF7A7FE68B1A9
:1035C00000212F480AF0E8FD044659A1FFF79EFEAE
:1035D00020B102212A480AF000FE00E016E004466D
:1035E00057A1FFF793FE88B1002125480AF060FD3E
:1035F000044657A1FFF78AFE40B1012120480AF096
:10360000ECFC044656A1FFF781FE08B9002025E72F
:103610001B480AF013F9044654A1FFF777FEA0B146
:1036200010200121052204ABCDE9002102901822CF
:103630002C2113480AF0E8F938B911480AF072F958
:1036400004464CA1FFF762FE08B9002006E74BA034
:1036500001F0C8FE012001E74179616E67000000BA
:103660003800002053534431333135206E6F7420BD
:10367000666F756E64206F6E20493243310D0A000B
:1036800084060020CD330008C9330008DD3300086C
:10369000A7330008A3330008AB330008B133000898
:1036A0006D33000841330008696E69740000000042
:1036B000646973706C6179206F666600636C6F6318
:1036C0006B0000006D756C7469706C6578000000AB
:1036D0006F666673657400007374617274206C6940
:1036E0006E6500006368617267652070756D7000BB
:1036F0007365676D656E74007363616E0000000032
:10370000636F6D2070696E7300000000636F6E74EC
:1037100072617374000000007072656368617267A3
:1037200065000000646573656C65637400000000EB
:10373000656E7469726520646973706C61790000EC
:1037400061646472657373206D6F646500000000CE
:10375000646973706C6179206D6F646500000000AE
:10376000646973706C6179206F6E0000636C6561D1
:103770007200000075706461746500005353443139
:103780003331352072656164792C20646973706C03
:103790006179204179616E672061742063656E7480
:1037A00065720D0A00000000014621B1012904D014
:1037B000022906D103E004A0704705A0FCE706A09B
:1037C000FAE707A0F8E7000049444C450000000074
:1037D00052554E4E494E47004641554C540000004C
:1037E000554E4B4E4F574E002DE9F0418AB00446DE
:1037F0000E46594890F83800012801D104B11EB98D
:1038000000200AB0BDE8F0814FF4806152483B309F
:10381000FCF752FDD4E906014840216A80EA01071D
:103820003B464EA2182104A807F0BEFE04A8FCF7F0
:103830004EFD05460C210122A8B204ABCDE90121C1
:1038400000900022114644480AF0DEF8002130467C
:10385000FFF7B1FD8046B4F90200B4F90410B4F9E1
:1038600000204346CDE9002102903FA2182104A880
:1038700007F09AFE04A8FCF72AFD05460C21012258
:10388000A8B204ABCDE9012100900A4600213248DC
:103890000AF0BAF801213046FFF78DFD8046B4F9F1
:1038A0000800B4F90610434633A2CDE900101821F0
:1038B00004A807F079FE04A8FCF709FD05460C21D1
:1038C0000122A8B204ABCDE9012100901822002109
:1038D00021480AF099F802213046FFF76CFD804636
:1038E0002169606A434628A2CDE90001182104A895
:1038F00007F05AFE04A8FCF7EAFC05460C21012259
:10390000A8B204ABCDE90121009024220021124885
:103910000AF07AF8207DFFF747FF804643461EA253
:10392000182104A807F040FE04A8FCF7D0FC0546C7
:103930000C210122A8B204ABCDE901210090302274
:10394000002105480AF060F8034809F0EBFF08B9C8
:10395000012056E7002054E78406002049443A2518
:1039600030386C58000000002563543A25642F2538
:103970006420423A25640000256353504545443A8B
:1039800025642F2564000000256354494D453A25E0
:103990006C752F256C757300205354415455533A60
:1039A0002573000010B588B00446294890F8380007
:1039B000012800D114B9002008B010BD4FF4806177
:1039C00023483B30FCF778FC102322A230212C2026
:1039D00000F05AF808B90020EEE72F20005D2E21F4
:1039E000095DCDE90010A38D1CA2182102A807F0E3
:1039F000DBFD0C2302AA1C21222000F045F808B9A7
:103A00000020D9E73320005D3221095DCDE90010A7
:103A10003120035D15A2182102A807F0C5FD0C2373
:103A200002AA1021282000F02FF830B10C2313A295
:103A30003021282000F028F808B90020BCE704480D
:103A400009F070FF08B90120B6E70020B4E70000D4
:103A5000840600204179616E6700000025303475CE
:103A60002D253032752D2530327500002530327508
:103A70003A253032753A2530327500004B455934BD
:103A80003A534554000000002DE9FE4305460E461A
:103A900014461F4614B90020BDE8FE832046FCF7FB
:103AA00016FC1FFA80F80120234632462946CDE94C
:103AB00000800297034809F0A7FF08B90120EBE74F
:103AC0000020E9E78406002010B504460CB100F0A0
:103AD00057FC00F0D7FE012010BD000030B58DB0BE
:103AE00005460C4614B902200DB030BD4FF0FF3032
:103AF00000F082FD08B90220F6E73422304968461A
:103B0000FCF7C1FB00F0FAFD122D54D2DFE805F0FE
:103B1000090D11141B23272B2F3236393D414549FE
:103B20004C50BDF80400208047E0BDF8080020801C
:103B300043E00498208040E004983B303C21B0FBF7
:103B4000F1F0208039E09DF81400012800D100E058
:103B50000020208031E09DF8140020802DE0BDF889
:103B60000000208029E0BDF80600208025E00398B1
:103B7000208022E00698000C20801EE0069820801D
:103B80001BE00798000C208017E0BDF81C00208087
:103B900013E00898000C20800FE0BDF82000208082
:103BA0000BE00998208008E0BDF80200208004E0C6
:103BB0000A98208001E0012096E700BF002093E7EB
:103BC00050060020134A11691061814221D0127DF4
:103BD000012A0AD049B10F4A526A8A4205D30D4AD6
:103BE000D26812B900220B4B5A620A4A526A8242C8
:103BF00001D9084A5062074A526A821A054BDA60B4
:103C00001A46127D012A04D11A46D2680AB9002246
:103C10001A7570475006002070B504460D462946B7
:103C2000204600F005F808B1002070BD0220FCE736
:103C30000246052A25D2DFE802F0030911181E000A
:103C4000962901D8012070470020FCE740F6B830E3
:103C5000814201D80120F6E70020F4E7B1F5E15FE9
:103C600001D80120EFE70020EDE7782901D80120F5
:103C7000E9E70020E7E7022901D80120E3E7002077
:103C8000E1E70020DFE700002DE9F05F05460C4684
:103C900017461E464FF00008C146C246C34621469D
:103CA0002846FFF7C5FF20B14FF0FF3000F0A4FC1D
:103CB00010B90220BDE8F09F052D58D2DFE805F0CD
:103CC000030A1118210020B2394988804FF00108F9
:103CD000C1464DE020B2364908814FF00108C14687
:103CE00046E02046FFF76EFF4FF00108C1463FE077
:103CF000C4EB04118800FFF765FF4FF00108C146CF
:103D000036E04CB92A48806A00282FD183464FF00C
:103D1000010A4FF0010829E0012C19D12448806ADA
:103D200020BB2348006908B32148C06828B1204857
:103D3000406A1F490969884205D300201C4948622E
:103D400008460069C8604FF0010BDA46D0460DE026
:103D5000002017498880088108614862C86083464E
:103D60004FF0010A4FF001084FF0010900E000BFD9
:103D700000BF00F0C3FCB8F1000F01D1022099E7A9
:103D8000BAF1000F05D0584600F078FC08B90220BF
:103D900090E7B9F1000F06D01FB126B101203070B5
:103DA00001E000F0EDFA00F06DFD002082E7000078
:103DB0005006002070B504460D4600231A462946D9
:103DC0002046FFF761FF70BD70B505460E461446EC
:103DD0002346012231462846FFF756FF70BD0000FA
:103DE0001CB5002001210346C022CDE9001004A12A
:103DF00004480BF039FE012800D11CBD0020FCE76F
:103E000052544300B93F000800B587B001F08FFB62
:103E100018B105A801F0BFFB38B93A2212A117A0CA
:103E200001F0E0FA002007B000BD01201A49087037
:103E300005A800F04DF89DF814009DF815109DF8A8
:103E400016209DF81830CDE90132CDE903109DF818
:103E500019000090BDF81A30412203A10FA001F013
:103E6000C1FA0120DFE70000557365725C41707094
:103E70005C4170705F7274632E6300005B25733A5F
:103E800025645D44533332333120696E6974206692
:103E900061696C65640D0A008E0000205B25733A31
:103EA00025645D4453333233312072656164792077
:103EB000253034752D253032752D2530327520256D
:103EC0003032753A253032753A253032750D0A0098
:103ED00010B5044624B14FF0FF3000F08DFB00B95F
:103EE00010BDE0880D49888561790C4880F82E1056
:103EF000217980F82F10E17880F83010A17880F8CF
:103F00003110617880F83210217880F8331000F099
:103F1000F5FB00F0B7FC00BFE2E700005006002010
:103F200010B586B004461048007820B11CB1204678
:103F300001F0AAFB10B9002006B010BD2046FFF723
:103F4000C7FF20786178A2782379CDE90132CDE9E5
:103F5000031060790090E388572204A108A001F0C3
:103F600041FA0120E8E700008E00002055736572D9
:103F70005C4170705C4170705F7274632E6300000E
:103F80005B25733A25645D445333323331207469C1
:103F90006D652073657420253034752D253032759C
:103FA0002D2530327520253032753A253032753A5C
:103FB000253032750D0A00001CB500BF0A48007894
:103FC00038B1684601F0E7FA18B16846FFF780FF9C
:103FD00004E02E2205A10AA001F004FA4FF47A7041
:103FE0000AF0DAFCEAE700008E00002055736572E3
:103FF0005C4170705C4170705F7274632E6300008E
:104000005B25733A25645D44533332333120726546
:104010006164206661696C65640D0A0000BF00245C
:10402000601E00F0E9FAF8B11848007D012819D1A6
:104030001648C068B0B11548C068401E1349C86032
:104040000846406A0969884204D21048406A401C08
:104050000E4948620D48C06820B90C4800690B49F8
:104060004862012400F04AFB44B1002000F006FB46
:1040700040F2251206A10BA001F0B4F900F002FCF9
:104080004FF47A700AF088FCC9E70000500600205F
:10409000557365725C4170705C4170705F6D6169F1
:1040A0006E2E63005B25733A25645D52756E206346
:1040B0006F6D706C6574652C2072657475726E20FE
:1040C000746F2049444C450D0A00000010B50446A9
:1040D0000BF048FE02280DD1C01E00F08DFA80B111
:1040E000208808498880608808816068086100F03D
:1040F00005FB06E0208803498880608808816068A5
:10410000086110BD5006002030B502460B464FF640
:10411000FF70002118E0555C80EA052000240FE0C4
:1041200000F400452DB141F2210585EA4005ADB20C
:1041300003E04FF6FF7505EA40052846651CECB222
:10414000082CEDD34D1CA9B29942E4DB30BD70B50B
:1041500005460C46A81D00F03DF800B2208005F190
:10416000080000F037F800B2608005F10A0000F0A6
:1041700037F8606070BD2DE9F04105460E461446E3
:1041800042F20401204600F07FF84FF48071A01C39
:1041900000F07AF83146201D00F076F8288881B2C8
:1041A000A01D00F071F8688881B204F1080000F0E9
:1041B0006BF804F10A00696800F06AF80E212046E5
:1041C000FFF7A2FF0746394604F10E0000F05CF845
:1041D000BDE8F081014608784A7840EA022070473D
:1041E000014608784A7840EA02208A7840EA02408C
:1041F000CA7840EA026070470EB506F09CF980B9B3
:1042000001201D49087000201C4908804880486032
:104210001B480A4606CA06C000201A490880022028
:104220000EBD694601A800F03BF880B90120124993
:1042300008700020114908804880486010480A46EC
:1042400006CA06C000200F4908800120E8E701A83F
:10425000FFF73CFF0948DDE9011206C00848DDE927
:10426000011206C0BDF80000401C0649088001206C
:10427000014908700020D3E7360000202400002008
:104280002C0000203400002001700A124270704798
:1042900001700A0A42700A0C82700A0EC2707047DE
:1042A0002DE9F04389B007460C46102205A90020ED
:1042B00006F04CF908B1012000E00020054610226C
:1042C00001A9104606F042F908B1012000E00020E3
:1042D00006461DB105A800F031F800E000200546B3
:1042E0001EB101A800F02AF800E00020064625B91A
:1042F0001EB9002009B0BDE8F083ADB15EB102A8DF
:10430000FFF768FF804606A8FFF764FF8146414635
:1043100000F03CF840B1394605A8FFF718FF06A8A1
:10432000FFF758FF208007E0394601A8FFF70FFF8D
:1043300002A8FFF74FFF20800120DBE770B504469D
:104340002046FFF747FF42F20401884201D00020D7
:1043500070BDA01CFFF73EFFB0F5807F01D00020AC
:10436000F6E704F10E00FFF735FF05460E21204663
:10437000FFF7CAFEA84201D10120E9E70020E7E7E4
:104380000120014908707047370000200246501A8A
:1043900000B2002801DD012070470020FCE7024642
:1043A000B2F90000B1F9003098420BD1B2F9020025
:1043B000B1F90230984205D150684B68984201D15A
:1043C000012070470020FCE71FB500250BF0DAFC48
:1043D000044600BF2D480078002853D0002000F08C
:1043E0000BF900284ED02A488088ADF808002848EC
:1043F0000089ADF80A0026480069039000F07EF9B4
:10440000244902A8FFF7CBFF58B92248DDE9021280
:1044100006C0DDE90201CDE900010BF0B3FC044662
:1044200001251D48007850B1DDE90201CDE9000108
:104430000BF0A8FC044601250020174908700DB3B5
:104440000BF0A0FC001B41F2883188421AD31349BB
:104450006846FFF7A4FF08B1002513E01048018863
:10446000684600F01FF850B10C48DDE9001206C0A4
:104470000B480088401C0A490880002502E00BF028
:1044800081FC044664200AF087FAA3E73600002086
:104490005006002024000020370000202C000020BF
:1044A000340000207FB505460C466A462146284662
:1044B000FFF761FE04F0010008B9002000E01020C1
:1044C000064610226946304606F059F804B070BD21
:1044D00070B5044600250CB9002070BD00F02AF824
:1044E0004FF0FF3000F088F808B90020F5E70B48DE
:1044F000806AA043094988620846806A30B9002072
:1045000008750749087007490870012500F0F6F89A
:1045100015B10020FCF7C6FD0120DEE750060020A3
:10452000180000202000002010B50446204600F0AE
:1045300079F810BD10B500200D49096848630021C5
:104540000B4805F069F800200A490968C86308218A
:10455000084805F061F800220221074802F07AFDC0
:1045600000224FF40071054802F074FD10BD0000F8
:1045700058040020E804002000080140000C01401D
:1045800010B51848006808B1012010BD01200AF0DC
:1045900089FE144908600846006808B90020F4E75D
:1045A00000201149087011490870487010490880AE
:1045B00048808880C8800881C860086108754862A2
:1045C000886202F053FD0A49886102F055FD0849EE
:1045D000C86102F057FD06490862002005490870CD
:1045E0000120D2E71C000020180000201900002044
:1045F000500600202000002010B50446074800683F
:1046000008B9002010BD2146044800680BF01AF9D3
:10461000012800D1F6E70020F4E700001C0000208C
:104620007047000010B504460CB9002010BDFFF71C
:1046300081FF4FF0FF30FFF7DFFF18B9FFF77AFF78
:104640000020F3E70A48806A204309498862022073
:1046500008750849087001200749087000F04EF8F5
:10466000FFF768FF0120FCF71DFD0120DEE70000D9
:1046700050060020180000202000002070B50446DD
:10468000002500262CB1012C03D0022C01D00020E3
:1046900070BD4FF0FF30FFF7AFFF08B90020F7E71C
:1046A000022C06D01248806A18B100F027F80020CA
:1046B000EEE7104804700E480475022C07D10E482E
:1046C000007838B901200C490870012502E000206B
:1046D00009490870012C00D0012600F00FF80EB136
:1046E000FFF728FF0DB1FFF79BFF0120D0E7000087
:1046F00050060020180000202000002010B50548BA
:10470000006830B100231A461946024800680AF0D2
:104710007BFE10BD1C00002070B504460D46B4F9A8
:104720000000B2F90060B0422BD1B4F90200B2F936
:104730000260B04225D1B4F90400B2F90460B0427D
:104740001FD1B4F90600B2F90660B04219D1B4F92C
:104750000800B2F90860B04213D1606A566AB042EC
:104760000FD1E068D668B0420BD120691669B0421B
:1047700007D1207D167DB04203D128781E78B04243
:1047800001D0012070BD00210DE004F1180050F8A7
:10479000216002F1180050F82100864201D001206A
:1047A000F0E7481CC1B20329EFD30020EAE700007C
:1047B00010B50648007808B1002010BD012003495B
:1047C000087000F05FF80120F7E7000040000020CB
:1047D00030B502460B46012B01D1002A05DC002032
:1047E000124C2060124C207030BD1102104800782D
:1047F00028B90E48016001200D4C20700BE00B4CD5
:104800002468081BC41700EB9474084D2D6805EB51
:10481000A404064D2C600548006800F18004E017F0
:1048200004EB1060001200B2DEE70000440000203C
:104830004800002001480078704700004000002038
:104840000246908D8B8D984218D12E20835C405C5F
:10485000834213D12F20835C405C83420ED13120F0
:10486000835C405C834209D13220835C405C83429C
:1048700004D13320835C405C834201D00120704727
:104880000020FCE708B50648006840B1002002237C
:10489000024601460090024800680BF06DF908BD21
:1048A0003C0000209CB0342101A8FBF705FD00204E
:1048B0000090002501260BF04FFA2549086000BF43
:1048C00064220121002009F06BFD4FF0FF30FFF75B
:1048D00093FE0028F4D034221E490FA8FBF7D3FC26
:1048E0001D4800880E90FFF709FF9DF85010BDF994
:1048F0004200FFF76DFFADF84200184804788EB90A
:10490000AC420FD124B901A90FA8FFF799FF48B90C
:10491000012CD5D16B4601AA0EA90FA8FFF7FCFE0A
:104920000028CDD01CB90FA8FFF73CF803E00EA972
:104930000FA8FEF759FF0746002FC1D034220FA958
:1049400001A8FBF7A0FC0E98009025460026B7E7CB
:104950003C000020500600201900002040000020EC
:104960001CB50024002500F0BDFB30B9302290A119
:1049700094A000F037FD00BFFEE700F021FB28B94E
:1049800038228BA199A000F02DFD09E0FEF748FD2B
:1049900028B93C2286A19FA000F024FD00E001245C
:1049A00000F0D0FE28B9472281A1A1A000F01AFD95
:1049B00000E00125FFF7E4FD30B950227CA1A3A05F
:1049C00000F010FD00BFFEE7FFF71EFA28B95922DC
:1049D00077A1A9A000F006FD07E0FFF701FA20B9D2
:1049E0005D2273A1ABA000F0FDFCFCF7B7F928B97C
:1049F00063226FA1AFA000F0F5FC07E0FCF724F9FB
:104A000020B967226AA1B3A000F0ECFCFCF732FCED
:104A100028B96D2266A1B9A000F0E4FC07E0FCF71C
:104A20008DFB20B9712262A1BBA000F0DBFCFEF778
:104A300015F928B976225EA1BFA000F0D3FC07E0EB
:104A4000FEF786F820B97A2259A1C2A000F0CAFC6C
:104A5000FDF724FC28B9802255A1C7A000F0C2FCB4
:104A600007E0FDF7DDFB20B9842251A1CAA000F0C8
:104A7000B9FCFEF7C3F930B98A224DA1CEA000F0EF
:104A8000B1FC00BFFEE7FFF7B7FB20B1012808D05B
:104A9000022812D10BE0932245A1CEA000F0A2FC87
:104AA00011E0962242A1D3A000F09CFC0BE09922D9
:104AB0003FA1DCA000F096FC05E09C223CA1E4A014
:104AC00000F090FC00BF00BFFCF792FA30B9A222C0
:104AD00037A1E8A000F086FC00BFFEE7FCF70CFB66
:104AE000FCF79EFF30B9AF2231A1E9A000F07AFCBB
:104AF00000BFFEE7FCF72AFF30B9B6222CA1EBA0DD
:104B000000F070FC00BFFEE7FEF740F930B9C922A3
:104B100027A1EFA000F066FC00BFFEE70020012106
:104B20000346C022CDE90010F2A1F4480AF09CFF30
:104B3000012806D0D3221EA1F1A000F053FC00BF33
:104B4000FEE7002001210346C022CDE90010F5A1B7
:104B5000F7480AF089FF012806D0DB2214A1F5A04E
:104B600000F040FC00BFFEE784B1002001210346B5
:104B70000A02CDE90010F9A1F9480AF075FF0128F1
:104B800004D0E4220AA1F7A000F02CFC75B10020AB
:104B9000012103460A02CDE90010FBA1FB480AF0FF
:104BA00063FF012802D0EC2201A1F1E1F3E1000052
:104BB000557365725C4170705C4170705F6D6169C6
:104BC0006E2E63005B25733A25645D4932433220C3
:104BD000627573206D7574657820637265617465A4
:104BE000206661696C65640D0A0000005B25733AFC
:104BF00025645D4932433120627573206D7574659B
:104C00007820637265617465206661696C65640D06
:104C10000A0000005B25733A25645D4F4C45442033
:104C2000696E6974206661696C65640D0A00000034
:104C30005B25733A25645D4B657920696E69742044
:104C40006661696C65640D0A000000005B25733ABB
:104C500025645D53797374656D2073746174652088
:104C60006D7574657820637265617465206661692D
:104C70006C65640D0A0000005B25733A25645D5283
:104C8000544320696E6974206661696C65640D0A1D
:104C9000000000005B25733A25645D525443207484
:104CA00061736B20637265617465206661696C6510
:104CB000640D0A005B25733A25645D426C7565746A
:104CC0006F6F746820696E6974206661696C6564D1
:104CD0000D0A00005B25733A25645D426C756574AE
:104CE0006F6F7468207461736B20637265617465A3
:104CF000206661696C65640D0A0000005B25733AEB
:104D000025645D43414E20696E6974206661696C5B
:104D100065640D0A000000005B25733A25645D435D
:104D2000414E207461736B20637265617465206607
:104D300061696C65640D0A005B25733A25645D4DFD
:104D40006F6462757320696E6974206661696C6551
:104D5000640D0A005B25733A25645D4D6F646275CE
:104D600073207461736B2063726561746520666182
:104D7000696C65640D0A00005B25733A25645D4922
:104D80004D55206272696E672D7570206661696C81
:104D900065640D0A000000005B25733A25645D49D7
:104DA0004D55207461736B20637265617465206674
:104DB00061696C65640D0A005B25733A25645D4D7D
:104DC0006F746F7220696E6974206661696C6564C6
:104DD0000D0A00005B25733A25645D5573657220EA
:104DE00073657474696E6773206C6F616465640DBC
:104DF0000A0000005B25733A25645D4E6F207661E2
:104E00006C696420757365722073657474696E676C
:104E1000732C207573652064656661756C74730D01
:104E20000A0000005B25733A25645D5573657220A6
:104E300073657474696E677320454550524F4D20F9
:104E4000756E617661696C61626C650D0A000000C7
:104E50005B25733A25645D557365722073657474C0
:104E6000696E677320696E6974206661696C656438
:104E70000D0A00005B25733A25645D42757A7A65F8
:104E80007220696E6974206661696C65640D0A0040
:104E90005B25733A25645D48656174657220696EAF
:104EA0006974206661696C65640D0A005B25733A5C
:104EB00025645D486561746572207461736B20635D
:104EC0007265617465206661696C65640D0A000035
:104ED0005B25733A25645D4D6F746F722074617346
:104EE0006B20637265617465206661696C65640D31
:104EF0000A00000053746F7261676500C9430008BF
:104F00005B25733A25645D53746F72616765207425
:104F100061736B20637265617465206661696C659D
:104F2000640D0A0052756E436F6E74726F6C0000F0
:104F30001D4000085B25733A25645D52756E206341
:104F40006F6E74726F6C207461736B206372656135
:104F50007465206661696C65640D0A00554900003E
:104F6000A54800085B25733A25645D4F4C454420F5
:104F70007461736B20637265617465206661696C2E
:104F800065640D0A000000004B657900D52A000811
:104F900003A000F027FA09F0EBFE00BFFEE70000D7
:104FA0005B25733A25645D4B6579207461736B20D2
:104FB000637265617465206661696C65640D0A00E1
:104FC00010B50C48006808B1012010BD0A480068FF
:104FD0000A49884201D00020F7E701200AF062F96F
:104FE000044908600846006808B10120EDE7002088
:104FF000EBE70000DC00002010030020005400401C
:105000002DE9F04106460C46174614B90120BDE8CB
:10501000F08100F013F805460DB90220F7E73B4692
:1050200022463146044802F01BF98046284600F02B
:105030004BF84046EBE700001003002010B500BF1E
:10504000EFF3058008B1002010BD0D48006808B9D5
:105050000020F9E70AF086FE0446012C01D1022067
:10506000F2E7022C01D00020EEE74FF0FF310448B8
:1050700000680AF0E7FB012800D1E5E70020E3E73C
:10508000DC0000202DE9F84307460C4615469846FB
:1050900004B115B90120BDE8F883FFF7CFFF06463C
:1050A0000EB90220F7E72B46224639460548CDF8CF
:1050B000008002F0B1F98146304600F005F848461C
:1050C000E9E700001003002010B50446012C06D1CA
:1050D00000231A461946024800680AF095F910BDE7
:1050E000DC00002010B50C48006808B1012010BD9C
:1050F0000A4800680A49884201D00020F7E70120E9
:105100000AF0D0F8044908600846006808B1012098
:10511000EDE70020EBE70000D8000020640300204A
:10512000005800402DE9F04106460C46174614B9D8
:105130000120BDE8F08100F013F805460DB902200A
:10514000F7E73B4622463146044802F089F880469C
:10515000284600F075F84046EBE7000064030020A5
:1051600010B500BFEFF3058008B1002010BD0D4859
:10517000006808B90020F9E70AF0F4FD0446012CA4
:1051800001D10220F2E7022C01D00020EEE74FF01F
:10519000FF31044800680AF055FB012800D1E5E71B
:1051A0000020E3E7D80000202DE9FE4F06460F4619
:1051B00090461C46DDE90C9B14B1B9F1000F02D1F9
:1051C0000120BDE8FE8FFFF7CBFF05460DB9022099
:1051D000F7E743463A46314605488DE8100A02F0A3
:1051E000D3F98246284600F02BF85046E9E7000044
:1051F000640300202DE9FE4F06460F4690461C46EC
:10520000DDE90C9B14B1B9F1000F02D10120BDE81A
:10521000FE8FFFF7A5FF05460DB90220F7E74346CD
:105220003A46314605488DE8100A02F067FB82468F
:10523000284600F005F85046E9E700006403002026
:1052400010B50446012C06D100231A46194602481F
:1052500000680AF0D9F810BDD80000202DE9F84305
:1052600004460D46164698460CB105B116B9012004
:10527000BDE8F88300F048F807460FB90220F7E7C9
:1052800000224FF480510B4801F0E4FE33462A46D9
:1052900021460948CDF8008003F06FFB81460122CA
:1052A0001103044801F0D6FE384600F08BF848465A
:1052B000DEE70000000C0140B803002010B50E48E6
:1052C000006808B1012010BD0C4800680C498842F4
:1052D00001D00020F7E7012211030A4801F0BAFECD
:1052E000012009F0DFFF044908600846006808B1A2
:1052F0000120E8E70020E6E7E0000020B8030020F6
:1053000000380040000C014010B500BFEFF30580ED
:1053100008B1002010BD0D48006808B90020F9E769
:105320000AF020FD0446012C01D10220F2E7022CF4
:1053300001D00020EEE74FF0FF31044800680AF08A
:1053400081FA012800D1E5E70020E3E7E000002032
:105350002DE9F04104460D46174604B115B9012068
:10536000BDE8F081FFF7D0FF06460EB90220F7E74F
:1053700000224FF480510A4801F06CFE3B462A4659
:105380002146084803F01AFA804601221103044816
:1053900001F060FE304600F015F84046E0E70000FE
:1053A000000C0140B80300202DE9F04104460D46F1
:1053B00016461F463B46324629462046FFF74EFF1B
:1053C000BDE8F08110B50446012C06D100231A4631
:1053D0001946024800680AF017F810BDE0000020E6
:1053E00000BFFEE70FB410B5C2B0449818B942B080
:1053F00010BC5DF814FB45A801904FF4807102A821
:10540000019B449A06F0EAF8044600200190002C23
:1054100000DCECE7FF2C00D9FF24A2B2C82302A9CC
:10542000024804F087FC00BFE1E700007805002097
:10543000704730B590F840500124AC40C56B6C60AB
:10544000046863604468102C04D10468A260046896
:10545000E16003E00468A1600468E26030BD704769
:105460007FB5044614B9002004B070BD214800780F
:1054700090B9214800F050FA08B10020F4E720224A
:105480001E491D4800F0CCFC08B10020ECE70120CB
:10549000184908700020E7E700220092019202926A
:1054A0000392002111E000200BE05DF8202000EBCA
:1054B0008103124D35F813301A444DF82020421C58
:1054C000D0B20428F1D34A1CD1B20829EBD3009AF8
:1054D000C2F3CF022280019AC2F3CF026280029A05
:1054E000C2F3CF02A280039AC2F3CF02E28001206E
:1054F000BAE70000F10100209C020020100D0020FE
:10550000014601F00F000A1102EB820200EB42009B
:10551000C0B2704701460A20B1FBF0F200FB121046
:105520000A22B1FBF2F240EA0210C0B2704710B595
:1055300032220321D020FFF7F5FD08B9012010BD6C
:105540000020FCE7014609B900207047C888B0F583
:10555000FA6F1ED3C88840F63302904219D84879B2
:10556000B8B148790C2814D8087990B108791F2867
:105570000FD8C87868B1C87807280AD8887818285A
:1055800007D248783C2804D208783C2801D2012070
:10559000DBE70020D9E77FB5044654B1322007216C
:1055A00002AB0122CDE900100021D020FFF7FCFD65
:1055B00010B1002004B070BD9DF8081001F07F000C
:1055C000FFF79EFF20709DF8091001F07F00FFF7A4
:1055D00097FF60709DF80A5005F04000B8B105F0E3
:1055E0001F00FFF78DFFA07005F0200030B1A078FC
:1055F0000C2803D2A0780C30A0700DE005F020003C
:1056000050B9A0780C2807D10020A07004E005F064
:105610003F00FFF775FFA0709DF80B1001F0070029
:10562000FFF76EFFE0709DF80C1001F03F00FFF7F0
:1056300067FF20719DF80D1001F01F00FFF760FF5C
:1056400060719DF80E00FFF75BFF00F5FA60E080E7
:1056500020783C2816D260783C2813D2A0781828ED
:1056600010D2E07870B1E07807280BD8207948B1E3
:1056700020791F2806D8607920B160790C2801D8DC
:10568000012097E7002095E710B586B00446204634
:10569000FFF758FF10B9002006B010BD2078FFF7C3
:1056A00039FF8DF810006078FFF734FF8DF8110096
:1056B000A078FFF72FFF8DF81200E078FFF72AFFA0
:1056C0008DF813002079FFF725FF8DF8140060791D
:1056D000FFF720FF8DF81500A179A1F5FA61C8B296
:1056E000FFF718FF8DF816003220072104AB0122C6
:1056F000CDE900100021D020FFF77CFD08B100208B
:10570000CAE73220012103AB0A46CDE900100F2180
:10571000D020FFF749FD08B10020BDE79DF80C003F
:1057200000F07F0003903220012103AB0A46CDE94F
:1057300000100F21D020FFF75DFD08B90120ABE775
:105740000020A9E710B5002418E00F4830F8141025
:105750000E4801F077FC0E4908550846005D0D49DA
:10576000085500200C4908550C4941F824000C4903
:1057700041F824000B490855601CC4B2042CE4DB3A
:1057800001200949087010BD6A200108001001407D
:10579000E0010020E4010020E8010020F00C0020DE
:1057A000000D0020EC010020F00100202DE9F04167
:1057B000054600274348007800B115B90020BDE830
:1057C000F081002028706870002476E03E4830F8B0
:1057D00014103E4801F036FC06463D48005DB042DC
:1057E00005D03B48065501203A49085563E0394841
:1057F000005D032805D23748005D401C3549085537
:1058000059E03548005DB0421DD0334806554EB9C9
:105810000020324941F82400314941F8240031493F
:10582000085510E02F48005D20B91FB92C700120E9
:10583000687001270020294941F82400284941F8CF
:105840002400284908552448005D98BB234850F897
:1058500024000A30214941F824002248005D90B913
:10586000084650F82400B0F5167F0CD301201D49DE
:10587000085500201A4941F82400DFB92C70022095
:105880006870012716E01748005D98B1144850F879
:1058900024000A30124941F82400084650F8240038
:1058A000782807D3002041F824001FB92C7003206A
:1058B0006870012700BF601CC4B2042C86DB384628
:1058C0007DE70000F00100206A200108001001407F
:1058D000E0010020E8010020E4010020F00C00209D
:1058E000000D0020EC01002010B54FF4805001F0B5
:1058F000FBF910BD10B5082001F0F6F910BD10B588
:10590000102001F0F1F910BD10B5202001F0ECF9E4
:1059100010BD72B600BFFEE7F8B5044600260020B1
:10592000009000BF94F82400012801D10220F8BDA6
:10593000012084F8240000BF2046FBF7CFF806467C
:105940002046FBF739F90646002E69D1A06A20F4FB
:10595000885040F00200A062022002F0EFF93449C2
:105960000968B1FBF0F04000009002E00098401E92
:10597000009000980028F9D12068806840F0080065
:105980002168886001F06CFB054616E001F068FBB9
:10599000401B0A2811D92068806800F0080060B117
:1059A000A06A20F0020040F01000A06200BF0020BA
:1059B00084F8240000BF0120B9E72068806800F067
:1059C00008000028E2D12068806840F004002168C7
:1059D000886001F045FB054616E001F041FB401BE5
:1059E0000A2811D92068806800F0040060B1A06A1C
:1059F00020F0020040F01000A06200BF002084F8F8
:105A0000240000BF012092E72068806800F00400B5
:105A10000028E2D1A06A20F0020040F00100A0625C
:105A200000BF002084F8240000BF30467FE700005C
:105A30000C00002038B5024600230020009000BF73
:105A400092F82400012801D1022038BD012082F8FB
:105A5000240000BF4868072812D21068406B0C79F8
:105A6000641E04EB84051F24AC40A0430D796D1E19
:105A700005EB85050C68AC4020431468606327E0A3
:105A800048680D2812D21068006B0C79E41F04EBF3
:105A900084051F24AC40A0430D79ED1F05EB85055F
:105AA0000C68AC4020431468206311E01068C06AA1
:105AB0000C790D3C04EB84051F24AC40A0430D7908
:105AC0000D3D05EB85050C68AC4020431468E06291
:105AD00008680A2812D31068C0680C780A3C04EBE6
