:020000040800F2
:10000000308F0020E1010008058300087B7500089F
:100010000183000821380008B98B000800000000A7
:10002000000000000000000000000000490100087E
:100030009F380008000000008D0100084D84000872
:10004000FB010008FB010008FB010008FB010008A0
:10005000FB010008FB010008FB010008FB01000890
:10006000FB010008CD3B0008D73B000871380008B1
:10007000FB010008FB010008FB010008FB01000870
:10008000FB010008FB010008FB010008FB01000860
:10009000FB010008FB010008FB010008E13B000830
:1000A000FB010008FB010008FB010008FB01000840
:1000B000FB010008FB010008FB010008FB01000830
:1000C000FB010008FB010008FB010008FB01000820
:1000D000FB010008FB010008A98B0008FB010008D8
:1000E000C13B0008FB010008FB010008FB01000800
:1000F000FB010008FB010008FB010008FB010008F0
:10010000FB010008FB010008FB010008FB010008DF
:1001100015880008FB01000805850008FB010008A0
:10012000FB010008FB010008FB010008FB010008BF
:10013000DFF810D000F00AFC0048004741990008A1
:10014000AFF30080308F0020224B19680868B0E8B8
:10015000F00F80F30988BFF36F8F4FF0000080F33A
:1001600011884EF00D0E7047000000000648006830
:10017000006880F3088862B661B6BFF34F8FBFF3A3
:100180006F8F00DF00BF00BF08ED00E0EFF30980D4
:10019000BFF36F8F0F4B1A6820E9F00F106008B59E
:1001A0004FF0500080F31188BFF34F8FBFF36F8F74
:1001B0000BF0E0FC4FF0000080F31188BDE8084030
:1001C00019680868B0E8F00F80F30988BFF36F8FF3
:1001D000704700BFB0000020EFF3058070470000BB
:1001E0000648804706480047FEE7FEE7FEE7FEE7D1
:1001F000FEE7FEE7FEE7FEE7FEE7FEE70385000811
:10020000310100082DE9F05F0546002092469B462B
:1002100088460646814640241BE02846414647461C
:10022000224600F020F853465A46C01A914110D396
:1002300011461846224600F07FF92D1A67EB010897
:100240004F4622460120002100F076F917EB000905
:100250004E41201EA4F10104DFDC484631462A4607
:100260004346BDE8F09F202A04DB203A21FA02F041
:100270000021704721FA02F3D040C2F120029140E0
:1002800008431946704740EA01039B0703D009E081
:1002900008C9121F08C0042AFAD203E011F8013B72
:1002A00000F8013B521EF9D27047D2B201E000F8CB
:1002B000012B491EFBD270470022F6E710B513460A
:1002C0000A4604461946FFF7F0FF204610BD421CBF
:1002D00010F8011B0029FBD1801A7047F0B480EAA6
:1002E0000102D40F4200B2EB410F02D2024608468F
:1002F00011464A0042D0C30DDDB2C1F3C752AD1A58
:10030000202D35DAC1F3160141F4000204B1524246
:10031000C5F1200602FA06F12A411044B3EBD05F82
:1003200023D0C4B1012DA0EBC35009DCF0BC4FF0C9
:10033000004202EAC352DBB200F5000000F014B93B
:10034000400000F1807000EBC350A0F1807040EAE3
:10035000D170490009E0490841EAC071A0EBC350DF
:1003600000F50000400800EBC350F0BC00F0F3B80B
:100370006142012202EB4101001BF6E7F0BC70472D
:1003800081F00041AAE780F00040A7E780EA01027F
:1003900010B502F00043400022D04A001FD0010EE9
:1003A00001EB1261C0F35600C2F3560240F40000A4
:1003B00042F40002A0FB022000047F39140400D0A4
:1003C000401C50EA124001D44000491EC2B20C0643
:1003D00004EBD010401C4008802A02D003E000202B
:1003E00010BD20F00100002900DA0020184310BDE4
:1003F00030B480EA010202F0004530F0004221F002
:10040000004013D090B1C30DD40DC2F31601C0F358
:100410001600E41A41F4000140F400027D349142D8
:1004200001D3641C00E04900002C02DA30BC00203B
:1004300070474FF400000023914201D3891A03430F
:1004400040084FEA4101F7D151B1914202D14FF03A
:10045000004105E002D24FF0010101E06FF001011F
:1004600003EBC450284430BC00F075B8C10F80EADB
:10047000E0700844CA079623002100F075B896235F
:100480000022114600F070B800F0004220F0004059
:10049000C10DC0F3160040F400007F2901DA0020EE
:1004A0007047962903DCC1F19601C84001E09639F6
:1004B0008840002AF4D04042704720F00040C10D2F
:1004C000C0F3160040F400007F2901DA00207047D5
:1004D000962903DCC1F19601C840704796398840DF
:1004E00070470000002801DBC0F10040002901DB5B
:1004F000C1F1004181427047002801DBC0F100409A
:10050000002901DBC1F100418842704730B50B463C
:10051000014600202022012409E021FA02F59D4233
:1005200005D303FA02F5491B04FA02F52844151E07
:10053000A2F10102F1DC30BD202A04DB203A00FAEE
:1005400002F1002070479140C2F1200320FA03F32A
:100550001943904070470029A8BF7047401C4900CC
:1005600008BF20F00100704710B4B0FA80FC00FA18
:100570000CF050EA010404BF10BC704749B1CCF143
:10058000200421FA04F411FA0CF118BF01212143CF
:100590000843A3EB0C01CB1D4FEA00614FEA10208A
:1005A00042BF002010BC704700EBC350104400292C
:1005B000A4BF10BC7047401C490008BF20F00100D8
:1005C00010BC7047420005D0C0F3C752524291425E
:1005D00001DC0020704700EBC15070472DE9FE4F51
:1005E000804681EA0300C00F0C46009021F00041D4
:1005F00023F00045B8EB0200A94105D24046214650
:1006000090461C460B46024623F00040104347D05C
:10061000270DC7F30A00C3F30A510290401A019054
:1006200040286BDAC3F3130040F4801B0098924615
:1006300020B10023D2EB030A63EB0B0B0198594660
:10064000C0F140025046FFF777FF06460D46504680
:100650005946019A00F08CF910EB08006141002422
:1006600087EA115284EAE7731A4340D0009A62B3D2
:10067000019A012A4FEA075215DC001B61EB0201C7
:100680004FF0004202EA0752CDE90042001C41F55A
:10069000801132462B4600F08CF903B0BDE8F08F94
:1006A00040462146F9E7001B61EB0201001C41F5C1
:1006B000801300185B412018A2F5001747EB0301D7
:1006C00040EAD570B6196D4111E06D084FEA360663
:1006D00045EAC0754FEA0752001B61EB0201001C9E
:1006E00041F5801149084FEA300000195141324666
:1006F0002B4603B0BDE8F04F00F04CB90098012242
:1007000040000023D0EB020263EBE0730098214627
:100710004FEAE074B8EB000061EB0401E9E783F015
:1007200000435BE781F0004158E72DE9FE4F81EA85
:10073000030404F0004421F0004100944FF0000B4A
:1007400023F0004350EA01045ED052EA03045BD078
:10075000C3F30A54C1F30A552C44A4F2F3340194B0
:10076000A0FB0254C1F3130141F48011C3F313033E
:1007700043F4801301FB024400FB034E840A970AF2
:1007800044EA815447EA8357A4FB076802958D0A1F
:1007900005FB07854FEA932C04FB0C542705029DAB
:1007A0004FEA065847EA1637B5EB08056EEB070C1B
:1007B000870E920E47EA811742EA8312A7FB0201D5
:1007C000B6EB0B0164EB00042B0D43EA0C335E180F
:1007D00044EB1C50DA465146E7FB0201C5F3130413
:1007E0004FEA0B3343EA14534FEA0432019C43EAC5
:1007F0000603A4F10C040294009CCDE900B400F0BF
:10080000D8F803B0BDE8F08F00200146F9E72DE9E4
:10081000F04D81EA030404F0004B21F0004514463A
:100820004FF0000A23F0004150EA050220D054EABC
:1008300001021DD0C5F30A570246C5F31303C1F3E5
:100840001300C1F30A5640F4801543F48013A7EB5C
:100850000608101BD64608F2FD3873EB050002D3DC
:1008600008F1010801E092185B41B8F1000F03DACA
:1008700000200146BDE8F08D00204FF480110646AF
:1008800084460EE0171B73EB050705D3121B63EBC1
:10089000050306434CEA010C49084FEA3000921860
:1008A0005B4150EA0107EDD152EA030012D082EA1F
:1008B000040083EA0501084305D0101BAB4106D2B2
:1008C0000122002306E000224FF0004302E06FF017
:1008D000010253101AEB06004CEB085110EB0A0012
:1008E00041EB0B01BDE8F04D00F054B8C1F30A52E2
:1008F000C1F3130140F2FF3341F480119A4202DA4E
:1009000000200146704740F233439A42A2F233423C
:1009100002DC5242FFF7A7BCFFF70EBE30B5041E43
:1009200071F1000404DB4FF00044404264EB01012C
:10093000141E73F1000405DB1C464FF000435242C5
:1009400063EB0403994208BF904230BD064C074D4B
:1009500006E0E06840F0010394E80700984710348F
:10096000AC42F6D3FFF7E8FBC8E70008E8E7000869
:10097000202A06DBCB17203A41FA02F043EAE07363
:1009800006E041FA02F3D040C2F120029140084350
:100990001946704710B5141E73F1000408DA401CA4
:1009A00041F1000192185B411A4301D120F001008E
:1009B00010BD2DE9F04D92469B4611B1B1FA81F27E
:1009C00002E0B0FA80F220329046FFF7B5FD04460F
:1009D0000F4640EA0A0041EA0B0153465A460843D3
:1009E00013D0114653EA010019D0C8F14002504615
:1009F000FFF739FC05460E46504659464246FFF77A
:100A00009BFD084305D0012004E020463946BDE89F
:100A1000F08D0020054346EAE0762C4337430A98E0
:100A20006305E40AA0EB08000022FD0A44EA4754EB
:100A30000A3002D500200146E9E701051019694195
:100A4000DDE9084500196941BDE8F04DA2E730B580
:100A50008C1810F8012B12F00F0301D110F8013B94
:100A6000120906D110F8012B03E010F8015B01F820
:100A7000015B5B1EF9D101E001F8013B521EFBD185
:100A8000A142E6D3002030BD70B5044600252068A1
:100A9000806800F0010018B32068806820F0010031
:100AA0002168886003F056FF054613E003F052FF0B
:100AB000401B02280ED92068806800F0010048B170
:100AC000A06A40F01000A062E06A40F00100E0621D
:100AD000012070BD2068806800F001000028E5D189
:100AE0000020F6E770B505466C6AA06A00F0500079
:100AF000E0B9A06A40F40070A0622068806800F449
:100B00006020B0F5602F0DD1207B58B9A06A20F489
:100B10008070A062A06A00F4805018B9A06A40F00A
:100B20000100A062204603F0A1F903E0206A016BF6
:100B30002846884770BD70B505466C6AA06A40F0CB
:100B40004000A062E06A40F00400E062204603F04A
:100B50008FF970BD70B50446656A284603F087F9C1
:100B600070BD000038B504460025002000902068C4
:100B7000806800F0010078BB2068806840F00100C8
:100B800021688860194800681949B0FBF1F00090AD
:100B900002E00098401E009000980028F9D103F070
:100BA000D9FE054619E003F0D5FE401B022814D9F2
:100BB0002068806800F0010078B9A06A40F0100059
:100BC000A062E06A40F00100E06200BF002084F80B
:100BD000240000BF012038BD05E02068806800F0D7
:100BE00001000028DFD00020F5E700000C00002005
:100BF00040420F000EB500BF01A802F051FE60B1E7
:100C0000BDF80A000090BDF80830BDF80620BDF818
:100C1000041007A002F006FE05E040F2AB1212A19C
:100C200016A002F0FFFD4FF47A700AF071FDE3E7C1
:100C300041444320494E3428504134293D257520F4
:100C4000494E3828504230293D257520494E3928D3
:100C5000504231293D257520494E313028504330CE
:100C6000293D25750D0A0000557365725C41707051
:100C70005C4170705F6D61696E2E63005B25733A35
:100C800025645D4144432072656164206661696C3E
:100C900065640D0A00000000F8B506460C461A48C7
:100CA000007800B9F8BDACB91848007838BB00F03E
:100CB000A7F80BF04BFD0546002003462A4601210C
:100CC0000090134800680CF0D1F801281AD000F009
:100CD000BFF817E0022C01D1012000E000200B49F1
:100CE000087000200346024603210090084800686F
:100CF0000CF0BCF80548007810B100F081F801E074
:100D000000F0A6F800BFCDE7140000201500002079
:100D10001000002008B51148007808B1012008BD76
:100D200041F294100E490968486300F091F80D48AB
:100D300000231A46322100900BA00CF051F80C4908
:100D400008600846006808B90020E8E70020094963
:100D5000087001200149087000BFE0E7140000207E
:100D6000A4020020ED0D000842757A7A6572000039
:100D7000100000201500002038B504464FF0000098
:100D8000009000BFEFF3058098B16B46224600212A
:100D90000B480CF0DDF8012811D100BF009838B1E4
:100DA0004FF0805007490860BFF34F8FBFF36F8F3C
:100DB00005E000232246194601480CF0A1F838BD91
:100DC000990C000804ED00E010B5044606480078D0
:100DD00000B910BD0CB1022100E001210846FFF767
:100DE000CBFF00BFF5E700001400002010B504465B
:100DF0000248007808B900F02BF810BD150000205B
:100E000010B541F294100449096848630021024872
:100E100006F002F810BD0000A402002010B50B4837
:100E2000007800B910BDFFF7EBFF502003F0B8FBCE
:100E300000F00EF8282003F0B3FBFFF7E1FF50208D
:100E400003F0AEFB00F004F800BFEBE71400002055
:100E500010B50021014806F059F810BDA402002089
:100E600070B504462046FFF732FA85B2C8232A46F9
:100E70002146024806F021FB70BD00000C04002052
:100E800010B5044600212046FFF72CFB02D284F067
:100E9000004010BD2046FCE72DE9F0410646002148
:100EA0003046FFF71FFB03D800F0E4FABDE8F081FD
:100EB00001220221184803F047FD18480068C06A63
:100EC000441C2046FFF7DBFA80463146FFF75EFA06
:100ED0000746FFF7F2FA0546A54200D3651E0F4804
:100EE000006845630E48007888B900210B4805F07A
:100EF00093FF48B100200949096848630022022194
:100F0000054803F021FDD1E7012005490870054897
:100F1000866000BFCAE7000000080140EC02002024
:100F200064000020D009002070B504460025681E2A
:100F300001F0B8FE88B10A48007D01280BD10848AD
:100F4000806A40B90648B0F90400002803DD204655
:100F5000FFF7A2FF012501F027FF284670BD000022
:100F6000E40400202DE9FF5F4FF00008C146002790
:100F700000204D4908604D4908604D4908604D49C1
:100F80000870824628E002A802F08AFCE8B1BDF8A9
:100F90000A0000F0F9F9C0B1BDF80C0000F0F4F956
:100FA00098B1BDF80A0000F0B3F983464146FFF757
:100FB00095F98046BDF80C0000F0AAF98346494631
:100FC000FFF78CF98146781CC7B264200AF0A0FBB9
:100FD0000AF1010000F0FF0ABAF10A0FD3D3032F80
:100FE00004D235A002F01EFCBDE8FF9F3846FFF793
:100FF00046FA834659464046FFF7FAF90446384612
:10100000FFF73DFA834659464846FFF7F1F9054692
:1010100029462046FFF7B4F90190FFF731FF8346D8
:101020004FF08241FFF768FA0DD22846FFF72CFAFD
:1010300083462046FFF728FA5A460146019027A02A
:1010400002F0F0FBD0E729462046FFF747F9834638
:101050004FF07C51FFF79AF9064621463046FFF7DC
:101060008FF91249086029463046FFF789F910497F
:1010700008600D48066001200E4908700C480068A1
:10108000FFF702FA834609480068FFF7FDF901906F
:101090003046FFF7F9F95B46009001461CA0019A23
:1010A00002F0C0FB00BF9FE7680000206C0000203A
:1010B00070000020740000204845415420636F6C8C
:1010C000642063616C6962726174696F6E20756E11
:1010D000617661696C61626C650D0A004845415436
:1010E00020636F6C642063616C6962726174696F04
:1010F0006E20736B697070656420626F6172643A10
:101100002564206C69717569643A25640D0A0000D4
:101110004845415420636F6C642063616C6962725E
:101120006174696F6E206F6B207265663A2564206A
:10113000626F6172644F66733A2564206C697175E1
:1011400069644F66733A25640D0A000070B5044661
:101150000D480078A8B10D4801682046FFF7CCF98A
:101160000FD20A4801682046FFF70AF906460849E7
:10117000FFF70CF90546054801682846FFF7AEF869
:1011800070BD2046FCE700007400002068000020CD
:101190006666E63F1CB50848022100234FF4C07282
:1011A000CDE9001005A107480BF0AEF9012800D1E8
:1011B0001CBD0020FCE70000600000204865617451
:1011C00065720000AD14000870B505460C4600F0CD
:1011D00051F9284601F07CFD0120FFF7F5FD084894
:1011E000007848B9012006490870234640F22712CA
:1011F00004A10AA002F016FB01F030FE70BD000051
:1012000065000020557365725C4170705C417070C0
:101210005F6865617465722E630000005B25733A38
:1012200025645D25730D0A0038B504460020009042
:10123000082C13D10A48006880B16A46002108488A
:1012400000680AF093FA00BF009830B160060549C3
:101250000860BFF34F8FBFF36F8F00BF38BD000032
:101260006000002004ED00E010B500F003F900F08C
:10127000F9F800200C4908700C4908600C49086016
:101280000C4908600C490870002204210B4803F047
:101290005BFB022003F084F901220421074803F0DC
:1012A00053FB012010BD00006500002068000020F5
:1012B0006C0000207000002074000020001001402D
:1012C0002DE9F04106460C460E492046FFF714F979
:1012D00002D80020BDE8F0810B492046FFF70CF949
:1012E0000DD221460748FFF74BF807460749FFF79D
:1012F0007FF8054629463046FFF748F8064630464F
:10130000E8E700000000BE42000096420000A04155
:101310002DE9F04704462046FFF7B1F8814615490C
:10132000FFF731F807462046FFF7A9F88146124932
:10133000FFF72CF880463946FFF75AF805460E4964
:101340002846FFF755F8814608F032FA80460B49E7
:10135000FFF74EF807460A49FEF7C0FF064631463A
:101360004FF07E50FFF744F807460649FFF708F8AC
:10137000BDE8F08700F07F4500401C4600B09A456C
:101380000FCF5B3B339388430146052905D940F6CF
:10139000FA70814201D2012070470020FCE7000072
:1013A0002DE9FC5F074688464FF07C5A4146384697
:1013B000FEF7E6FF044600212046FFF793F804D825
:1013C00000F050F80020BDE8FC9F4FF07C51204613
:1013D000FEF7DCFF81461E4801684846FEF77EFFA7
:1013E0001B49086008681B49FFF786F802D21948B4
:1013F00017490860164841682046FEF7C1FF81463C
:101400004FF07C51FEF7F4FF054629460020FEF719
:10141000BDFF01900E4801680F48FEF7B7FF8346F5
:1014200021460E48FEF7B2FF59460090FEF756FFE0
:1014300081460199FEF752FF064605484460084977
:101440003046FFF759F800D2054E3046BBE70000A2
:10145000D0090020000096436F12033B8FC2F53C79
:101460009A99193F002002490860486088607047D7
:10147000D009002010B50020084909684863002100
:10148000064805F043FD00220221054803F05CFAFE
:101490000020044908700449886010BDEC02002057
:1014A0000008014064000020D009002088B000241A
:1014B000FFF758FD0BF04AF9074600BF4FF4FA72E8
:1014C0000121002009F0DAFE0821654803F034FA12
:1014D00020B964A11020FFF777FEEFE706A802F01D
:1014E000DFF940B9601CC4B2032C03D363A12020F0
:1014F000FFF76AFEE2E70024BDF81A00FFF744FF99
:1015000020B1BDF81C00FFF73FFF20B961A1042006
:10151000FFF75AFED2E7BDF81A00FFF7F9FE814641
:10152000BDF81C00FFF7F4FE82466148016848469A
:10153000FEF7D4FE81465F4801685046FEF7CEFEB6
:1015400082464846FFF702FE81464FF0FF3001F029
:10155000A9FBB8B14FF07C514846FEF7BFFE80466C
:10156000FEF792FF00B2544948804FF07C5150463C
:10157000FEF7B4FE8046FEF787FF00B24E490880B2
:1015800001F012FC01F06AFC4C494846FEF7B4FF3A
:1015900004D94B495046FEF7AFFF04D849A10820B3
:1015A000FFF712FE8AE700250026681E01F07AFB8D
:1015B00048B14148057D0146B1F90400FEF756FFE8
:1015C000064601F0F1FB01F049FC012D17D1002185
:1015D0003046FEF791FF12D251463046FFF7E0FE4B
:1015E000059049460598FFF76BFE05900598FFF7B3
:1015F0009BFC40B9FFF736FFFFF73CFF03E0FFF726
:1016000031FFFFF737FF0BF0A1F8C01BB0F5FA6F01
:1016100024D30BF09BF80746304988683049FEF721
:10162000B5FE0290FEF749FF80464846FEF72CFFC4
:1016300083465046FEF728FF04903046FEF724FF0D
:101640000390BDF81A00BDF81C105B46CDE900817F
:10165000029024A0DDE9031202F0E4F82EE7000076
:10166000001001404865617465722068617264779A
:10167000617265206661756C740000004865617474
:1016800065722041444320756E617661696C6162C8
:101690006C650000486561746572204E5443206F8C
:1016A00070656E206F722073686F727400000000A6
:1016B0006C00002070000020E40400200000DC42E8
:1016C00000000243486561746572206F766572742C
:1016D000656D70657261747572650000D0090020D7
:1016E0000000C84248454154207461726765743AED
:1016F0002564206C69717569643A256420626F61A4
:1017000072643A256420647574793A25752525201C
:101710007261773A25752F25750D0A001CB50A48A8
:10172000006808B101201CBD074802210023CA013E
:10173000CDE9001005A106480AF0E6FE012800D117
:10174000F1E70020EFE7000078000020494D550048
:10175000A11A000838B50446002000900C48006823
:10176000A8B1102C01D0202C11D16A4600210848C4
:10177000006809F0FBFF00BF009838B14FF08050BF
:1017800004490860BFF34F8FBFF36F8F00BF38BDB0
:101790007800002004ED00E008B501F0AFFF30B99B
:1017A000F12221A125A002F03DF8002008BD6946E4
:1017B0000F2000F02AF930B9F7221BA128A002F06F
:1017C00031F80020F2E79DF80030FA2216A12EA091
:1017D00002F028F89DF800006A2806D0FD2212A128
:1017E00032A002F01FF80020E0E74421122000F0B0
:1017F000F7F948B14021102000F0F2F920B10121A1
:101800000D2000F0EDF938B940F2051206A130A024
:1018100002F008F80020C9E74FF4847202A138A052
:1018200002F000F80120C1E7557365725C417070E9
:101830005C4170705F696D752E6300005B25733AC3
:1018400025645D4C534D3644534D2053504932204E
:10185000696E6974206661696C65640D0A00000038
:101860005B25733A25645D4C534D3644534D2057E8
:10187000484F5F414D5F4920726561642066616930
:101880006C65640D0A0000005B25733A25645D4CAD
:10189000534D3644534D2057484F5F414D5F4920CB
:1018A0003D203078253032580D0A00005B25733A10
:1018B00025645D4C534D3644534D2057484F5F418E
:1018C0004D5F49206D69736D617463680D0A000096
:1018D0005B25733A25645D4C534D3644534D20616E
:1018E0006363656C65726F6D6574657220636F6E9E
:1018F000666967206661696C65640D0A0000000016
:101900005B25733A25645D4C534D3644534D20722C
:10191000656164790D0A000030B5014609B90020FF
:1019200030BDB1F90000002801DB054600E045426A
:101930002A46B1F90200002801DB054600E04542D5
:101940002B46B1F90400002801DB054600E04542C2
:101950002C4643F23330844207DB42F26660824217
:1019600003DC834201DC0120DAE70020D8E730B550
:10197000014609B9002030BDB1F90000002801DBA3
:10198000054600E045422A46B1F90200002801DB85
:10199000054600E045422B46B1F90400002801DB72
:1019A000054600E045422C4642F6CC40844203DB2B
:1019B000824201DC834201DD0120DCE70020DAE71E
:1019C0001CB504462CB106226946282000F038F8E0
:1019D00008B900201CBD9DF800009DF8011040EAE8
:1019E000012000B220809DF802009DF8031040EA1B
:1019F000012000B260809DF804009DF8051040EAC7
:101A0000012000B2A0800120E4E77CB505460C4629
:101A10000CB900207CBD45F080008DF80400FF204B
:101A20008DF8050064230222694601A801F0DCFE5E
:101A300008B10020EEE79DF8010020700120E9E7E1
:101A4000F0B593B007460E46154616B10DB1202DE0
:101A500002D9002013B0F0BD47F080008DF82800B7
:101A6000012404E0FF200AA90855601C84B2AC429E
:101A7000F8DD681C82B2642301A90AA801F0B4FE53
:101A800008B10020E6E7002405E001A9601C085C1D
:101A90003055601C84B2AC42F7DB0120DAE700006D
:101AA0001CB500BF14220121002009F0E7FB6846A5
:101AB000FFF786FF00B9F5E72A4800990160BDF8F5
:101AC000041081800120284908706846FFF74FFF05
:101AD0000446002C1FD000202449087024480078B8
:101AE000052804D222480078401C2149087021486A
:101AF0000078002835D11E480078052831D3012010
:101B00001C4908707F221CA120A001F08BFE02203E
:101B100001F060F825E00020154908706846FFF7DD
:101B2000FBFED8B111480078142804D20F48007881
:101B3000401C0E4908700F48007890B10B4800789F
:101B400014280ED300200B4908708F220AA119A077
:101B500001F068FE022001F011F802E000200349C4
:101B600008709FE77C000020820000208500002094
:101B70008400002083000020557365725C41707002
:101B80005C4170705F696D752E6300005B25733A70
:101B900025645D494D552074696C742064657465D5
:101BA000637465642C20656E746572206661756C63
:101BB000740D0A005B25733A25645D494D55207408
:101BC000696C7420636C65617265642C2072657445
:101BD00075726E20746F2069646C650D0A000000D8
:101BE00038B504460D4604F07F008DF800008DF8EE
:101BF000015064220221684601F0CAFD08B90120A3
:101C000038BD0020FCE7000070B505464FF0FF30FE
:101C100001F048F800B970BD2A48007880B92A4818
:101C2000B0F904004419002C01DA002404E0B4F5F2
:101C3000004F01DB47F6FF7420B2234988803AE069
:101C400020480078012810D11F48B0F90800441935
:101C5000002C01DA002404E0B4F5004F01DB47F664
:101C6000FF7420B21849088125E016480078022840
:101C700021D1002D0EDA6E4213480069B04205D919
:101C800011480069801B1049086114E000200E49CA
:101C9000086110E02E460C480069C6F1FF31884209
:101CA00005D80948006930440749086103E04FF04E
:101CB000FF300549086101F077F800F0B7FE00BF7A
:101CC000A9E7000019000020E404002010B54FF03F
:101CD000FF3000F0E7FF00B910BD0B48007D02287F
:101CE0000DD00A4800780949487008460078401C21
:101CF0000321B0FBF1F201FB12000449087001F06E
:101D000053F800BFE8E70000E404002019000020B9
:101D100010B50024601E00F0C5FF00B910BD0948D1
:101D2000007D022804D0002006494862C8600124D2
:101D300001F03AF814B1002000F0F6FF00F076FE52
:101D400000BFEBE7E404002010B5044614B120788E
:101D5000042800DB10BD204600F044F8207830B1A4
:101D600001280AD0022818D0032834D127E060784F
:101D7000012801D1FFF7AAFF2EE06078012802D1E7
:101D8000FFF742FF08E06078022802D0607803285D
:101D900002D10520FFF738FF1EE06078012803D14B
:101DA000801EFFF731FF09E06078022802D06078DA
:101DB000032803D16FF00400FFF726FF0CE06078E2
:101DC000012802D100F05AF804E06078022801D11D
:101DD000FFF79EFF00E000BF00BF01F03FF800BF2B
:101DE000B8E7000010B5044614B16078032800D1AC
:101DF00010BD6078012807D12078431C182208A163
:101E00000CA001F00FFD09E06078022806D12078CF
:101E1000431C1C2202A10DA001F004FD00BFE7E756
:101E2000557365725C4170705C4170705F6B657971
:101E30002E6300005B25733A25645D4B455925757B
:101E40002073686F72740D0A000000005B25733AFE
:101E500025645D4B45592575206C6F6E670D0A0032
:101E600008B500BF684601F00DFE10B16846FFF7E7
:101E70006BFF0A2009F04CFCF4E7000010B50224C7
:101E8000E01E00F00FFF00B910BD1348007D0228CE
:101E900018D01148007D012801D1002412E00E481D
:101EA000006978B101240C48C06828B10A48406A2A
:101EB00009490969884205D3002007494862084654
:101EC0000069C86000F070FF022C02D0204600F0CC
:101ED0002BFF00BFD8E70000E404002010B53C2130
:101EE000094804F05BFD08B1002010BD0020064940
:101EF00009684862054908600549087000F00AF859
:101F000000F020F80120F0E7340300204800002012
:101F10005C00002000200649086048600549086010
:101F200005490870054908600549086070470000C8
:101F3000400000204C0000205000002054000020F1
:101F40005800002010B5002009490968C86308211D
:101F5000074804F0DBFF00224FF40071054802F04F
:101F6000F3FC0020044908700449086010BD00001B
:101F70007C030020000C01405C0000205800002081
:101F800070B504460D4634B12246294603A001F03F
:101F900049FC002070BD0120FCE700005353443190
:101FA000333135202573206661696C65643A2025DC
:101FB000750D0A000FB400B5A9B02BA80090A021A0
:101FC00001A8009B2A9A06F013FE0020009001A9A8
:101FD00002A001F027FC29B05DF814FB2573000076
:101FE0002DE9F04104460AF0A1FB02280ED14FF47E
:101FF0007A70A4FB006001464FF47A7200233046E9
:10200000FEF700F9054609F083FB02E0204602F0E6
:10201000C7FABDE8F08100207047002070470246F3
:1020200000207047014600207047024622B1107818
:10203000884201D13E2070472020FCE700207047F5
:1020400010B501F0DDF908B9012010BD0020FCE752
:102050002DE9F04107460E4615461C460DB1802C71
:1020600002D90120BDE8F0810948067022462946C0
:10207000401CFEF708F9601C82B26423044938460C
:1020800001F020FA08B10120ECE70020EAE70000A7
:102090004C09002010B586B08CA103C9CDE904011C
:1020A00014220321782001F0CBF918B9782089494E
:1020B00008700FE0142203217A2001F0C1F918B949
:1020C0007A208449087005E083A001F0ABFB002072
:1020D00006B010BD40F23C418648FEF7EDF8864858
:1020E0008449086085484860854888608548C8609C
:1020F0008548086185484861824888618248C8618E
:10210000834808627F4848627F4888628048C86286
:1021100080484863804808630021764808F0C3FF80
:102120006C480178734808F04BFE724808F03CFC9C
:1021300004467AA1FFF724FF08B90020C8E7002170
:102140006C4808F0B8FE044676A1FFF719FF002896
:102150007ED000220821674808F0C6FE044674A11C
:10216000FFF70EFF0028F3D03F21624808F0BCFFC4
:10217000044671A1FFF704FF0028E9D000215D4863
:1021800008F01EFF04466FA1FFF7FAFE002877D083
:102190000021584808F044FF04466CA1FFF7F0FE08
:1021A00000286DD002220121524808F011FE044699
:1021B00069A1FFF7E5FE002862D001214D4809F032
:1021C00044F8044667A1FFF7DBFE002858D0012140
:1021D000484809F021F8044664A1FFF7D1FE002821
:1021E0004ED000220121434808F015FE044661A1AB
:1021F000FFF7C6FE002843D0FF213E4808F029FE25
:1022000004465FA1FFF7BCFE002839D00F22012150
:10221000384808F0B3FF04465CA1FFF7B1FE002880
:102220002ED00321334808F02CFE04465AA1FFF7B4
:10223000A7FE68B100212F4808F01CFF044659A1F1
:10224000FFF79EFE20B102212A4808F034FF00E08B
:1022500016E0044657A1FFF793FE88B100212548F8
:1022600008F094FE044657A1FFF78AFE40B1012111
:10227000204808F020FE044656A1FFF781FE08B969
:10228000002025E71B4808F047FA044654A1FFF751
:1022900077FEA0B110200121052204ABCDE9002179
:1022A000029018222C21134808F01CFB38B9114861
:1022B00008F0A6FA04464CA1FFF762FE08B9002018
:1022C00006E74BA001F0AEFA012001E74179616E0B
:1022D000670000003800002053534431333135206B
:1022E0006E6F7420666F756E64206F6E2049324386
:1022F000310D0A0010050020412000083D20000893
:10230000512000081B200008172000081F2000088B
:1023100025200008E11F0008B51F0008696E6974D8
:1023200000000000646973706C6179206F6666005C
:10233000636C6F636B0000006D756C7469706C6525
:10234000780000006F6666736574000073746172D4
:1023500074206C696E650000636861726765207047
:10236000756D70007365676D656E74007363616E83
:1023700000000000636F6D2070696E730000000044
:10238000636F6E7472617374000000007072656335
:102390006861726765000000646573656C656374ED
:1023A00000000000656E7469726520646973706C6A
:1023B0006179000061646472657373206D6F646598
:1023C00000000000646973706C6179206D6F646552
:1023D00000000000646973706C6179206F6E00000A
:1023E000636C656172000000757064617465000063
:1023F000535344313331352072656164792C206444
:102400006973706C6179204179616E672061742015
:1024100063656E7465720D0A00000000014621B10B
:10242000012904D0022906D103E004A0704705A0C9
:10243000FCE706A0FAE707A0F8E7000049444C458E
:102440000000000052554E4E494E47004641554C43
:1024500054000000554E4B4E4F574E00F0B589B01A
:1024600004460E46564890F83800012801D104B1C0
:1024700016B9002009B0F0BD4FF4806150483B30E0
:10248000FDF71AFF206A00904EA2182103A8E36905
:1024900006F094FB03A8FDF71AFF05460C21012264
:1024A000A8B203ABCDE901210090002211464448B7
:1024B00008F018FA00213046FFF7B7FD0746B4F9D7
:1024C0000200B4F90410B4F900203B46CDE9002124
:1024D000029040A2182103A806F070FB03A8FDF7A4
:1024E000F6FE05460C210122A8B203ABCDE901217D
:1024F00000900A460021324808F0F4F901213046E4
:10250000FFF793FD0746B4F90800B4F906103B46FF
:1025100034A2CDE90010182103A806F04FFB03A850
:10252000FDF7D5FE05460C210122A8B203ABCDE98B
:102530000121009018220021214808F0D3F902213E
:102540003046FFF772FD07462169606A3B4629A2C3
:10255000CDE90001182103A806F030FB03A8FDF720
:10256000B6FE05460C210122A8B203ABCDE901213C
:10257000009024220021124808F0B4F9207DFFF7D2
:102580004DFF07463B461FA2182103A806F016FB85
:1025900003A8FDF79CFE05460C210122A8B203AB5F
:1025A000CDE90121009030220021054808F09AF978
:1025B000034808F025F908B901205BE7002059E736
:1025C0001005002049443A2530386C582530386CC5
:1025D000580000002563543A25642F256420423AB0
:1025E00025640000256353504545443A25642F2552
:1025F00064000000256354494D453A256C752F252C
:102600006C757300205354415455533A25730000A0
:1026100000B587B001F07EF918B105A801F085F981
:1026200038B90B220FA114A001F0FCF8002007B06C
:1026300000BD9DF814009DF815109DF816209DF81A
:102640001830CDE90132CDE903109DF81900009052
:10265000BDF81A300F2203A10EA001F0E3F801200B
:10266000E5E70000557365725C4170705C41707005
:102670005F7274632E6300005B25733A25645D44CA
:10268000533332333120696E6974206661696C6539
:10269000640D0A005B25733A25645D44533332337D
:1026A0003120726561647920253034752D253032F2
:1026B000752D2530327520253032753A253032752A
:1026C0003A253032750D0A0000BF0024601E00F06C
:1026D000E9FAF8B11848007D012819D11648C068F8
:1026E000B0B11548C068401E1349C8600846406A2A
:1026F0000969884204D21048406A401C0E49486269
:102700000D48C06820B90C4800690B494862012493
:1027100000F04AFB44B1002000F006FB40F29112A9
:1027200006A10BA001F07EF800F098FB4FF47A7040
:1027300008F0EEFFC9E70000E4040020557365725D
:102740005C4170705C4170705F6D61696E2E6300FA
:102750005B25733A25645D52756E20636F6D706CF6
:102760006574652C2072657475726E20746F2049D3
:10277000444C450D0A00000010B5044609F0D6FF90
:1027800002280DD1C01E00F08DFA80B120880849C2
:102790008880608808816068086100F005FB06E0B9
:1027A000208803498880608808816068086110BDBE
:1027B000E404002030B502460B464FF6FF700021BE
:1027C00018E0555C80EA052000240FE000F4004585
:1027D0002DB141F2210585EA4005ADB203E04FF687
:1027E000FF7505EA40052846651CECB2082CEDD3C0
:1027F0004D1CA9B29942E4DB30BD70B505460C46CC
:10280000A81D00F03DF800B2208005F1080000F09E
:1028100037F800B2608005F10A0000F037F8606018
:1028200070BD2DE9F04105460E46144642F2040102
:10283000204600F07FF84FF48071A01C00F07AF879
:102840003146201D00F076F8288881B2A01D00F0E6
:1028500071F8688881B204F1080000F06BF804F1A7
:102860000A00696800F06AF80E212046FFF7A2FF0F
:102870000746394604F10E0000F05CF8BDE8F0812F
:10288000014608784A7840EA0220704701460878F5
:102890004A7840EA02208A7840EA0240CA7840EA50
:1028A000026070470EB505F0ABF980B901201D49F3
:1028B000087000201C490880488048601B480A4670
:1028C00006CA06C000201A49088002200EBD6946CB
:1028D00001A800F03BF880B90120124908700020DF
:1028E000114908804880486010480A4606CA06C058
:1028F00000200F4908800120E8E701A8FFF73CFF0E
:102900000948DDE9011206C00848DDE9011206C0E8
:10291000BDF80000401C06490880012001490870EC
:102920000020D3E736000020240000202C000020E7
:102930003400002001700A124270704701700A0AC8
:1029400042700A0C82700A0EC27070472DE9F04383
:1029500089B007460C46102205A9002005F05BF956
:1029600008B1012000E000200546102201A9104610
:1029700005F051F908B1012000E0002006461DB124
:1029800005A800F031F800E0002005461EB101A8BE
:1029900000F02AF800E00020064625B91EB9002004
:1029A00009B0BDE8F083ADB15EB102A8FFF768FFE2
:1029B000804606A8FFF764FF8146414600F03CF8D8
:1029C00040B1394605A8FFF718FF06A8FFF758FFE2
:1029D000208007E0394601A8FFF70FFF02A8FFF7A4
:1029E0004FFF20800120DBE770B504462046FFF74B
:1029F00047FF42F20401884201D0002070BDA01CB4
:102A0000FFF73EFFB0F5807F01D00020F6E704F12C
:102A10000E00FFF735FF05460E212046FFF7CAFEE0
:102A2000A84201D10120E9E70020E7E701200149A0
:102A300008707047370000200246501A00B2002884
:102A400001DD012070470020FCE70246B2F90000DA
:102A5000B1F9003098420BD1B2F90200B1F902305D
:102A6000984205D150684B68984201D101207047C7
:102A70000020FCE71FB5002509F068FE044600BFF2
:102A80002D480078002853D0002000F00BF90028D2
:102A90004ED02A488088ADF8080028480089ADF853
:102AA0000A0026480069039000F07EF9244902A834
:102AB000FFF7CBFF58B92248DDE9021206C0DDE975
:102AC0000201CDE9000109F041FE044601251D483F
:102AD000007850B1DDE90201CDE9000109F036FED0
:102AE000044601250020174908700DB309F02EFE99
:102AF000001B41F2883188421AD313496846FFF718
:102B0000A4FF08B1002513E010480188684600F0D2
:102B10001FF850B10C48DDE9001206C00B480088D0
:102B2000401C0A490880002502E009F00FFE044617
:102B3000642008F0EDFDA3E736000020E404002047
:102B400024000020370000202C000020340000204A
:102B50007FB505460C466A4621462846FFF761FECA
:102B600004F0010008B9002000E010200646102201
:102B70006946304605F068F804B070BD70B504468B
:102B800000250CB9002070BD00F02AF84FF0FF308E
:102B900000F088F808B90020F5E70B48806AA043E8
:102BA000094988620846806A30B9002008750749DB
:102BB000087007490870012500F0F6F815B10020EB
:102BC000FEF702F90120DEE7E404002018000020EF
:102BD0002000002010B50446204600F079F810BD12
:102BE00010B500200D490968486300210B4804F026
:102BF0008DF900200A490968C8630821084804F0D3
:102C000085F900220221074801F09EFE00224FF4C0
:102C10000071054801F098FE10BD0000EC02002094
:102C20007C03002000080140000C014010B518484A
:102C3000006808B1012010BD012009F083F8144993
:102C400008600846006808B90020F4E70020114930
:102C500008701149087048701049088048808880C1
:102C6000C8800881C860086108754862886201F000
:102C700077FE0A49886101F079FE0849C86101F0D0
:102C80007BFE064908620020054908700120D2E752
:102C90001C0000201800002019000020E40400207F
:102CA0002000002010B504460748006808B900203D
:102CB00010BD21460448006809F014FB012800D12A
:102CC000F6E70020F4E700001C0000207047000039
:102CD00010B504460CB9002010BDFFF781FF4FF07E
:102CE000FF30FFF7DFFF18B9FFF77AFF0020F3E7A7
:102CF0000A48806A20430949886202200875084909
:102D0000087001200749087000F04EF8FFF768FFCF
:102D10000120FEF759F80120DEE70000E40400205E
:102D2000180000202000002070B504460025002671
:102D30002CB1012C03D0022C01D0002070BD4FF02B
:102D4000FF30FFF7AFFF08B90020F7E7022C06D0ED
:102D50001248806A18B100F027F80020EEE710480A
:102D600004700E480475022C07D10E48007838B95B
:102D700001200C490870012502E000200949087073
:102D8000012C00D0012600F00FF80EB1FFF728FF4C
:102D90000DB1FFF79BFF0120D0E70000E404002005
:102DA000180000202000002010B50548006830B150
:102DB00000231A4619460248006809F075F810BD4C
:102DC0001C00002070B504460D46B4F90000B2F9AD
:102DD0000060B0422BD1B4F90200B2F90260B042F7
:102DE00025D1B4F90400B2F90460B0421FD1B4F99E
:102DF0000600B2F90660B04219D1B4F90800B2F980
:102E00000860B04213D1606A566AB0420FD1E068E0
:102E1000D668B0420BD120691669B04207D1207D37
:102E2000167DB04203D128781E78B04201D001202F
:102E300070BD00210DE004F1180050F8216002F18E
:102E4000180050F82100864201D00120F0E7481C0C
:102E5000C1B20329EFD30020EAE7000008B5064815
:102E6000006840B10020022302460146009002485B
:102E7000006809F065FB08BD3C00002098B02C21DB
:102E800001A8FDF719FA00200090012409F048FC80
:102E90001749086000BF64220121002008F0EEF904
:102EA0004FF0FF30FFF7FEFE0028F4D02C2211492E
:102EB0000DA8FDF7E8F9104800880C90FFF774FFA3
:102EC0003CB96B4601AA0CA90DA8FFF77BFF0028AF
:102ED000E1D00CA90DA8FFF7C1FA0028DBD02C2205
:102EE0000DA901A8FDF7CFF90C9800900024D2E7B6
:102EF0003C000020E4040020190000201CB5002440
:102F0000002500F00FFB30B9662279A17DA000F00A
:102F100089FC00BFFEE7FFF77BFB00F071FA28B9E0
:102F2000722273A181A000F07DFC0DE0FFF7B2F8E2
:102F300028B976226EA187A000F074FC04E0012479
:102F40004FF4FA6001F02CFB00F068FD28B98122F3
:102F500067A187A000F066FC00E00125FFF766FE90
:102F600030B98E2262A189A000F05CFC00BFFEE7B0
:102F7000FEF712FC28B998225DA18FA000F052FC48
:102F800007E0FEF7CBFB20B99C2259A192A000F0EC
:102F900049FCFEF7A3FF30B9A12255A196A000F08D
:102FA00041FC00BFFEE7FFF77DFC20B1012808D0FF
:102FB000022812D10BE0AA224DA196A000F032FC0B
:102FC00011E0AD224AA19BA000F02CFC0BE0B02246
:102FD00047A1A4A000F026FC05E0B32244A1ACA0C8
:102FE00000F020FC00BF00BFFDF794FE30B9B9220D
:102FF0003FA1B0A000F016FC00BFFEE7FDF70EFFFA
:10300000FEF732F930B9C72239A1B1A000F00AFCAD
:1030100000BFFEE7FEF7BEF830B9D02234A1B3A05E
:1030200000F000FC00BFFEE7002001210346C022A3
:10303000CDE90010B6A1B84809F066FA012807D01A
:1030400040F22D122AA1B5A000F0ECFB00BFFEE774
:10305000002001210346C022CDE90010B8A1BB48E1
:1030600009F052FA012807D04FF49B7220A1B8A0B2
:1030700000F0D8FB00BFFEE78CB100200121034621
:103080000A02CDE90010BCA1BC4809F03DFA0128B4
:1030900005D04FF4A07216A1B9A000F0C3FB8DB10A
:1030A0000020012103460A02CDE90010BDA1BE485F
:1030B00009F02AFA012805D04FF4A4720CA1BBA094
:1030C00000F0B0FB002001210346C022CDE9001032
:1030D000BEA1C04809F018FA012805D040F25112EB
:1030E00003A1BDA000F09EFB08F0FEFC00BFFEE7C0
:1030F000557365725C4170705C4170705F6D6169A1
:103100006E2E63005B25733A25645D49324332209D
:10311000627573206D75746578206372656174657E
:10312000206661696C65640D0A0000005B25733AD6
:1031300025645D4932433120627573206D75746575
:103140007820637265617465206661696C65640DE1
:103150000A0000005B25733A25645D4F4C4544200E
:10316000696E6974206661696C65640D0A0000000F
:103170005B25733A25645D4B657920696E6974201F
:103180006661696C65640D0A000000005B25733A96
:1031900025645D53797374656D2073746174652063
:1031A0006D75746578206372656174652066616908
:1031B0006C65640D0A0000005B25733A25645D4967
:1031C0004D55206272696E672D7570206661696C5D
:1031D00065640D0A000000005B25733A25645D49B3
:1031E0004D55207461736B20637265617465206650
:1031F00061696C65640D0A005B25733A25645D4D59
:103200006F746F7220696E6974206661696C6564A1
:103210000D0A00005B25733A25645D5573657220C5
:1032200073657474696E6773206C6F616465640D97
:103230000A0000005B25733A25645D4E6F207661BD
:103240006C696420757365722073657474696E6748
:10325000732C207573652064656661756C74730DDD
:103260000A0000005B25733A25645D557365722082
:1032700073657474696E677320454550524F4D20D5
:10328000756E617661696C61626C650D0A000000A3
:103290005B25733A25645D5573657220736574749C
:1032A000696E677320696E6974206661696C656414
:1032B0000D0A00005B25733A25645D42757A7A65D4
:1032C0007220696E6974206661696C65640D0A001C
:1032D0005B25733A25645D48656174657220696E8B
:1032E0006974206661696C65640D0A005B25733A38
:1032F00025645D486561746572207461736B206339
:103300007265617465206661696C65640D0A000010
:1033100053746F7261676500752A00085B25733A04
:1033200025645D53746F72616765207461736B20EF
:10333000637265617465206661696C65640D0A007D
:1033400052756E436F6E74726F6C0000C926000870
:103350005B25733A25645D52756E20636F6E7472DF
:103360006F6C207461736B20637265617465206695
:1033700061696C65640D0A00554900007D2E0008E6
:103380005B25733A25645D4F4C4544207461736B33
:1033900020637265617465206661696C65640D0AFD
:1033A000000000004B657900611E00085B25733A40
:1033B00025645D4B6579207461736B206372656170
:1033C0007465206661696C65640D0A00416463542C
:1033D00065737400F50B00085B25733A25645D4145
:1033E00044432074657374207461736B2063726549
:1033F000617465206661696C65640D0A00000000F7
:1034000010B50C48006808B1012010BD0A480068DA
:103410000A49884201D00020F7E7012008F092FC19
:10342000044908600846006808B10120EDE7002063
:10343000EBE700008C000020A401002000540040B5
:103440002DE9F04106460C46174614B90120BDE8A7
:10345000F08100F013F805460DB90220F7E73B466E
:1034600022463146044801F075FB8046284600F0AC
:103470004BF84046EBE70000A401002010B500BF68
:10348000EFF3058008B1002010BD0D48006808B9B1
:103490000020F9E709F04AF90446012C01D1022085
:1034A000F2E7022C01D00020EEE74FF0FF31044894
:1034B000006808F017FF012800D1E5E70020E3E7E6
:1034C0008C0000202DE9F84307460C461546984627
:1034D00004B115B90120BDE8F883FFF7CFFF064618
:1034E0000EB90220F7E72B46224639460548CDF8AB
:1034F000008001F00BFC8146304600F005F848469C
:10350000E9E70000A401002010B50446012C06D113
:1035100000231A4619460248006808F0C5FC10BD91
:103520008C00002010B50C48006808B1012010BDC7
:103530000A4800680A49884201D00020F7E70120C4
:1035400008F000FC044908600846006808B1012042
:10355000EDE70020EBE7000088000020F8010020E4
:10356000005800402DE9F04106460C46174614B9B4
:103570000120BDE8F08100F013F805460DB90220E6
:10358000F7E73B4622463146044801F0E3FA80461D
:10359000284600F075F84046EBE70000F8010020EF
:1035A00010B500BFEFF3058008B1002010BD0D4835
:1035B000006808B90020F9E709F0B8F80446012CC2
:1035C00001D10220F2E7022C01D00020EEE74FF0FB
:1035D000FF310448006808F085FE012800D1E5E7C6
:1035E0000020E3E7880000202DE9FE4F06460F4645
:1035F00090461C46DDE90C9B14B1B9F1000F02D1D5
:103600000120BDE8FE8FFFF7CBFF05460DB9022074
:10361000F7E743463A46314605488DE8100A01F07F
:103620002DFC8246284600F02BF85046E9E70000C2
:10363000F80100202DE9FE4F06460F4690461C4635
:10364000DDE90C9B14B1B9F1000F02D10120BDE8F6
:10365000FE8FFFF7A5FF05460DB90220F7E74346A9
:103660003A46314605488DE8100A01F0C1FD824610
:10367000284600F005F85046E9E70000F801002070
:1036800010B50446012C06D100231A4619460248FB
:10369000006808F009FC10BD880000202DE9F843FF
:1036A00004460D46164698460CB105B116B90120E0
:1036B000BDE8F88300F048F807460FB90220F7E7A5
:1036C00000224FF480510B4801F03EF933462A4660
:1036D00021460948CDF8008002F0C9FD814601224B
:1036E0001103044801F030F9384600F08BF84846E1
:1036F000DEE70000000C01404C02002010B50E482F
:10370000006808B1012010BD0C4800680C498842CF
:1037100001D00020F7E7012211030A4801F014F953
:10372000012008F00FFB044908600846006808B152
:103730000120E8E70020E6E7900000204C0200208E
:1037400000380040000C014010B500BFEFF30580C9
:1037500008B1002010BD0D48006808B90020F9E745
:1037600008F0E4FF0446012C01D10220F2E7022C0C
:1037700001D00020EEE74FF0FF310448006808F068
:10378000B1FD012800D1E5E70020E3E7900000202B
:103790002DE9F04104460D46174604B115B9012044
:1037A000BDE8F081FFF7D0FF06460EB90220F7E72B
:1037B00000224FF480510A4801F0C6F83B462A46E1
:1037C0002146084802F074FC804601221103044897
:1037D00001F0BAF8304600F015F84046E0E7000086
:1037E000000C01404C0200202DE9F04104460D463A
:1037F00016461F463B46324629462046FFF74EFFF7
:10380000BDE8F08110B50446012C06D100231A460C
:1038100019460248006808F047FB10BD90000020E0
:1038200000BFFEE70FB410B5C2B0449818B942B05B
:1038300010BC5DF814FB45A801904FF4807102A8FC
:10384000019B449A05F0D4F9044600200190002C15
:1038500000DCECE7FF2C00D9FF24A2B2C82302A9A8
:10386000024803F02AFE00BFE1E700000C0400203C
:10387000704730B590F840500124AC40C56B6C6087
:10388000046863604468102C04D10468A260046872
:10389000E16003E00468A1600468E26030BD704745
:1038A00010B504460CB9002010BD1248007890B93C
:1038B000114800F09DF908B10020F5E704220F49F6
:1038C0000D4800F019FC08B10020EDE7012009497E
:1038D00008700020E8E709480088208007484088F1
:1038E000608006488088A0800448C088E08001206D
:1038F000DAE70000AE00002030010020A600002022
:10390000014601F00F000A1102EB820200EB4200B7
:10391000C0B2704710B532220321D020FFF722FE3B
:1039200008B9012010BD0020FCE77FB5044654B162
:103930003220072102AB0122CDE900100021D02066
:10394000FFF752FE10B1002004B070BD9DF80810C2
:1039500001F07F00FFF7D4FF20709DF8091001F0FF
:103960007F00FFF7CDFF60709DF80A5005F0400022
:10397000B8B105F01F00FFF7C3FFA07005F02000ED
:1039800030B1A0780C2803D2A0780C30A0700DE0E4
:1039900005F0200050B9A0780C2807D10020A070B5
:1039A00004E005F03F00FFF7ABFFA0709DF80B109F
:1039B00001F00700FFF7A4FFE0709DF80C1001F084
:1039C0003F00FFF79DFF20719DF80D1001F01F00D3
:1039D000FFF796FF60719DF80E00FFF791FF00F56D
:1039E000FA60E08020783C2816D260783C2813D218
:1039F000A078182810D2E07870B1E07807280BD8AA
:103A0000207948B120791F2806D8607920B16079E3
:103A10000C2801D8012097E7002095E710B5002475
:103A200018E00F4830F814100E4800F085FF0E49DA
:103A300008550846005D0D49085500200C490855F9
:103A40000C4941F824000C4941F824000B49085561
:103A5000601CC4B2042CE4DB01200949087010BDCD
:103A600080E700080010014094000020980000202A
:103A70009C000020DC090020EC090020A0000020B0
:103A8000A40000202DE9F0410546002743480078B6
:103A900000B115B90020BDE8F081002028706870E1
:103AA000002476E03E4830F814103E4800F044FF11
:103AB00006463D48005DB04205D03B480655012012
:103AC0003A49085563E03948005D032805D2374874
:103AD000005D401C3549085559E03548005DB0424D
:103AE0001DD0334806554EB90020324941F8240014
:103AF000314941F824003149085510E02F48005D54
:103B000020B91FB92C7001206870012700202949B5
:103B100041F82400284941F8240028490855244840
:103B2000005D98BB234850F824000A30214941F831
:103B300024002248005D90B9084650F82400B0F5F2
:103B4000167F0CD301201D49085500201A4941F861
:103B50002400DFB92C7002206870012716E0174896
:103B6000005D98B1144850F824000A30124941F819
:103B70002400084650F82400782807D3002041F894
:103B800024001FB92C7003206870012700BF601C3F
:103B9000C4B2042C86DB38467DE70000A400002078
:103BA00080E7000800100140940000209C000020E5
:103BB00098000020DC090020EC090020A000002073
:103BC00010B54FF4805000F009FD10BD10B508206D
:103BD00000F004FD10BD10B5102000F0FFFC10BD7A
:103BE00010B5202000F0FAFC10BD72B600BFFEE751
:103BF000F8B5044600260020009000BF94F8240089
:103C0000012801D10220F8BD012084F8240000BF62
:103C10002046FCF739FF06462046FCF7A3FF064680
:103C2000002E69D1A06A20F4885040F00200A06202
:103C3000022001F0FDFC34490968B1FBF0F04000BE
:103C4000009002E00098401E009000980028F9D1F2
:103C50002068806840F008002168886000F07AFEE3
:103C6000054616E000F076FE401B0A2811D92068B0
:103C7000806800F0080060B1A06A20F0020040F007
:103C80001000A06200BF002084F8240000BF0120C3
:103C9000B9E72068806800F008000028E2D12068B9
:103CA000806840F004002168886000F053FE0546FB
:103CB00016E000F04FFE401B0A2811D920688068EA
:103CC00000F0040060B1A06A20F0020040F0100093
:103CD000A06200BF002084F8240000BF012092E70A
:103CE0002068806800F004000028E2D1A06A20F07B
:103CF000020040F00100A06200BF002084F8240010
:103D000000BF30467FE700000C00002038B50246B7
:103D100000230020009000BF92F82400012801D168
:103D2000022038BD012082F8240000BF486807281F
:103D300012D21068406B0C79641E04EB84051F24BA
:103D4000AC40A0430D796D1E05EB85050C68AC40B9
:103D500020431468606327E048680D2812D2106879
:103D6000006B0C79E41F04EB84051F24AC40A043D6
:103D70000D79ED1F05EB85050C68AC4020431468F8
:103D8000206311E01068C06A0C790D3C04EB8405D7
:103D90001F24AC40A0430D790D3D05EB85050C6853
:103DA000AC4020431468E06208680A2812D3106807
:103DB000C0680C780A3C04EB44050724AC40A043DF
:103DC0000D780A3D05EB45058C68AC40204314682E
:103DD000E0600FE0106800690C7804EB44050724EC
:103DE000AC40A0430D7805EB45058C68AC40204302
:103DF000146820610868102802D00868112827D1AB
:103E0000174C1068A0421ED11068806800F40000B2
:103E1000F0B91068806840F400001468A060086879
:103E2000102815D10F4800680F4CB0FBF4F000EBE0
:103E300080004000009002E00098401E0090009832
:103E40000028F9D104E0906A40F02000906201233C
:103E500000BF002082F8240000BF184661E7000080
:103E6000002401400C00002040420F0070477047C2
:103E7000704700002DE9F041044600270025002688
:103E8000A84614B90120BDE8F081A06810B1207DDA
:103E900000B100BFA06A30B90020E06284F82400BD
:103EA000204600F097F82046FCF7EEFD0746A06A92
:103EB00000F01000002873D1002F7ED1A06A20F4FA
:103EC000885040F00200A0623F4AD4E900019042CD
:103ED00008D1E069B0F5402F02D14FF4002002E094
:103EE000E06900E0E0690143207B41EA40000643CD
:103EF000A068B0F5807F02D0A068012802D14FF4FD
:103F0000807000E000200543207D012811D1207B36
:103F100038B9A069401E4FF4006141EA40300543C2
:103F200007E0A06A40F02000A062E06A40F00100D3
:103F3000E0622068406820F46940284321684860B6
:103F40002068806821490840304321688860A06863
:103F5000B0F5807F02D0A068012802D14FF48070B4
:103F600000E00020B0F5807F03D1208A401E4FEA98
:103F700000582068C06A20F4700040EA08002168F8
:103F8000C8622068806812490840B04209D1002008
:103F9000E062A06A20F0020040F00100A06211E09F
:103FA0000BE0A06A20F0020040F01000A062E06A7E
:103FB00040F00100E062012704E0A06A40F0100038
:103FC000A062012738465EE7003C0140FDF7E1FFB3
:103FD000FE0E1FFF10B586B004460020029003902D
:103FE000049005903D492068884275D100BF3C4847
:103FF000806940F400703A4988610846806900F49D
:104000000070019000BF00BF00BF0846406940F04B
:10401000010048610846406900F00100019000BFBE
:1040200000BF3048304908600020486000212E4819
:1040300081608021C16049000161890041612021C6
:1040400081610902C16100F017FA08B1FFF7CDFDE7
:1040500000BF25482062446200BF00BF204880693D
:1040600040F010001E4988610846806900F0100089
:10407000019000BF00BF00BF0846806940F0040007
:1040800088610846806900F00400019000BF00BF0D
:1040900000BF0846806940F00800886108468069D2
:1040A00000F00800019000BF00BF01200290032033
:1040B000039002A90D4800F09FFA102002900320FF
:1040C000039002A90A4800F097FA03200290039097
:1040D00002A9084800F090FA06B010BD0024014083
:1040E0000010024008000240600100200010014062
:1040F00000080140000C01402DE9F04104460D4646
:104100001646002757492068884203D05649206840
:10411000884205D15348001D006800F4702000E07B
:10412000002000287ED100BF94F82400012802D18D
:104130000220BDE8F081012084F8240000BF204661
:10414000FCF710FD0746002F6DD1A06A40F6016113
:10415000884340F48070A06243492068884209D1B6
:104160004048001D006800F4702008B9012002E0FA
:10417000002000E0012078B1A06A20F48010A06245
:104180002068406800F4806000B3A06A20F400500A
:1041900040F48050A06219E0A06A40F48010A06250
:1041A00030492068884203D02F492068884205D1D1
:1041B0002C48001D006800F4806000E0002028B159
:1041C000A06A20F4005040F48050A062A06A00F47D
:1041D000805020B1E06A20F00600E06201E000209B
:1041E000E06200BF002084F8240000BF1F48216A5D
:1041F00088621F48216AC8621E48216A08636FF0FE
:104200000200216808602068806840F4807021689E
:104210008860226802F14C0133462A46206A00F089
:1042200071F901E01AE014E02068806800F4602071
:10423000B0F5602F06D12068806840F4A0002168A6
:1042400088600CE02068806840F4801021688860F5
:1042500005E000BF002084F8240000E00127384674
:1042600067E700000024014000280140E50A00083B
:10427000550B0008370B00080146002291F8210079
:10428000022808D00420886300BF002081F82000A5
:1042900000BF012070470868006820F00E000B681E
:1042A00018600868006820F001000B68186091F839
:1042B000403001209840CB6B5860012081F82100EC
:1042C00000BF002081F8200000BF1046E2E7000098
:1042D00070B50446002594F82100022803D004207C
:1042E000A0630125C1E02068006820F00E0021686D
:1042F00008602068006820F00100216808605C49BF
:104300002068884252D95A4978392068884201D1B8
:10431000012047E0564964392068884201D11020C5
:1043200040E0534950392068884201D1801539E076
:104330004F493C392068884201D1801432E04C4911
:1043400028392068884202D14FF480302AE0484959
:1043500014392068884202D14FF4801022E0444989
:104360002068884201D140041CE04249206888420C
:1043700001D1012016E03F4914312068884201D163
:1043800010200FE03B4928312068884201D1801578
:1043900008E038493C312068884201D1801401E0AE
:1043A0004FF480303349091F086051E030497839B3
:1043B0002068884201D1012047E02D4964392068F6
:1043C000884201D1102040E02949503920688842B4
:1043D00001D1801539E026493C392068884201D155
:1043E000801432E0224928392068884202D14FF4F3
:1043F00080302AE01E4914392068884202D14FF4E7
:10440000801022E01A492068884201D140041CE053
:1044100018492068884201D1012016E0154914315D
:104420002068884201D110200FE01249283120680D
:10443000884201D1801508E00E493C31206888424D
:1044400001D1801401E04FF480300949803948607F
:10445000012084F8210000BF002084F8200000BF64
:10446000606B10B12046616B8847284670BD000024
:1044700080000240080402400146002209B90120E0
:1044800070471E4B086898420BD21D4B0868C01A33
:104490001423B0FBF3F08000086419480838C8639F
:1044A0000AE0164B0868C01A1423B0FBF3F0800032
:1044B000086412480838C863022081F8210008689F
:1044C000026843F6F0708243D1E901031843CB68D8
:1044D00018430B6918434B6918438B691843CB6920
:1044E000184302430868026000208863012081F8B5
:1044F0002100002081F8200000BFC1E7080402402D
:10450000080002402DE9F04104460D4616461F46BC
:104510004FF0000800BF94F82000012802D10220CB
:10452000BDE8F081012084F8200000BF94F821004C
:1045300001282CD1022084F821000020A0632068EB
:10454000006820F00100216808603B463246294699
:104550002046FFF78EF9E06A30B12068006840F02D
:104560000E00216808600BE02068006820F004005D
:10457000216808602068006840F00A00216808602F
:104580002068006840F001002168086006E000BF74
:10459000002084F8200000BF4FF002084046BFE72B
:1045A00070B5044600F0D6F906462546681C10B1E1
:1045B00004480078054400BF00F0CCF9801BA842F5
:1045C000FAD370BD0800002010B504462046FCF761
:1045D0002BFE2046FDF7BEF810BD000010B50446C6
:1045E00004480068204020B1024804602046FFF7DC
:1045F000EBFF10BD140401402DE9F84702460023EB
:104600009C467BE14FF0010808FA03F4D1F80080E2
:1046100008EA0400A0427DD1DFF8F4A2D1F80480BA
:10462000A8EB0A09D0453AD014DCB8F1030F50D0FA
:1046300009DCB8F1000F31D0B8F1010F1CD0B8F18E
:10464000020F49D120E0B8F1110F18D0B8F1120FC4
:1046500042D11EE0B9F5881F25D006DCB9F5803FB0
:1046600020D0B9F5801F37D11AE0B9F5001F18D056
:10467000B9F5041F30D117E0D1F80CC02DE0D1F806
:104680000C8008F1040C28E0D1F80C8008F1080C2B
:1046900023E0D1F80C8008F10C0C1EE000BF00BF35
:1046A00000BF00BF00BF00BFD1F80880B8F1000F05
:1046B00002D14FF0040C0BE0D1F80880B8F1010FE3
:1046C00003D14FF0080C146102E04FF0080C546164
:1046D00003E04FF0000C00E000BF00BFFF2801D84E
:1046E000904601E002F104084646FF2802D84FEA4E
:1046F000830803E0A3F108084FEA88084746D6F884
:1047000000804FF00F0909FA07F928EA09080CFAA6
:1047100007F900E07AE048EA0908C6F80080D1F815
:10472000048008F08058B8F1805F6FD100BFDFF8D7
:10473000E481D8F8188048F00108DFF8D891C9F86A
:104740001880C846D8F8188008F00108CDF8008015
:1047500000BF00BF4FEAB9384FEA930958F8295013
:104760004FEA83784FEA18794FF00F0808FA09F8F2
:1047700025EA0805DFF8A081424502D14FF0000884
:1047800024E0DFF89881424502D14FF001081DE096
:10479000DFF88C81424502D14FF0020816E0DFF8C5
:1047A0008481424502D14FF003080FE0DFF87881A1
:1047B000424502D14FF0040808E0DFF8708142451D
:1047C00002D14FF0050801E04FF006084FEA837967
:1047D0004FEA197908FA09F848EA0505DFF8508127
:1047E0004FEA930948F82950D1F8048008F480185A
:1047F000B8F5801F0BD1DFF83C81D8F8008048EA7B
:104800000008DFF83091C9F800800AE075E0DFF8B1
:104810002481D8F8008028EA0008DFF81891C9F848
:104820000080D1F8048008F40018B8F5001F0ED1FC
:10483000DFF8008108F10408D8F8008048EA000891
:10484000DFF8F09009F10409C9F800800DE0DFF805
:10485000E48008F10408D8F8008028EA0008DFF8AE
:10486000D49009F10409C9F80080D1F8048008F453
:104870000038B8F5003F0ED1DFF8B880A8F1040881
:10488000D8F8008048EA0008DFF8A890A9F10409E8
:10489000C9F800800DE0DFF89C80A8F10408D8F882
:1048A000008028EA0008DFF88C90A9F10409C9F813
:1048B0000080D1F8048008F48038B8F5803F0ED12C
:1048C000DFF87080A8F10808D8F8008048EA0008EE
:1048D000DFF86090A9F10809C9F800800DE0DFF861
:1048E0005480A8F10808D8F8008028EA0008DFF80A
:1048F0004490A9F10809C9F800805B1CD1F8008038
:1049000028FA03F8B8F1000F7FF47CAEBDE8F88711
:10491000000011100010024000080140000C01408E
:10492000001001400014014000180140001C01402B
:104930000800014008040140024693680B400BB197
:10494000012000E0002070470AB1016101E00B0482
:1049500003617047014800687047000000000020B4
:104960000148006870470000E8F7FF1F0148006831
:1049700070470000ECF7FF1F014800687047000017
:10498000F0F7FF1F70B504460CB9012070BD94F814
:104990003D0028B9002084F83C00204600F0DAFCF5
:1049A000242084F83D002068006820F00100216880
:1049B00008602068006840F40040216808602068B2
:1049C000006820F400402168086001F043F80546C3
:1049D0005C496068884206D85B48854201D2012064
:1049E00007E0002005E05948854201D2012000E09F
:1049F0000020012800D1C9E75548B5FBF0F6206832
:104A0000406820F03F003043216848604D496068AD
:104A1000884201D8701C07E04FF4967070434FF441
:104A20007A71B0FBF1F0401C2168096A21F03F0166
:104A300008432168086243496068884214D8681EA8
:104A400061684900B0FBF1F0401CC0F30B00042882
:104A500001D204203DE0681E61684900B0FBF1F01E
:104A6000401CC0F30B0034E0A06838B9681E6168D0
:104A700001EB4101B0FBF1F0401C0AE0681E6168E7
:104A800001EBC10202EB0111B0FBF1F0401C40F45C
:104A90008040C0F30B0008B901201AE0A06848B9B3
:104AA000681E616801EB4101B0FBF1F0401CC0F3EE
:104AB0000B000CE0681E616801EBC10202EB011102
:104AC000B0FBF1F0401CC0F30B0040F4804040F418
:104AD00000402168C9694CF6FF7291430843216880
:104AE000C861D4E9070108432168096821F0C001C1
:104AF000084321680860D4E90310084321688968E5
:104B000048F2FF329143084321688860D4E90501E7
:104B100008432168C96821F0FF0108432168C86083
:104B20002068006840F001002168086000202064CF
:104B3000202084F83D000020206384F83E0000BF60
:104B400024E70000A086010080841E0000093D00CB
:104B500040420F002DE9F84F04460F4690461E468E
:104B6000FFF7F8FE05464FF0000994F83D002028B5
:104B70007ED11923012263492046009502F0D1FE1F
:104B800010B10220BDE8F88F00BF94F83C00012866
:104B900001D10220F6E7012084F83C0000BF206824
:104BA000006800F0010028B92068006840F00100AA
:104BB000216808602068006820F4006021680860AF
:104BC000242084F83D00002020644F48E06200BFAC
:104BD0002068006840F48070216808603346002235
:104BE0004FF001112046009502F09BFE58B120685D
:104BF000006800F48070B0F5807F02D14FF400703F
:104C000020640320BEE707F0FE0021680861FFF77B
:104C1000A1FE054620684069C0F3400A206840694B
:104C2000C0F3802B10E0FFF795FE401BB04200D888
:104C300016B9A02084F83D0020684069C0F3400AFE
:104C400020684069C0F3802B94F83D00A02805D06F
:104C5000BAF1000F02D1BBF1000FE4D0202084F89C
:104C60003D0020684069C0F3400028B3206800E0A0
:104C700045E0006840F400702168086000BF002033
:104C8000009020684069009020688069009000BF13
:104C900000BF192301221B492046009502F041FE66
:104CA00008B101206EE7202084F83D0000BF0020FD
:104CB00084F83C0000BF65E72068006840F400709D
:104CC000216808606FF4806021684861192301221F
:104CD0000C492046009502F024FE08B1012051E75E
:104CE00009F10109C145FFF473AF202084F83D00AC
:104CF00000BF002084F83C0000BF012042E70220F2
:104D000040E70000020010000000FFFF2DE9F8431B
:104D10000446894616461F46DDF82080FFF71AFE36
:104D2000054694F83D0020287ED1192301225149DF
:104D30002046009502F0F5FD10B10220BDE8F88391
:104D400000BF94F83C00012801D10220F6E70120C1
:104D500084F83C0000BF2068006800F0010028B91A
:104D60002068006840F00100216808602068006841
:104D700020F4006021680860212084F83D001020A4
:104D800084F83E000020206466626785608D20857F
:104D90003948E0622B4642464946204602F00EFC66
:104DA00008B10120CAE700BF0020009020684069D8
:104DB000009020688069009000BF00BF44E02A4650
:104DC0004146204602F0CEFE50B1206C042805D1A9
:104DD0002068006840F40070216808600120ADE799
:104DE000606A007821680861606A401C6062608DBA
:104DF000401E6085208D401E208520684069C0F3DC
:104E0000800070B1208D60B1606A0078216808610F
:104E1000606A401C6062608D401E6085208D401E6F
:104E200020852A46414600E022E0204602F046FD69
:104E300050B1206C042805D12068006840F400704F
:104E400021680860012079E7208D0028B7D120680B
:104E5000006840F4007021680860202084F83D005C
:104E6000002084F83E0000BF84F83C0000BF65E7E6
:104E7000022063E7020010000000FFFF2DE9FE4F53
:104E800004460F4690469946DDE90CAB0E9E002085
:104E90000290FFF75FFD054694F83D00202872D18F
:104EA00019230122CE492046009502F03AFD10B1A7
:104EB0000220BDE8FE8F00BF94F83C00012801D11C
:104EC0000220F6E7012084F83C0000BF206800685B
:104ED00000F0010028B92068006840F00100216856
:104EE00008602068006820F40060216808602220C3
:104EF00084F83D00402084F83E0000202064C4F87F
:104F000024A0A4F82AB0608D2085B648E0624B4604
:104F1000424639462046CDE9006502F0AFFB08B1B4
:104F20000120C6E7208D88B900BF002001902068CD
:104F30004069019020688069019000BF00BF20682F
:104F4000006840F40070216808604BE0208D012863
:104F50001AD12068006820F480602168086072B669
:104F600000BF00200190206840690190206880699E
:104F7000019000BF00BF2068006840F40070216805
:104F8000086062B62EE029E1208D022819D1206840
:104F9000006840F400602168086072B600BF00201D
:104FA000019020684069019020688069019000BFED
:104FB00000BF2068006820F480602168086062B645
:104FC00010E02068006840F480602168086000BF3D
:104FD000002001902068406901902068806901905C
:104FE00000BF00BFEBE0208D03287DD8208D012875
:104FF00015D12A463146204602F06FFD08B1012046
:1050000057E720680069616A0870606A401C606246
:10501000208D401E2085608D401E6085CFE0208D54
:1050200002282CD1334600226F492046009502F019
:1050300078FC08B101203CE772B62068006840F4B3
:1050400000702168086020680069616A0870606A01
:10505000401C6062208D401E2085608D401E608552
:1050600062B620680069616A0870606A401C60620C
:10507000208D401E2085608D401E60859FE0334658
:10508000002259492046009502F04BFC08B101204E
:105090000FE72068006820F480602168086072B61D
:1050A00020680069616A0870606A401C6062208D37
:1050B000401E2085608D401E60854C480068192187
:1050C000B0FBF1F04FF47A71B0FBF1F0C0EBC0002F
:1050D00000EB8000029000BF0298401E02900298F0
:1050E000A8B90020206300E039E0202084F83D00CA
:1050F000002084F83E00206C40F02000206462B65E
:1051000000BF002084F83C0000BF0120D1E62068E9
:105110004069C0F380000028DED02068006840F4B9
:1051200000702168086020680069616A0870606A20
:10513000401C6062208D401E2085608D401E608571
:1051400062B620680069616A0870606A401C60622B
:10515000208D401E2085608D401E60852FE02A46F0
:105160003146204602F0B9FC08B10120A1E62068D2
:105170000069616A0870606A401C6062208D401E90
:105180002085608D401E608520684069C0F38000E6
:10519000A8B1208D032805D12068006820F4806024
:1051A0002168086020680069616A0870606A401CB4
:1051B0006062208D401E2085608D401E6085208DA0
:1051C00000287FF410AF202084F83D00002084F8F0
:1051D0003E0000BF84F83C0000BF6AE6022068E69B
:1051E000020010000000FFFF040001000C0000207E
:1051F0002DE9FC5F04460F4690469946DDE90CAB6D
:105200000E9EFFF7A7FB054694F83D0020287DD1B0
:10521000192301224D492046009502F082FB10B16E
:105220000220BDE8FC9F00BF94F83C00012801D19A
:105230000220F6E7012084F83C0000BF20680068E7
:1052400000F0010028B92068006840F001002168E2
:1052500008602068006820F4006021680860212050
:1052600084F83D00402084F83E0000202064C4F80B
:1052700024A0A4F82AB0608D20853548E0624B4612
:10528000424639462046CDE9006502F0A7FA08B14A
:105290000120C6E731E02A463146204602F062FC92
:1052A00050B1206C042805D12068006840F40070DB
:1052B000216808600120B4E7606A0078216808610D
:1052C000606A401C6062208D401E2085608D401EFB
:1052D000608520684069C0F3800070B1208D60B1A6
:1052E000606A007821680861606A401C6062208DF5
:1052F000401E2085608D401E6085208D0028CAD10B
:105300002A463146204602F0D9FA00E01CE050B1AE
:10531000206C042805D12068006840F400702168E2
:10532000086001207DE72068006840F40070216873
:105330000860202084F83D00002084F83E0000BF73
:1053400084F83C0000BF6CE702206AE7020010000E
:105350000000FFFF10B586B00446002002900390C5
:10536000049005902B492068884225D100BF2A4827
:10537000806940F00800284988610846806900F08B
:105380000800019000BF00BFC020029012200390CF
:105390000320059002A92148FFF72EF900BF1E48FF
:1053A000C06940F400101C49C8610846C06900F497
:1053B0000010019000BF2AE019492068884226D1D8
:1053C00000BF1548806940F008001349886108460D
:1053D000806900F00800019000BF00BF4FF44060FA
:1053E0000290122003900320059002A90B48FFF7BA
:1053F00003F900BF0848C06940F480000649C8614D
:105400000846C06900F48000019000BF00BF06B0EC
:1054100010BD00000054004000100240000C01408C
:1054200000580040034800680349097808440149CE
:1054300008607047000000200800002010B50848F0
:10544000006840F0100006490860032000F0DCF816
:10545000042000F007F800F05FF8002010BD000005
:10546000002002402DE9F04188B004460027B846EC
:10547000002600BF2348C06940F010002149C861E0
:105480000846C06900F01000019000BF00BF02A9EB
:1054900003A800F0B7FA069F1FB900F0DBFA054633
:1054A00002E000F0D7FA45001748B5FBF0F0A0F194
:1054B000010816481649086040F2E7311448C160F7
:1054C000C0F80480002101618160816101F07EF8F3
:1054D000064696B90E4801F0EBF806466EB936203E
:1054E00000F044F8102C07D200222146362000F0AC
:1054F0004DF80848046000E00126304608B0BDE8D9
:10550000F08100000010024040420F0000100040F7
:105510009C0400200400002008B500BF11488069E9
:1055200040F001000F4988610846806900F00100E1
:10553000009000BF00BF00BF0846C06940F0805027
:10554000C8610846C06900F08050009000BF00BFED
:1055500000BF0549486820F0E06040F000704860F6
:1055600000BF08BD0010024000000140014608468F
:10557000002809DB00F01F0301229A4043099B0029
:1055800003F1E023C3F8002100BF70472DE9F05F6D
:1055900080460D461646002703F044FB0746394671
:1055A0002A46334601F00700C0F1070ABAF1040F9A
:1055B00002D94FF0040A01E0C0F1070AD14600F118
:1055C000040ABAF1070F02D24FF0000A01E0A0F17D
:1055D000030AD4464FF0010A0AFA09FAAAF1010AAD
:1055E0000AEA020A0AFA0CFA4FF0010B0BFA0CFB5A
:1055F000ABF1010B0BEA030B4AEA0B0421464046D0
:1056000003F018FBBDE8F09F00BF00F00702064B57
:1056100019684FF6FF031940044B0B4343EA02217C
:10562000014B196000BF70470CED00E00000FA0567
:105630002DE9F04706464FF000080025002700241A
:10564000A146042E37D004DC012E3CD0022E6CD1B2
:1056500060E0082E33D0102E67D1364844680068C9
:1056600000F0807008B33448C4F38341475C04F40D
:10567000803078B12F484068C0F340402F4911F87E
:10568000008004F4803040B12D48B0FBF8F000FBFE
:1056900007F502E02B4807FB00F52648406800F4B8
:1056A0008000B0F5800F01D1A94603E06800032116
:1056B000B0FBF1F93AE000F0EDF9814636E000F098
:1056C000E9F9814632E01B48046A04F44070B0F501
:1056D000807F05D104F0020010B14FF4004918E0BA
:1056E00004F44070B0F5007F07D11248406A00F022
:1056F000020010B149F640490BE004F44070B0F5E7
:10570000407F06D10B48006800F4003008B14FF22A
:1057100024490BE000F0AEF906494968C1F3813134
:10572000491C4900B0FBF1F900E000BF00BF48464A
:10573000BDE8F0870010024096CF0008A6CF000811
:1057400000127A0000093D00F8B504460026002545
:10575000207800F0010000286BD000274348C06982
:1057600000F0805070B900BF4048C06940F08050E0
:105770003E49C8610846C06900F08050009000BFF3
:1057800000BF01273A48006800F48070B0B938487B
:10579000006840F4807036490860FFF7DBF8064681
:1057A00006E0FFF7D7F8801B642801D90320F8BD75
:1057B0002F48006800F480700028F2D02B48006A5F
:1057C00000F440752DB3A08800F44070A84220D0AA
:1057D0002648006A20F44075012026490860002010
:1057E00008602248056205F0010090B1FFF7B2F8A9
:1057F000064608E0FFF7AEF8801B41F28831884288
:1058000001D90320D3E71948006A00F002000028FC
:10581000F0D01648006A20F44070616808431349CC
:105820000862012F04D10846C06920F08050C86189
:1058300000BF207800F00200022807D10B48406822
:1058400020F44040A168084308494860207800F0EF
:105850001000102807D10548406820F480006169D5
:105860000843024948600020A1E700000010024000
:10587000007000404004424270B504460D460CB929
:10588000012070BD5A48006800F00700A8420ED2FF
:105890005748006820F0070028435549086008462B
:1058A000006800F00700A84201D00120E9E7207855
:1058B00000F0020002281DD1207800F00400042826
:1058C00005D14C48406840F4E0604A49486020787F
:1058D00000F00800082805D14648406840F46050B0
:1058E000444948604348406820F0F000A1680843FC
:1058F00040494860207800F0010078B360680128D2
:1059000006D13C48006800F4003090B90120B8E7A7
:105910006068022806D13748006800F0007040B97E
:105920000120AEE73348006800F0020008B901200A
:10593000A7E73048406820F00300616808432D491C
:105940004860FFF707F8064609E0FFF703F8801BF9
:1059500041F28831884202D9032092E707E02548C6
:10596000406800F00C006168B0EB810FEDD1204879
:10597000006800F00700A8420ED91D48006820F01A
:10598000070028431A4908600846006800F007002D
:10599000A84201D0012074E7207800F00400042818
:1059A00007D11448406820F4E060E16808431149D9
:1059B0004860207800F00800082808D10D484068A9
:1059C00020F46050216940EAC1000A49486000F0B3
:1059D00061F808494968C1F30311074A515CC8409E
:1059E0000649086006480068FFF73CFD002048E7CC
:1059F0000020024000100240A8CF00080C00002048
:105A0000040000200F2202600D4A526802F00302D7
:105A100042600B4A526802F0F0028260084A526803
:105A200002F4E062C260064A526802F46052D20890
:105A30000261044A126802F007020A60704700001F
:105A4000001002400020024001480068704700003A
:105A50000C00002000B5FFF7F7FF04494968C1F3C7
:105A60000221034A515CC84000BD00000010024002
:105A7000B8CF000800B5FFF7E7FF04494968C1F354
:105A8000C221034A515CC84000BD00000010024022
:105A9000B8CF000870B500210022002400230020A8
:105AA000134D696801F00C05F5B1042D02D0082DE5
:105AB00019D101E00F4819E00F4DC1F38346AB5DEA
:105AC00001F4803555B10A4D6D68C5F340450B4E64
:105AD000725D084D5D43B5FBF2F402E0084D03FB37
