:020000040800F2
:10000000A08E0020E1010008AD680008F35A000846
:10001000A968000885270008457000080000000056
:10002000000000000000000000000000490100087E
:10003000D7270008000000008D010008D9680008DB
:10004000FB010008FB010008FB010008FB010008A0
:10005000FB010008FB010008FB010008FB01000890
:10006000FB010008FB010008A52A0008D5270008AD
:10007000FB010008FB010008FB010008FB01000870
:10008000FB010008FB010008FB010008FB01000860
:10009000FB010008FB010008FB010008AF2A000873
:1000A000FB010008FB010008FB010008FB01000840
:1000B000FB010008FB010008FB010008FB01000830
:1000C000FB010008FB010008FB010008FB01000820
:1000D000FB010008FB01000835700008FB01000867
:1000E000992A0008FB010008FB010008FB01000839
:1000F000FB010008FB010008FB010008FB010008F0
:10010000FB010008FB010008FB010008FB010008DF
:10011000A16C0008FB01000891690008FB010008C0
:10012000FB010008FB010008FB010008FB010008BF
:10013000DFF810D000F0FEFB00480047197C0008F3
:10014000AFF30080A08E0020224B19680868B0E849
:10015000F00F80F30988BFF36F8F4FF0000080F33A
:1001600011884EF00D0E7047000000000648006830
:10017000006880F3088862B661B6BFF34F8FBFF3A3
:100180006F8F00DF00BF00BF08ED00E0EFF30980D4
:10019000BFF36F8F0F4B1A6820E9F00F106008B59E
:1001A0004FF0500080F31188BFF34F8FBFF36F8F74
:1001B00009F03EFD4FF0000080F31188BDE80840D3
:1001C00019680868B0E8F00F80F30988BFF36F8FF3
:1001D000704700BF7C000020EFF3058070470000EF
:1001E0000648804706480047FEE7FEE7FEE7FEE7D1
:1001F000FEE7FEE7FEE7FEE7FEE7FEE78F690008A1
:10020000310100082DE9F05F0546002092469B462B
:1002100088460646814640241BE02846414647461C
:10022000224600F020F853465A46C01A914110D396
:1002300011461846224600F07FF92D1A67EB010897
:100240004F4622460120002100F076F917EB000905
:100250004E41201EA4F10104DFDC484631462A4607
:100260004346BDE8F09F202A04DB203A21FA02F041
:100270000021704721FA02F3D040C2F120029140E0
:1002800008431946704740EA01039B0703D009E081
:1002900008C9121F08C0042AFAD203E011F8013B72
:1002A00000F8013B521EF9D27047D2B201E000F8CB
:1002B000012B491EFBD270470022F6E710B513460A
:1002C0000A4604461946FFF7F0FF204610BD421CBF
:1002D00010F8011B0029FBD1801A7047F0B480EAA6
:1002E0000102D40F4200B2EB410F02D2024608468F
:1002F00011464A0042D0C30DDDB2C1F3C752AD1A58
:10030000202D35DAC1F3160141F4000204B1524246
:10031000C5F1200602FA06F12A411044B3EBD05F82
:1003200023D0C4B1012DA0EBC35009DCF0BC4FF0C9
:10033000004202EAC352DBB200F5000000F014B93B
:10034000400000F1807000EBC350A0F1807040EAE3
:10035000D170490009E0490841EAC071A0EBC350DF
:1003600000F50000400800EBC350F0BC00F0F3B80B
:100370006142012202EB4101001BF6E7F0BC70472D
:1003800081F00041AAE780F00040A7E780EA01027F
:1003900010B502F00043400022D04A001FD0010EE9
:1003A00001EB1261C0F35600C2F3560240F40000A4
:1003B00042F40002A0FB022000047F39140400D0A4
:1003C000401C50EA124001D44000491EC2B20C0643
:1003D00004EBD010401C4008802A02D003E000202B
:1003E00010BD20F00100002900DA0020184310BDE4
:1003F00030B480EA010202F0004530F0004221F002
:10040000004013D090B1C30DD40DC2F31601C0F358
:100410001600E41A41F4000140F400027D349142D8
:1004200001D3641C00E04900002C02DA30BC00203B
:1004300070474FF400000023914201D3891A03430F
:1004400040084FEA4101F7D151B1914202D14FF03A
:10045000004105E002D24FF0010101E06FF001011F
:1004600003EBC450284430BC00F075B8C10F80EADB
:10047000E0700844CA079623002100F075B896235F
:100480000022114600F070B800F0004220F0004059
:10049000C10DC0F3160040F400007F2901DA0020EE
:1004A0007047962903DCC1F19601C84001E09639F6
:1004B0008840002AF4D04042704720F00040C10D2F
:1004C000C0F3160040F400007F2901DA00207047D5
:1004D000962903DCC1F19601C840704796398840DF
:1004E00070470000002801DBC0F10040002901DB5B
:1004F000C1F1004181427047002801DBC0F100409A
:10050000002901DBC1F100418842704730B50B463C
:10051000014600202022012409E021FA02F59D4233
:1005200005D303FA02F5491B04FA02F52844151E07
:10053000A2F10102F1DC30BD202A04DB203A00FAEE
:1005400002F1002070479140C2F1200320FA03F32A
:100550001943904070470029A8BF7047401C4900CC
:1005600008BF20F00100704710B4B0FA80FC00FA18
:100570000CF050EA010404BF10BC704749B1CCF143
:10058000200421FA04F411FA0CF118BF01212143CF
:100590000843A3EB0C01CB1D4FEA00614FEA10208A
:1005A00042BF002010BC704700EBC350104400292C
:1005B000A4BF10BC7047401C490008BF20F00100D8
:1005C00010BC70472DE9FE4F804681EA0300C00F42
:1005D0000C46009021F0004123F00045B8EB0200EA
:1005E000A94105D24046214690461C460B4602468C
:1005F00023F00040104347D0270DC7F30A00C3F390
:100600000A510290401A019040286BDAC3F313009C
:1006100040F4801B0098924620B10023D2EB030ADD
:1006200063EB0B0B01985946C0F140025046FFF7AF
:1006300083FF06460D4650465946019A00F08CF954
:1006400010EB08006141002487EA115284EAE77345
:100650001A4340D0009A62B3019A012A4FEA075226
:1006600015DC001B61EB02014FF0004202EA075269
:10067000CDE90042001C41F5801132462B4600F0C6
:100680008CF903B0BDE8F08F40462146F9E7001B26
:1006900061EB0201001C41F5801300185B4120183A
:1006A000A2F5001747EB030140EAD570B6196D417A
:1006B00011E06D084FEA360645EAC0754FEA075269
:1006C000001B61EB0201001C41F5801149084FEA53
:1006D00030000019514132462B4603B0BDE8F04FBF
:1006E00000F04CB90098012240000023D0EB020238
:1006F00063EBE073009821464FEAE074B8EB00002A
:1007000061EB0401E9E783F000435BE781F000411E
:1007100058E72DE9FE4F81EA030404F0004421F07C
:10072000004100944FF0000B23F0004350EA010415
:100730005ED052EA03045BD0C3F30A54C1F30A55F6
:100740002C44A4F2F3340194A0FB0254C1F313012E
:1007500041F48011C3F3130343F4801301FB0244FB
:1007600000FB034E840A970A44EA815447EA835700
:10077000A4FB076802958D0A05FB07854FEA932CB9
:1007800004FB0C542705029D4FEA065847EA16372A
:10079000B5EB08056EEB070C870E920E47EA811742
:1007A00042EA8312A7FB0201B6EB0B0164EB0004E3
:1007B0002B0D43EA0C335E1844EB1C50DA465146CD
:1007C000E7FB0201C5F313044FEA0B3343EA14536A
:1007D0004FEA0432019C43EA0603A4F10C0402949C
:1007E000009CCDE900B400F0D8F803B0BDE8F08F6C
:1007F00000200146F9E72DE9F04D81EA030404F0F9
:10080000004B21F0004514464FF0000A23F0004150
:1008100050EA050220D054EA01021DD0C5F30A5760
:100820000246C5F31303C1F31300C1F30A5640F4A3
:10083000801543F48013A7EB0608101BD64608F278
:10084000FD3873EB050002D308F1010801E09218AE
:100850005B41B8F1000F03DA00200146BDE8F08DDE
:1008600000204FF48011064684460EE0171B73EB00
:10087000050705D3121B63EB050306434CEA010C85
:1008800049084FEA300092185B4150EA0107EDD168
:1008900052EA030012D082EA040083EA0501084309
:1008A00005D0101BAB4106D20122002306E0002236
:1008B0004FF0004302E06FF0010253101AEB060004
:1008C0004CEB085110EB0A0041EB0B01BDE8F04D79
:1008D00000F054B8C1F30A52C1F3130140F2FF33E0
:1008E00041F480119A4202DA00200146704740F23A
:1008F00033439A42A2F2334202DC5242FFF7B3BCC6
:10090000FFF71ABE30B5041E71F1000404DB4FF08E
:100910000044404264EB0101141E73F1000405DB46
:100920001C464FF00043524263EB0403994208BF58
:10093000904230BD064C074D06E0E06840F00103F0
:1009400094E8070098471034AC42F6D3FFF7F4FB65
:10095000F0C5000810C60008202A06DBCB17203A95
:1009600041FA02F043EAE07306E041FA02F3D040B4
:10097000C2F12002914008431946704710B5141E79
:1009800073F1000408DA401C41F1000192185B4148
:100990001A4301D120F0010010BD2DE9F04D92461F
:1009A0009B4611B1B1FA81F202E0B0FA80F2203236
:1009B0009046FFF7C1FD04460F4640EA0A0041EAAF
:1009C0000B0153465A46084313D0114653EA01001F
:1009D00019D0C8F140025046FFF745FC05460E46C7
:1009E000504659464246FFF7A7FD084305D001206F
:1009F00004E020463946BDE8F08D0020054346EA74
:100A0000E0762C4337430A986305E40AA0EB08001C
:100A10000022FD0A44EA47540A3002D5002001466C
:100A2000E9E7010510196941DDE908450019694147
:100A3000BDE8F04DA2E770B5044600252068806847
:100A400000F0010018B32068806820F001002168E0
:100A5000886002F0CBFC054613E002F0C7FC401BA7
:100A600002280ED92068806800F0010048B1A06A11
:100A700040F01000A062E06A40F00100E062012056
:100A800070BD2068806800F001000028E5D10020DA
:100A9000F6E7000008B51148007808B1012008BD4C
:100AA00041F294100E490968486300F057F80D4868
:100AB00000231A46322100900BA00AF059F90C4984
:100AC00008600846006808B90020E8E700200949E6
:100AD000087001200149087000BFE0E71400002001
:100AE00028020020F90A000842757A7A657200002F
:100AF000100000201500002010B5044602480078C0
:100B000008B900F02BF810BD1500002010B541F217
:100B100094100449096848630021024804F038FC35
:100B200010BD00002802002010B50B48007800B965
:100B300010BDFFF7EBFF502002F086FA00F00EF830
:100B4000282002F081FAFFF7E1FF502002F07CFA42
:100B500000F004F800BFEBE71400002010B50021FE
:100B6000014804F08FFC10BD2802002070B5044637
:100B70002046FFF7ACFB85B2C8232A46214602482F
:100B800004F057FF70BD00009003002070B50546CB
:100B90004FF0FF3001F0FCF900B970BD2A48007831
:100BA00080B92A48B0F902004419002C01DA002467
:100BB00004E0B4F5004F01DB47F6FF7420B223498F
:100BC00048803AE020480078012810D11F48B0F949
:100BD00006004419002C01DA002404E0B4F5004FAB
:100BE00001DB47F6FF7420B21849C88025E016489B
:100BF0000078022821D1002D0EDA6E421348C06819
:100C0000B04205D91148C068801B1049C86014E083
:100C100000200E49C86010E02E460C48C068C6F19E
:100C2000FF31884205D80948C06830440749C86088
:100C300003E04FF0FF300549C86001F0BDF901F055
:100C4000C5F800BFA9E700001900002068040020D3
:100C500010B54FF0FF3001F09BF900B910BD0B4803
:100C6000007C02280DD00A480078094948700846DF
:100C70000078401C0321B0FBF1F201FB1200044993
:100C8000087001F099F900BFE8E70000680400204F
:100C90001900002010B54FF0FF3001F079F900B9CC
:100CA00010BD0848007C022806D0002005490862D3
:100CB000886008740449087001F07EF901F086F834
:100CC00000BFEDE7680400201800002010B50446BE
:100CD00014B12078042800DB10BD204600F044F851
:100CE000207830B101280AD0022818D0032834D146
:100CF00027E06078012801D1FFF7AAFF2EE0607895
:100D0000012802D1FFF742FF08E06078022802D0F4
:100D10006078032802D10520FFF738FF1EE06078D5
:100D2000012803D1801EFFF731FF09E06078022817
:100D300002D06078032803D16FF00400FFF726FF8C
:100D40000CE06078012802D100F05AF804E06078E5
:100D5000022801D1FFF79EFF00E000BF00BF01F0B5
:100D60007FF900BFB8E7000010B5044614B1607801
:100D7000032800D110BD6078012807D12078431CDA
:100D8000182208A10CA001F0FFFC09E060780228FD
:100D900006D12078431C1C2202A10DA001F0F4FC16
:100DA00000BFE7E7557365725C4170705C4170701D
:100DB0005F6B65792E6300005B25733A25645D4B9C
:100DC000455925752073686F72740D0A0000000084
:100DD0005B25733A25645D4B45592575206C6F6E14
:100DE000670D0A0008B500BF684601F0B7FD10B1F5
:100DF0006846FFF76BFF0A2008F0B4FDF4E7000037
:100E000010B54FF0FF3001F0C3F800B910BD144821
:100E1000007C022820D01248007C012805D1002047
:100E20000F4908740F49087016E00D48C06898B162
:100E300001200B4908740B4908700948806828B1E3
:100E40000748006A0649C968884205D3002004495A
:100E500008620846C068886001F0AEF800BFD5E7B8
:100E600068040020180000202DE9F041064600210A
:100E70003046FFF737FB03D800F040F9BDE8F081BA
:100E80001B493046FFF72EFB00D2194E4FF07E5122
:100E90003046FFF731FB01D24FF07E56154800680F
:100EA000C06A441C2046FFF7EAFA80463146FFF745
:100EB0006DFA0746FFF701FB0546A54200D3651E04
:100EC00000224FF400710C4802F08AFA0B480078B7
:100ED00030B90821074804F05BFA0120074908707F
:100EE00004480068C5630648066000BFC6E7000006
:100EF0000AD7A33D00030020000C01405C00002045
:100F00005800002070B504460025681E01F040F826
:100F100070B10848007C012808D10648B0F90600E5
:100F2000002803DD2046FFF79FFF012501F044F86C
:100F3000284670BD680400201CB50020022103462D
:100F40004FF4A072CDE9001002A1044809F0A4FA00
:100F50001CBD00004D6F746F720000003911000855
:100F600010B53C21094803F0D5FF08B1002010BDA1
:100F7000002006490968486205490860054908706B
:100F800000F0A4F800F0BAF80120F0E7B802002061
:100F9000480000205C0000202DE9FE4F8046894675
:100FA00049464046FFF7ECF904463B492046FFF727
:100FB000EDF98246394801685046FFF78FF9374905
:100FC000086008683649FFF797FA03D23448334976
:100FD000086008E0314908683249FFF783FA02D215
:100FE00030482E4908602D4841682046FFF7C8F96F
:100FF00082462949FFF7FCF9064631460020FFF7F3
:10100000C5F90290254801682748FFF7BFF9214636
:1010100001904FF08240FFF7B9F900900199FFF776
:101020005DF983460299FFF759F982461F49FFF798
:10103000DFF905461E494046FFF7A8F907461D4956
:101040003846FFF759FA00D21A4F1B492846FFF7D6
:1010500053FA01D2184D05E018492846FFF742FA25
:1010600000D2164D29463846FFF738F907460B4897
:10107000446000213846FFF735FA01D2002707E027
:101080004FF07E513846FFF737FA01D24FF07E57C6
:101090003846BDE8FE8F0000CDCC4C3D400000201E
:1010A00000004844000048C4CDCC4C3F00401C46E2
:1010B000D66EBB3A6666663FCDCCCC3DCDCCCCBDC2
:1010C00001480068406A7047B802002000200649C5
:1010D00008604860054908600549087005490860CE
:1010E0000549086070470000400000204C000020C7
:1010F00050000020540000205800002010B50020AF
:1011000009490968C8630821074804F0BBF90022AF
:101110004FF40071054802F063F90020044908709B
:101120000449086010BD000000030020000C0140CD
:101130005C000020580000200EB5FFF7C1FF0446F8
:101140003A480460FFF7C2FF09F0C8FA814600BFC1
:101150000026B046701E00F01BFF48B13448067CE4
:101160000146B1F90600FFF781F9804600F024FF3F
:10117000FFF7A6FF04462D480088201A05B22B4829
:101180000460284600F08CF88346012E12D100211D
:101190004046FFF7B1F90DD259464046FFF7FCFE35
:1011A00002900298FFF7AEFE40B9FFF78FFFFFF7FE
:1011B000A5FF03E0FFF78AFFFFF7A0FF4FF07C5188
:1011C0005846FFF78BF88246FFF75EF907B2012E0B
:1011D00004D100214046FFF785F900D800273846A2
:1011E00000F046F8012E1DD109F078FAA0EB0900B5
:1011F000B0F57A7F16D309F071FA81460D490E4891
:101200000068FFF7C3F80090FFF757F982464046A1
:10121000FFF73AF953463A460146CDE9005007A098
:1012200001F0B2FA322008F09DFB91E7480000205F
:10123000680400200000C842580000204D4F544F61
:1012400052207461726765743A2564206375727206
:10125000656E743A256420647574793A2575252580
:101260002064656C74613A256C640D0A000000000E
:1012700010B504464FF0FF3000F08AFE58B1074821
:10128000007C012802D10548848002E00020034947
:10129000888000F091FE00F0E3FE10BD680400209D
:1012A0002DE9F041044619480068204417490860B8
:1012B00017480078401C164908700846007808282E
:1012C0001FD3144D11480068FFF7D0F807461249A4
:1012D000FFF78EF806462946FFF78AF80F4908609F
:1012E00000210E480068FFF7FDF805D20B480068A2
:1012F00080F0004009490860002004490860044962
:10130000087006480068BDE8F08100004C0000202D
:10131000500000200E74DA3B0000484154000020C9
:1013200070B504460D4634B12246294603A001F0AB
:101330002BFA002070BD0120FCE70000535344311C
:10134000333135202573206661696C65643A202548
:10135000750D0A000FB400B5A9B02BA80090A0210C
:1013600001A8009B2A9A05F089FE0020009001A99F
:1013700002A001F009FA29B05DF814FB2573000002
:101380002DE9F041044609F099F902280ED14FF4F5
:101390007A70A4FB006001464FF47A720023304655
:1013A000FEF730FF054608F0DDFA02E0204601F0C6
:1013B0004BFEBDE8F08100207047002070470246D8
:1013C00000207047014600207047024622B1107885
:1013D000884201D13E2070472020FCE70020704762
:1013E00010B501F081F808B9012010BD0020FCE71C
:1013F0002DE9F04107460E4615461C460DB1802CDE
:1014000002D90120BDE8F08109480670224629462C
:10141000401CFEF738FF601C82B264230449384642
:1014200001F0C4F808B10120ECE70020EAE7000071
:10143000C808002010B586B08CA103C9CDE904010D
:1014400014220321782001F06FF818B97820894917
:1014500008700FE0142203217A2001F065F818B912
:101460007A208449087005E083A001F08DF90020FE
:1014700006B010BD40F23C418648FEF71DFF86488D
:101480008449086085484860854888608548C86008
:101490008548086185484861824888618248C861FA
:1014A000834808627F4848627F4888628048C862F3
:1014B00080484863804808630021764807F05FFF52
:1014C0006C480178734807F0E7FD724807F0D8FBD5
:1014D00004467AA1FFF724FF08B90020C8E70021DD
:1014E0006C4807F054FE044676A1FFF719FF002868
:1014F0007ED000220821674807F062FE044674A1EE
:10150000FFF70EFF0028F3D03F21624807F058FF95
:10151000044671A1FFF704FF0028E9D000215D48CF
:1015200007F0BAFE04466FA1FFF7FAFE002877D055
:101530000021584807F0E0FE04466CA1FFF7F0FEDA
:1015400000286DD002220121524807F0ADFD04466B
:1015500069A1FFF7E5FE002862D001214D4807F0A0
:10156000E0FF044667A1FFF7DBFE002858D0012109
:10157000484807F0BDFF044664A1FFF7D1FE0028EC
:101580004ED000220121434807F0B1FD044661A17D
:10159000FFF7C6FE002843D0FF213E4807F0C5FDF7
:1015A00004465FA1FFF7BCFE002839D00F220121BD
:1015B000384807F04FFF04465CA1FFF7B1FE002852
:1015C0002ED00321334807F0C8FD04465AA1FFF787
:1015D000A7FE68B100212F4807F0B8FE044659A1C4
:1015E000FFF79EFE20B102212A4807F0D0FE00E05E
:1015F00016E0044657A1FFF793FE88B10021254865
:1016000007F030FE044657A1FFF78AFE40B10121E2
:10161000204807F0BCFD044656A1FFF781FE08B93B
:10162000002025E71B4807F0E3F9044654A1FFF723
:1016300077FEA0B110200121052204ABCDE90021E5
:10164000029018222C21134807F0B8FA38B9114833
:1016500007F042FA04464CA1FFF762FE08B90020E9
:1016600006E74BA001F090F8012001E74179616E97
:1016700067000000380000205353443133313520D7
:101680006E6F7420666F756E64206F6E20493243F2
:10169000310D0A008C040020E1130008DD1300085E
:1016A000F1130008BB130008B7130008BF130008AC
:1016B000C51300088113000855130008696E69748A
:1016C00000000000646973706C6179206F666600C9
:1016D000636C6F636B0000006D756C7469706C6592
:1016E000780000006F666673657400007374617241
:1016F00074206C696E6500006368617267652070B4
:10170000756D70007365676D656E74007363616EEF
:1017100000000000636F6D2070696E7300000000B0
:10172000636F6E74726173740000000070726563A1
:101730006861726765000000646573656C65637459
:1017400000000000656E7469726520646973706CD6
:101750006179000061646472657373206D6F646504
:1017600000000000646973706C6179206D6F6465BE
:1017700000000000646973706C6179206F6E000076
:10178000636C6561720000007570646174650000CF
:10179000535344313331352072656164792C2064B0
:1017A0006973706C6179204179616E672061742082
:1017B00063656E7465720D0A00000000014621B178
:1017C000012904D0022906D103E004A0704705A036
:1017D000FCE706A0FAE707A0F8E7000049444C45FB
:1017E0000000000052554E4E494E47004641554CB0
:1017F00054000000554E4B4E4F574E00F0B589B087
:1018000004460E46554890F83800012801D104B12D
:1018100016B9002009B0F0BD4FF480614F483B304D
:10182000FEF74AFDE06900904DA2182103A8A369C4
:1018300005F00AFC03A8FEF74AFD05460C2101222B
:10184000A8B203ABCDE90121009000221146434824
:1018500007F0B4F900213046FFF7B7FD0746B4F9A9
:101860000200B4F900103B4641A2CDE90010182156
:1018700003A805F0E9FB03A8FEF729FD05460C21A6
:101880000122A8B203ABCDE9012100900A46002154
:10189000324807F093F901213046FFF796FD0746DD
:1018A000B4F90600B4F904103B4635A2CDE90010A6
:1018B000182103A805F0C8FB03A8FEF708FD05469C
:1018C0000C210122A8B203ABCDE90121009018221E
:1018D0000021224807F072F902213046FFF775FD1A
:1018E0000746E168206A3B4629A2CDE9000118219C
:1018F00003A805F0A9FB03A8FEF7E9FC05460C21A7
:101900000122A8B203ABCDE90121009024220021DD
:10191000124807F053F9207CFFF750FF07463B467B
:101920001FA2182103A805F08FFB03A8FEF7CFFC28
:1019300005460C210122A8B203ABCDE9012100909C
:1019400030220021054807F039F9044807F0C4F8AF
:1019500008B901205EE700205CE700008C0400204D
:1019600049443A2530386C582530386C580000000E
:10197000256354454D503A25642F256443000000EB
:10198000256353504545443A25642F2564000000E3
:10199000256354494D453A256C752F256C757300A8
:1019A000205354415455533A2573000000B587B075
:1019B00000F01CFF18B105A800F023FF38B90B2276
:1019C0000FA114A000F0E0FE002007B000BD9DF8BC
:1019D00014009DF815109DF816209DF81830CDE9DB
:1019E0000132CDE903109DF819000090BDF81A30BE
:1019F0000F2203A10EA000F0C7FE0120E5E70000C2
:101A0000557365725C4170705C4170705F72746395
:101A10002E6300005B25733A25645D4453333233F3
:101A20003120696E6974206661696C65640D0A0015
:101A30005B25733A25645D4453333233312072653C
:101A400061647920253034752D253032752D25308F
:101A5000327520253032753A253032753A253032CC
:101A6000750D0A0000BF0024601E00F091FA18B343
:101A70001848007C01281DD116488068D0B115484F
:101A80008068401E134988600846006AC968884219
:101A900004D21048006A401C0E4908620D48806854
:101AA00040B90C48C0680B490862002008740A4914
:101AB0000870012400F080FA2CB14FF4B27207A133
:101AC0000BA000F061FE00F0CBFA4FF47A7007F043
:101AD00049FFC8E7680400201800002055736572AC
:101AE0005C4170705C4170705F6D61696E2E630067
:101AF0005B25733A25645D52756E20636F6D706C63
:101B00006574652C2072657475726E20746F20493F
:101B1000444C450D0A00000010B5044608F0CEFD07
:101B200002280DD1C01E00F033FA80B12088084988
:101B300048806088C8806068C86000F03DFA06E0B0
:101B40002088034948806088C8806068C86010BDEC
:101B50006804002030B502460B464FF6FF700021A6
:101B600018E0555C80EA052000240FE000F40045F1
:101B70002DB141F2210585EA4005ADB203E04FF6F3
:101B8000FF7505EA40052846651CECB2082CEDD32C
:101B90004D1CA9B29942E4DB30BD70B505460C4638
:101BA000A81D00F03DF800B2208005F1080000F00B
:101BB00037F800B2608005F10A0000F037F8606085
:101BC00070BD2DE9F04105460E46144642F204016F
:101BD000204600F07FF84FF48071A01C00F07AF8E6
:101BE0003146201D00F076F8288881B2A01D00F053
:101BF00071F8688881B204F1080000F06BF804F114
:101C00000A00696800F06AF80E212046FFF7A2FF7B
:101C10000746394604F10E0000F05CF8BDE8F0819B
:101C2000014608784A7840EA022070470146087861
:101C30004A7840EA02208A7840EA0240CA7840EABC
:101C4000026070470EB504F097FA80B901201D4973
:101C5000087000201C490880488048601B480A46DC
:101C600006CA06C000201A49088002200EBD694637
:101C700001A800F03BF880B901201249087000204B
:101C8000114908804880486010480A4606CA06C0C4
:101C900000200F4908800120E8E701A8FFF73CFF7A
:101CA0000948DDE9011206C00848DDE9011206C055
:101CB000BDF80000401C0649088001200149087059
:101CC0000020D3E736000020240000202C00002054
:101CD0003400002001700A124270704701700A0A35
:101CE00042700A0C82700A0EC27070472DE9F043F0
:101CF00089B007460C46102205A9002004F047FAD7
:101D000008B1012000E000200546102201A910467C
:101D100004F03DFA08B1012000E0002006461DB1A4
:101D200005A800F031F800E0002005461EB101A82A
:101D300000F02AF800E00020064625B91EB9002070
:101D400009B0BDE8F083ADB15EB102A8FFF768FF4E
:101D5000804606A8FFF764FF8146414600F03CF844
:101D600040B1394605A8FFF718FF06A8FFF758FF4E
:101D7000208007E0394601A8FFF70FFF02A8FFF710
:101D80004FFF20800120DBE770B504462046FFF7B7
:101D900047FF42F20401884201D0002070BDA01C20
:101DA000FFF73EFFB0F5807F01D00020F6E704F199
:101DB0000E00FFF735FF05460E212046FFF7CAFE4D
:101DC000A84201D10120E9E70020E7E7012001490D
:101DD00008707047370000200246501A00B20028F1
:101DE00001DD012070470020FCE70246B2F9000047
:101DF000B1F9003098420BD1B2F90200B1F90230CA
:101E0000984205D150684B68984201D10120704733
:101E10000020FCE71FB5002508F060FC044600BF69
:101E20002D480078002853D0002000F0B1F8002899
:101E30004ED02A484088ADF808002848C088ADF840
:101E40000A002648C068039000F0B6F8244902A8AA
:101E5000FFF7CBFF58B92248DDE9021206C0DDE9E1
:101E60000201CDE9000108F039FC044601251D48B6
:101E7000007850B1DDE90201CDE9000108F02EFC47
:101E8000044601250020174908700DB308F026FC10
:101E9000001B41F2883188421AD313496846FFF784
:101EA000A4FF08B1002513E010480188684600F03F
:101EB0001FF850B10C48DDE9001206C00B4800883D
:101EC000401C0A490880002502E008F007FC04468F
:101ED000642007F047FDA3E73600002068040020D7
:101EE00024000020370000202C00002034000020B7
:101EF0007FB505460C466A4621462846FFF761FE37
:101F000004F0010008B9002000E01020064610226D
:101F10006946304604F054F904B070BD10B5174856
:101F2000006808B1012010BD012007F069FF1349C6
:101F300008600846006808B90020F4E7002010494E
:101F400008701049087048700F49088048808880E0
:101F5000C8808860C8600874086201F04DFA0A49B8
:101F6000486101F04FFA0849886101F051FA0649C9
:101F7000C8610020054908700120D4E71C0000203A
:101F80001800002019000020680400202000002014
:101F900010B504460748006808B9002010BD214666
:101FA0000448006808F066F9012800D1F6E700202F
:101FB000F4E700001C00002010B50548006830B1AF
:101FC00000231A4619460248006807F0CBFF10BDEF
:101FD0001C00002070B504460D46B4F90000B2F9AB
:101FE0000060B04225D1B4F90200B2F90260B042FB
:101FF0001FD1B4F90400B2F90460B04219D1B4F9A8
:102000000600B2F90660B04213D1206A166AB042E7
:102010000FD1A0689668B0420BD1E068D668B04294
:1020200007D1207C167CB04203D128781E78B042BC
:1020300001D0012070BD00210DE004F1140050F822
:10204000216002F1140050F82100864201D00120E5
:10205000F0E7481CC1B20329EFD30020EAE70000F3
:1020600008B50648006840B1002002230246014638
:1020700000900248006808F02BFA08BD3C000020E0
:1020800094B0242101A8FEF717F900200090012444
:1020900008F00EFB1749086000BF642201210020F0
:1020A00007F058FA4FF0FF30FFF772FF0028F4D026
:1020B000242211490BA8FEF7E6F8104800880A9080
:1020C000FFF77AFF3CB96B4601AA0AA90BA8FFF7F4
:1020D00081FF0028E1D00AA90BA8FFF78FFB002899
:1020E000DBD024220BA901A8FEF7CDF80A980090B6
:1020F0000024D2E73C0000206804002019000020E2
:102100001CB50024002500F081FA30B95D225FA1E2
:1021100063A000F039FB00BFFEE7FFF747FC00F0CB
:10212000E3F928B9692259A167A000F02DFB0DE061
:10213000FFF780F928B96D2254A16DA000F024FBAF
:1021400004E001244FF4FA6000F07EFF00F0D2FBBF
:1021500028B978224DA16DA000F016FB00E0012502
:10216000FFF7DCFE30B9852248A16FA000F00CFB20
:1021700000BFFEE7FEF7F4FE30B98E2243A175A042
:1021800000F002FB00BFFEE7FFF75CFD20B1012875
:1021900008D0022812D10BE097223CA174A000F0D5
:1021A000F3FA11E09A2239A179A000F0EDFA0BE0E0
:1021B0009D2236A182A000F0E7FA05E0A02233A11B
:1021C0008AA000F0E1FA00BF00BFFEF763FC30B95F
:1021D000A6222EA18EA000F0D7FA00BFFEE7FEF7E0
:1021E000A3FCFEF7A9FE002001210346C022CDE991
:1021F00000108EA18F4808F04FF9012807D04FF446
:10220000847222A18CA000F0BFFA00BFFEE700207C
:1022100001210346C022CDE9001090A1924808F0A8
:102220003BF9012807D040F2111218A18FA000F04D
:10223000ABFA00BFFEE78CB10020012103460A0281
:10224000CDE9001093A1944808F026F9012805D0A3
:1022500040F21B120DA191A000F096FA8DB1002062
:10226000012103460A02CDE9001095A1954808F026
:1022700013F9012805D040F2231204A192A000F026
:1022800083FA07F08FFC00BFFEE70000557365720C
:102290005C4170705C4170705F6D61696E2E6300AF
:1022A0005B25733A25645D493243322062757320A1
:1022B0006D75746578206372656174652066616907
:1022C0006C65640D0A0000005B25733A25645D4966
:1022D00032433120627573206D75746578206372A6
:1022E00065617465206661696C65640D0A000000B3
:1022F0005B25733A25645D4F4C454420696E6974D3
:10230000206661696C65640D0A0000005B25733A04
:1023100025645D4B657920696E6974206661696C1E
:1023200065640D0A000000005B25733A25645D5367
:10233000797374656D207374617465206D7574654F
:102340007820637265617465206661696C65640DEF
:102350000A0000005B25733A25645D4D6F746F724F
:1023600020696E6974206661696C65640D0A0000FD
:102370005B25733A25645D557365722073657474CB
:10238000696E6773206C6F616465640D0A000000FC
:102390005B25733A25645D4E6F2076616C6964201D
:1023A000757365722073657474696E67732C20751C
:1023B00073652064656661756C74730D0A000000B6
:1023C0005B25733A25645D5573657220736574747B
:1023D000696E677320454550524F4D20756E61768A
:1023E00061696C61626C650D0A0000005B25733ADF
:1023F00025645D557365722073657474696E6773C7
:1024000020696E6974206661696C65640D0A00005C
:102410005B25733A25645D42757A7A657220696E30
:102420006974206661696C65640D0A0053746F728B
:1024300061676500151E00085B25733A25645D53CE
:10244000746F72616765207461736B20637265617C
:102450007465206661696C65640D0A0052756E438F
:102460006F6E74726F6C0000651A00085B25733A1A
:1024700025645D52756E20636F6E74726F6C20748C
:1024800061736B20637265617465206661696C6558
:10249000640D0A0055490000812000085B25733A4D
:1024A00025645D4F4C4544207461736B20637265F5
:1024B000617465206661696C65640D0A0000000046
:1024C0004B657900E50D00085B25733A25645D4B8B
:1024D0006579207461736B20637265617465206631
:1024E00061696C65640D0A0010B50C48006808B19C
:1024F000012010BD0A4800680A49884201D0002026
:10250000F7E7012007F07CFC0449086008460068F2
:1025100008B10120EDE70020EBE700006400002097
:1025200028010020005400402DE9F04106460C46E9
:10253000174614B90120BDE8F08100F013F80546F4
:102540000DB90220F7E73B4622463146044801F028
:102550004DF88046284600F04BF84046EBE7000077
:102560002801002010B500BFEFF3058008B100205E
:1025700010BD0D48006808B90020F9E708F09EF882
:102580000446012C01D10220F2E7022C01D00020E8
:10259000EEE74FF0FF310448006807F06BFE0128BA
:1025A00000D1E5E70020E3E7640000202DE9F843CF
:1025B00007460C461546984604B115B90120BDE8FA
:1025C000F883FFF7CFFF06460EB90220F7E72B4648
:1025D000224639460548CDF8008001F0E3F88146EF
:1025E000304600F005F84846E9E7000028010020E1
:1025F00010B50446012C06D100231A46194602489C
:10260000006807F0AFFC10BD6400002010B50C4856
:10261000006808B1012010BD0A4800680A498842D4
:1026200001D00020F7E7012007F0EAFB0449086029
:102630000846006808B10120EDE70020EBE7000044
:10264000600000207C010020005800402DE9F0418E
:1026500006460C46174614B90120BDE8F08100F08B
:1026600013F805460DB90220F7E73B4622463146EE
:10267000044800F0BBFF8046284600F075F840464D
:10268000EBE700007C01002010B500BFEFF30580F0
:1026900008B1002010BD0D48006808B90020F9E716
:1026A00008F00CF80446012C01D10220F2E7022CBC
:1026B00001D00020EEE74FF0FF310448006807F03A
:1026C000D9FD012800D1E5E70020E3E76000002004
:1026D0002DE9FE4F06460F4690461C46DDE90C9B51
:1026E00014B1B9F1000F02D10120BDE8FE8FFFF750
:1026F000CBFF05460DB90220F7E743463A4631467F
:1027000005488DE8100A01F005F98246284600F0D8
:102710002BF85046E9E700007C0100202DE9FE4F30
:1027200006460F4690461C46DDE90C9B14B1B9F1F4
:10273000000F02D10120BDE8FE8FFFF7A5FF05467F
:102740000DB90220F7E743463A46314605488DE881
:10275000100A01F099FA8246284600F005F8504622
:10276000E9E700007C01002010B50446012C06D1E9
:1027700000231A4619460248006807F0F3FB10BD13
:102780006000002000BFFEE70FB410B5C2B044984F
:1027900018B942B010BC5DF814FB45A801904FF485
:1027A000807102A8019B449A04F068FC0446002052
:1027B0000190002C00DCECE7FF2C00D9FF24A2B232
:1027C000C82302A9024803F034F900BFE1E7000082
:1027D0009003002070477047014601F00F000A1176
:1027E00002EB820200EB4200C0B2704710B5322209
:1027F0000321D020FFF72AFF08B9012010BD0020D7
:10280000FCE77FB5044654B13220072102AB012218
:10281000CDE900100021D020FFF75AFF10B10020B1
:1028200004B070BD9DF8081001F07F00FFF7D4FFE1
:1028300020709DF8091001F07F00FFF7CDFF607058
:102840009DF80A5005F04000B8B105F01F00FFF7F1
:10285000C3FFA07005F0200030B1A0780C2803D28F
:10286000A0780C30A0700DE005F0200050B9A078E1
:102870000C2807D10020A07004E005F03F00FFF70E
:10288000ABFFA0709DF80B1001F00700FFF7A4FF4D
:10289000E0709DF80C1001F03F00FFF79DFF2071E4
:1028A0009DF80D1001F01F00FFF796FF60719DF875
:1028B0000E00FFF791FF00F5FA60E08020783C28D9
:1028C00016D260783C2813D2A078182810D2E0786D
:1028D00070B1E07807280BD8207948B120791F28FB
:1028E00006D8607920B160790C2801D8012097E7DB
:1028F000002095E710B5002418E00F4830F81410B8
:102900000E4800F065FD0E4908550846005D0D496A
:10291000085500200C4908550C4941F824000C4981
:1029200041F824000B490855601CC4B2042CE4DBB8
:1029300001200949087010BDE6C5000800100140DB
:10294000680000206C000020700000204C0900206E
:102950005C09002074000020780000202DE9F0417F
:10296000054600274348007800B115B90020BDE8AE
:10297000F081002028706870002476E03E4830F82E
:1029800014103E4800F024FD06463D48005DB0426C
:1029900005D03B48065501203A49085563E03948BF
:1029A000005D032805D23748005D401C35490855B5
:1029B00059E03548005DB0421DD0334806554EB948
:1029C0000020324941F82400314941F824003149BE
:1029D000085510E02F48005D20B91FB92C70012068
:1029E000687001270020294941F82400284941F84E
:1029F0002400284908552448005D98BB234850F816
:102A000024000A30214941F824002248005D90B991
:102A1000084650F82400B0F5167F0CD301201D495C
:102A2000085500201A4941F82400DFB92C70022013
:102A30006870012716E01748005D98B1144850F8F7
:102A400024000A30124941F82400084650F82400B6
:102A5000782807D3002041F824001FB92C700320E8
:102A60006870012700BF601CC4B2042C86DB3846A6
:102A70007DE7000078000020E6C500080010014056
:102A800068000020700000206C0000204C0900202D
:102A90005C0900207400002010B54FF4805000F055
:102AA000E9FA10BD10B5102000F0E4FA10BD10B521
:102AB000202000F0DFFA10BD72B600BFFEE7000074
:102AC00038B5024600230020009000BF92F8240091
:102AD000012801D1022038BD012082F8240000BF66
:102AE0004868072812D21068406B0C79641E04EB0A
:102AF00084051F24AC40A0430D796D1E05EB8505B0
:102B00000C68AC4020431468606327E048680D28D7
:102B100012D21068006B0C79E41F04EB84051F24AB
:102B2000AC40A0430D79ED1F05EB85050C68AC406A
:102B300020431468206311E01068C06A0C790D3CD2
:102B400004EB84051F24AC40A0430D790D3D05EB3B
:102B500085050C68AC4020431468E06208680A28C8
:102B600012D31068C0680C780A3C04EB44050724B3
:102B7000AC40A0430D780A3D05EB45058C68AC40A0
:102B800020431468E0600FE0106800690C7804EBE3
:102B900044050724AC40A0430D7805EB45058C683F
:102BA000AC402043146820610868102802D00868EF
:102BB000112827D1174C1068A0421ED110688068D8
:102BC00000F40000F0B91068806840F40000146858
:102BD000A0600868102815D10F4800680F4CB0FBA2
:102BE000F4F000EB80004000009002E00098401EEE
:102BF000009000980028F9D104E0906A40F020008D
:102C00009062012300BF002082F8240000BF184614
:102C100061E70000002401400C00002040420F004A
:102C20002DE9F0410446002700250026A84614B9E6
:102C30000120BDE8F081A06810B1207D00B100BF87
:102C4000A06A30B90020E06284F82400204600F039
:102C500097F82046FDF7EFFE0746A06A00F0100047
:102C6000002873D1002F7ED1A06A20F4885040F054
:102C70000200A0623F4AD4E90001904208D1E06915
:102C8000B0F5402F02D14FF4002002E0E06900E0EF
:102C9000E0690143207B41EA40000643A068B0F5AB
:102CA000807F02D0A068012802D14FF4807000E03C
:102CB00000200543207D012811D1207B38B9A0696F
:102CC000401E4FF4006141EA4030054307E0A06A2E
:102CD00040F02000A062E06A40F00100E06220685D
:102CE000406820F469402843216848602068806873
:102CF00021490840304321688860A068B0F5807F92
:102D000002D0A068012802D14FF4807000E00020BA
:102D1000B0F5807F03D1208A401E4FEA005820681A
:102D2000C06A20F4700040EA08002168C862206888
:102D3000806812490840B04209D10020E062A06AD0
:102D400020F0020040F00100A06211E00BE0A06A58
:102D500020F0020040F01000A062E06A40F00100A4
:102D6000E062012704E0A06A40F01000A0620127A1
:102D700038465EE7003C0140FDF7E1FFFE0E1FFF15
:102D800010B586B004460020029003900490059090
:102D90002849206888424BD100BF2748806940F409
:102DA0000070254988610846806900F40070019030
:102DB00000BF00BF00BF0846806940F01000886176
:102DC0000846806900F01000019000BF00BF00BFFE
:102DD0000846806940F0040088610846806900F078
:102DE0000400019000BF00BF00BF0846806940F0AA
:102DF000080088610846806900F00800019000BF63
:102E000000BF012002900320039002A90B4800F0AC
:102E10003FF9102002900320039002A9084800F017
:102E200037F903200290039002A9064800F030F918
:102E300006B010BD00240140001002400010014007
:102E400000080140000C01400146002291F82100D9
:102E5000022808D00420886300BF002081F82000E9
:102E600000BF012070470868006820F00E000B6862
:102E700018600868006820F001000B68186091F87D
:102E8000403001209840CB6B5860012081F8210030
:102E900000BF002081F8200000BF1046E2E70000DC
:102EA00070B50446002594F82100022803D00420C0
:102EB000A0630125C1E02068006820F00E002168B1
:102EC00008602068006820F00100216808605C4903
:102ED0002068884252D95A4978392068884201D1FD
:102EE000012047E0564964392068884201D110200A
:102EF00040E0534950392068884201D1801539E0BB
:102F00004F493C392068884201D1801432E04C4955
:102F100028392068884202D14FF480302AE048499D
:102F200014392068884202D14FF4801022E04449CD
:102F30002068884201D140041CE042492068884250
:102F400001D1012016E03F4914312068884201D1A7
:102F500010200FE03B4928312068884201D18015BC
:102F600008E038493C312068884201D1801401E0F2
:102F70004FF480303349091F086051E030497839F7
:102F80002068884201D1012047E02D49643920683A
:102F9000884201D1102040E02949503920688842F8
:102FA00001D1801539E026493C392068884201D199
:102FB000801432E0224928392068884202D14FF437
:102FC00080302AE01E4914392068884202D14FF42B
:102FD000801022E01A492068884201D140041CE098
:102FE00018492068884201D1012016E015491431A2
:102FF0002068884201D110200FE012492831206852
:10300000884201D1801508E00E493C312068884291
:1030100001D1801401E04FF48030094980394860C3
:10302000012084F8210000BF002084F8200000BFA8
:10303000606B10B12046616B8847284670BD000068
:10304000800002400804024070B5044600F0CEF94A
:1030500006462546681C10B104480078054400BFA8
:1030600000F0C4F9801BA842FAD370BD080000200C
:103070007047000010B5044604480068204020B1A5
:10308000024804602046FFF7F3FF10BD140401401E
:103090002DE9F847024600239C467BE14FF00108EA
:1030A00008FA03F4D1F8008008EA0400A0427DD1B8
:1030B000DFF8F4A2D1F80480A8EB0A09D0453AD091
:1030C00014DCB8F1030F50D009DCB8F1000F31D097
:1030D000B8F1010F1CD0B8F1020F49D120E0B8F1CE
:1030E000110F18D0B8F1120F42D11EE0B9F5881FA8
:1030F00025D006DCB9F5803F20D0B9F5801F37D147
:103100001AE0B9F5001F18D0B9F5041F30D117E047
:10311000D1F80CC02DE0D1F80C8008F1040C28E0A7
:10312000D1F80C8008F1080C23E0D1F80C8008F1EC
:103130000C0C1EE000BF00BF00BF00BF00BF00BFFF
:10314000D1F80880B8F1000F02D14FF0040C0BE069
:10315000D1F80880B8F1010F03D14FF0080C1461C9
:1031600002E04FF0080C546103E04FF0000C00E067
:1031700000BF00BFFF2801D8904601E002F104081B
:103180004646FF2802D84FEA830803E0A3F1080867
:103190004FEA88084746D6F800804FF00F0909FA31
:1031A00007F928EA09080CFA07F900E07AE048EA8A
:1031B0000908C6F80080D1F8048008F08058B8F1FA
:1031C000805F6FD100BFDFF8E481D8F8188048F045
:1031D0000108DFF8D891C9F81880C846D8F81880D7
:1031E00008F00108CDF8008000BF00BF4FEAB938F1
:1031F0004FEA930958F829504FEA83784FEA187933
:103200004FF00F0808FA09F825EA0805DFF8A08151
:10321000424502D14FF0000824E0DFF89881424592
:1032200002D14FF001081DE0DFF88C81424502D148
:103230004FF0020816E0DFF88481424502D14FF0DA
:1032400003080FE0DFF87881424502D14FF004080F
:1032500008E0DFF87081424502D14FF0050801E037
:103260004FF006084FEA83794FEA197908FA09F80E
:1032700048EA0505DFF850814FEA930948F82950DC
:10328000D1F8048008F48018B8F5801F0BD1DFF85E
:103290003C81D8F8008048EA0008DFF83091C9F88E
:1032A00000800AE075E0DFF82481D8F8008028EA81
:1032B0000008DFF81891C9F80080D1F8048008F4FC
:1032C0000018B8F5001F0ED1DFF8008108F10408DE
:1032D000D8F8008048EA0008DFF8F09009F1040906
:1032E000C9F800800DE0DFF8E48008F10408D8F8A0
:1032F000008028EA0008DFF8D49009F10409C9F831
:103300000080D1F8048008F40038B8F5003F0ED1F1
:10331000DFF8B880A8F10408D8F8008048EA00086F
:10332000DFF8A890A9F10409C9F800800DE0DFF8E2
:103330009C80A8F10408D8F8008028EA0008DFF88B
:103340008C90A9F10409C9F80080D1F8048008F430
:103350008038B8F5803F0ED1DFF87080A8F10808FA
:10336000D8F8008048EA0008DFF86090A9F1080961
:10337000C9F800800DE0DFF85480A8F10808D8F8FB
:10338000008028EA0008DFF84490A9F10809C9F88C
:1033900000805B1CD1F8008028FA03F8B8F1000F18
:1033A0007FF47CAEBDE8F8870000111000100240E9
:1033B00000080140000C01400010014000140140D1
:1033C00000180140001C01400800014008040140B1
:1033D000024693680B400BB1012000E000207047CB
:1033E0000AB1016101E00B04036170470148006804
:1033F000704700000000002001480068704700008E
:10340000E8F7FF1F0148006870470000ECF7FF1F56
:103410000148006870470000F0F7FF1F70B50446D0
:103420000CB9012070BD94F83D0028B9002084F843
:103430003C00204600F0DAFC242084F83D0020689F
:10344000006820F00100216808602068006840F4EE
:103450000040216808602068006820F4004021686E
:10346000086000F0B7FF05465C496068884206D8EE
:103470005B48854201D2012007E0002005E0594861
:10348000854201D2012000E00020012800D1C9E7D7
:103490005548B5FBF0F62068406820F03F00304307
:1034A000216848604D496068884201D8701C07E077
:1034B0004FF4967070434FF47A71B0FBF1F0401CFA
:1034C0002168096A21F03F010843216808624349E5
:1034D0006068884214D8681E61684900B0FBF1F04A
:1034E000401CC0F30B00042801D204203DE0681EFC
:1034F00061684900B0FBF1F0401CC0F30B0034E000
:10350000A06838B9681E616801EB4101B0FBF1F0B9
:10351000401C0AE0681E616801EBC10202EB011168
:10352000B0FBF1F0401C40F48040C0F30B0008B940
:1035300001201AE0A06848B9681E616801EB4101EA
:10354000B0FBF1F0401CC0F30B000CE0681E61689A
:1035500001EBC10202EB0111B0FBF1F0401CC0F322
:103560000B0040F4804040F400402168C9694CF6EB
:10357000FF72914308432168C861D4E907010843F9
:103580002168096821F0C001084321680860D4E976
:10359000031008432168896848F2FF3291430843C9
:1035A00021688860D4E9050108432168C96821F0D1
:1035B000FF0108432168C8602068006840F00100EE
:1035C0002168086000202064202084F83D0000204D
:1035D000206384F83E0000BF24E70000A0860100BD
:1035E00080841E0000093D0040420F002DE9F84F85
:1035F00004460F4690461E46FFF7F8FE05464FF07C
:10360000000994F83D0020287ED119230122634946
:103610002046009502F041FC10B10220BDE8F88F71
:1036200000BF94F83C00012801D10220F6E70120F8
:1036300084F83C0000BF2068006800F0010028B951
:103640002068006840F00100216808602068006878
:1036500020F4006021680860242084F83D000020E8
:1036600020644F48E06200BF2068006840F480702A
:1036700021680860334600224FF001112046009572
:1036800002F00BFC58B12068006800F48070B0F5BF
:10369000807F02D14FF4007020640320BEE707F062
:1036A000FE0021680861FFF7A1FE05462068406919
:1036B000C0F3400A20684069C0F3802B10E0FFF798
:1036C00095FE401BB04200D816B9A02084F83D00FA
:1036D00020684069C0F3400A20684069C0F3802B2D
:1036E00094F83D00A02805D0BAF1000F02D1BBF13B
:1036F000000FE4D0202084F83D0020684069C0F32A
:10370000400028B3206800E045E0006840F4007005
:103710002168086000BF0020009020684069009088
:1037200020688069009000BF00BF192301221B4957
:103730002046009502F0B1FB08B101206EE7202081
:1037400084F83D0000BF002084F83C0000BF65E71E
:103750002068006840F40070216808606FF48060A1
:1037600021684861192301220C492046009502F086
:1037700094FB08B1012051E709F10109C145FFF4AB
:1037800073AF202084F83D0000BF002084F83C0087
:1037900000BF012042E7022040E7000002001000C5
:1037A0000000FFFF2DE9F8430446894616461F46F0
:1037B000DDF82080FFF71AFE054694F83D0020282A
:1037C0007ED11923012251492046009502F065FB64
:1037D00010B10220BDE8F88300BF94F83C00012836
:1037E00001D10220F6E7012084F83C0000BF2068E8
:1037F000006800F0010028B92068006840F001006E
:10380000216808602068006820F400602168086072
:10381000212084F83D00102084F83E000020206420
:1038200066626785608D20853948E0622B46424696
:103830004946204602F07EF908B10120CAE700BFE0
:103840000020009020684069009020688069009006
:1038500000BF00BF44E02A464146204602F03EFC3D
:1038600050B1206C042805D12068006840F4007035
:10387000216808600120ADE7606A0078216808616E
:10388000606A401C6062608D401E6085208D401E15
:10389000208520684069C0F3800070B1208D60B140
:1038A000606A007821680861606A401C6062608D0F
:1038B000401E6085208D401E20852A46414600E03E
:1038C00022E0204602F0B6FA50B1206C042805D15F
:1038D0002068006840F4007021680860012079E7E2
:1038E000208D0028B7D12068006840F4007021685E
:1038F0000860202084F83D00002084F83E0000BFCE
:1039000084F83C0000BF65E7022063E70200100076
:103910000000FFFF2DE9FE4F04460F4690469946F2
:10392000DDE90CAB0E9E00200290FFF75FFD05461F
:1039300094F83D00202872D119230122CE49204657
:10394000009502F0AAFA10B10220BDE8FE8F00BF78
:1039500094F83C00012801D10220F6E7012084F808
:103960003C0000BF2068006800F0010028B9206812
:10397000006840F00100216808602068006820F4B9
:10398000006021680860222084F83D00402084F80F
:103990003E0000202064C4F824A0A4F82AB0608D62
:1039A0002085B648E0624B46424639462046CDE97E
:1039B000006502F01FF908B10120C6E7208D88B923
:1039C00000BF002001902068406901902068806954
:1039D000019000BF00BF2068006840F400702168BB
:1039E00008604BE0208D01281AD12068006820F47F
:1039F00080602168086072B600BF002001902068D6
:103A00004069019020688069019000BF00BF206874
:103A1000006840F400702168086062B62EE029E179
:103A2000208D022819D12068006840F400602168C8
:103A3000086072B600BF00200190206840690190C4
:103A400020688069019000BF00BF2068006820F4F2
:103A500080602168086062B610E02068006840F469
:103A600080602168086000BF0020019020684069E4
:103A7000019020688069019000BF00BFEBE0208DBD
:103A800003287DD8208D012815D12A4631462046AD
:103A900002F0DFFA08B1012057E720680069616A87
:103AA0000870606A401C6062208D401E2085608D19
:103AB000401E6085CFE0208D02282CD133460022A5
:103AC0006F492046009502F0E8F908B101203CE773
:103AD00072B62068006840F40070216808602068B1
:103AE0000069616A0870606A401C6062208D401E37
:103AF0002085608D401E608562B620680069616A1D
:103B00000870606A401C6062208D401E2085608DB8
:103B1000401E60859FE033460022594920460095AB
:103B200002F0BBF908B101200FE72068006820F41B
:103B300080602168086072B620680069616A087058
:103B4000606A401C6062208D401E2085608D401E92
:103B500060854C4800681921B0FBF1F04FF47A7190
:103B6000B0FBF1F0C0EBC00000EB8000029000BFA2
:103B70000298401E02900298A8B90020206300E03D
:103B800039E0202084F83D00002084F83E00206CBD
:103B900040F02000206462B600BF002084F83C00A2
:103BA00000BF0120D1E620684069C0F380000028F2
:103BB000DED02068006840F400702168086020684A
:103BC0000069616A0870606A401C6062208D401E56
:103BD0002085608D401E608562B620680069616A3C
:103BE0000870606A401C6062208D401E2085608DD8
:103BF000401E60852FE02A463146204602F029FA11
:103C000008B10120A1E620680069616A0870606A55
:103C1000401C6062208D401E2085608D401E6085A6
:103C200020684069C0F38000A8B1208D032805D129
:103C30002068006820F480602168086020680069BE
:103C4000616A0870606A401C6062208D401E208599
:103C5000608D401E6085208D00287FF410AF2020ED
:103C600084F83D00002084F83E0000BF84F83C004A
:103C700000BF6AE6022068E6020010000000FFFFB5
:103C8000040001000C0000202DE9FC5F04460F46F3
:103C900090469946DDE90CAB0E9EFFF7A7FB054663
:103CA00094F83D0020287DD1192301224D4920465A
:103CB000009502F0F2F810B10220BDE8FC9F00BFB1
:103CC00094F83C00012801D10220F6E7012084F895
:103CD0003C0000BF2068006800F0010028B920689F
:103CE000006840F00100216808602068006820F446
:103CF000006021680860212084F83D00402084F89D
:103D00003E0000202064C4F824A0A4F82AB0608DEE
:103D100020853548E0624B46424639462046CDE98B
:103D2000006502F017F808B10120C6E731E02A4625
:103D30003146204602F0D2F950B1206C042805D15A
:103D40002068006840F40070216808600120B4E732
:103D5000606A007821680861606A401C6062208D9A
:103D6000401E2085608D401E608520684069C0F33C
:103D7000800070B1208D60B1606A007821680861B0
:103D8000606A401C6062208D401E2085608D401E50
:103D90006085208D0028CAD12A463146204602F08F
:103DA00049F800E01CE050B1206C042805D12068DF
:103DB000006840F400702168086001207DE72068F9
:103DC000006840F4007021680860202084F83D00FD
:103DD000002084F83E0000BF84F83C0000BF6CE780
:103DE00002206AE7020010000000FFFF10B586B055
:103DF0000446002002900390049005902B4920680F
:103E0000884225D100BF2A48806940F0080028492F
:103E100088610846806900F00800019000BF00BF7B
:103E2000C0200290122003900320059002A921488F
:103E3000FFF72EF900BF1E48C06940F400101C496E
:103E4000C8610846C06900F40010019000BF2AE074
:103E500019492068884226D100BF1548806940F082
:103E60000800134988610846806900F00800019045
:103E700000BF00BF4FF44060029012200390032067
:103E8000059002A90B48FFF703F900BF0848C06975
:103E900040F480000649C8610846C06900F480000B
:103EA000019000BF00BF06B010BD000000540040EC
:103EB00000100240000C0140005800400348006818
:103EC0000349097808440149086070470000002050
:103ED0000800002010B50848006840F010000649AE
:103EE0000860032000F0DCF8042000F007F800F080
:103EF0005FF8002010BD0000002002402DE9F041D5
:103F000088B004460027B846002600BF2348C06991
:103F100040F010002149C8610846C06900F0100057
:103F2000019000BF00BF02A903A800F02BFA069F72
:103F30001FB900F04FFA054602E000F04BFA4500C9
:103F40001748B5FBF0F0A0F10108164816490860C3
:103F500040F2E7311448C160C0F8048000210161DB
:103F60008160816100F0EEFD064696B90E4800F0D2
:103F70005BFE06466EB9362000F044F8102C07D2DE
:103F800000222146362000F04DF80848046000E089
:103F90000126304608B0BDE8F08100000010024064
:103FA00040420F00001000402004002004000020C8
:103FB00008B500BF1148806940F001000F498861D1
:103FC0000846806900F00100009000BF00BF00BFFC
:103FD0000846C06940F08050C8610846C06900F0DA
:103FE0008050009000BF00BF00BF0549486820F026
:103FF000E06040F00070486000BF08BD0010024063
:104000000000014001460846002809DB00F01F03BC
:1040100001229A4043099B0003F1E023C3F80021E9
:1040200000BF70472DE9F05F80460D461646002719
:1040300003F03EF8074639462A46334601F00700AA
:10404000C0F1070ABAF1040F02D94FF0040A01E0E7
:10405000C0F1070AD14600F1040ABAF1070F02D2F3
:104060004FF0000A01E0A0F1030AD4464FF0010A24
:104070000AFA09FAAAF1010A0AEA020A0AFA0CFA89
:104080004FF0010B0BFA0CFBABF1010B0BEA030B2E
:104090004AEA0B042146404603F012F8BDE8F09FBF
:1040A00000BF00F00702064B19684FF6FF031940E6
:1040B000044B0B4343EA0221014B196000BF7047D8
:1040C0000CED00E00000FA05F8B5044600260025D6
:1040D000207800F0010000286BD000274348C06919
:1040E00000F0805070B900BF4048C06940F0805077
:1040F0003E49C8610846C06900F08050009000BF8A
:1041000000BF01273A48006800F48070B0B9384811
:10411000006840F4807036490860FFF767F906468A
:1041200006E0FFF763F9801B642801D90320F8BD7E
:104130002F48006800F480700028F2D02B48006AF5
:1041400000F440752DB3A08800F44070A84220D040
:104150002648006A20F440750120264908600020A6
:1041600008602248056205F0010090B1FFF73EF9B2
:10417000064608E0FFF73AF9801B41F28831884291
:1041800001D90320D3E71948006A00F00200002893
:10419000F0D01648006A20F4407061680843134963
:1041A0000862012F04D10846C06920F08050C86120
:1041B00000BF207800F00200022807D10B484068B9
:1041C00020F44040A168084308494860207800F086
:1041D0001000102807D10548406820F4800061696C
:1041E0000843024948600020A1E700000010024097
:1041F000007000404004424270B504460D460CB9C0
:10420000012070BD5A48006800F00700A8420ED295
:104210005748006820F007002843554908600846C1
:10422000006800F00700A84201D00120E9E72078EB
:1042300000F0020002281DD1207800F004000428BC
:1042400005D14C48406840F4E0604A494860207815
:1042500000F00800082805D14648406840F4605046
:10426000444948604348406820F0F000A168084392
:1042700040494860207800F0010078B36068012868
:1042800006D13C48006800F4003090B90120B8E73E
:104290006068022806D13748006800F0007040B915
:1042A0000120AEE73348006800F0020008B90120A1
:1042B000A7E73048406820F00300616808432D49B3
:1042C0004860FFF793F8064609E0FFF78FF8801B78
:1042D00041F28831884202D9032092E707E025485D
:1042E000406800F00C006168B0EB810FEDD1204810
:1042F000006800F00700A8420ED91D48006820F0B1
:10430000070028431A4908600846006800F00700C3
:10431000A84201D0012074E7207800F004000428AE
:1043200007D11448406820F4E060E168084311496F
:104330004860207800F00800082808D10D4840683F
:1043400020F46050216940EAC1000A49486000F049
:1043500061F808494968C1F30311074A515CC84034
:104360000649086006480068FFF7C8FD002048E7D6
:1043700000200240001002400EAE00080C00002099
:10438000040000200F2202600D4A526802F003026E
:1043900042600B4A526802F0F0028260084A52689A
:1043A00002F4E062C260064A526802F46052D20827
:1043B0000261044A126802F007020A6070470000B6
:1043C00000100240002002400148006870470000D1
:1043D0000C00002000B5FFF7F7FF04494968C1F35E
:1043E0000221034A515CC84000BD00000010024099
:1043F0001EAE000800B5FFF7E7FF04494968C1F3A6
:10440000C221034A515CC84000BD000000100240B8
:104410001EAE000870B500210022002400230020F9
:10442000134D696801F00C05F5B1042D02D0082D7B
:1044300019D101E00F4819E00F4DC1F38346AB5D80
:1044400001F4803555B10A4D6D68C5F340450B4EFA
:10445000725D084D5D43B5FBF2F402E0084D03FBCD
:1044600005F4204602E000BF024800BF00BF70BD57
:104470000010024000127A00FCAD00080CAE0008EB
:1044800000093D00F8B504460CB90120F8BD2078BC
:1044900000F00100002878D0F848406800F00C00D7
:1044A00004280CD0F548406800F00C00082811D111
:1044B000F248406800F48030B0F5803F0AD1EF4800
:1044C000006800F4003000285FD0606800285CD1EC
:1044D0000120DBE700BF6068B0F5803F06D1E74808
:1044E000006840F48030E549086028E0606858B909
:1044F000E248006820F48030E0490860084600681F
:1045000020F4802008601AE06068B0F5A02F0BD17D
:10451000DA48006840F48020D849086008460068FE
:1045200040F4803008600AE0D448006820F480300D
:10453000D24908600846006820F48020086000BF67
:10454000606888B1FEF752FF054606E0FEF74EFFB1
:10455000401B642801D9032098E7C848006800F48C
:1045600000300028F2D010E0FEF740FF054606E0DC
:10457000FEF73CFF401B642801D9032086E7BF48B3
:10458000006800F400300028F2D1207800F002002A
:10459000022857D1B948406800F00C0050B1B74824
:1045A000406800F00C00082818D1B448406800F4B6
:1045B000803098B9B148006800F0020020B120694D
:1045C000012801D0012061E7AC48006820F0F80024
:1045D000616940EAC100A949086033E02069E8B197
:1045E0000120A7490860FEF701FF054606E0FEF737
:1045F000FDFE401B022801D9032047E79F480068C1
:1046000000F002000028F2D09C48006820F0F8007A
:10461000616940EAC1009949086013E000209849A7
:104620000860FEF7E3FE054606E0FEF7DFFE401BEE
:10463000022801D9032029E79048006800F0020011
:104640000028F2D1207800F0080008282DD1A069B8
:10465000B8B101208B490860FEF7C8FE054606E0A8
:10466000FEF7C4FE401B022801D903200EE7834851
:10467000406A00F002000028F2D0012002F018F990
:1046800013E000207F490860FEF7B0FE054606E013
:10469000FEF7ACFE401B022801D90320F6E677485E
:1046A000406A00F002000028F2D1207800F00400F7
:1046B000042873D100277148C06900F0805070B998
:1046C00000BF6E48C06940F080506C49C861084620
:1046D000C06900F08050009000BF00BF01276A4809
:1046E000006800F48070B0B96748006840F48070DA
:1046F00065490860FEF77AFE054606E0FEF776FE9D
:10470000401B642801D90320C0E65F48006800F41C
:1047100080700028F2D000BFE068012806D1574819
:10472000006A40F001005549086227E0E06858B986
:104730005248006A20F00100504908620846006AA9
:1047400020F00400086219E0E06805280BD14B480E
:10475000006A40F00400494908620846006A40F0D7
:10476000010008620AE04548006A20F00100434960
:1047700008620846006A20F00400086200BFE06892
:10478000A0B1FEF733FE054609E0FEF72FFE401B01
:1047900041F28831884202D9032077E622E0374887
:1047A000006A00F002000028EFD012E0FEF71EFEC3
:1047B000054608E0FEF71AFE401B41F288318842A8
:1047C00001D9032062E62D48006A00F002000028AB
:1047D000F0D1012F05D12948C06920F08050274928
:1047E000C86100BFE069C8B32448406800F00C000D
:1047F000082860D0E069022848D1002020490866D6
:10480000FEF7F4FD054606E0FEF7F0FD401B02282A
:1048100001D903203AE61948006800F0007000282A
:10482000F2D1206AB0F5803F07D11448406820F4E7
:104830000030A168084311494860D4E908010843E1
:104840000E49496821F4741108430C49486001205D
:104850000B490866FEF7CAFD054607E03DE0FEF796
:10486000C5FD401B022801D903200FE6034800685C
:1048700000F000700028F2D02FE00000001002408D
:10488000000042428004424200700040002014496F
:104890000866FEF7ABFD054606E0FEF7A7FD401BE8
:1048A000022801D90320F1E50E48006800F00070ED
:1048B0000028F2D111E0E069012800D1E6E50948BD
:1048C000466806F48031206A814204D106F47011F2
:1048D000606A814201D00120D8E50020D6E50000C1
:1048E000000042420010024010B504460CB90120FD
:1048F00010BD606A38B96068B0F5827F00D105E00C
:104900000021E16102E00021216161610021A162D9
:1049100094F8510028B9002084F85000204600F097
:1049200043F8022084F851002068006820F040001D
:1049300021680860A08800F48270218901F4044194
:104940000843A18901F400610843217C01F00201C0
:104950000843217D01F001010843218B01F400711E
:104960000843217F01F0380108432021095D01F04F
:1049700080010843218D01F400510843216808603B
:104980000421A06901EA1040216848602068C069DC
:1049900020F400602168C86100206065012084F86F
:1049A00051000020A4E7000010B586B004460020A6
:1049B00002900390049005901A49206888422FD1F4
:1049C00000BF1948C06940F480401749C8610846D3
:1049D000C06900F48040019000BF00BF00BF0846DE
:1049E000806940F0080088610846806900F008008E
:1049F000019000BF00BF4FF42040029002200390BE
:104A00000320059002A90948FEF742FB4FF48040BD
:104A1000029000200390049002A90448FEF738FB9E
:104A200006B010BD0038004000100240000C0140EC
:104A30007047704710B50346002200BF93F83C0052
:104A4000012801D1022010BD012083F83C0000BFE5
:104A500022F0FF00CC6840EA040222F440708C6827
:104A600040EA040222F480604C6840EA040222F426
:104A700000600C6840EA040222F480500C6940EAAD
:104A8000040222F400504C6940EA040222F48040FF
:104A9000CC6940EA04021868426400BF002083F831
:104AA0003C0000BF00BFCEE730B502460B4600BF5A
:104AB00092F83C00012801D1022030BD012082F88B
:104AC0003C0000BF022082F83D0010684468106876
:104AD000816824F070041868044310684460144D21
:104AE0001068A84213D0134D1068A8420FD0106868
:104AF000B0F1804F0BD0104D1068A84207D00F4D79
:104B00001068A84203D00E4D1068A84205D121F0CC
:104B100080015868014310688160012082F83D00DF
:104B200000BF002082F83C0000BF00BFC5E70000C6
:104B3000002C014000340140000400400008004007
:104B4000000C004010B504460CB9012010BD94F8CB
:104B50003D0028B9002084F83C00204600F026F8EB
:104B6000022084F83D00211D206801F019FF01207A
:104B700084F8460000BF84F83E0001213F20015523
:104B8000402001554120015500BF00BF012084F89D
:104B9000420043200155442001554520015500BFE6
:104BA000012084F83D000020D0E7000008B51B4A32
:104BB000016891420DD100BF1949896941F4006132
:104BC000174A91611146896901F40061009100BFA3
:104BD00023E00168B1F1804F0DD100BF1049C969D0
:104BE00041F001010E4AD1611146C96901F001018C
:104BF000009100BF11E00B4A016891420DD100BF46
:104C00000749C96941F00401054AD1611146C969E2
:104C100001F00401009100BF00BF08BD002C01405D
:104C20000010024000080040014691F83D000128B4
:104C300001D001207047022081F83D000868C0685B
:104C400040F001000B68D860164B0868984213D0FA
:104C5000154B086898420FD00868B0F1804F0BD010
:104C6000124B0868984207D0114B0868984203D04D
:104C7000104B086898420CD10868806800F0070261
:104C8000062A0CD00868006840F001000B68186024
:104C900005E00868006840F001000B68186000201B
:104CA000C8E70000002C014000340140000400402F
:104CB00000080040000C00402DE9F04104460D467C
:104CC000002700BF94F83C00012802D10220BDE873
:104CD000F081012084F83C0000BF022084F83D00F0
:104CE0002068866826F0770626F47F46206886606E
:104CF0002868502833D00CDC202850D004DC002851
:104D00004BD0102851D149E0302849D040284CD10F
:104D100039E060282DD0702807D0B0F5805F03D02F
:104D2000B0F5005F41D10DE041E0D5E902136A68BA
:104D3000206801F09CFE2068866846F077062068AF
:104D4000866034E0D5E902136A68206801F08FFEBE
:104D50002068806840F480402168886027E0EA6825
:104D60006968206801F074FF5021206801F08AFE14
:104D70001DE0EA686968206801F07DFF6021206815
:104D800001F080FE13E0EA686968206801F060FFC6
:104D90004021206801F076FE09E000BF00BF00BF9F
:104DA0002968206801F06EFE01E0012700BF00BF06
:104DB000012084F83D0000BF002084F83C0000BFC3
:104DC000384684E72DE9F04104460D4614B9012028
:104DD000BDE8F08194F83D0028B9002084F83C003B
:104DE000204600F051F8022084F83D0020688068D9
:104DF00044F20701884321688860211D206801F082
:104E0000CFFD2068D0F80880206886692068076A8E
:104E1000286840EA080840F203308643A969A86878
:104E200040EA0120064340F60C4086434FF2F00072
:104E30008643E969E86840EA0120064328690001E1
:104E4000296A40EA0130064327F022076969686849
:104E500040EA011007432068C0F808802068866196
:104E600020680762012084F8460084F83E00012192
:104E70003F200155012084F84200432001550120C4
:104E800084F83D000020A3E710B586B0044600205A
:104E900002900390049005901A49206888422FD10F
:104EA00000BF1948C06940F002001749C8610846B0
:104EB000C06900F00200019000BF00BF00BF0846BB
:104EC000806940F0080088610846806900F00800A9
:104ED000019000BF00BF302002900020039001200D
:104EE000049002A90948FEF7D3F800BF08494868B2
:104EF00020F4406040F0E06040F40060486000BF93
:104F000006B010BD0004004000100240000C01403B
:104F1000000001402DE9F04304460D4694F83E6040
:104F20003F20075D94F84280432010F804906DB94B
:104F3000012E02D1B8F1010F02D00120BDE8F083AB
:104F4000022084F83E0084F8420025E0042D0CD1B4
:104F5000012F02D1B9F1010F01D00120EEE70221AA
:104F60003F2001554320015516E0012E07D1012FA6
:104F700005D1B8F1010F02D1B9F1010F01D0012023
:104F8000DCE7022084F83E0002213F200155022088
:104F900084F842004320015515B1042D0CD105E0E1
:104FA00001220021206801F051FD10E001220421BE
:104FB000206801F04BFD0AE001220021206801F089
:104FC00045FD01220421206801F040FD00BF00BF23
:104FD0002068006840F00100216808600020ADE70B
:104FE000704770B504462068C5682068066906F0F9
:104FF0000200022819D105F00200022815D1401F35
:1050000021680861012020772068806900F0030092
:1050100018B12046FFF7E4FF05E0204600F000F954
:10502000204600F0B4F90020207706F004000428A0
:1050300019D105F00400042815D1C0432168086186
:10504000022020772068806900F4407018B1204663
:10505000FFF7C6FF05E0204600F0E2F8204600F02A
:1050600096F90020207706F00800082819D105F0ED
:105070000800082815D1C043216808610420207762
:105080002068C06900F0030018B12046FFF7A8FFB0
:1050900005E0204600F0C4F8204600F078F9002032
:1050A000207706F01000102819D105F01000102804
:1050B00015D1C04321680861082020772068C069A5
:1050C00000F4407018B12046FFF78AFF05E0204643
:1050D00000F0A6F8204600F05AF90020207706F0EC
:1050E000010048B105F0010030B16FF00100216806
:1050F0000861204600F01AFA06F08000802809D1E5
:1051000005F08000802805D1C04321680861204651
:10511000FFF78EFC06F04000402809D105F0400062
:10512000402805D1C04321680861204600F00AFAF2
:1051300006F02000202809D105F02000202805D104
:10514000C043216808612046FFF773FC70BD000072
:1051500010B586B00446002002900390049005909C
:105160002A492068884217D100BF2948806940F049
:105170000400274988610846806900F00400019016
:1051800000BF00BF8815029002200390059002A97D
:105190002048FDF77DFF36E02068B0F1804F17D141
:1051A00000BF1B48806940F0040019498861084627
:1051B000806900F00400019000BF00BF0120029050
:1051C00002200390059002A91248FDF761FF1AE042
:1051D00011492068884216D100BF0D48806940F00F
:1051E00008000B4988610846806900F008000190BA
:1051F00000BF00BF8815029002200390059002A90D
:105200000648FDF745FF06B010BD0000002C014028
:10521000001002400008014000080040000C01405E
:1052200070472DE9F04104460D461646002700BFA1
:1052300094F83C00012802D10220BDE8F081012051
:1052400084F83C0000BF36B1042E1BD0082E31D0AC
:105250000C2E5ED145E02946206801F01DFC206837
:10526000806940F00800216888612068806920F02A
:1052700004002168886120688069296908432168E1
:10528000886148E02946206801F03EFC206880697A
:1052900040F40060216888612068806920F48060A3
:1052A0002168886120688069296940EA01202168B5
:1052B000886130E02946206801F064FC2068C069FC
:1052C00040F008002168C8612068C06920F004002F
:1052D0002168C8612068C069296908432168C861DC
:1052E00019E02946206801F089FC2068C06940F473
:1052F00000602168C8612068C06920F4806021686E
:10530000C8612068C069296940EA01202168C86134
:1053100001E0012700BF00BF00BF002084F83C006F
:1053200000BF384689E710B504460CB9012010BD0E
:1053300094F83D0028B9002084F83C00204600F095
:1053400025F8022084F83D00211D206801F028FB8B
:10535000012084F8460000BF84F83E0001213F2070
:105360000155402001554120015500BF00BF0120DB
:1053700084F8420043200155442001554520015541
:1053800000BF012084F83D000020D0E7704770473F
:1053900070B504460D4615B994F83E000BE0042D97
:1053A00002D13F20005D06E0082D02D14020005DC3
:1053B00001E04120005D012801D0012070BD1DB930
:1053C000022084F83E000EE0042D03D102213F208C
:1053D000015508E0082D03D102214020015502E0CB
:1053E00002214120015501222946206801F02EFBAF
:1053F0001F492068884203D01E492068884201D195
:10540000012000E0002028B12068406C40F40040FA
:105410002168486416492068884213D015492068DD
:1054200088420FD02068B0F1804F0BD0124920681D
:10543000884207D011492068884203D0104920686B
:1054400088420CD12068806800F00706062E0CD038
:105450002068006840F001002168086005E02068CD
:10546000006840F00100216808600020A6E7000005
:10547000002C0140003401400004004000080040BE
:10548000000C004030B504460D4600222946206835
:1054900001F0DCFA23492068884203D022492068C1
:1054A000884201D1012000E0002090B100BF2068B7
:1054B000006A41F21111084050B92068006A891051
:1054C000084028B92068406C20F4004021684864F6
:1054D00000BF00BF2068006A41F21111084050B9B6
:1054E0002068006A8910084028B92068006820F008
:1054F00001002168086000BF1DB9012084F83E004A
:105500000EE0042D03D101213F20015508E0082DB4
:1055100003D101214020015502E001214120015524
:10552000002030BD002C01400034014010B504467D
:1055300003492068884201D1FEF7C0FC10BD00007D
:105540000010004070477047704700002DE9F84F89
:105550000446206805682068C668206847694FF0DF
:105560000009CA4605F00F09B9F1000F0AD105F08C
:10557000200038B106F0200020B1204601F0E8FB01
:10558000BDE8F88FB9F1000F7BD007F0010018B922
:1055900006F49070002874D005F0010030B106F4D4
:1055A000807018B1606C40F00100606405F0040088
:1055B00030B107F0010018B1606C40F00200606487
:1055C00005F0020030B107F0010018B1606C40F046
:1055D0000400606405F0080048B106F0200010B92E
:1055E00007F0010018B1606C40F008006064606C66
:1055F000002845D005F0200028B106F0200010B1A9
:10560000204601F0A5FB20684069C0F3801A606C59
:1056100000F0080010B9BAF1000F2CD0204601F0BC
:1056200051FB2068406900F0400000B300BF00BF9C
:105630002168143151E8001F21F040002168143125
:1056400041E80002002AF3D100BFE06B50B1774877
:10565000E16B4863E06BFDF723FC88B1E06B416BC5
:1056600088470DE02046FFF76FFF09E009E020467C
:10567000FFF76AFF04E02046FFF766FF0020606442
:105680007EE7206B012877D105F01000002873D049
:1056900006F010000028FAD000BF0020009020681B
:1056A0000068009020684068009000BF00BF20683C
:1056B000406900F0400000285FD0E06B006840685F
:1056C0001FFA80F8B8F1000F55D0A08D404552DD8B
:1056D000A4F82E80E06B8069202843D000BF00BF73
:1056E00021680C3151E8001F21F4807021680C31D1
:1056F00041E80002002AF3D100BF00BF00BF2168CB
:10570000143151E8001F21F001002168143141E8F3
:105710000002002AF3D100BF00BF00BF216814318E
:1057200051E8001F21F040002168143141E80002D7
:10573000002AF3D100BF202084F84200002020631B
:1057400000BF00BF21680C3151E8001F21F010009C
:1057500021680C3141E80002002AF3D100BFE06B60
:10576000FDF772FB02206063A08DE28D801A81B28A
:105770002046FFF7E8FE03E742E0A08DE18D401AE6
:105780001FFA80F8E08DD0B3B8F1000F37D000BF1A
:1057900000BF21680C3151E8001F21F4907021688E
:1057A0000C3141E80002002AF3D100BF00BF00BF66
:1057B0002168143151E8001F21F0010021681431E3
:1057C00041E80002002AF3D100BF202084F8420003
:1057D0000020206300BF00BF21680C3151E8001F8A
:1057E00021F0100021680C3141E80002002AF3D1B9
:1057F00000BF0220606341462046FFF7A4FEBFE6DB
:1058000005F0800030B106F0800018B1204601F0AC
:105810009BFBB5E605F0400030B106F0400018B142
:10582000204601F085FAABE600BFA9E6B16C00089E
:1058300010B504460CB9012010BDA06900B100E00C
:1058400000BF94F8410028B9002084F840002046A9
:1058500000F02AF8242084F841002068C06820F471
:1058600000502168C860204601F0F0FA2068006905
:1058700020F49040216808612068406920F02A00E7
:10588000216848612068C06840F400502168C86001
:1058900000206064202084F8410084F84200002049
:1058A000606300BFC8E7000010B586B00446002062
:1058B000029003900490059057492068884238D19F
:1058C00000BF5648C06940F400205449C8610846EA
:1058D000C06900F40020019000BF00BF00BF08466F
:1058E000806940F0100088610846806900F010006F
:1058F000019000BF00BF0815029002200390032012
:10590000059002A94648FDF7C3FB4FF400600290E2
:10591000002003900120049002A94148FDF7B8FB44
:10592000002205213420FEF77DFB3420FEF76AFBC0
:105930006FE03C492068884230D100BF3748806919
:1059400040F48040354988610846806900F4804011
:10595000019000BF00BF00BF0846806940F004000E
:1059600088610846806900F00400019000BF00BF14
:1059700048150290022003900320059002A92A48AE
:10598000FDF786FB4FF48060029000200390012019
:10599000049002A92448FDF77BFB3AE023492068E4
:1059A000884236D100BF1D48C06940F400301B4911
:1059B000C8610846C06900F40030019000BF00BF14
:1059C00000BF0846806940F004008861084680698D
:1059D00000F00400019000BF00BF042002900220EC
:1059E00003900320059002A90F48FDF751FB082002
:1059F0000290002003900120049002A90A48FDF7BC
:105A000047FB002205212620FEF70CFB2620FEF78F
:105A1000F9FA06B010BD0000004C00400010024032
:105A200000100140003801400008014000440040DF
:105A300070472DE9F84F04460E46174699464FF039
:105A4000000A94F84100202850D106B117B901206E
:105A5000BDE8F88F00206064212084F84100FDF744
:105A6000C5FC8246A784E784A068B0F5805F04D1B6
:105A7000206910B90025B04602E035464FF0000815
:105A80001EE05346002280212046CDF8009001F010
:105A90008BFA20B1202084F841000320D8E745B9D3
:105AA000B8F80000C0F308002168486008F1020857
:105AB00003E02878216848606D1CE08C401EE0847B
:105AC000E08C0028DDD15346002240212046CDF84D
:105AD000009001F069FA20B1202084F841000320F1
